{
  "_format": "hh-sol-artifact-1",
  "contractName": "LegendsEscrow",
  "sourceName": "contracts/marketplace/escrow/LegendsEscrow.sol",
  "abi": [
    {
      "inputs": [],
      "stateMutability": "nonpayable",
      "type": "constructor"
    },
    {
      "anonymous": false,
      "inputs": [
        {
          "indexed": true,
          "internalType": "uint256",
          "name": "listingId",
          "type": "uint256"
        },
        {
          "indexed": true,
          "internalType": "address",
          "name": "payer",
          "type": "address"
        },
        {
          "indexed": false,
          "internalType": "uint256",
          "name": "amount",
          "type": "uint256"
        }
      ],
      "name": "BidPlaced",
      "type": "event"
    },
    {
      "anonymous": false,
      "inputs": [
        {
          "indexed": true,
          "internalType": "uint256",
          "name": "listingId",
          "type": "uint256"
        },
        {
          "indexed": true,
          "internalType": "address",
          "name": "payer",
          "type": "address"
        },
        {
          "indexed": false,
          "internalType": "uint256",
          "name": "amount",
          "type": "uint256"
        }
      ],
      "name": "BidRefunded",
      "type": "event"
    },
    {
      "anonymous": false,
      "inputs": [
        {
          "indexed": true,
          "internalType": "address",
          "name": "previousOwner",
          "type": "address"
        },
        {
          "indexed": true,
          "internalType": "address",
          "name": "newOwner",
          "type": "address"
        }
      ],
      "name": "OwnershipTransferred",
      "type": "event"
    },
    {
      "anonymous": false,
      "inputs": [
        {
          "indexed": true,
          "internalType": "address",
          "name": "payee",
          "type": "address"
        },
        {
          "indexed": false,
          "internalType": "uint256",
          "name": "amount",
          "type": "uint256"
        }
      ],
      "name": "PaymentDeposited",
      "type": "event"
    },
    {
      "anonymous": false,
      "inputs": [
        {
          "indexed": true,
          "internalType": "address",
          "name": "payee",
          "type": "address"
        },
        {
          "indexed": false,
          "internalType": "uint256",
          "name": "amount",
          "type": "uint256"
        }
      ],
      "name": "PaymentsWithdrawn",
      "type": "event"
    },
    {
      "anonymous": false,
      "inputs": [
        {
          "indexed": true,
          "internalType": "address",
          "name": "payee",
          "type": "address"
        },
        {
          "indexed": false,
          "internalType": "uint256",
          "name": "amount",
          "type": "uint256"
        }
      ],
      "name": "RoyaltiesWithdrawn",
      "type": "event"
    },
    {
      "inputs": [
        {
          "internalType": "uint256",
          "name": "listingId",
          "type": "uint256"
        },
        {
          "internalType": "address payable",
          "name": "payer",
          "type": "address"
        },
        {
          "internalType": "uint256",
          "name": "marketplaceFee",
          "type": "uint256"
        },
        {
          "internalType": "uint256",
          "name": "royaltyFee",
          "type": "uint256"
        },
        {
          "internalType": "address payable",
          "name": "legendCreator",
          "type": "address"
        },
        {
          "internalType": "address payable",
          "name": "payee",
          "type": "address"
        }
      ],
      "name": "closeBid",
      "outputs": [],
      "stateMutability": "nonpayable",
      "type": "function"
    },
    {
      "inputs": [
        {
          "internalType": "uint256",
          "name": "listingId",
          "type": "uint256"
        },
        {
          "internalType": "address",
          "name": "payer",
          "type": "address"
        }
      ],
      "name": "depositBid",
      "outputs": [],
      "stateMutability": "payable",
      "type": "function"
    },
    {
      "inputs": [
        {
          "internalType": "uint256",
          "name": "marketplaceFee",
          "type": "uint256"
        },
        {
          "internalType": "uint256",
          "name": "royaltyFee",
          "type": "uint256"
        },
        {
          "internalType": "address payable",
          "name": "legendCreator",
          "type": "address"
        },
        {
          "internalType": "address payable",
          "name": "payee",
          "type": "address"
        }
      ],
      "name": "depositPayment",
      "outputs": [],
      "stateMutability": "payable",
      "type": "function"
    },
    {
      "inputs": [
        {
          "internalType": "uint256",
          "name": "listingId",
          "type": "uint256"
        },
        {
          "internalType": "address",
          "name": "bidder",
          "type": "address"
        }
      ],
      "name": "fetchBidPlaced",
      "outputs": [
        {
          "internalType": "uint256",
          "name": "",
          "type": "uint256"
        }
      ],
      "stateMutability": "view",
      "type": "function"
    },
    {
      "inputs": [
        {
          "internalType": "address",
          "name": "payee",
          "type": "address"
        }
      ],
      "name": "fetchPaymentsPending",
      "outputs": [
        {
          "internalType": "uint256",
          "name": "",
          "type": "uint256"
        }
      ],
      "stateMutability": "view",
      "type": "function"
    },
    {
      "inputs": [
        {
          "internalType": "address",
          "name": "payee",
          "type": "address"
        }
      ],
      "name": "fetchRoyaltiesAccrued",
      "outputs": [
        {
          "internalType": "uint256",
          "name": "",
          "type": "uint256"
        }
      ],
      "stateMutability": "view",
      "type": "function"
    },
    {
      "inputs": [],
      "name": "owner",
      "outputs": [
        {
          "internalType": "address",
          "name": "",
          "type": "address"
        }
      ],
      "stateMutability": "view",
      "type": "function"
    },
    {
      "inputs": [
        {
          "internalType": "uint256",
          "name": "listingId",
          "type": "uint256"
        },
        {
          "internalType": "address payable",
          "name": "payee",
          "type": "address"
        }
      ],
      "name": "refundBid",
      "outputs": [],
      "stateMutability": "payable",
      "type": "function"
    },
    {
      "inputs": [],
      "name": "renounceOwnership",
      "outputs": [],
      "stateMutability": "nonpayable",
      "type": "function"
    },
    {
      "inputs": [
        {
          "internalType": "address",
          "name": "newOwner",
          "type": "address"
        }
      ],
      "name": "transferOwnership",
      "outputs": [],
      "stateMutability": "nonpayable",
      "type": "function"
    },
    {
      "inputs": [
        {
          "internalType": "address payable",
          "name": "payee",
          "type": "address"
        }
      ],
      "name": "withdrawPayments",
      "outputs": [],
      "stateMutability": "nonpayable",
      "type": "function"
    },
    {
      "inputs": [
        {
          "internalType": "address payable",
          "name": "payee",
          "type": "address"
        }
      ],
      "name": "withdrawRoyalties",
      "outputs": [],
      "stateMutability": "nonpayable",
      "type": "function"
    }
  ],
  "bytecode": "0x608060405234801561001057600080fd5b5061001a33610031565b600180546001600160a01b03191633179055610081565b600080546001600160a01b038381166001600160a01b0319831681178455604051919092169283917f8be0079c531659141344cd1fd0a4f28419497f9722a3daafe3b4186f6b6457e09190a35050565b610c89806100906000396000f3fe6080604052600436106100c75760003560e01c8063715018a611610074578063968db7831161004e578063968db78314610210578063d3e88c5f14610230578063f2fde38b1461026657600080fd5b8063715018a6146101c05780637c9fe43a146101d55780638da5cb5b146101e857600080fd5b80632408c803116100a55780632408c8031461013d57806331b3eb941461015d578063340d3b501461017d57600080fd5b806303073828146100cc5780631ca44e95146100e15780631f282bac146100f4575b600080fd5b6100df6100da366004610b1f565b610286565b005b6100df6100ef366004610b97565b610353565b34801561010057600080fd5b5061012a61010f366004610acd565b6001600160a01b031660009081526002602052604090205490565b6040519081526020015b60405180910390f35b34801561014957600080fd5b506100df610158366004610b31565b61049d565b34801561016957600080fd5b506100df610178366004610acd565b6105a9565b34801561018957600080fd5b5061012a610198366004610af0565b60009182526003602090815260408084206001600160a01b0393909316845291905290205490565b3480156101cc57600080fd5b506100df610672565b6100df6101e3366004610af0565b6106d8565b3480156101f457600080fd5b506000546040516001600160a01b039091168152602001610134565b34801561021c57600080fd5b506100df61022b366004610acd565b6107a8565b34801561023c57600080fd5b5061012a61024b366004610acd565b6001600160a01b031660009081526004602052604090205490565b34801561027257600080fd5b506100df610281366004610acd565b610865565b6000546001600160a01b031633146102e55760405162461bcd60e51b815260206004820181905260248201527f4f776e61626c653a2063616c6c6572206973206e6f7420746865206f776e657260448201526064015b60405180910390fd5b60008281526003602090815260408083206001600160a01b0385168085529252822080549290556103169082610947565b604051818152339084907fa59312996dc68b7f0224b341fed75d5afeb3bb20624107d37942d14f59428156906020015b60405180910390a3505050565b6000546001600160a01b031633146103ad5760405162461bcd60e51b815260206004820181905260248201527f4f776e61626c653a2063616c6c6572206973206e6f7420746865206f776e657260448201526064016102dc565b6001546001600160a01b0316600090815260026020526040812080548692906103d7908490610be0565b90915550508215610410576001600160a01b0382166000908152600460205260408120805485929061040a908490610be0565b90915550505b600061041c8486610be0565b6104269034610bf8565b6001600160a01b038316600090815260026020526040812080549293508392909190610453908490610be0565b90915550506040518181526001600160a01b038316907fd348a8f42fae8db1d0030271b37ed6d94a5e292ff36db57b244ffe13f494dd459060200160405180910390a25050505050565b6000546001600160a01b031633146104f75760405162461bcd60e51b815260206004820181905260248201527f4f776e61626c653a2063616c6c6572206973206e6f7420746865206f776e657260448201526064016102dc565b60008681526003602090815260408083206001600160a01b03898116855292528083208054939055517f1ca44e950000000000000000000000000000000000000000000000000000000081526004810187905260248101869052848216604482015290831660648201523090631ca44e959083906084016000604051808303818588803b15801561058757600080fd5b505af115801561059b573d6000803e3d6000fd5b505050505050505050505050565b6000546001600160a01b031633146106035760405162461bcd60e51b815260206004820181905260248201527f4f776e61626c653a2063616c6c6572206973206e6f7420746865206f776e657260448201526064016102dc565b6001600160a01b038116600081815260026020526040812080549190559061062b9082610947565b816001600160a01b03167fd8102a2d73a808d6664a3116966c123291d07ec500edf12e27ee919d7b81bd3c8260405161066691815260200190565b60405180910390a25050565b6000546001600160a01b031633146106cc5760405162461bcd60e51b815260206004820181905260248201527f4f776e61626c653a2063616c6c6572206973206e6f7420746865206f776e657260448201526064016102dc565b6106d66000610a65565b565b6000546001600160a01b031633146107325760405162461bcd60e51b815260206004820181905260248201527f4f776e61626c653a2063616c6c6572206973206e6f7420746865206f776e657260448201526064016102dc565b60008281526003602090815260408083206001600160a01b0385168452909152812080543492839291610766908490610be0565b90915550506040518181526001600160a01b0383169084907f0e54eff26401bf69b81b26f60bd85ef47f5d85275c1d268d84f68d6897431c4790602001610346565b6000546001600160a01b031633146108025760405162461bcd60e51b815260206004820181905260248201527f4f776e61626c653a2063616c6c6572206973206e6f7420746865206f776e657260448201526064016102dc565b6001600160a01b038116600081815260046020526040812080549190559061082a9082610947565b816001600160a01b03167f312b70e5726648ad7ab64374bb491934c2732cfb4f8c285ea2c1bbe4fa07f3db8260405161066691815260200190565b6000546001600160a01b031633146108bf5760405162461bcd60e51b815260206004820181905260248201527f4f776e61626c653a2063616c6c6572206973206e6f7420746865206f776e657260448201526064016102dc565b6001600160a01b03811661093b5760405162461bcd60e51b815260206004820152602660248201527f4f776e61626c653a206e6577206f776e657220697320746865207a65726f206160448201527f646472657373000000000000000000000000000000000000000000000000000060648201526084016102dc565b61094481610a65565b50565b804710156109975760405162461bcd60e51b815260206004820152601d60248201527f416464726573733a20696e73756666696369656e742062616c616e636500000060448201526064016102dc565b6000826001600160a01b03168260405160006040518083038185875af1925050503d80600081146109e4576040519150601f19603f3d011682016040523d82523d6000602084013e6109e9565b606091505b5050905080610a605760405162461bcd60e51b815260206004820152603a60248201527f416464726573733a20756e61626c6520746f2073656e642076616c75652c207260448201527f6563697069656e74206d6179206861766520726576657274656400000000000060648201526084016102dc565b505050565b600080546001600160a01b038381167fffffffffffffffffffffffff0000000000000000000000000000000000000000831681178455604051919092169283917f8be0079c531659141344cd1fd0a4f28419497f9722a3daafe3b4186f6b6457e09190a35050565b600060208284031215610ade578081fd5b8135610ae981610c3e565b9392505050565b60008060408385031215610b02578081fd5b823591506020830135610b1481610c3e565b809150509250929050565b60008060408385031215610b02578182fd5b60008060008060008060c08789031215610b49578182fd5b863595506020870135610b5b81610c3e565b945060408701359350606087013592506080870135610b7981610c3e565b915060a0870135610b8981610c3e565b809150509295509295509295565b60008060008060808587031215610bac578384fd5b84359350602085013592506040850135610bc581610c3e565b91506060850135610bd581610c3e565b939692955090935050565b60008219821115610bf357610bf3610c0f565b500190565b600082821015610c0a57610c0a610c0f565b500390565b7f4e487b7100000000000000000000000000000000000000000000000000000000600052601160045260246000fd5b6001600160a01b038116811461094457600080fdfea264697066735822122030936803e212f625bdb1fb4cc8327a465f443ab4fc87db6df72ced3bf926b35764736f6c63430008040033",
  "linkReferences": {},
  "deployedLinkReferences": {}
}