{
  "_format": "hh-sol-artifact-1",
  "contractName": "LegendRejuvenation",
  "sourceName": "contracts/rejuvenation/LegendRejuvenation.sol",
  "abi": [
    {
      "inputs": [],
      "stateMutability": "nonpayable",
      "type": "constructor"
    },
    {
      "anonymous": false,
      "inputs": [
        {
          "indexed": true,
          "internalType": "uint256",
          "name": "legendId",
          "type": "uint256"
        },
        {
          "indexed": false,
          "internalType": "uint256",
          "name": "slotsRestored",
          "type": "uint256"
        }
      ],
      "name": "BlendingSlotsRestored",
      "type": "event"
    },
    {
      "anonymous": false,
      "inputs": [
        {
          "indexed": true,
          "internalType": "uint256",
          "name": "legendId",
          "type": "uint256"
        },
        {
          "indexed": false,
          "internalType": "bool",
          "name": "occupied",
          "type": "bool"
        }
      ],
      "name": "PodStatusChanged",
      "type": "event"
    },
    {
      "anonymous": false,
      "inputs": [
        {
          "indexed": true,
          "internalType": "uint256",
          "name": "legendId",
          "type": "uint256"
        },
        {
          "indexed": false,
          "internalType": "uint256",
          "name": "newAmount",
          "type": "uint256"
        }
      ],
      "name": "PodTokensDecreased",
      "type": "event"
    },
    {
      "anonymous": false,
      "inputs": [
        {
          "indexed": true,
          "internalType": "uint256",
          "name": "legendId",
          "type": "uint256"
        },
        {
          "indexed": false,
          "internalType": "uint256",
          "name": "newAmount",
          "type": "uint256"
        }
      ],
      "name": "PodTokensIncreased",
      "type": "event"
    },
    {
      "inputs": [
        {
          "internalType": "address",
          "name": "nftContract",
          "type": "address"
        },
        {
          "internalType": "uint256",
          "name": "legendId",
          "type": "uint256"
        },
        {
          "internalType": "uint256",
          "name": "tokensToSecure",
          "type": "uint256"
        }
      ],
      "name": "enterRejuvenationPod",
      "outputs": [],
      "stateMutability": "nonpayable",
      "type": "function"
    },
    {
      "inputs": [
        {
          "internalType": "uint256",
          "name": "legendId",
          "type": "uint256"
        }
      ],
      "name": "fetchPodDetails",
      "outputs": [
        {
          "components": [
            {
              "internalType": "address",
              "name": "nftContract",
              "type": "address"
            },
            {
              "internalType": "address",
              "name": "depositedBy",
              "type": "address"
            },
            {
              "internalType": "uint256",
              "name": "checkpointBlock",
              "type": "uint256"
            },
            {
              "internalType": "uint256",
              "name": "blendingInstancesUsed",
              "type": "uint256"
            },
            {
              "internalType": "uint256",
              "name": "tokenAmountSecured",
              "type": "uint256"
            },
            {
              "internalType": "uint256",
              "name": "multiplier",
              "type": "uint256"
            },
            {
              "internalType": "uint256",
              "name": "rolloverReju",
              "type": "uint256"
            },
            {
              "internalType": "bool",
              "name": "occupied",
              "type": "bool"
            }
          ],
          "internalType": "struct IRejuvenationPod.RejuvenationPod",
          "name": "",
          "type": "tuple"
        }
      ],
      "stateMutability": "view",
      "type": "function"
    },
    {
      "inputs": [
        {
          "internalType": "uint256",
          "name": "legendId",
          "type": "uint256"
        }
      ],
      "name": "fetchRejuvenationProgress",
      "outputs": [
        {
          "internalType": "uint256",
          "name": "",
          "type": "uint256"
        },
        {
          "internalType": "uint256",
          "name": "",
          "type": "uint256"
        }
      ],
      "stateMutability": "view",
      "type": "function"
    },
    {
      "inputs": [],
      "name": "fetchRejuvenationRules",
      "outputs": [
        {
          "internalType": "uint256",
          "name": "",
          "type": "uint256"
        },
        {
          "internalType": "uint256",
          "name": "",
          "type": "uint256"
        },
        {
          "internalType": "uint256",
          "name": "",
          "type": "uint256"
        },
        {
          "internalType": "uint256",
          "name": "",
          "type": "uint256"
        }
      ],
      "stateMutability": "view",
      "type": "function"
    },
    {
      "inputs": [
        {
          "internalType": "uint256",
          "name": "legendId",
          "type": "uint256"
        },
        {
          "internalType": "uint256",
          "name": "amountToSecure",
          "type": "uint256"
        }
      ],
      "name": "increaseSecuredTokens",
      "outputs": [],
      "stateMutability": "nonpayable",
      "type": "function"
    },
    {
      "inputs": [
        {
          "internalType": "uint256",
          "name": "legendId",
          "type": "uint256"
        }
      ],
      "name": "leaveRejuvenationPod",
      "outputs": [],
      "stateMutability": "nonpayable",
      "type": "function"
    },
    {
      "inputs": [
        {
          "internalType": "uint256",
          "name": "legendId",
          "type": "uint256"
        },
        {
          "internalType": "uint256",
          "name": "amountToRemove",
          "type": "uint256"
        }
      ],
      "name": "removeSecuredTokens",
      "outputs": [],
      "stateMutability": "nonpayable",
      "type": "function"
    },
    {
      "inputs": [
        {
          "internalType": "uint256",
          "name": "newMaxMultiplier",
          "type": "uint256"
        }
      ],
      "name": "setMaxMultiplier",
      "outputs": [],
      "stateMutability": "nonpayable",
      "type": "function"
    },
    {
      "inputs": [
        {
          "internalType": "uint256",
          "name": "newMinimumSecure",
          "type": "uint256"
        }
      ],
      "name": "setMinimumSecure",
      "outputs": [],
      "stateMutability": "nonpayable",
      "type": "function"
    },
    {
      "inputs": [
        {
          "internalType": "uint256",
          "name": "newReJuNeededPerSlot",
          "type": "uint256"
        }
      ],
      "name": "setReJuNeededPerSlot",
      "outputs": [],
      "stateMutability": "nonpayable",
      "type": "function"
    },
    {
      "inputs": [
        {
          "internalType": "uint256",
          "name": "newReJuEmissionRate",
          "type": "uint256"
        }
      ],
      "name": "setReJuPerBlock",
      "outputs": [],
      "stateMutability": "nonpayable",
      "type": "function"
    }
  ],
  "bytecode": "0x60806040526103e860025560056003556001600455620493e060055534801561002757600080fd5b506001600081905580546001600160a01b031916331790556118b38061004e6000396000f3fe608060405234801561001057600080fd5b50600436106100c95760003560e01c80634c89c21811610081578063c9d8745a1161005b578063c9d8745a1461020b578063ca9d8fd01461021e578063fb5de0c41461023157600080fd5b80634c89c218146101b95780638d3d9989146101cc578063ade9ffb5146101df57600080fd5b80630c69ebcd116100b25780630c69ebcd146100f6578063121ee095146101095780634b259eaa1461013657600080fd5b806301526a43146100ce57806307e79620146100e3575b600080fd5b6100e16100dc366004611790565b610244565b005b6100e16100f1366004611719565b6102a8565b6100e1610104366004611790565b610855565b61011c610117366004611790565b6108b4565b604080519283526020830191909152015b60405180910390f35b610149610144366004611790565b610952565b60405161012d91906000610100820190506001600160a01b038084511683528060208501511660208401525060408301516040830152606083015160608301526080830151608083015260a083015160a083015260c083015160c083015260e0830151151560e083015292915050565b6100e16101c7366004611790565b610a8d565b6100e16101da366004611790565b610aec565b60025460035460045460055460408051948552602085019390935291830152606082015260800161012d565b6100e16102193660046117c0565b610cd3565b6100e161022c366004611790565b61104a565b6100e161023f3660046117c0565b6110a9565b6001546001600160a01b031633146102a35760405162461bcd60e51b815260206004820152601760248201527f4e6f742043616c6c6564204279204c61622041646d696e00000000000000000060448201526064015b60405180910390fd5b600355565b600260005414156102fb5760405162461bcd60e51b815260206004820152601f60248201527f5265656e7472616e637947756172643a207265656e7472616e742063616c6c00604482015260640161029a565b60026000908155828152600660205260409081902060015491517f99ea58440000000000000000000000000000000000000000000000000000000081526004810185905285926001600160a01b0316906399ea58449060240160206040518083038186803b15801561036c57600080fd5b505afa158015610380573d6000803e3d6000fd5b505050506040513d601f19601f820116820180604052508101906103a4919061174d565b6104165760405162461bcd60e51b815260206004820152602d60248201527f43616c6c6572204973204e6f74204f776e6572204f72204c6567656e6420486160448201527f73204e6f74204861746368656400000000000000000000000000000000000000606482015260840161029a565b600781015460ff161561046b5760405162461bcd60e51b815260206004820152601c60248201527f4c6567656e6420416c7265616479204f6363757079696e6720506f6400000000604482015260640161029a565b6002548310156104e35760405162461bcd60e51b815260206004820152603c60248201527f4c474e4420546f6b656e20416d6f756e74204d757374204d656574205468652060448201527f4d696e696d756d20546f2052656a7576656e617465204c6567656e6400000000606482015260840161029a565b60006003546002546104f59190611819565b90508084111561055c5760405162461bcd60e51b815260206004820152602c60248201527f4c474e4420546f6b656e20416d6f756e742043616e204e6f742045786365656460448201526b0813585e08105b1b1bddd95960a21b606482015260840161029a565b6040516323b872dd60e01b8152336004820152306024820152604481018690526001600160a01b038416906323b872dd90606401600060405180830381600087803b1580156105aa57600080fd5b505af11580156105be573d6000803e3d6000fd5b50505050600160009054906101000a90046001600160a01b03166001600160a01b031663030032056040518163ffffffff1660e01b815260040160206040518083038186803b15801561061057600080fd5b505afa158015610624573d6000803e3d6000fd5b505050506040513d601f19601f820116820180604052508101906106489190611774565b6040516323b872dd60e01b8152336004820152306024820152604481018690526001600160a01b0391909116906323b872dd90606401602060405180830381600087803b15801561069857600080fd5b505af11580156106ac573d6000803e3d6000fd5b505050506040513d601f19601f820116820180604052508101906106d0919061174d565b5081546001600160a01b038088167fffffffffffffffffffffffff000000000000000000000000000000000000000092831617845560018085018054909316331790925543600285015590546040517f04bc22640000000000000000000000000000000000000000000000000000000081529116906304bc22649061075d90889060040190815260200190565b60206040518083038186803b15801561077557600080fd5b505afa158015610789573d6000803e3d6000fd5b505050506040513d601f19601f820116820180604052508101906107ad91906117a8565b6003830155600482018490556107c2846114b8565b600583015560078201805460ff1916600190811790915560405190815285907fe1f0053afd5619f5757e1a2ce608e79ee12e7887eade511e50e6a769d49102229060200160405180910390a2847f19f48ee12cb815777d6a9110b9a9ab55c74b4f8bfbb6597069244c09ddaf34598560405161084091815260200190565b60405180910390a25050600160005550505050565b6001546001600160a01b031633146108af5760405162461bcd60e51b815260206004820152601760248201527f4e6f742043616c6c6564204279204c61622041646d696e000000000000000000604482015260640161029a565b600255565b600081815260066020526040812060070154819060ff166109175760405162461bcd60e51b815260206004820152601b60248201527f4c6567656e64204973204e6f74204f6363757079696e6720506f640000000000604482015260640161029a565b6000610922846114e0565b60008581526006602052604081206003015460055492935090916109469190611819565b91959194509092505050565b6109ae60405180610100016040528060006001600160a01b0316815260200160006001600160a01b0316815260200160008152602001600081526020016000815260200160008152602001600081526020016000151581525090565b60008281526006602052604090206007015460ff16610a0f5760405162461bcd60e51b815260206004820152601b60248201527f4c6567656e64204973204e6f74204f6363757079696e6720506f640000000000604482015260640161029a565b5060009081526006602081815260409283902083516101008101855281546001600160a01b039081168252600183015416928101929092526002810154938201939093526003830154606082015260048301546080820152600583015460a08201529082015460c082015260079091015460ff16151560e082015290565b6001546001600160a01b03163314610ae75760405162461bcd60e51b815260206004820152601760248201527f4e6f742043616c6c6564204279204c61622041646d696e000000000000000000604482015260640161029a565b600455565b60026000541415610b3f5760405162461bcd60e51b815260206004820152601f60248201527f5265656e7472616e637947756172643a207265656e7472616e742063616c6c00604482015260640161029a565b60026000908155818152600660205260409020600781015460ff16610ba65760405162461bcd60e51b815260206004820152601b60248201527f4c6567656e64204973204e6f74204f6363757079696e6720506f640000000000604482015260640161029a565b60018101546001600160a01b03163314610c025760405162461bcd60e51b815260206004820152601b60248201527f43616c6c657220446964204e6f7420456e746572204c6567656e640000000000604482015260640161029a565b60078101805460ff191690556004810154610c1e9083906110a9565b60006006820155805460018201546040516323b872dd60e01b81523060048201526001600160a01b039182166024820152604481018590529116906323b872dd90606401600060405180830381600087803b158015610c7c57600080fd5b505af1158015610c90573d6000803e3d6000fd5b5050604051600081528492507fe1f0053afd5619f5757e1a2ce608e79ee12e7887eade511e50e6a769d4910222915060200160405180910390a250506001600055565b60026000541415610d265760405162461bcd60e51b815260206004820152601f60248201527f5265656e7472616e637947756172643a207265656e7472616e742063616c6c00604482015260640161029a565b60026000908155828152600660205260409020600781015460ff16610d8d5760405162461bcd60e51b815260206004820152601b60248201527f4c6567656e64204973204e6f74204f6363757079696e6720506f640000000000604482015260640161029a565b60018101546001600160a01b03163314610de95760405162461bcd60e51b815260206004820152601b60248201527f43616c6c657220446964204e6f7420456e746572204c6567656e640000000000604482015260640161029a565b81610e365760405162461bcd60e51b815260206004820152601360248201527f416d6f756e742043616e204e6f74204265203000000000000000000000000000604482015260640161029a565b6000828260040154610e4891906117e1565b90506000600354600254610e5c9190611819565b905080836004015485610e6f91906117e1565b1115610ed25760405162461bcd60e51b815260206004820152602c60248201527f4c474e4420546f6b656e20416d6f756e742043616e204e6f742045786365656460448201526b0813585e08105b1b1bddd95960a21b606482015260840161029a565b600383015415610ee557610ee5856115cc565b600160009054906101000a90046001600160a01b03166001600160a01b031663030032056040518163ffffffff1660e01b815260040160206040518083038186803b158015610f3357600080fd5b505afa158015610f47573d6000803e3d6000fd5b505050506040513d601f19601f82011682018060405250810190610f6b9190611774565b6040516323b872dd60e01b8152336004820152306024820152604481018690526001600160a01b0391909116906323b872dd90606401602060405180830381600087803b158015610fbb57600080fd5b505af1158015610fcf573d6000803e3d6000fd5b505050506040513d601f19601f82011682018060405250810190610ff3919061174d565b5060048301829055611004826114b8565b600584015560405182815285907f19f48ee12cb815777d6a9110b9a9ab55c74b4f8bfbb6597069244c09ddaf34599060200160405180910390a250506001600055505050565b6001546001600160a01b031633146110a45760405162461bcd60e51b815260206004820152601760248201527f4e6f742043616c6c6564204279204c61622041646d696e000000000000000000604482015260640161029a565b600555565b600260005414156110fc5760405162461bcd60e51b815260206004820152601f60248201527f5265656e7472616e637947756172643a207265656e7472616e742063616c6c00604482015260640161029a565b60026000908155828152600660205260409020600781015460ff166111635760405162461bcd60e51b815260206004820152601b60248201527f4c6567656e64204973204e6f74204f6363757079696e6720506f640000000000604482015260640161029a565b60018101546001600160a01b031633146111bf5760405162461bcd60e51b815260206004820152601b60248201527f43616c6c657220446964204e6f7420456e746572204c6567656e640000000000604482015260640161029a565b8161120c5760405162461bcd60e51b815260206004820152601360248201527f416d6f756e742043616e204e6f74204265203000000000000000000000000000604482015260640161029a565b80600401548211156112865760405162461bcd60e51b815260206004820152602660248201527f416d6f756e742043616e204e6f742042652047726561746572205468616e205360448201527f6563757265640000000000000000000000000000000000000000000000000000606482015260840161029a565b80600401548214611318576002548282600401546112a49190611838565b10156113185760405162461bcd60e51b815260206004820152602d60248201527f52656d61696e696e6720416d6f756e742043616e204e6f74204265204c65737360448201527f205468616e204d696e696d756d00000000000000000000000000000000000000606482015260840161029a565b60038101541561132b5761132b836115cc565b600082826004015461133d9190611838565b60048301819055905061134f816114b8565b6005830155600154604080517f0300320500000000000000000000000000000000000000000000000000000000815290516001600160a01b0390921691630300320591600480820192602092909190829003018186803b1580156113b257600080fd5b505afa1580156113c6573d6000803e3d6000fd5b505050506040513d601f19601f820116820180604052508101906113ea9190611774565b6040516323b872dd60e01b8152306004820152336024820152604481018590526001600160a01b0391909116906323b872dd90606401602060405180830381600087803b15801561143a57600080fd5b505af115801561144e573d6000803e3d6000fd5b505050506040513d601f19601f82011682018060405250810190611472919061174d565b50837f6d2e26fda994c75f3495c56e81ccad25eaf7688557ee435cfb808c1692588596826040516114a591815260200190565b60405180910390a2505060016000555050565b600080600254836114c991906117f9565b90506003548111156114da57506003545b92915050565b600081815260066020818152604080842081516101008101835281546001600160a01b03908116825260018301541693810193909352600281015491830191909152600381015460608301526004808201546080840152600582015460a084018190529382015460c084015260079091015460ff16151560e0830152549091839161156b9190611819565b9050600082604001514361157f9190611838565b905060008360c0015182846115949190611819565b61159e91906117e1565b9050600084606001516005546115b49190611819565b9050808211156115c2578091505b5095945050505050565b600081815260066020526040812090806115e5846116d0565b4360028601559092509050811561168e576001546040517f9d147ce900000000000000000000000000000000000000000000000000000000815260048101869052602481018490526001600160a01b0390911690639d147ce990604401600060405180830381600087803b15801561165c57600080fd5b505af1158015611670573d6000803e3d6000fd5b50505050818360030160008282546116889190611838565b90915550505b6006830181905560405182815284907f1c9377a71fc8ecca76c771676a3bae304a1bca2b12e63a7a8a3496b1ef0c88259060200160405180910390a250505050565b60008060006116de846114e0565b90506000600554826116f091906117f9565b90506000600554826117029190611819565b61170c9084611838565b9196919550909350505050565b60008060006060848603121561172d578283fd5b833561173881611865565b95602085013595506040909401359392505050565b60006020828403121561175e578081fd5b8151801515811461176d578182fd5b9392505050565b600060208284031215611785578081fd5b815161176d81611865565b6000602082840312156117a1578081fd5b5035919050565b6000602082840312156117b9578081fd5b5051919050565b600080604083850312156117d2578182fd5b50508035926020909101359150565b600082198211156117f4576117f461184f565b500190565b60008261181457634e487b7160e01b81526012600452602481fd5b500490565b60008160001904831182151516156118335761183361184f565b500290565b60008282101561184a5761184a61184f565b500390565b634e487b7160e01b600052601160045260246000fd5b6001600160a01b038116811461187a57600080fd5b5056fea2646970667358221220af879accf7dae601c7876aedc531e9f5b2c03f07291cac96ad63d9c9c8a1107964736f6c63430008040033",
  "linkReferences": {},
  "deployedLinkReferences": {}
}