{
  "_format": "hh-sol-artifact-1",
  "contractName": "LegendsMarketplace",
  "sourceName": "contracts/marketplace/LegendsMarketplace.sol",
  "abi": [
    {
      "inputs": [],
      "stateMutability": "nonpayable",
      "type": "constructor"
    },
    {
      "anonymous": false,
      "inputs": [
        {
          "indexed": true,
          "internalType": "uint256",
          "name": "listingId",
          "type": "uint256"
        },
        {
          "indexed": false,
          "internalType": "uint256",
          "name": "newDuration",
          "type": "uint256"
        }
      ],
      "name": "AuctionExtended",
      "type": "event"
    },
    {
      "anonymous": false,
      "inputs": [
        {
          "indexed": true,
          "internalType": "uint256",
          "name": "listingId",
          "type": "uint256"
        },
        {
          "indexed": false,
          "internalType": "enum ILegendListing.ListingStatus",
          "name": "status",
          "type": "uint8"
        }
      ],
      "name": "ListingStatusChanged",
      "type": "event"
    },
    {
      "anonymous": false,
      "inputs": [
        {
          "indexed": true,
          "internalType": "uint256",
          "name": "listingId",
          "type": "uint256"
        },
        {
          "indexed": true,
          "internalType": "bool",
          "name": "isAccepted",
          "type": "bool"
        }
      ],
      "name": "OfferDecided",
      "type": "event"
    },
    {
      "anonymous": false,
      "inputs": [
        {
          "indexed": true,
          "internalType": "uint256",
          "name": "listingId",
          "type": "uint256"
        },
        {
          "indexed": false,
          "internalType": "uint256",
          "name": "price",
          "type": "uint256"
        }
      ],
      "name": "OfferMade",
      "type": "event"
    },
    {
      "anonymous": false,
      "inputs": [
        {
          "indexed": true,
          "internalType": "uint256",
          "name": "listingId",
          "type": "uint256"
        },
        {
          "indexed": true,
          "internalType": "address",
          "name": "payee",
          "type": "address"
        }
      ],
      "name": "TradeClaimed",
      "type": "event"
    },
    {
      "inputs": [
        {
          "internalType": "uint256",
          "name": "listingId",
          "type": "uint256"
        }
      ],
      "name": "_calculateFees",
      "outputs": [
        {
          "internalType": "uint256",
          "name": "",
          "type": "uint256"
        },
        {
          "internalType": "address payable",
          "name": "",
          "type": "address"
        },
        {
          "internalType": "uint256",
          "name": "",
          "type": "uint256"
        }
      ],
      "stateMutability": "view",
      "type": "function"
    },
    {
      "inputs": [
        {
          "internalType": "uint256",
          "name": "listingId",
          "type": "uint256"
        }
      ],
      "name": "buyLegend",
      "outputs": [],
      "stateMutability": "payable",
      "type": "function"
    },
    {
      "inputs": [
        {
          "internalType": "uint256",
          "name": "listingId",
          "type": "uint256"
        }
      ],
      "name": "cancelLegendListing",
      "outputs": [],
      "stateMutability": "nonpayable",
      "type": "function"
    },
    {
      "inputs": [
        {
          "internalType": "uint256",
          "name": "listingId",
          "type": "uint256"
        }
      ],
      "name": "closeListing",
      "outputs": [],
      "stateMutability": "payable",
      "type": "function"
    },
    {
      "inputs": [],
      "name": "collectRoyalties",
      "outputs": [],
      "stateMutability": "payable",
      "type": "function"
    },
    {
      "inputs": [
        {
          "internalType": "address",
          "name": "nftContract",
          "type": "address"
        },
        {
          "internalType": "uint256",
          "name": "legendId",
          "type": "uint256"
        },
        {
          "internalType": "uint256",
          "name": "durationIndex",
          "type": "uint256"
        },
        {
          "internalType": "uint256",
          "name": "startingPrice",
          "type": "uint256"
        },
        {
          "internalType": "uint256",
          "name": "instantPrice",
          "type": "uint256"
        }
      ],
      "name": "createLegendAuction",
      "outputs": [],
      "stateMutability": "nonpayable",
      "type": "function"
    },
    {
      "inputs": [
        {
          "internalType": "address",
          "name": "nftContract",
          "type": "address"
        },
        {
          "internalType": "uint256",
          "name": "legendId",
          "type": "uint256"
        },
        {
          "internalType": "uint256",
          "name": "price",
          "type": "uint256"
        }
      ],
      "name": "createLegendSale",
      "outputs": [],
      "stateMutability": "nonpayable",
      "type": "function"
    },
    {
      "inputs": [
        {
          "internalType": "uint256",
          "name": "listingId",
          "type": "uint256"
        },
        {
          "internalType": "bool",
          "name": "isAccepted",
          "type": "bool"
        }
      ],
      "name": "decideLegendOffer",
      "outputs": [],
      "stateMutability": "nonpayable",
      "type": "function"
    },
    {
      "inputs": [
        {
          "internalType": "uint256",
          "name": "listingId",
          "type": "uint256"
        }
      ],
      "name": "fetchAuctionDetails",
      "outputs": [
        {
          "components": [
            {
              "internalType": "uint256",
              "name": "duration",
              "type": "uint256"
            },
            {
              "internalType": "uint256",
              "name": "startingPrice",
              "type": "uint256"
            },
            {
              "internalType": "uint256",
              "name": "highestBid",
              "type": "uint256"
            },
            {
              "internalType": "address payable",
              "name": "highestBidder",
              "type": "address"
            },
            {
              "internalType": "bool",
              "name": "isInstantBuy",
              "type": "bool"
            }
          ],
          "internalType": "struct LegendAuction.AuctionDetails",
          "name": "",
          "type": "tuple"
        }
      ],
      "stateMutability": "view",
      "type": "function"
    },
    {
      "inputs": [
        {
          "internalType": "uint256",
          "name": "listingId",
          "type": "uint256"
        },
        {
          "internalType": "address",
          "name": "bidder",
          "type": "address"
        }
      ],
      "name": "fetchBidPlaced",
      "outputs": [
        {
          "internalType": "uint256",
          "name": "",
          "type": "uint256"
        }
      ],
      "stateMutability": "view",
      "type": "function"
    },
    {
      "inputs": [
        {
          "internalType": "uint256",
          "name": "listingId",
          "type": "uint256"
        }
      ],
      "name": "fetchBidders",
      "outputs": [
        {
          "internalType": "address[]",
          "name": "",
          "type": "address[]"
        }
      ],
      "stateMutability": "view",
      "type": "function"
    },
    {
      "inputs": [
        {
          "internalType": "uint256",
          "name": "listingId",
          "type": "uint256"
        }
      ],
      "name": "fetchInstantBuyPrice",
      "outputs": [
        {
          "internalType": "uint256",
          "name": "",
          "type": "uint256"
        }
      ],
      "stateMutability": "view",
      "type": "function"
    },
    {
      "inputs": [
        {
          "internalType": "uint256",
          "name": "listingId",
          "type": "uint256"
        }
      ],
      "name": "fetchLegendListing",
      "outputs": [
        {
          "components": [
            {
              "internalType": "uint256",
              "name": "listingId",
              "type": "uint256"
            },
            {
              "internalType": "uint256",
              "name": "createdAt",
              "type": "uint256"
            },
            {
              "internalType": "address",
              "name": "nftContract",
              "type": "address"
            },
            {
              "internalType": "uint256",
              "name": "legendId",
              "type": "uint256"
            },
            {
              "internalType": "address payable",
              "name": "seller",
              "type": "address"
            },
            {
              "internalType": "address payable",
              "name": "buyer",
              "type": "address"
            },
            {
              "internalType": "uint256",
              "name": "price",
              "type": "uint256"
            },
            {
              "internalType": "bool",
              "name": "isAuction",
              "type": "bool"
            },
            {
              "internalType": "bool",
              "name": "isOffer",
              "type": "bool"
            },
            {
              "internalType": "enum ILegendListing.ListingStatus",
              "name": "status",
              "type": "uint8"
            }
          ],
          "internalType": "struct ILegendListing.LegendListing",
          "name": "",
          "type": "tuple"
        }
      ],
      "stateMutability": "view",
      "type": "function"
    },
    {
      "inputs": [],
      "name": "fetchListingCounts",
      "outputs": [
        {
          "components": [
            {
              "internalType": "uint256",
              "name": "_value",
              "type": "uint256"
            }
          ],
          "internalType": "struct Counters.Counter",
          "name": "",
          "type": "tuple"
        },
        {
          "components": [
            {
              "internalType": "uint256",
              "name": "_value",
              "type": "uint256"
            }
          ],
          "internalType": "struct Counters.Counter",
          "name": "",
          "type": "tuple"
        },
        {
          "components": [
            {
              "internalType": "uint256",
              "name": "_value",
              "type": "uint256"
            }
          ],
          "internalType": "struct Counters.Counter",
          "name": "",
          "type": "tuple"
        }
      ],
      "stateMutability": "view",
      "type": "function"
    },
    {
      "inputs": [],
      "name": "fetchMarketplaceRules",
      "outputs": [
        {
          "internalType": "uint256",
          "name": "",
          "type": "uint256"
        },
        {
          "internalType": "uint256",
          "name": "",
          "type": "uint256"
        },
        {
          "internalType": "uint256",
          "name": "",
          "type": "uint256"
        },
        {
          "internalType": "uint256",
          "name": "",
          "type": "uint256"
        },
        {
          "internalType": "uint256[3]",
          "name": "",
          "type": "uint256[3]"
        }
      ],
      "stateMutability": "view",
      "type": "function"
    },
    {
      "inputs": [
        {
          "internalType": "uint256",
          "name": "listingId",
          "type": "uint256"
        }
      ],
      "name": "fetchOfferDetails",
      "outputs": [
        {
          "components": [
            {
              "internalType": "uint256",
              "name": "expirationTime",
              "type": "uint256"
            },
            {
              "internalType": "address payable",
              "name": "legendOwner",
              "type": "address"
            },
            {
              "internalType": "bool",
              "name": "isAccepted",
              "type": "bool"
            }
          ],
          "internalType": "struct LegendSale.OfferDetails",
          "name": "",
          "type": "tuple"
        }
      ],
      "stateMutability": "view",
      "type": "function"
    },
    {
      "inputs": [
        {
          "internalType": "address",
          "name": "payee",
          "type": "address"
        }
      ],
      "name": "fetchPaymentsPending",
      "outputs": [
        {
          "internalType": "uint256",
          "name": "",
          "type": "uint256"
        }
      ],
      "stateMutability": "view",
      "type": "function"
    },
    {
      "inputs": [
        {
          "internalType": "address",
          "name": "payee",
          "type": "address"
        }
      ],
      "name": "fetchRoyaltiesAccrued",
      "outputs": [
        {
          "internalType": "uint256",
          "name": "",
          "type": "uint256"
        }
      ],
      "stateMutability": "view",
      "type": "function"
    },
    {
      "inputs": [
        {
          "internalType": "uint256",
          "name": "listingId",
          "type": "uint256"
        },
        {
          "internalType": "address",
          "name": "bidder",
          "type": "address"
        }
      ],
      "name": "isBidWithdrawable",
      "outputs": [
        {
          "internalType": "bool",
          "name": "",
          "type": "bool"
        }
      ],
      "stateMutability": "view",
      "type": "function"
    },
    {
      "inputs": [
        {
          "internalType": "uint256",
          "name": "listingId",
          "type": "uint256"
        }
      ],
      "name": "isExpired",
      "outputs": [
        {
          "internalType": "bool",
          "name": "",
          "type": "bool"
        }
      ],
      "stateMutability": "view",
      "type": "function"
    },
    {
      "inputs": [
        {
          "internalType": "address",
          "name": "nftContract",
          "type": "address"
        },
        {
          "internalType": "uint256",
          "name": "legendId",
          "type": "uint256"
        }
      ],
      "name": "makeLegendOffer",
      "outputs": [],
      "stateMutability": "payable",
      "type": "function"
    },
    {
      "inputs": [
        {
          "internalType": "uint256",
          "name": "listingId",
          "type": "uint256"
        }
      ],
      "name": "placeBid",
      "outputs": [],
      "stateMutability": "payable",
      "type": "function"
    },
    {
      "inputs": [
        {
          "internalType": "uint256",
          "name": "listingId",
          "type": "uint256"
        }
      ],
      "name": "refundBid",
      "outputs": [],
      "stateMutability": "payable",
      "type": "function"
    },
    {
      "inputs": [
        {
          "internalType": "uint256[3]",
          "name": "newAuctionDurations",
          "type": "uint256[3]"
        }
      ],
      "name": "setAuctionDurations",
      "outputs": [],
      "stateMutability": "nonpayable",
      "type": "function"
    },
    {
      "inputs": [
        {
          "internalType": "uint256",
          "name": "marketplaceRule",
          "type": "uint256"
        },
        {
          "internalType": "uint256",
          "name": "newRuleData",
          "type": "uint256"
        }
      ],
      "name": "setMarketplaceRule",
      "outputs": [],
      "stateMutability": "nonpayable",
      "type": "function"
    },
    {
      "inputs": [],
      "name": "withdrawMarketplaceFees",
      "outputs": [],
      "stateMutability": "nonpayable",
      "type": "function"
    }
  ],
  "bytecode": "0x6206978060038181556101006040526203f48060a090815260c09290925262093a8060e0526200003291600791620000ac565b50610258600a55600260125560026013553480156200005057600080fd5b506040516200005f90620000f6565b604051809103906000f0801580156200007c573d6000803e3d6000fd5b5060601b6001600160601b031916608052600160105560118054336001600160a01b03199091161790556200011b565b8260038101928215620000e4579160200282015b82811115620000e4578251829062ffffff16905591602001919060010190620000c0565b50620000f292915062000104565b5090565b610d1980620035d283390190565b5b80821115620000f2576000815560010162000105565b60805160601c613460620001726000396000818161081601528181610da001528181612047015281816124da0152818161258a015281816126c10152818161299301528181612e7c0152612f2e01526134606000f3fe6080604052600436106101a15760003560e01c806370d59e91116100e1578063b54babda1161008a578063d3e88c5f11610064578063d3e88c5f1461053a578063d9548e531461055a578063e5a255cb1461058a578063fbc8e19d1461059d57600080fd5b8063b54babda146104a0578063c11f1f8e146104c0578063c63e927a1461050d57600080fd5b80639979ef45116100bb5780639979ef451461040d5780639c1ecb5114610420578063b1e95dbe1461048d57600080fd5b806370d59e91146103ba5780638ada7716146103cd5780638ba9458f146103ed57600080fd5b8063340d3b501161014e5780634a3f133e116101285780634a3f133e146102c95780635ac10dc8146102d157806363d3a813146103145780636df49b911461038d57600080fd5b8063340d3b5014610263578063443af2ba1461028357806345480859146102a357600080fd5b80632a25194f1161017f5780632a25194f1461020e5780633244cce81461022357806333ca8a461461024357600080fd5b80631837e533146101a65780631f282bac146101c857806326d29ce0146101fb575b600080fd5b3480156101b257600080fd5b506101c66101c13660046130d1565b6105e3565b005b3480156101d457600080fd5b506101e86101e336600461303a565b6107db565b6040519081526020015b60405180910390f35b6101c6610209366004613156565b610899565b34801561021a57600080fd5b506101c6610929565b34801561022f57600080fd5b506101c661023e3660046131b5565b61094b565b34801561024f57600080fd5b506101c661025e3660046131d9565b610d0b565b34801561026f57600080fd5b506101e861027e366004613186565b610d5e565b34801561028f57600080fd5b506101c661029e366004613114565b610e23565b3480156102af57600080fd5b506102b8610e47565b6040516101f295949392919061332f565b6101c6610ea8565b3480156102dd57600080fd5b506102f16102ec366004613156565b610f20565b604080519384526001600160a01b039092166020840152908201526060016101f2565b34801561032057600080fd5b50610371604080516020808201835260009182905282518082018452829052825180820184528290528251808201845291548252825180820184526001548152835191820190935260025481529092565b60408051935184529151602084015251908201526060016101f2565b34801561039957600080fd5b506103ad6103a8366004613156565b61114a565b6040516101f2919061321c565b6101c66103c8366004613156565b6111d5565b3480156103d957600080fd5b506101c66103e836600461309d565b6113fb565b3480156103f957600080fd5b506101c6610408366004613156565b61155e565b6101c661041b366004613156565b6117ff565b34801561042c57600080fd5b5061044061043b366004613156565b611b1f565b6040516101f29190600060a0820190508251825260208301516020830152604083015160408301526001600160a01b03606084015116606083015260808301511515608083015292915050565b6101c661049b366004613072565b611bda565b3480156104ac57600080fd5b506101e86104bb366004613156565b611df4565b3480156104cc57600080fd5b506104e06104db366004613156565b611e2c565b60408051825181526020808401516001600160a01b031690820152918101511515908201526060016101f2565b34801561051957600080fd5b5061052d610528366004613156565b611eb9565b6040516101f29190613277565b34801561054657600080fd5b506101e861055536600461303a565b61200c565b34801561056657600080fd5b5061057a610575366004613156565b612078565b60405190151581526020016101f2565b6101c6610598366004613156565b6120b9565b3480156105a957600080fd5b5061057a6105b8366004613186565b6000918252600f602090815260408084206001600160a01b0393909316845291905290205460ff1690565b6002601054141561063b5760405162461bcd60e51b815260206004820152601f60248201527f5265656e7472616e637947756172643a207265656e7472616e742063616c6c0060448201526064015b60405180910390fd5b600260105560115460405163267a961160e21b81526004810186905286916001600160a01b0316906399ea58449060240160206040518083038186803b15801561068457600080fd5b505afa158015610698573d6000803e3d6000fd5b505050506040513d601f19601f820116820180604052508101906106bc919061313a565b6106c557600080fd5b826106cf57600080fd5b81156106e1578282116106e157600080fd5b60038411156107325760405162461bcd60e51b815260206004820152601960248201527f4475726174696f6e20496e64657820497320496e76616c6964000000000000006044820152606401610632565b60006007856003811061075557634e487b7160e01b600052603260045260246000fd5b01546040516323b872dd60e01b8152336004820152306024820152604481018890529091506001600160a01b038316906323b872dd90606401600060405180830381600087803b1580156107a857600080fd5b505af11580156107bc573d6000803e3d6000fd5b505050506107cd8787838787612375565b505060016010555050505050565b6040517f1f282bac0000000000000000000000000000000000000000000000000000000081526001600160a01b0382811660048301526000917f000000000000000000000000000000000000000000000000000000000000000090911690631f282bac906024015b60206040518083038186803b15801561085b57600080fd5b505afa15801561086f573d6000803e3d6000fd5b505050506040513d601f19601f82011682018060405250810190610893919061316e565b92915050565b600260105414156108ec5760405162461bcd60e51b815260206004820152601f60248201527f5265656e7472616e637947756172643a207265656e7472616e742063616c6c006044820152606401610632565b60026010556000818152600f6020908152604080832033845290915290205460ff1661091757600080fd5b610921813361249b565b506001601055565b6011546001600160a01b0316331461094057600080fd5b6109493061253b565b565b6002601054141561099e5760405162461bcd60e51b815260206004820152601f60248201527f5265656e7472616e637947756172643a207265656e7472616e742063616c6c006044820152606401610632565b60026010819055600083815260046020818152604080842081516101408101835281548152600182015493810193909352948501546001600160a01b03908116918301919091526003808601546060840152928501548116608083015260058501541660a0820152600684015460c0820152600784015460ff808216151560e084015261010080830482161515908401529394919391926101208501926201000090920490911690811115610a6357634e487b7160e01b600052602160045260246000fd5b6003811115610a8257634e487b7160e01b600052602160045260246000fd5b905250604081015190915060018261012001516003811115610ab457634e487b7160e01b600052602160045260246000fd5b14610abe57600080fd5b6000848152600560205260409020544210610b1b5760405162461bcd60e51b815260206004820152601960248201527f4f666665722048617320416c72656164792045787069726564000000000000006044820152606401610632565b60608201516040516331a9108f60e11b815260048101919091526001600160a01b03821690636352211e9060240160206040518083038186803b158015610b6157600080fd5b505afa158015610b75573d6000803e3d6000fd5b505050506040513d601f19601f82011682018060405250810190610b999190613056565b6001600160a01b0316336001600160a01b0316148015610bd257506000848152600560205260409020600101546001600160a01b031633145b610c1e5760405162461bcd60e51b815260206004820152601860248201527f4c6567656e64204f776e657220486173204368616e67656400000000000000006044820152606401610632565b610c2884846125b9565b8215610c9f5760608201516040516323b872dd60e01b815233600482015230602482015260448101919091526001600160a01b038216906323b872dd90606401600060405180830381600087803b158015610c8257600080fd5b505af1158015610c96573d6000803e3d6000fd5b50505050610cd1565b6000848152600f6020908152604080832060a08601516001600160a01b031684529091529020805460ff191660011790555b6040518315159085907fbe84c08cacf7be329858d01a82d1e99b4e5a8f9a9df7a04b16c1f070e449b49990600090a3505060016010555050565b6011546001600160a01b03163314610d2257600080fd5b81610d2d5760125550565b8160011415610d3c5760135550565b8160021415610d4b5760035550565b8160031415610d5a57600a8190555b5050565b6040517f340d3b50000000000000000000000000000000000000000000000000000000008152600481018390526001600160a01b0382811660248301526000917f00000000000000000000000000000000000000000000000000000000000000009091169063340d3b509060440160206040518083038186803b158015610de457600080fd5b505afa158015610df8573d6000803e3d6000fd5b505050506040513d601f19601f82011682018060405250810190610e1c919061316e565b9392505050565b6011546001600160a01b03163314610e3a57600080fd5b610d5a6007826003612fc9565b600080600080610e55613007565b60125460135460038054600a5460408051606081019182905292939192600792909183919082845b815481526020019060010190808311610e7d5750505050509050945094509450945094509091929394565b60026010541415610efb5760405162461bcd60e51b815260206004820152601f60248201527f5265656e7472616e637947756172643a207265656e7472616e742063616c6c006044820152606401610632565b60026010556000610f0b3361200c565b905080610f1757600080fd5b61092133612689565b60008181526004602081815260408084208151610140810183528154815260018201549381019390935260028101546001600160a01b039081169284019290925260038082015460608501529381015482166080840152600581015490911660a0830152600681015460c0830152600781015460ff808216151560e0850152610100808304821615159085015285948594859490939092610120850192620100009092041690811115610fe357634e487b7160e01b600052602160045260246000fd5b600381111561100257634e487b7160e01b600052602160045260246000fd5b815250509050600060646013548360c0015161101e91906133b8565b6110289190613398565b60115460608401516040517fea832ddd0000000000000000000000000000000000000000000000000000000081529293506000926001600160a01b039092169163ea832ddd9161107e9160040190815260200190565b60206040518083038186803b15801561109657600080fd5b505afa1580156110aa573d6000803e3d6000fd5b505050506040513d601f19601f820116820180604052508101906110ce9190613056565b905060006001600160a01b0382161561113c5783608001516001600160a01b0316826001600160a01b03161461113c578360a001516001600160a01b0316826001600160a01b03161461113c5760646012548560c0015161112f91906133b8565b6111399190613398565b90505b919790965090945092505050565b60008181526004602052604090206007015460609060ff1661116b57600080fd5b6000828152600d6020908152604091829020805483518184028101840190945280845290918301828280156111c957602002820191906000526020600020905b81546001600160a01b031681526001909101906020018083116111ab575b50505050509050919050565b600260105414156112285760405162461bcd60e51b815260206004820152601f60248201527f5265656e7472616e637947756172643a207265656e7472616e742063616c6c006044820152606401610632565b60026010819055600082815260046020818152604080842081516101408101835281548152600182015493810193909352948501546001600160a01b03908116918301919091526003808601546060840152928501548116608083015260058501541660a0820152600684015460c0820152600784015460ff808216151560e0840152610100808304821615159084015293949193919261012085019262010000909204909116908111156112ed57634e487b7160e01b600052602160045260246000fd5b600381111561130c57634e487b7160e01b600052602160045260246000fd5b90525090506001816101200151600381111561133857634e487b7160e01b600052602160045260246000fd5b1461134257600080fd5b80608001516001600160a01b0316336001600160a01b0316141561136557600080fd5b8060c0015134146113de5760405162461bcd60e51b815260206004820152602560248201527f496e636f7272656374205072696365205375626d697474656420466f72204c6960448201527f7374696e670000000000000000000000000000000000000000000000000000006064820152608401610632565b6113e9826000612720565b6113f282612792565b50506001601055565b6002601054141561144e5760405162461bcd60e51b815260206004820152601f60248201527f5265656e7472616e637947756172643a207265656e7472616e742063616c6c006044820152606401610632565b600260105560115460405163267a961160e21b81526004810184905284916001600160a01b0316906399ea58449060240160206040518083038186803b15801561149757600080fd5b505afa1580156114ab573d6000803e3d6000fd5b505050506040513d601f19601f820116820180604052508101906114cf919061313a565b6114d857600080fd5b816114e257600080fd5b6040516323b872dd60e01b8152336004820152306024820152604481018490526001600160a01b038216906323b872dd90606401600060405180830381600087803b15801561153057600080fd5b505af1158015611544573d6000803e3d6000fd5b50505050611553848484612826565b505060016010555050565b600260105414156115b15760405162461bcd60e51b815260206004820152601f60248201527f5265656e7472616e637947756172643a207265656e7472616e742063616c6c006044820152606401610632565b60026010819055600082815260046020818152604080842081516101408101835281548152600182015493810193909352948501546001600160a01b03908116918301919091526003808601546060840152928501548116608083015260058501541660a0820152600684015460c0820152600784015460ff808216151560e08401526101008083048216151590840152939491939192610120850192620100009092049091169081111561167657634e487b7160e01b600052602160045260246000fd5b600381111561169557634e487b7160e01b600052602160045260246000fd5b9052509050600181610120015160038111156116c157634e487b7160e01b600052602160045260246000fd5b146116cb57600080fd5b806101000151156116fd578060a001516001600160a01b0316336001600160a01b0316146116f857600080fd5b61171f565b80608001516001600160a01b0316336001600160a01b03161461171f57600080fd5b8060e0015115611742576000828152600d60205260409020541561174257600080fd5b61174b826128ef565b8061010001511561177f576000828152600f602090815260408083203384529091529020805460ff191660011790556113f2565b6040808201516080830151606084015192516323b872dd60e01b81523060048201526001600160a01b039182166024820152604481019390935216906323b872dd90606401600060405180830381600087803b1580156117de57600080fd5b505af11580156117f2573d6000803e3d6000fd5b5050505050506001601055565b600260105414156118525760405162461bcd60e51b815260206004820152601f60248201527f5265656e7472616e637947756172643a207265656e7472616e742063616c6c006044820152606401610632565b60026010556000818152600460209081526040808320600b9092529091206001600783015462010000900460ff16600381111561189f57634e487b7160e01b600052602160045260246000fd5b146118a957600080fd5b6118b283612078565b156118ff5760405162461bcd60e51b815260206004820152601b60248201527f41756374696f6e2048617320416c7265616479204578706972656400000000006044820152606401610632565b60048201546001600160a01b03163314156119825760405162461bcd60e51b815260206004820152602160248201527f53656c6c65722043616e204e6f7420426964204f6e204f776e204c697374696e60448201527f67000000000000000000000000000000000000000000000000000000000000006064820152608401610632565b600061198e8433610d5e565b6000858152600d60205260409020549091506119fd5781600101543410156119f85760405162461bcd60e51b815260206004820152601460248201527f5374617274696e6720426964204e6f74204d65740000000000000000000000006044820152606401610632565b611a83565b6000848152600b60205260409020600201548111611a835760405162461bcd60e51b815260206004820152602360248201527f426964206d75737420626520686967686572207468616e2063757272656e742060448201527f62696400000000000000000000000000000000000000000000000000000000006064820152608401610632565b6000848152600f60209081526040808320338085529252909120805460ff19169055611ab29034908690612954565b6000848152600f6020908152604080832060038601546001600160a01b031684529091529020805460ff19166001179055611aed84826129f6565b6003820154600160a01b900460ff1615611553576000848152600c602052604090205481106115535761155384612afe565b611b5c6040518060a0016040528060008152602001600081526020016000815260200160006001600160a01b031681526020016000151581525090565b60008281526004602052604090206007015460ff16611b7a57600080fd5b506000908152600b6020908152604091829020825160a081018452815481526001820154928101929092526002810154928201929092526003909101546001600160a01b0381166060830152600160a01b900460ff161515608082015290565b60026010541415611c2d5760405162461bcd60e51b815260206004820152601f60248201527f5265656e7472616e637947756172643a207265656e7472616e742063616c6c006044820152606401610632565b60026010556040516331a9108f60e11b81526004810182905282906000906001600160a01b03831690636352211e9060240160206040518083038186803b158015611c7757600080fd5b505afa158015611c8b573d6000803e3d6000fd5b505050506040513d601f19601f82011682018060405250810190611caf9190613056565b9050336001600160a01b0382161415611cc757600080fd5b6011546040517fced3e3f1000000000000000000000000000000000000000000000000000000008152600481018590526001600160a01b039091169063ced3e3f19060240160206040518083038186803b158015611d2457600080fd5b505afa158015611d38573d6000803e3d6000fd5b505050506040513d601f19601f82011682018060405250810190611d5c919061313a565b611d6557600080fd5b34611d6f57600080fd5b6000611d7c858386612baf565b6000818152600f60209081526040808320338085529252909120805460ff19169055909150611dae9034908390612954565b807f6d13017ad90cf7d9f398b5753f263aa0ddf37bacd59019879304f9fa0213077434604051611de091815260200190565b60405180910390a250506001601055505050565b6000818152600b6020526040812060030154600160a01b900460ff16611e1957600080fd5b506000908152600c602052604090205490565b6040805160608101825260008082526020820181905291810191909152600082815260046020526040902060070154610100900460ff16611e6c57600080fd5b506000908152600560209081526040918290208251606081018452815481526001909101546001600160a01b03811692820192909252600160a01b90910460ff1615159181019190915290565b611f0e6040805161014081018252600080825260208201819052918101829052606081018290526080810182905260a0810182905260c0810182905260e0810182905261010081018290529061012082015290565b81611f1860005490565b811015611f2457600080fd5b6000838152600460208181526040928390208351610140810185528154815260018201549281019290925260028101546001600160a01b039081169483019490945260038082015460608401529281015484166080830152600581015490931660a0820152600683015460c0820152600783015460ff808216151560e084015261010080830482161515908401529193926101208501926201000090920490911690811115611fe357634e487b7160e01b600052602160045260246000fd5b600381111561200257634e487b7160e01b600052602160045260246000fd5b9052509392505050565b6040517fd3e88c5f0000000000000000000000000000000000000000000000000000000081526001600160a01b0382811660048301526000917f00000000000000000000000000000000000000000000000000000000000000009091169063d3e88c5f90602401610843565b6000818152600b60209081526040808320546004909252822060010154829182916120a39190613380565b9050804211156120b257600191505b5092915050565b6002601054141561210c5760405162461bcd60e51b815260206004820152601f60248201527f5265656e7472616e637947756172643a207265656e7472616e742063616c6c006044820152606401610632565b60026010556000818152600460208181526040808420600b909252909220908201546001600160a01b0316331480612150575060058201546001600160a01b031633145b80612167575060038101546001600160a01b031633145b6121b35760405162461bcd60e51b815260206004820152601c60248201527f43616c6c65722043616e204e6f7420436c6f7365204c697374696e67000000006044820152606401610632565b600782015460ff1615612258576001600783015462010000900460ff1660038111156121ef57634e487b7160e01b600052602160045260246000fd5b1415612253576121fe83612078565b61224a5760405162461bcd60e51b815260206004820152601b60248201527f41756374696f6e20486173204e6f7420596574204578706972656400000000006044820152606401610632565b61225383612afe565b612291565b6002600783015462010000900460ff16600381111561228757634e487b7160e01b600052602160045260246000fd5b1461229157600080fd5b600782015460ff16806122ad57506007820154610100900460ff165b156122ef5760008381526014602052604090205460ff166122ef576000838152601460205260409020805460ff191660019081179091556122ef908490612720565b60048201546001600160a01b031633141561232057600482015461231b906001600160a01b031661253b565b61233e565b60058201546001600160a01b031633141561233e5761233e83612c73565b604051339084907f4100f70c133e1c4066c72b21f815cec87ab6d5f89acabf924ca488d47c08bf7b90600090a35050600160105550565b612383600080546001019055565b600080549082156123a357506000818152600c6020526040902082905560015b6000828152600460208190526040909120838155426001808301919091556002820180546001600160a01b038c166001600160a01b031991821617909155600383018a9055928201805484163317905560058201805490931690925560078101805460ff1981168417825591929162ff00ff19168217620100008302179055506000838152600b602052604090819020878155600180820188905560038201805460ff60a01b1916600160a01b871515021790559151909185917fab8013f69383454f861c325aa79a70266ccaf52ad8683c842832a8df74c57a259161248891613269565b60405180910390a2505050505050505050565b6040517f03073828000000000000000000000000000000000000000000000000000000008152600481018390526001600160a01b0382811660248301527f000000000000000000000000000000000000000000000000000000000000000016906303073828906044015b600060405180830381600087803b15801561251f57600080fd5b505af1158015612533573d6000803e3d6000fd5b505050505050565b6000612546826107db565b90508061255257600080fd5b6040517f31b3eb940000000000000000000000000000000000000000000000000000000081526001600160a01b0383811660048301527f000000000000000000000000000000000000000000000000000000000000000016906331b3eb9490602401612505565b6000828152600460205260409020811561264d5760078101805462ff00001916620200001790556004810180546001600160a01b0319163317905560009283526005602081815260408086206001908101805460ff60a01b1916600160a01b17905560038501546006845282882094909501546001600160a01b03168752929091529093205550805481019055565b505050565b600701805462ff00001916620300001790555060009081526005602052604090206001908101805460ff60a01b19169055600280549091019055565b6040517f968db7830000000000000000000000000000000000000000000000000000000081526001600160a01b0382811660048301527f0000000000000000000000000000000000000000000000000000000000000000169063968db78390602401600060405180830381600087803b15801561270557600080fd5b505af1158015612719573d6000803e3d6000fd5b5050505050565b600082815260046020526040812090808061273a86610f20565b9250925092508415612773576005840154600485015461276e9188916001600160a01b039182169187918691889116612e1f565b612533565b60048401546125339034908590849086906001600160a01b0316612ee0565b600081815260046020908152604080832060078101805462ff00001916620200001790556005810180546001600160a01b0319163390811790915560038201546006855283862091865293529220556001805481019055817fab8013f69383454f861c325aa79a70266ccaf52ad8683c842832a8df74c57a25600260405161281a9190613269565b60405180910390a25050565b612834600080546001019055565b6000805480825260046020819052604092839020828155426001808301919091556002820180546001600160a01b038a166001600160a01b0319918216179091556003830188905592820180548416331790556005820180549093169092556006810185905560078101805462ff0000191662010000179055925191929183917fab8013f69383454f861c325aa79a70266ccaf52ad8683c842832a8df74c57a25916128e09190613269565b60405180910390a25050505050565b6000818152600460205260409020600701805462ff0000191662030000179055600280546001019055807fab8013f69383454f861c325aa79a70266ccaf52ad8683c842832a8df74c57a2560036040516129499190613269565b60405180910390a250565b6040517f7c9fe43a000000000000000000000000000000000000000000000000000000008152600481018390526001600160a01b0382811660248301527f00000000000000000000000000000000000000000000000000000000000000001690637c9fe43a9085906044016000604051808303818588803b1580156129d857600080fd5b505af11580156129ec573d6000803e3d6000fd5b5050505050505050565b6000828152600b60209081526040808320600e83528184203385529092529091205460ff16612a72576000838152600d602090815260408083208054600181810183559185528385200180546001600160a01b03191633908117909155878552600e8452828520908552909252909120805460ff191690911790555b600281018290556003810180546001600160a01b03191633179055612a9683612f73565b15612648576000838152600c602052604090205482101561264857600a548154612ac09190613380565b80825560405190815283907f6e912a3a9105bdd2af817ba5adc14e6c127c1035b5b648faa29ca0d58ab8ff4e906020015b60405180910390a2505050565b6000818152600460209081526040808320600b8352818420600380820180546005850180546001600160a01b0319166001600160a01b03928316179055600284015460068087019190915560078601805462ff000019166202000017905592850154928752858820915416875290945291909320919091556001805481019055827fab8013f69383454f861c325aa79a70266ccaf52ad8683c842832a8df74c57a256002604051612af19190613269565b600080546001908101808355808352600460208181526040808620848155429581018690556002810180546001600160a01b038c166001600160a01b03199182161790915560038083018a9055948201805482169055600580830180549092163317909155346006830181905560078301805462ffff001916620101001790559352908620925493949193909291612c479190613380565b815560010180546001600160a01b0388166001600160a01b031990911617905550909150509392505050565b60008181526004602081815260408084208151610140810183528154815260018201549381019390935260028101546001600160a01b039081169284019290925260038082015460608501529381015482166080840152600581015490911660a0830152600681015460c0830152600781015460ff808216151560e0850152610100808304821615159085015292939192610120850192620100009092041690811115612d3057634e487b7160e01b600052602160045260246000fd5b6003811115612d4f57634e487b7160e01b600052602160045260246000fd5b905250600083815260066020908152604080832060a08501516001600160a01b0316845290915290205490915080612d8657600080fd5b600083815260066020908152604080832060a0860180516001600160a01b039081168652919093528184209390935584810151915190516323b872dd60e01b81523060048201529083166024820152604481018490529116906323b872dd90606401600060405180830381600087803b158015612e0257600080fd5b505af1158015612e16573d6000803e3d6000fd5b50505050505050565b6040517f2408c803000000000000000000000000000000000000000000000000000000008152600481018790526001600160a01b0386811660248301526044820186905260648201859052838116608483015282811660a48301527f00000000000000000000000000000000000000000000000000000000000000001690632408c8039060c401600060405180830381600087803b158015612ec057600080fd5b505af1158015612ed4573d6000803e3d6000fd5b50505050505050505050565b6040517f1ca44e9500000000000000000000000000000000000000000000000000000000815260048101859052602481018490526001600160a01b03838116604483015282811660648301527f00000000000000000000000000000000000000000000000000000000000000001690631ca44e959087906084016000604051808303818588803b158015612ec057600080fd5b6000818152600b6020908152604080832054600490925282206001015482918291612f9e9190613380565b90508042108015612fba5750600a54612fb790826133d7565b42115b156120b2575060019392505050565b8260038101928215612ff7579160200282015b82811115612ff7578235825591602001919060010190612fdc565b50613003929150613025565b5090565b60405180606001604052806003906020820280368337509192915050565b5b808211156130035760008155600101613026565b60006020828403121561304b578081fd5b8135610e1c81613404565b600060208284031215613067578081fd5b8151610e1c81613404565b60008060408385031215613084578081fd5b823561308f81613404565b946020939093013593505050565b6000806000606084860312156130b1578081fd5b83356130bc81613404565b95602085013595506040909401359392505050565b600080600080600060a086880312156130e8578081fd5b85356130f381613404565b97602087013597506040870135966060810135965060800135945092505050565b600060608284031215613125578081fd5b82606083011115613134578081fd5b50919050565b60006020828403121561314b578081fd5b8151610e1c8161341c565b600060208284031215613167578081fd5b5035919050565b60006020828403121561317f578081fd5b5051919050565b60008060408385031215613198578182fd5b8235915060208301356131aa81613404565b809150509250929050565b600080604083850312156131c7578182fd5b8235915060208301356131aa8161341c565b600080604083850312156131eb578182fd5b50508035926020909101359150565b6004811061321857634e487b7160e01b600052602160045260246000fd5b9052565b6020808252825182820181905260009190848201906040850190845b8181101561325d5783516001600160a01b031683529284019291840191600101613238565b50909695505050505050565b6020810161089382846131fa565b600061014082019050825182526020830151602083015260408301516132a860408401826001600160a01b03169052565b506060830151606083015260808301516132cd60808401826001600160a01b03169052565b5060a08301516132e860a08401826001600160a01b03169052565b5060c083015160c083015260e083015161330660e084018215159052565b506101008381015115159083015261012080840151613327828501826131fa565b505092915050565b600060e08201905086825260208681840152856040840152846060840152608083018460005b600381101561337257815183529183019190830190600101613355565b505050509695505050505050565b60008219821115613393576133936133ee565b500190565b6000826133b357634e487b7160e01b81526012600452602481fd5b500490565b60008160001904831182151516156133d2576133d26133ee565b500290565b6000828210156133e9576133e96133ee565b500390565b634e487b7160e01b600052601160045260246000fd5b6001600160a01b038116811461341957600080fd5b50565b801515811461341957600080fdfea2646970667358221220e323c4d54ea2fcc8d3b01adb61174c03327c8f7416d0fcdf2bf46adb110ec26964736f6c63430008040033608060405234801561001057600080fd5b5061001a33610031565b600180546001600160a01b03191633179055610081565b600080546001600160a01b038381166001600160a01b0319831681178455604051919092169283917f8be0079c531659141344cd1fd0a4f28419497f9722a3daafe3b4186f6b6457e09190a35050565b610c89806100906000396000f3fe6080604052600436106100c75760003560e01c8063715018a611610074578063968db7831161004e578063968db78314610210578063d3e88c5f14610230578063f2fde38b1461026657600080fd5b8063715018a6146101c05780637c9fe43a146101d55780638da5cb5b146101e857600080fd5b80632408c803116100a55780632408c8031461013d57806331b3eb941461015d578063340d3b501461017d57600080fd5b806303073828146100cc5780631ca44e95146100e15780631f282bac146100f4575b600080fd5b6100df6100da366004610b1f565b610286565b005b6100df6100ef366004610b97565b610353565b34801561010057600080fd5b5061012a61010f366004610acd565b6001600160a01b031660009081526002602052604090205490565b6040519081526020015b60405180910390f35b34801561014957600080fd5b506100df610158366004610b31565b61049d565b34801561016957600080fd5b506100df610178366004610acd565b6105a9565b34801561018957600080fd5b5061012a610198366004610af0565b60009182526003602090815260408084206001600160a01b0393909316845291905290205490565b3480156101cc57600080fd5b506100df610672565b6100df6101e3366004610af0565b6106d8565b3480156101f457600080fd5b506000546040516001600160a01b039091168152602001610134565b34801561021c57600080fd5b506100df61022b366004610acd565b6107a8565b34801561023c57600080fd5b5061012a61024b366004610acd565b6001600160a01b031660009081526004602052604090205490565b34801561027257600080fd5b506100df610281366004610acd565b610865565b6000546001600160a01b031633146102e55760405162461bcd60e51b815260206004820181905260248201527f4f776e61626c653a2063616c6c6572206973206e6f7420746865206f776e657260448201526064015b60405180910390fd5b60008281526003602090815260408083206001600160a01b0385168085529252822080549290556103169082610947565b604051818152339084907fa59312996dc68b7f0224b341fed75d5afeb3bb20624107d37942d14f59428156906020015b60405180910390a3505050565b6000546001600160a01b031633146103ad5760405162461bcd60e51b815260206004820181905260248201527f4f776e61626c653a2063616c6c6572206973206e6f7420746865206f776e657260448201526064016102dc565b6001546001600160a01b0316600090815260026020526040812080548692906103d7908490610be0565b90915550508215610410576001600160a01b0382166000908152600460205260408120805485929061040a908490610be0565b90915550505b600061041c8486610be0565b6104269034610bf8565b6001600160a01b038316600090815260026020526040812080549293508392909190610453908490610be0565b90915550506040518181526001600160a01b038316907fd348a8f42fae8db1d0030271b37ed6d94a5e292ff36db57b244ffe13f494dd459060200160405180910390a25050505050565b6000546001600160a01b031633146104f75760405162461bcd60e51b815260206004820181905260248201527f4f776e61626c653a2063616c6c6572206973206e6f7420746865206f776e657260448201526064016102dc565b60008681526003602090815260408083206001600160a01b03898116855292528083208054939055517f1ca44e950000000000000000000000000000000000000000000000000000000081526004810187905260248101869052848216604482015290831660648201523090631ca44e959083906084016000604051808303818588803b15801561058757600080fd5b505af115801561059b573d6000803e3d6000fd5b505050505050505050505050565b6000546001600160a01b031633146106035760405162461bcd60e51b815260206004820181905260248201527f4f776e61626c653a2063616c6c6572206973206e6f7420746865206f776e657260448201526064016102dc565b6001600160a01b038116600081815260026020526040812080549190559061062b9082610947565b816001600160a01b03167fd8102a2d73a808d6664a3116966c123291d07ec500edf12e27ee919d7b81bd3c8260405161066691815260200190565b60405180910390a25050565b6000546001600160a01b031633146106cc5760405162461bcd60e51b815260206004820181905260248201527f4f776e61626c653a2063616c6c6572206973206e6f7420746865206f776e657260448201526064016102dc565b6106d66000610a65565b565b6000546001600160a01b031633146107325760405162461bcd60e51b815260206004820181905260248201527f4f776e61626c653a2063616c6c6572206973206e6f7420746865206f776e657260448201526064016102dc565b60008281526003602090815260408083206001600160a01b0385168452909152812080543492839291610766908490610be0565b90915550506040518181526001600160a01b0383169084907f0e54eff26401bf69b81b26f60bd85ef47f5d85275c1d268d84f68d6897431c4790602001610346565b6000546001600160a01b031633146108025760405162461bcd60e51b815260206004820181905260248201527f4f776e61626c653a2063616c6c6572206973206e6f7420746865206f776e657260448201526064016102dc565b6001600160a01b038116600081815260046020526040812080549190559061082a9082610947565b816001600160a01b03167f312b70e5726648ad7ab64374bb491934c2732cfb4f8c285ea2c1bbe4fa07f3db8260405161066691815260200190565b6000546001600160a01b031633146108bf5760405162461bcd60e51b815260206004820181905260248201527f4f776e61626c653a2063616c6c6572206973206e6f7420746865206f776e657260448201526064016102dc565b6001600160a01b03811661093b5760405162461bcd60e51b815260206004820152602660248201527f4f776e61626c653a206e6577206f776e657220697320746865207a65726f206160448201527f646472657373000000000000000000000000000000000000000000000000000060648201526084016102dc565b61094481610a65565b50565b804710156109975760405162461bcd60e51b815260206004820152601d60248201527f416464726573733a20696e73756666696369656e742062616c616e636500000060448201526064016102dc565b6000826001600160a01b03168260405160006040518083038185875af1925050503d80600081146109e4576040519150601f19603f3d011682016040523d82523d6000602084013e6109e9565b606091505b5050905080610a605760405162461bcd60e51b815260206004820152603a60248201527f416464726573733a20756e61626c6520746f2073656e642076616c75652c207260448201527f6563697069656e74206d6179206861766520726576657274656400000000000060648201526084016102dc565b505050565b600080546001600160a01b038381167fffffffffffffffffffffffff0000000000000000000000000000000000000000831681178455604051919092169283917f8be0079c531659141344cd1fd0a4f28419497f9722a3daafe3b4186f6b6457e09190a35050565b600060208284031215610ade578081fd5b8135610ae981610c3e565b9392505050565b60008060408385031215610b02578081fd5b823591506020830135610b1481610c3e565b809150509250929050565b60008060408385031215610b02578182fd5b60008060008060008060c08789031215610b49578182fd5b863595506020870135610b5b81610c3e565b945060408701359350606087013592506080870135610b7981610c3e565b915060a0870135610b8981610c3e565b809150509295509295509295565b60008060008060808587031215610bac578384fd5b84359350602085013592506040850135610bc581610c3e565b91506060850135610bd581610c3e565b939692955090935050565b60008219821115610bf357610bf3610c0f565b500190565b600082821015610c0a57610c0a610c0f565b500390565b7f4e487b7100000000000000000000000000000000000000000000000000000000600052601160045260246000fd5b6001600160a01b038116811461094457600080fdfea264697066735822122030936803e212f625bdb1fb4cc8327a465f443ab4fc87db6df72ced3bf926b35764736f6c63430008040033",
  "linkReferences": {},
  "deployedLinkReferences": {}
}