{
  "_format": "hh-sol-artifact-1",
  "contractName": "LegendsLaboratory",
  "sourceName": "contracts/lab/LegendsLaboratory.sol",
  "abi": [
    {
      "inputs": [],
      "stateMutability": "nonpayable",
      "type": "constructor"
    },
    {
      "anonymous": false,
      "inputs": [
        {
          "indexed": true,
          "internalType": "uint256",
          "name": "legendId",
          "type": "uint256"
        },
        {
          "indexed": false,
          "internalType": "uint256",
          "name": "reportCount",
          "type": "uint256"
        }
      ],
      "name": "NameReported",
      "type": "event"
    },
    {
      "anonymous": false,
      "inputs": [
        {
          "indexed": true,
          "internalType": "uint256",
          "name": "promoId",
          "type": "uint256"
        },
        {
          "indexed": false,
          "internalType": "uint256",
          "name": "totalDispensed",
          "type": "uint256"
        },
        {
          "indexed": false,
          "internalType": "uint256",
          "name": "totalRedeemed",
          "type": "uint256"
        }
      ],
      "name": "PromoClosed",
      "type": "event"
    },
    {
      "anonymous": false,
      "inputs": [
        {
          "indexed": true,
          "internalType": "uint256",
          "name": "promoId",
          "type": "uint256"
        },
        {
          "indexed": true,
          "internalType": "string",
          "name": "promoName",
          "type": "string"
        },
        {
          "indexed": false,
          "internalType": "uint256",
          "name": "expireTime",
          "type": "uint256"
        }
      ],
      "name": "PromoCreated",
      "type": "event"
    },
    {
      "anonymous": false,
      "inputs": [
        {
          "indexed": true,
          "internalType": "bytes32",
          "name": "role",
          "type": "bytes32"
        },
        {
          "indexed": true,
          "internalType": "bytes32",
          "name": "previousAdminRole",
          "type": "bytes32"
        },
        {
          "indexed": true,
          "internalType": "bytes32",
          "name": "newAdminRole",
          "type": "bytes32"
        }
      ],
      "name": "RoleAdminChanged",
      "type": "event"
    },
    {
      "anonymous": false,
      "inputs": [
        {
          "indexed": true,
          "internalType": "bytes32",
          "name": "role",
          "type": "bytes32"
        },
        {
          "indexed": true,
          "internalType": "address",
          "name": "account",
          "type": "address"
        },
        {
          "indexed": true,
          "internalType": "address",
          "name": "sender",
          "type": "address"
        }
      ],
      "name": "RoleGranted",
      "type": "event"
    },
    {
      "anonymous": false,
      "inputs": [
        {
          "indexed": true,
          "internalType": "bytes32",
          "name": "role",
          "type": "bytes32"
        },
        {
          "indexed": true,
          "internalType": "address",
          "name": "account",
          "type": "address"
        },
        {
          "indexed": true,
          "internalType": "address",
          "name": "sender",
          "type": "address"
        }
      ],
      "name": "RoleRevoked",
      "type": "event"
    },
    {
      "anonymous": false,
      "inputs": [
        {
          "indexed": true,
          "internalType": "uint256",
          "name": "promoId",
          "type": "uint256"
        },
        {
          "indexed": false,
          "internalType": "uint256",
          "name": "currentDispensed",
          "type": "uint256"
        }
      ],
      "name": "TicketDispensed",
      "type": "event"
    },
    {
      "anonymous": false,
      "inputs": [
        {
          "indexed": true,
          "internalType": "uint256",
          "name": "promoId",
          "type": "uint256"
        },
        {
          "indexed": false,
          "internalType": "uint256",
          "name": "currentRedeemed",
          "type": "uint256"
        }
      ],
      "name": "TicketRedeemed",
      "type": "event"
    },
    {
      "inputs": [],
      "name": "DEFAULT_ADMIN_ROLE",
      "outputs": [
        {
          "internalType": "bytes32",
          "name": "",
          "type": "bytes32"
        }
      ],
      "stateMutability": "view",
      "type": "function"
    },
    {
      "inputs": [],
      "name": "LAB_ADMIN",
      "outputs": [
        {
          "internalType": "bytes32",
          "name": "",
          "type": "bytes32"
        }
      ],
      "stateMutability": "view",
      "type": "function"
    },
    {
      "inputs": [],
      "name": "LAB_TECH",
      "outputs": [
        {
          "internalType": "bytes32",
          "name": "",
          "type": "bytes32"
        }
      ],
      "stateMutability": "view",
      "type": "function"
    },
    {
      "inputs": [
        {
          "internalType": "uint256",
          "name": "promoId",
          "type": "uint256"
        }
      ],
      "name": "closePromoEvent",
      "outputs": [],
      "stateMutability": "nonpayable",
      "type": "function"
    },
    {
      "inputs": [
        {
          "internalType": "string",
          "name": "eventName",
          "type": "string"
        },
        {
          "internalType": "uint256",
          "name": "duration",
          "type": "uint256"
        },
        {
          "internalType": "bool",
          "name": "isUnrestricted",
          "type": "bool"
        },
        {
          "internalType": "uint256",
          "name": "maxTickets",
          "type": "uint256"
        },
        {
          "internalType": "bool",
          "name": "skipIncubation",
          "type": "bool"
        }
      ],
      "name": "createPromoEvent",
      "outputs": [],
      "stateMutability": "nonpayable",
      "type": "function"
    },
    {
      "inputs": [
        {
          "internalType": "uint256",
          "name": "promoId",
          "type": "uint256"
        },
        {
          "internalType": "address",
          "name": "recipient",
          "type": "address"
        },
        {
          "internalType": "uint256",
          "name": "ticketAmount",
          "type": "uint256"
        }
      ],
      "name": "dispensePromoTicket",
      "outputs": [],
      "stateMutability": "nonpayable",
      "type": "function"
    },
    {
      "inputs": [
        {
          "internalType": "uint256",
          "name": "legendId",
          "type": "uint256"
        }
      ],
      "name": "fetchBlendingCost",
      "outputs": [
        {
          "internalType": "uint256",
          "name": "",
          "type": "uint256"
        }
      ],
      "stateMutability": "view",
      "type": "function"
    },
    {
      "inputs": [
        {
          "internalType": "uint256",
          "name": "legendId",
          "type": "uint256"
        }
      ],
      "name": "fetchBlendingCount",
      "outputs": [
        {
          "internalType": "uint256",
          "name": "",
          "type": "uint256"
        }
      ],
      "stateMutability": "view",
      "type": "function"
    },
    {
      "inputs": [
        {
          "internalType": "uint256",
          "name": "promoId",
          "type": "uint256"
        }
      ],
      "name": "fetchMaxTicketsDispensable",
      "outputs": [
        {
          "internalType": "uint256",
          "name": "",
          "type": "uint256"
        }
      ],
      "stateMutability": "view",
      "type": "function"
    },
    {
      "inputs": [],
      "name": "fetchPromoCounts",
      "outputs": [
        {
          "components": [
            {
              "internalType": "uint256",
              "name": "_value",
              "type": "uint256"
            }
          ],
          "internalType": "struct Counters.Counter",
          "name": "",
          "type": "tuple"
        },
        {
          "components": [
            {
              "internalType": "uint256",
              "name": "_value",
              "type": "uint256"
            }
          ],
          "internalType": "struct Counters.Counter",
          "name": "",
          "type": "tuple"
        }
      ],
      "stateMutability": "view",
      "type": "function"
    },
    {
      "inputs": [
        {
          "internalType": "uint256",
          "name": "promoId",
          "type": "uint256"
        }
      ],
      "name": "fetchPromoEvent",
      "outputs": [
        {
          "components": [
            {
              "internalType": "string",
              "name": "promoName",
              "type": "string"
            },
            {
              "internalType": "uint256",
              "name": "promoId",
              "type": "uint256"
            },
            {
              "internalType": "uint256",
              "name": "startTime",
              "type": "uint256"
            },
            {
              "internalType": "uint256",
              "name": "expireTime",
              "type": "uint256"
            },
            {
              "internalType": "bool",
              "name": "isUnrestricted",
              "type": "bool"
            },
            {
              "internalType": "bool",
              "name": "isTicketLimit",
              "type": "bool"
            },
            {
              "internalType": "bool",
              "name": "isPromoClosed",
              "type": "bool"
            },
            {
              "components": [
                {
                  "internalType": "uint256",
                  "name": "_value",
                  "type": "uint256"
                }
              ],
              "internalType": "struct Counters.Counter",
              "name": "ticketsClaimed",
              "type": "tuple"
            },
            {
              "components": [
                {
                  "internalType": "uint256",
                  "name": "_value",
                  "type": "uint256"
                }
              ],
              "internalType": "struct Counters.Counter",
              "name": "ticketsRedeemed",
              "type": "tuple"
            }
          ],
          "internalType": "struct TicketMachine.PromoEvent",
          "name": "",
          "type": "tuple"
        }
      ],
      "stateMutability": "view",
      "type": "function"
    },
    {
      "inputs": [
        {
          "internalType": "uint256",
          "name": "promoId",
          "type": "uint256"
        },
        {
          "internalType": "address",
          "name": "recipient",
          "type": "address"
        }
      ],
      "name": "fetchRedeemableTickets",
      "outputs": [
        {
          "internalType": "uint256",
          "name": "",
          "type": "uint256"
        }
      ],
      "stateMutability": "view",
      "type": "function"
    },
    {
      "inputs": [
        {
          "internalType": "uint256",
          "name": "legendId",
          "type": "uint256"
        }
      ],
      "name": "fetchRoyaltyRecipient",
      "outputs": [
        {
          "internalType": "address payable",
          "name": "",
          "type": "address"
        }
      ],
      "stateMutability": "view",
      "type": "function"
    },
    {
      "inputs": [],
      "name": "fetchSeason",
      "outputs": [
        {
          "internalType": "string",
          "name": "",
          "type": "string"
        }
      ],
      "stateMutability": "view",
      "type": "function"
    },
    {
      "inputs": [
        {
          "internalType": "bytes32",
          "name": "role",
          "type": "bytes32"
        }
      ],
      "name": "getRoleAdmin",
      "outputs": [
        {
          "internalType": "bytes32",
          "name": "",
          "type": "bytes32"
        }
      ],
      "stateMutability": "view",
      "type": "function"
    },
    {
      "inputs": [
        {
          "internalType": "bytes32",
          "name": "role",
          "type": "bytes32"
        },
        {
          "internalType": "uint256",
          "name": "index",
          "type": "uint256"
        }
      ],
      "name": "getRoleMember",
      "outputs": [
        {
          "internalType": "address",
          "name": "",
          "type": "address"
        }
      ],
      "stateMutability": "view",
      "type": "function"
    },
    {
      "inputs": [
        {
          "internalType": "bytes32",
          "name": "role",
          "type": "bytes32"
        }
      ],
      "name": "getRoleMemberCount",
      "outputs": [
        {
          "internalType": "uint256",
          "name": "",
          "type": "uint256"
        }
      ],
      "stateMutability": "view",
      "type": "function"
    },
    {
      "inputs": [
        {
          "internalType": "bytes32",
          "name": "role",
          "type": "bytes32"
        },
        {
          "internalType": "address",
          "name": "account",
          "type": "address"
        }
      ],
      "name": "grantRole",
      "outputs": [],
      "stateMutability": "nonpayable",
      "type": "function"
    },
    {
      "inputs": [
        {
          "internalType": "bytes32",
          "name": "role",
          "type": "bytes32"
        },
        {
          "internalType": "address",
          "name": "account",
          "type": "address"
        }
      ],
      "name": "hasRole",
      "outputs": [
        {
          "internalType": "bool",
          "name": "",
          "type": "bool"
        }
      ],
      "stateMutability": "view",
      "type": "function"
    },
    {
      "inputs": [
        {
          "internalType": "uint256",
          "name": "legendId",
          "type": "uint256"
        }
      ],
      "name": "isBlendable",
      "outputs": [
        {
          "internalType": "bool",
          "name": "",
          "type": "bool"
        }
      ],
      "stateMutability": "view",
      "type": "function"
    },
    {
      "inputs": [
        {
          "internalType": "uint256",
          "name": "promoId",
          "type": "uint256"
        },
        {
          "internalType": "address",
          "name": "recipient",
          "type": "address"
        }
      ],
      "name": "isClaimed",
      "outputs": [
        {
          "internalType": "bool",
          "name": "",
          "type": "bool"
        }
      ],
      "stateMutability": "view",
      "type": "function"
    },
    {
      "inputs": [
        {
          "internalType": "uint256",
          "name": "legendId",
          "type": "uint256"
        }
      ],
      "name": "isHatched",
      "outputs": [
        {
          "internalType": "bool",
          "name": "",
          "type": "bool"
        }
      ],
      "stateMutability": "view",
      "type": "function"
    },
    {
      "inputs": [
        {
          "internalType": "uint256",
          "name": "legendId",
          "type": "uint256"
        }
      ],
      "name": "isListable",
      "outputs": [
        {
          "internalType": "bool",
          "name": "",
          "type": "bool"
        }
      ],
      "stateMutability": "view",
      "type": "function"
    },
    {
      "inputs": [
        {
          "internalType": "uint256",
          "name": "promoId",
          "type": "uint256"
        }
      ],
      "name": "isPromoIncubated",
      "outputs": [
        {
          "internalType": "bool",
          "name": "",
          "type": "bool"
        }
      ],
      "stateMutability": "view",
      "type": "function"
    },
    {
      "inputs": [
        {
          "internalType": "uint256",
          "name": "amount",
          "type": "uint256"
        }
      ],
      "name": "labBurn",
      "outputs": [],
      "stateMutability": "nonpayable",
      "type": "function"
    },
    {
      "inputs": [],
      "name": "legendRejuvenation",
      "outputs": [
        {
          "internalType": "contract LegendRejuvenation",
          "name": "",
          "type": "address"
        }
      ],
      "stateMutability": "view",
      "type": "function"
    },
    {
      "inputs": [],
      "name": "legendToken",
      "outputs": [
        {
          "internalType": "contract LegendToken",
          "name": "",
          "type": "address"
        }
      ],
      "stateMutability": "view",
      "type": "function"
    },
    {
      "inputs": [],
      "name": "legendsMarketplace",
      "outputs": [
        {
          "internalType": "contract LegendsMarketplace",
          "name": "",
          "type": "address"
        }
      ],
      "stateMutability": "view",
      "type": "function"
    },
    {
      "inputs": [],
      "name": "legendsMatchingBoard",
      "outputs": [
        {
          "internalType": "contract LegendsMatchingBoard",
          "name": "",
          "type": "address"
        }
      ],
      "stateMutability": "view",
      "type": "function"
    },
    {
      "inputs": [],
      "name": "legendsNFT",
      "outputs": [
        {
          "internalType": "contract LegendsNFT",
          "name": "",
          "type": "address"
        }
      ],
      "stateMutability": "view",
      "type": "function"
    },
    {
      "inputs": [
        {
          "internalType": "uint256",
          "name": "promoId",
          "type": "uint256"
        },
        {
          "internalType": "address",
          "name": "recipient",
          "type": "address"
        }
      ],
      "name": "mintLegendaryLegend",
      "outputs": [],
      "stateMutability": "nonpayable",
      "type": "function"
    },
    {
      "inputs": [
        {
          "internalType": "uint256",
          "name": "promoId",
          "type": "uint256"
        }
      ],
      "name": "redeemPromoTicket",
      "outputs": [],
      "stateMutability": "nonpayable",
      "type": "function"
    },
    {
      "inputs": [
        {
          "internalType": "bytes32",
          "name": "role",
          "type": "bytes32"
        },
        {
          "internalType": "address",
          "name": "account",
          "type": "address"
        }
      ],
      "name": "renounceRole",
      "outputs": [],
      "stateMutability": "nonpayable",
      "type": "function"
    },
    {
      "inputs": [
        {
          "internalType": "uint256",
          "name": "legendId",
          "type": "uint256"
        }
      ],
      "name": "reportVulgarLegend",
      "outputs": [],
      "stateMutability": "nonpayable",
      "type": "function"
    },
    {
      "inputs": [
        {
          "internalType": "uint256",
          "name": "legendId",
          "type": "uint256"
        }
      ],
      "name": "resetLegendName",
      "outputs": [],
      "stateMutability": "nonpayable",
      "type": "function"
    },
    {
      "inputs": [
        {
          "internalType": "uint256",
          "name": "legendId",
          "type": "uint256"
        },
        {
          "internalType": "uint256",
          "name": "regainedSlots",
          "type": "uint256"
        }
      ],
      "name": "restoreBlendingSlots",
      "outputs": [],
      "stateMutability": "nonpayable",
      "type": "function"
    },
    {
      "inputs": [
        {
          "internalType": "bytes32",
          "name": "role",
          "type": "bytes32"
        },
        {
          "internalType": "address",
          "name": "account",
          "type": "address"
        }
      ],
      "name": "revokeRole",
      "outputs": [],
      "stateMutability": "nonpayable",
      "type": "function"
    },
    {
      "inputs": [
        {
          "internalType": "uint256[3]",
          "name": "newAuctionDurations",
          "type": "uint256[3]"
        }
      ],
      "name": "setAuctionDurations",
      "outputs": [],
      "stateMutability": "nonpayable",
      "type": "function"
    },
    {
      "inputs": [
        {
          "internalType": "uint256",
          "name": "newAuctionExtension",
          "type": "uint256"
        }
      ],
      "name": "setAuctionExtension",
      "outputs": [],
      "stateMutability": "nonpayable",
      "type": "function"
    },
    {
      "inputs": [
        {
          "internalType": "uint256",
          "name": "newBaseBlendingCost",
          "type": "uint256"
        }
      ],
      "name": "setBaseBlendingCost",
      "outputs": [],
      "stateMutability": "nonpayable",
      "type": "function"
    },
    {
      "inputs": [
        {
          "internalType": "uint256",
          "name": "newBlendingLimit",
          "type": "uint256"
        }
      ],
      "name": "setBlendingLimit",
      "outputs": [],
      "stateMutability": "nonpayable",
      "type": "function"
    },
    {
      "inputs": [
        {
          "internalType": "uint256",
          "name": "newIncubationPeriod",
          "type": "uint256"
        }
      ],
      "name": "setIncubationPeriod",
      "outputs": [],
      "stateMutability": "nonpayable",
      "type": "function"
    },
    {
      "inputs": [
        {
          "internalType": "string[5]",
          "name": "newIncubationViews",
          "type": "string[5]"
        }
      ],
      "name": "setIncubationViews",
      "outputs": [],
      "stateMutability": "nonpayable",
      "type": "function"
    },
    {
      "inputs": [
        {
          "internalType": "uint256",
          "name": "newKinBlendingLevel",
          "type": "uint256"
        }
      ],
      "name": "setKinBlendingLevel",
      "outputs": [],
      "stateMutability": "nonpayable",
      "type": "function"
    },
    {
      "inputs": [
        {
          "internalType": "uint256",
          "name": "newMarketplaceFee",
          "type": "uint256"
        }
      ],
      "name": "setMarketplaceFee",
      "outputs": [],
      "stateMutability": "nonpayable",
      "type": "function"
    },
    {
      "inputs": [
        {
          "internalType": "uint256",
          "name": "newMaxMultiplier",
          "type": "uint256"
        }
      ],
      "name": "setMaxMultiplier",
      "outputs": [],
      "stateMutability": "nonpayable",
      "type": "function"
    },
    {
      "inputs": [
        {
          "internalType": "uint256",
          "name": "newMinimumSecure",
          "type": "uint256"
        }
      ],
      "name": "setMinimumSecure",
      "outputs": [],
      "stateMutability": "nonpayable",
      "type": "function"
    },
    {
      "inputs": [
        {
          "internalType": "uint256",
          "name": "newOfferDuration",
          "type": "uint256"
        }
      ],
      "name": "setOfferDuration",
      "outputs": [],
      "stateMutability": "nonpayable",
      "type": "function"
    },
    {
      "inputs": [
        {
          "internalType": "uint256",
          "name": "newReJuNeededPerSlot",
          "type": "uint256"
        }
      ],
      "name": "setReJuNeededPerSlot",
      "outputs": [],
      "stateMutability": "nonpayable",
      "type": "function"
    },
    {
      "inputs": [
        {
          "internalType": "uint256",
          "name": "newReJuEmissionRate",
          "type": "uint256"
        }
      ],
      "name": "setReJuPerBlock",
      "outputs": [],
      "stateMutability": "nonpayable",
      "type": "function"
    },
    {
      "inputs": [
        {
          "internalType": "uint256",
          "name": "newReportThreshold",
          "type": "uint256"
        }
      ],
      "name": "setReportThreshold",
      "outputs": [],
      "stateMutability": "nonpayable",
      "type": "function"
    },
    {
      "inputs": [
        {
          "internalType": "uint256",
          "name": "newRoyaltyFee",
          "type": "uint256"
        }
      ],
      "name": "setRoyaltyFee",
      "outputs": [],
      "stateMutability": "nonpayable",
      "type": "function"
    },
    {
      "inputs": [
        {
          "internalType": "string",
          "name": "newSeason",
          "type": "string"
        }
      ],
      "name": "setSeason",
      "outputs": [],
      "stateMutability": "nonpayable",
      "type": "function"
    },
    {
      "inputs": [
        {
          "internalType": "bytes4",
          "name": "interfaceId",
          "type": "bytes4"
        }
      ],
      "name": "supportsInterface",
      "outputs": [
        {
          "internalType": "bool",
          "name": "",
          "type": "bool"
        }
      ],
      "stateMutability": "view",
      "type": "function"
    },
    {
      "inputs": [
        {
          "internalType": "address",
          "name": "newAdmin",
          "type": "address"
        }
      ],
      "name": "transferLaboratoryAdmin",
      "outputs": [],
      "stateMutability": "nonpayable",
      "type": "function"
    },
    {
      "inputs": [],
      "name": "withdrawMarketplaceFees",
      "outputs": [],
      "stateMutability": "nonpayable",
      "type": "function"
    }
  ],
  "bytecode": "0x608060405260405162000012906200041b565b604051809103906000f0801580156200002f573d6000803e3d6000fd5b50600880546001600160a01b0319166001600160a01b03929092169190911790556040513390620000609062000429565b6001600160a01b039091168152602001604051809103906000f0801580156200008d573d6000803e3d6000fd5b50600980546001600160a01b0319166001600160a01b0392909216919091179055604051620000bc9062000437565b604051809103906000f080158015620000d9573d6000803e3d6000fd5b50600a80546001600160a01b0319166001600160a01b0392909216919091179055604051620001089062000445565b604051809103906000f08015801562000125573d6000803e3d6000fd5b50600b80546001600160a01b0319166001600160a01b0392909216919091179055604051620001549062000453565b604051809103906000f08015801562000171573d6000803e3d6000fd5b50600c80546001600160a01b0319166001600160a01b0392909216919091179055604080518082019091526007808252660a0d0decadcd2f60cb1b6020909201918252620001c291600d9162000461565b506005600f55348015620001d557600080fd5b50620001e36000306200026b565b6200020f7fa3c50eadf7191eaea0f91d60683b45bf06671be68100f95bbe6bf79e0f7f49da336200026b565b6200022a60008051602062010a49833981519152336200026b565b6200026560008051602062010a498339815191527fa3c50eadf7191eaea0f91d60683b45bf06671be68100f95bbe6bf79e0f7f49da620002ae565b62000544565b620002828282620002f960201b62001c401760201c565b6000828152600160209081526040909120620002a991839062001c4a62000309821b17901c565b505050565b600082815260208190526040808220600101805490849055905190918391839186917fbd79b86ffe0ab8e8776151514217cd7cacd52c909f66475c3af44e129f0b00ff9190a4505050565b62000305828262000329565b5050565b600062000320836001600160a01b038416620003c9565b90505b92915050565b6000828152602081815260408083206001600160a01b038516845290915290205460ff1662000305576000828152602081815260408083206001600160a01b03851684529091529020805460ff19166001179055620003853390565b6001600160a01b0316816001600160a01b0316837f2f8788117e7eff1d82e926ec794901d17c78024a50270940304540a733656f0d60405160405180910390a45050565b6000818152600183016020526040812054620004125750815460018181018455600084815260208082209093018490558454848252828601909352604090209190915562000323565b50600062000323565b613d99806200382e83390190565b61185680620075c783390190565b6119018062008e1d83390190565b6142eb806200a71e83390190565b612040806200ea0983390190565b8280546200046f9062000507565b90600052602060002090601f016020900481019282620004935760008555620004de565b82601f10620004ae57805160ff1916838001178555620004de565b82800160010185558215620004de579182015b82811115620004de578251825591602001919060010190620004c1565b50620004ec929150620004f0565b5090565b5b80821115620004ec5760008155600101620004f1565b600181811c908216806200051c57607f821691505b602082108114156200053e57634e487b7160e01b600052602260045260246000fd5b50919050565b6132da80620005546000396000f3fe608060405234801561001057600080fd5b50600436106103785760003560e01c8063805d419a116101d3578063b3f0cfaf11610104578063ced3e3f1116100a2578063da738c501161007c578063da738c5014610844578063e4eb23ae14610857578063ea832ddd1461086c578063f4c2bc8e1461087f57600080fd5b8063ced3e3f1146107e5578063d2ef0795146107f8578063d547741f1461083157600080fd5b8063c6c61413116100de578063c6c6141314610799578063ca15c873146107ac578063ca9d8fd0146107bf578063ce530674146107d257600080fd5b8063b3f0cfaf1461075e578063bd07c68314610771578063c11b72731461078657600080fd5b806391d14854116101715780639c5ef2631161014b5780639c5ef2631461071d5780639d147ce914610730578063a217fddf14610743578063a4cecdb71461074b57600080fd5b806391d14854146106c05780639407ea98146106f757806399ea58441461070a57600080fd5b80638a306563116101ad5780638a306563146106605780638c68e547146106875780639010d07c1461069a5780639050a575146106ad57600080fd5b8063805d419a1461061a57806387aef1661461062d578063884c77f31461064057600080fd5b80632b3a6fd7116102ad578063443af2ba1161024b5780634838f565116102255780634838f565146105ce5780634c89c218146105e15780634dd40112146105f4578063683c65ef1461060757600080fd5b8063443af2ba14610595578063446845eb146105a8578063478c5ef0146105bb57600080fd5b8063307b71c011610287578063307b71c01461054957806336568abe1461055c578063390134261461056f5780633e4086e51461058257600080fd5b80632b3a6fd7146105105780632d1e7f86146105235780632f2ff15d1461053657600080fd5b80630c818a9a1161031a57806319b60f05116102f457806319b60f05146104af5780631b65cd30146104c2578063248a9ca3146104e55780632a25194f1461050857600080fd5b80630c818a9a146104765780631378b62e146104895780631944f20d1461049c57600080fd5b806304bc22641161035657806304bc2264146103e557806309932bbc146104065780630b24d720146104195780630c69ebcd1461046357600080fd5b806301526a431461037d57806301ffc9a71461039257806303003205146103ba575b600080fd5b61039061038b366004612c35565b610892565b005b6103a56103a0366004612c9d565b610927565b60405190151581526020015b60405180910390f35b6009546103cd906001600160a01b031681565b6040516001600160a01b0390911681526020016103b1565b6103f86103f3366004612c35565b61096b565b6040519081526020016103b1565b6103f8610414366004612c35565b6109f6565b6040805160208082018352600091829052825180820184529190915281518082018352600254815282519182019092526003548152604080519251835290516020830152016103b1565b610390610471366004612c35565b610a8c565b610390610484366004612c35565b610b01565b610390610497366004612c35565b610b52565b6008546103cd906001600160a01b031681565b6103906104bd366004612c35565b610bb5565b6103a56104d0366004612c35565b6000908152600e602052604090205460ff1690565b6103f86104f3366004612c35565b60009081526020819052604090206001015490565b610390610c18565b6103f861051e366004612c35565b610c9c565b610390610531366004612cc5565b610d40565b610390610544366004612c4d565b610d6b565b610390610557366004612b9f565b610d92565b61039061056a366004612c4d565b610e81565b61039061057d366004612c35565b610ea3565b610390610590366004612c35565b610ec2565b6103906105a3366004612bf3565b610f13565b6103906105b6366004612c35565b610f87565b6103a56105c9366004612c35565b61104e565b6103906105dc366004612c35565b6110e5565b6103906105ef366004612c35565b611136565b600c546103cd906001600160a01b031681565b610390610615366004612ece565b611199565b610390610628366004612c35565b61122e565b61039061063b366004612bbb565b61127f565b61065361064e366004612c35565b6112f3565b6040516103b191906130ae565b6103f87f50cfca4094c55bf42de4c6bab117b8cffa7bc564d44ed30ce3669a40f63c829b81565b610390610695366004612c35565b611426565b6103cd6106a8366004612c7c565b61145e565b6103906106bb366004612d05565b61147d565b6103a56106ce366004612c4d565b6000918252602082815260408084206001600160a01b0393909316845291905290205460ff1690565b610390610705366004612c35565b6114de565b6103a5610718366004612c35565b61152f565b61039061072b366004612c35565b61157a565b61039061073e366004612c7c565b61169f565b6103f8600081565b600a546103cd906001600160a01b031681565b61039061076c366004612c35565b611770565b6103f860008051602061328583398151915281565b600b546103cd906001600160a01b031681565b6103906107a7366004612c35565b6117d3565b6103f86107ba366004612c35565b611830565b6103906107cd366004612c35565b611847565b6103906107e0366004612c35565b6118aa565b6103a56107f3366004612c35565b6119e4565b6103a5610806366004612ece565b60009182526006602090815260408084206001600160a01b0393909316845291905290205460ff1690565b61039061083f366004612c4d565b611a2f565b6103f8610852366004612ece565b611a39565b61085f611aca565b6040516103b1919061309b565b6103cd61087a366004612c35565b611b5c565b61039061088d366004612ee0565b611be8565b6000805160206132858339815191526108ab8133611c5f565b600a546040517f01526a43000000000000000000000000000000000000000000000000000000008152600481018490526001600160a01b03909116906301526a43906024015b600060405180830381600087803b15801561090b57600080fd5b505af115801561091f573d6000803e3d6000fd5b505050505050565b60006001600160e01b031982167f5a05180f000000000000000000000000000000000000000000000000000000001480610965575061096582611cdd565b92915050565b60085460405163f88378bb60e01b8152600481018390526000916001600160a01b03169063f88378bb9060240160006040518083038186803b1580156109b057600080fd5b505afa1580156109c4573d6000803e3d6000fd5b505050506040513d6000823e601f3d908101601f191682016040526109ec9190810190612d7f565b60c0015192915050565b6008546040517f09932bbc000000000000000000000000000000000000000000000000000000008152600481018390526000916001600160a01b0316906309932bbc9060240160206040518083038186803b158015610a5457600080fd5b505afa158015610a68573d6000803e3d6000fd5b505050506040513d601f19601f820116820180604052508101906109659190612eb6565b7f50cfca4094c55bf42de4c6bab117b8cffa7bc564d44ed30ce3669a40f63c829b610ab78133611c5f565b600a546040517f0c69ebcd000000000000000000000000000000000000000000000000000000008152600481018490526001600160a01b0390911690630c69ebcd906024016108f1565b600080516020613285833981519152610b1a8133611c5f565b60085460405163af5cf6c760e01b815260016004820152602481018490526001600160a01b039091169063af5cf6c7906044016108f1565b7f50cfca4094c55bf42de4c6bab117b8cffa7bc564d44ed30ce3669a40f63c829b610b7d8133611c5f565b600b546040516319e5452360e11b815260026004820152602481018490526001600160a01b03909116906333ca8a46906044016108f1565b7f50cfca4094c55bf42de4c6bab117b8cffa7bc564d44ed30ce3669a40f63c829b610be08133611c5f565b600b546040516319e5452360e11b815260036004820152602481018490526001600160a01b03909116906333ca8a46906044016108f1565b600080516020613285833981519152610c318133611c5f565b600b60009054906101000a90046001600160a01b03166001600160a01b0316632a25194f6040518163ffffffff1660e01b8152600401600060405180830381600087803b158015610c8157600080fd5b505af1158015610c95573d6000803e3d6000fd5b5050505050565b600081815260046020819052604082200154610100900460ff16610d2d5760405162461bcd60e51b815260206004820152602c60248201527f50726f6d6f204576656e7420446f6573204e6f7420486176652041204d61782060448201527f5469636b6574204c696d6974000000000000000000000000000000000000000060648201526084015b60405180910390fd5b5060009081526005602052604090205490565b600080516020613285833981519152610d598133611c5f565b610d65600d8484612930565b50505050565b610d758282611d44565b6000828152600160205260409020610d8d9082611c4a565b505050565b600080516020613285833981519152610dab8133611c5f565b6040517fd547741f0000000000000000000000000000000000000000000000000000000081526000805160206132858339815191526004820152336024820152309063d547741f90604401600060405180830381600087803b158015610e1057600080fd5b505af1158015610e24573d6000803e3d6000fd5b50506040517f2f2ff15d00000000000000000000000000000000000000000000000000000000815260008051602061328583398151915260048201526001600160a01b0385166024820152309250632f2ff15d91506044016108f1565b610e8b8282611d6a565b6000828152600160205260409020610d8d9082611df2565b600080516020613285833981519152610ebc8133611c5f565b50600f55565b600080516020613285833981519152610edb8133611c5f565b600b546040516319e5452360e11b815260006004820152602481018490526001600160a01b03909116906333ca8a46906044016108f1565b7f50cfca4094c55bf42de4c6bab117b8cffa7bc564d44ed30ce3669a40f63c829b610f3e8133611c5f565b600b546040517f443af2ba0000000000000000000000000000000000000000000000000000000081526001600160a01b039091169063443af2ba906108f1908590600401613088565b600080516020613285833981519152610fa08133611c5f565b600382106110165760405162461bcd60e51b815260206004820152602160248201527f4b696e20426c656e64696e67204c6576656c20446f6573204e6f74204578697360448201527f74000000000000000000000000000000000000000000000000000000000000006064820152608401610d24565b60085460405163af5cf6c760e01b815260006004820152602481018490526001600160a01b039091169063af5cf6c7906044016108f1565b6008546040517f478c5ef0000000000000000000000000000000000000000000000000000000008152600481018390526000916001600160a01b03169063478c5ef0906024015b60206040518083038186803b1580156110ad57600080fd5b505afa1580156110c1573d6000803e3d6000fd5b505050506040513d601f19601f820116820180604052508101906109659190612c19565b6000805160206132858339815191526110fe8133611c5f565b60085460405163af5cf6c760e01b815260026004820152602481018490526001600160a01b039091169063af5cf6c7906044016108f1565b60008051602061328583398151915261114f8133611c5f565b600a546040517f4c89c218000000000000000000000000000000000000000000000000000000008152600481018490526001600160a01b0390911690634c89c218906024016108f1565b6000805160206132858339815191526111b28133611c5f565b6111bc8383611e07565b600854604051636a6ca76560e11b81526001600160a01b03848116600483015260248201869052600160448301529091169063d4d94eca90606401600060405180830381600087803b15801561121157600080fd5b505af1158015611225573d6000803e3d6000fd5b50505050505050565b6000805160206132858339815191526112478133611c5f565b60085460405163af5cf6c760e01b815260036004820152602481018490526001600160a01b039091169063af5cf6c7906044016108f1565b7f50cfca4094c55bf42de4c6bab117b8cffa7bc564d44ed30ce3669a40f63c829b6112aa8133611c5f565b6008546040517f87aef1660000000000000000000000000000000000000000000000000000000081526001600160a01b03909116906387aef166906108f1908590600401612ffd565b6112fb6129b4565b6000828152600460205260409081902081516101208101909252805482908290611324906131fd565b80601f0160208091040260200160405190810160405280929190818152602001828054611350906131fd565b801561139d5780601f106113725761010080835404028352916020019161139d565b820191906000526020600020905b81548152906001019060200180831161138057829003601f168201915b50505091835250506001820154602080830191909152600283015460408084019190915260038401546060840152600484015460ff808216151560808601526101008083048216151560a08701526201000090920416151560c0850152815180840183526005860154815260e08501528151928301909152600690930154815291015292915050565b7f50cfca4094c55bf42de4c6bab117b8cffa7bc564d44ed30ce3669a40f63c829b6114518133611c5f565b61145a82611f74565b5050565b60008281526001602052604081206114769083612091565b9392505050565b7f50cfca4094c55bf42de4c6bab117b8cffa7bc564d44ed30ce3669a40f63c829b6114a88133611c5f565b60006114b7888888888861209d565b6000908152600e60205260409020805460ff19169315159390931790925550505050505050565b6000805160206132858339815191526114f78133611c5f565b600b546040516319e5452360e11b815260016004820152602481018490526001600160a01b03909116906333ca8a46906044016108f1565b6008546040517f99ea5844000000000000000000000000000000000000000000000000000000008152600481018390526000916001600160a01b0316906399ea584490602401611095565b600081815260116020908152604080832033845290915290205460ff161561160a5760405162461bcd60e51b815260206004820152602c60248201527f596f75204861766520416c7265616479205265706f727465642054686973204c60448201527f6567656e642773204e616d6500000000000000000000000000000000000000006064820152608401610d24565b60008181526011602090815260408083203384528252808320805460ff191660019081179091558484526010909252822080549192909161164c90849061316c565b90915550506000818152601060205260409081902054905182917f5eb321bd0ee5b2958efb8b222425d702bc8927eeb2c0aa7394753195bf83337f9161169491815260200190565b60405180910390a250565b600a546001600160a01b0316331461171f5760405162461bcd60e51b815260206004820152602360248201527f4e6f742043616c6c65642042792052656a7576656e6174696f6e20436f6e747260448201527f61637400000000000000000000000000000000000000000000000000000000006064820152608401610d24565b6008546040517f9d147ce900000000000000000000000000000000000000000000000000000000815260048101849052602481018390526001600160a01b0390911690639d147ce9906044016108f1565b6000805160206132858339815191526117898133611c5f565b6009546040517fb3f0cfaf000000000000000000000000000000000000000000000000000000008152600481018490526001600160a01b039091169063b3f0cfaf906024016108f1565b6117dd8133611e07565b600854604051636a6ca76560e11b815233600482015260248101839052600060448201526001600160a01b039091169063d4d94eca90606401600060405180830381600087803b158015610c8157600080fd5b60008181526001602052604081206109659061218f565b6000805160206132858339815191526118608133611c5f565b600a546040517fca9d8fd0000000000000000000000000000000000000000000000000000000008152600481018490526001600160a01b039091169063ca9d8fd0906024016108f1565b7f50cfca4094c55bf42de4c6bab117b8cffa7bc564d44ed30ce3669a40f63c829b6118d58133611c5f565b600f54600083815260106020526040902054101561195b5760405162461bcd60e51b815260206004820152602760248201527f5468726573686f6c64204e6f74205265616368656420466f722041646d696e2060448201527f546f2043616c6c000000000000000000000000000000000000000000000000006064820152608401610d24565b6008546040517fce530674000000000000000000000000000000000000000000000000000000008152600481018490526001600160a01b039091169063ce53067490602401600060405180830381600087803b1580156119ba57600080fd5b505af11580156119ce573d6000803e3d6000fd5b5050506000928352505060106020526040812055565b6008546040517fced3e3f1000000000000000000000000000000000000000000000000000000008152600481018390526000916001600160a01b03169063ced3e3f190602401611095565b610e8b8282612199565b60008281526004602081905260408220015462010000900460ff1615611aa15760405162461bcd60e51b815260206004820152601660248201527f50726f6d6f204576656e742048617320436c6f736564000000000000000000006044820152606401610d24565b5060009182526007602090815260408084206001600160a01b0393909316845291905290205490565b6060600d8054611ad9906131fd565b80601f0160208091040260200160405190810160405280929190818152602001828054611b05906131fd565b8015611b525780601f10611b2757610100808354040283529160200191611b52565b820191906000526020600020905b815481529060010190602001808311611b3557829003601f168201915b5050505050905090565b60085460405163f88378bb60e01b8152600481018390526000916001600160a01b03169063f88378bb9060240160006040518083038186803b158015611ba157600080fd5b505afa158015611bb5573d6000803e3d6000fd5b505050506040513d6000823e601f3d908101601f19168201604052611bdd9190810190612d7f565b610100015192915050565b60008381526004602081905260408220015460ff16611c3257611c2b7f50cfca4094c55bf42de4c6bab117b8cffa7bc564d44ed30ce3669a40f63c829b33611c5f565b5081611c35565b50335b610d658482846121bf565b61145a8282612448565b6000611476836001600160a01b0384166124e6565b6000828152602081815260408083206001600160a01b038516845290915290205460ff1661145a57611c9b816001600160a01b03166014612535565b611ca6836020612535565b604051602001611cb7929190612f7c565b60408051601f198184030181529082905262461bcd60e51b8252610d249160040161309b565b60006001600160e01b031982167f7965db0b00000000000000000000000000000000000000000000000000000000148061096557507f01ffc9a7000000000000000000000000000000000000000000000000000000006001600160e01b0319831614610965565b600082815260208190526040902060010154611d608133611c5f565b610d8d8383612448565b6001600160a01b0381163314611de85760405162461bcd60e51b815260206004820152602f60248201527f416363657373436f6e74726f6c3a2063616e206f6e6c792072656e6f756e636560448201527f20726f6c657320666f722073656c6600000000000000000000000000000000006064820152608401610d24565b61145a828261275c565b6000611476836001600160a01b0384166127db565b60008281526004602081905260409091209081015462010000900460ff1615611e725760405162461bcd60e51b815260206004820152601e60248201527f50726f6d6f204576656e742048617320416c726561647920436c6f73656400006044820152606401610d24565b6000611e7e8484611a39565b905080611ef35760405162461bcd60e51b815260206004820152603560248201527f4164647265737320486173204e6f205469636b65747320546f2052656465656d60448201527f20466f7220546869732050726f6d6f204576656e7400000000000000000000006064820152608401610d24565b60008481526007602090815260408083206001600160a01b03871684529091528120805460019290611f269084906131a3565b90915550506006820180546001019081905584907fc9c4f03b153a016160309ee0e44964d3d4a7479afa7cbdec77792ee6e5a534cc905b60405190815260200160405180910390a250505050565b600081815260046020526040902060038101544211611fd55760405162461bcd60e51b815260206004820152601960248201527f50726f6d6f20486173204e6f74205965742045787069726564000000000000006044820152606401610d24565b600481015462010000900460ff16156120305760405162461bcd60e51b815260206004820152601860248201527f50726f6d6f2048617320416c726561647920436c6f73656400000000000000006044820152606401610d24565b60048101805462ff0000191662010000179055817fa5564de58e406ec47e635d6f73dd2f0582dc4c3cd41feb15bbe22c33cda1b353612070600584015490565b60068401546040805192835260208301919091520160405180910390a25050565b600061147683836128f8565b60006120ad600280546001019055565b60006120b860025490565b905060006120c6864261316c565b60008381526004602052604090209091506120e2818a8a612930565b50600181018390554260028201556003810182905560048101805460ff191687151517905584156121305760048101805461ff00191661010017905560008381526005602052604090208590555b8888604051612140929190612f6c565b6040518091039020837f71d59def02df5d7fd25c165673e40168b501493e264f1064797de6e5367587648460405161217a91815260200190565b60405180910390a35090979650505050505050565b6000610965825490565b6000828152602081905260409020600101546121b58133611c5f565b610d8d838361275c565b6000838152600460205260409020600381015442106122205760405162461bcd60e51b815260206004820152601f60248201527f50726f6d6f204576656e742048617320416c72656164792045787069726564006044820152606401610d24565b600481015460ff16156123155760008481526006602090815260408083206001600160a01b038716845290915290205460ff16156122c55760405162461bcd60e51b8152602060048201526024808201527f50726f6d6f204576656e742048617320416c7265616479204265656e20436c6160448201527f696d6564000000000000000000000000000000000000000000000000000000006064820152608401610d24565b816001146123155760405162461bcd60e51b815260206004820152601360248201527f416d6f756e74204d75737420457175616c2031000000000000000000000000006044820152606401610d24565b6004810154610100900460ff16156123bc576000612334826005015490565b60008681526005602052604090205490915081106123ba5760405162461bcd60e51b815260206004820152602160248201527f4d6178205469636b6574204c696d697420486173204265656e2052656163686560448201527f64000000000000000000000000000000000000000000000000000000000000006064820152608401610d24565b505b60008481526006602090815260408083206001600160a01b038716808552908352818420805460ff19166001179055878452600783528184209084529091528120805484929061240d90849061316c565b90915550506005810180546001019081905584907f846c3b95b866f54765c28d71ab65901a1d9aed59fa15e47bafb658e4cb7d78ff90611f5d565b6000828152602081815260408083206001600160a01b038516845290915290205460ff1661145a576000828152602081815260408083206001600160a01b03851684529091529020805460ff191660011790556124a23390565b6001600160a01b0316816001600160a01b0316837f2f8788117e7eff1d82e926ec794901d17c78024a50270940304540a733656f0d60405160405180910390a45050565b600081815260018301602052604081205461252d57508154600181810184556000848152602080822090930184905584548482528286019093526040902091909155610965565b506000610965565b60606000612544836002613184565b61254f90600261316c565b67ffffffffffffffff81111561257557634e487b7160e01b600052604160045260246000fd5b6040519080825280601f01601f19166020018201604052801561259f576020820181803683370190505b5090507f3000000000000000000000000000000000000000000000000000000000000000816000815181106125e457634e487b7160e01b600052603260045260246000fd5b60200101906001600160f81b031916908160001a9053507f78000000000000000000000000000000000000000000000000000000000000008160018151811061263d57634e487b7160e01b600052603260045260246000fd5b60200101906001600160f81b031916908160001a9053506000612661846002613184565b61266c90600161316c565b90505b600181111561270d577f303132333435363738396162636465660000000000000000000000000000000085600f16601081106126bb57634e487b7160e01b600052603260045260246000fd5b1a60f81b8282815181106126df57634e487b7160e01b600052603260045260246000fd5b60200101906001600160f81b031916908160001a90535060049490941c93612706816131e6565b905061266f565b5083156114765760405162461bcd60e51b815260206004820181905260248201527f537472696e67733a20686578206c656e67746820696e73756666696369656e746044820152606401610d24565b6000828152602081815260408083206001600160a01b038516845290915290205460ff161561145a576000828152602081815260408083206001600160a01b0385168085529252808320805460ff1916905551339285917ff6391f5c32d9c69d2a47ea670b442974b53935d1edc7fd64eb21e047a839171b9190a45050565b600081815260018301602052604081205480156128ee5760006127ff6001836131a3565b8554909150600090612813906001906131a3565b905081811461289457600086600001828154811061284157634e487b7160e01b600052603260045260246000fd5b906000526020600020015490508087600001848154811061287257634e487b7160e01b600052603260045260246000fd5b6000918252602080832090910192909255918252600188019052604090208390555b85548690806128b357634e487b7160e01b600052603160045260246000fd5b600190038181906000526020600020016000905590558560010160008681526020019081526020016000206000905560019350505050610965565b6000915050610965565b600082600001828154811061291d57634e487b7160e01b600052603260045260246000fd5b9060005260206000200154905092915050565b82805461293c906131fd565b90600052602060002090601f01602090048101928261295e57600085556129a4565b82601f106129775782800160ff198235161785556129a4565b828001600101855582156129a4579182015b828111156129a4578235825591602001919060010190612989565b506129b0929150612a2d565b5090565b60405180610120016040528060608152602001600081526020016000815260200160008152602001600015158152602001600015158152602001600015158152602001612a0d6040518060200160405280600081525090565b8152602001612a286040518060200160405280600081525090565b905290565b5b808211156129b05760008155600101612a2e565b8051612a4d8161325e565b919050565b600082601f830112612a62578081fd5b6040516040810181811067ffffffffffffffff82111715612a8557612a85613248565b8060405250808385604086011115612a9b578384fd5b835b6002811015612abc578151835260209283019290910190600101612a9d565b509195945050505050565b8051612a4d81613276565b60008083601f840112612ae3578182fd5b50813567ffffffffffffffff811115612afa578182fd5b602083019150836020828501011115612b1257600080fd5b9250929050565b600082601f830112612b29578081fd5b815167ffffffffffffffff80821115612b4457612b44613248565b604051601f8301601f19908116603f01168101908282118183101715612b6c57612b6c613248565b81604052838152866020858801011115612b84578485fd5b612b958460208301602089016131ba565b9695505050505050565b600060208284031215612bb0578081fd5b81356114768161325e565b600060208284031215612bcc578081fd5b813567ffffffffffffffff811115612be2578182fd5b820160a08101841015611476578182fd5b600060608284031215612c04578081fd5b82606083011115612c13578081fd5b50919050565b600060208284031215612c2a578081fd5b815161147681613276565b600060208284031215612c46578081fd5b5035919050565b60008060408385031215612c5f578081fd5b823591506020830135612c718161325e565b809150509250929050565b60008060408385031215612c8e578182fd5b50508035926020909101359150565b600060208284031215612cae578081fd5b81356001600160e01b031981168114611476578182fd5b60008060208385031215612cd7578182fd5b823567ffffffffffffffff811115612ced578283fd5b612cf985828601612ad2565b90969095509350505050565b60008060008060008060a08789031215612d1d578182fd5b863567ffffffffffffffff811115612d33578283fd5b612d3f89828a01612ad2565b909750955050602087013593506040870135612d5a81613276565b9250606087013591506080870135612d7181613276565b809150509295509295509295565b600060208284031215612d90578081fd5b815167ffffffffffffffff80821115612da7578283fd5b908301906101a08286031215612dbb578283fd5b612dc3613142565b82518152602083015182811115612dd8578485fd5b612de487828601612b19565b602083015250604083015182811115612dfb578485fd5b612e0787828601612b19565b604083015250606083015182811115612e1e578485fd5b612e2a87828601612b19565b606083015250612e3d8660808501612a52565b608082015260c083015160a082015260e083015160c082015261010091508183015160e0820152610120612e72818501612a42565b838301526101409250612e86838501612ac7565b90820152610160612e98848201612ac7565b83830152612ea96101808501612ac7565b9082015295945050505050565b600060208284031215612ec7578081fd5b5051919050565b60008060408385031215612c5f578182fd5b600080600060608486031215612ef4578081fd5b833592506020840135612f068161325e565b929592945050506040919091013590565b81835281816020850137506000828201602090810191909152601f909101601f19169091010190565b60008151808452612f588160208601602086016131ba565b601f01601f19169290920160200192915050565b8183823760009101908152919050565b7f416363657373436f6e74726f6c3a206163636f756e7420000000000000000000815260008351612fb48160178501602088016131ba565b7f206973206d697373696e6720726f6c65200000000000000000000000000000006017918401918201528351612ff18160288401602088016131ba565b01602801949350505050565b602080825260009060c0830183820185845b600581101561307c57868403601f19018352813536899003601e19018112613035578687fd5b8801803567ffffffffffffffff81111561304d578788fd5b8036038a131561305b578788fd5b6130688682898501612f17565b95505050918401919084019060010161300f565b50919695505050505050565b6060818101908383376000815292915050565b6020815260006114766020830184612f40565b60208152600082516101208060208501526130cd610140850183612f40565b9150602085015160408501526040850151606085015260608501516080850152608085015161310060a086018215159052565b5060a085015180151560c08601525060c085015180151560e08601525060e085015161010061313181870183519052565b909501515193019290925250919050565b604051610180810167ffffffffffffffff8111828210171561316657613166613248565b60405290565b6000821982111561317f5761317f613232565b500190565b600081600019048311821515161561319e5761319e613232565b500290565b6000828210156131b5576131b5613232565b500390565b60005b838110156131d55781810151838201526020016131bd565b83811115610d655750506000910152565b6000816131f5576131f5613232565b506000190190565b600181811c9082168061321157607f821691505b60208210811415612c1357634e487b7160e01b600052602260045260246000fd5b634e487b7160e01b600052601160045260246000fd5b634e487b7160e01b600052604160045260246000fd5b6001600160a01b038116811461327357600080fd5b50565b801515811461327357600080fdfea3c50eadf7191eaea0f91d60683b45bf06671be68100f95bbe6bf79e0f7f49daa264697066735822122069b158c311fcf748e6d3a80bbdacc459cc702d89b807dd1120557761b036449864736f6c63430008040033610180604052603561012081815260809182919062003d6461014039815260200160405180606001604052806035815260200162003d6460359139815260200160405180606001604052806035815260200162003d6460359139815260200160405180606001604052806035815260200162003d6460359139815260200160405180606001604052806035815260200162003d64603591399052620000a990600d9060056200014e565b50600560125560646013556064601455348015620000c657600080fd5b5060405180604001604052806006815260200165131959d95b9960d21b81525060405180604001604052806006815260200165131151d1539160d21b81525081600090805190602001906200011d929190620001a5565b50805162000133906001906020840190620001a5565b5050600a80546001600160a01b0319163317905550620002e7565b826005810192821562000193579160200282015b8281111562000193578251805162000182918491602090910190620001a5565b509160200191906001019062000162565b50620001a192915062000230565b5090565b828054620001b390620002aa565b90600052602060002090601f016020900481019282620001d7576000855562000222565b82601f10620001f257805160ff191683800117855562000222565b8280016001018555821562000222579182015b828111156200022257825182559160200191906001019062000205565b50620001a192915062000251565b80821115620001a157600062000247828262000268565b5060010162000230565b5b80821115620001a1576000815560010162000252565b5080546200027690620002aa565b6000825580601f1062000287575050565b601f016020900490600052602060002090810190620002a7919062000251565b50565b600181811c90821680620002bf57607f821691505b60208210811415620002e157634e487b7160e01b600052602260045260246000fd5b50919050565b613a6d80620002f76000396000f3fe608060405234801561001057600080fd5b506004361061025b5760003560e01c80638ca46dcc11610145578063b88d4fde116100bd578063ceadb5021161008c578063d4d94eca11610071578063d4d94eca14610553578063e985e9c514610566578063f88378bb146105a257600080fd5b8063ceadb50214610513578063ced3e3f11461052657600080fd5b8063b88d4fde146104ac578063c2b64f2d146104bf578063c87b56dd146104ed578063ce5306741461050057600080fd5b80639d147ce911610114578063a22cb465116100f9578063a22cb46514610463578063ac386f4b14610476578063af5cf6c71461049957600080fd5b80639d147ce91461043d578063a18e7b2b1461045057600080fd5b80638ca46dcc146103f05780638f660ea61461040357806395d89b411461042257806399ea58441461042a57600080fd5b80632f745c59116101d85780636352211e116101a757806371de4ed71161018c57806371de4ed7146103b75780637c20234d146103ca57806387aef166146103dd57600080fd5b80636352211e1461039157806370a08231146103a457600080fd5b80632f745c591461034557806342842e0e14610358578063478c5ef01461036b5780634f6ccce71461037e57600080fd5b8063095ea7b31161022f57806318160ddd1161021457806318160ddd146103175780631b4c46fb1461031f57806323b872dd1461033257600080fd5b8063095ea7b3146102e157806309932bbc146102f657600080fd5b8062ce93811461026057806301ffc9a71461027e57806306fdde03146102a1578063081812fc146102b6575b600080fd5b6102686105c2565b604051610275919061367e565b60405180910390f35b61029161028c366004613259565b610689565b6040519015158152602001610275565b6102a96106cd565b604051610275919061373b565b6102c96102c4366004613320565b61075f565b6040516001600160a01b039091168152602001610275565b6102f46102ef3660046130ef565b6107f9565b005b610309610304366004613320565b61092b565b604051908152602001610275565b600854610309565b61030961032d36600461315b565b61095e565b6102f4610340366004613005565b610e6e565b6103096103533660046130ef565b610ef5565b6102f4610366366004613005565b610f9d565b610291610379366004613320565b610fb8565b61030961038c366004613320565b61104b565b6102c961039f366004613320565b6110fd565b6103096103b2366004612fb1565b611188565b6102f46103c5366004613338565b611222565b6102f46103d8366004613382565b61134f565b6102f46103eb36600461318f565b6113e0565b6102916103fe366004613320565b611408565b600c546012546013546014546040516102759460ff16939291906136cb565b6102a9611489565b610291610438366004613320565b611498565b6102f461044b3660046133f9565b6114e2565b6102f461045e366004613320565b611523565b6102f46104713660046130c2565b61157f565b610291610484366004613320565b60009081526017602052604090205460ff1690565b6102f46104a73660046133f9565b611644565b6102f46104ba366004613045565b6116e2565b6102916104cd3660046133f9565b600091825260186020908152604080842092845291905290205460ff1690565b6102a96104fb366004613320565b611770565b6102f461050e366004613320565b611865565b6102a9610521366004613320565b6118d9565b610291610534366004613320565b600090815260156020526040902060090154600160a81b900460ff1690565b6102f461056136600461311a565b61199b565b610291610574366004612fcd565b6001600160a01b03918216600090815260056020908152604080832093909416825291909152205460ff1690565b6105b56105b0366004613320565b611ab0565b604051610275919061374e565b6105ca612ca0565b6040805160a08101909152600d60056000835b828210156106805783820180546105f390613952565b80601f016020809104026020016040519081016040528092919081815260200182805461061f90613952565b801561066c5780601f106106415761010080835404028352916020019161066c565b820191906000526020600020905b81548152906001019060200180831161064f57829003601f168201915b5050505050815260200190600101906105dd565b50505050905090565b60006001600160e01b031982167f780e9d630000000000000000000000000000000000000000000000000000000014806106c757506106c782611d6e565b92915050565b6060600080546106dc90613952565b80601f016020809104026020016040519081016040528092919081815260200182805461070890613952565b80156107555780601f1061072a57610100808354040283529160200191610755565b820191906000526020600020905b81548152906001019060200180831161073857829003601f168201915b5050505050905090565b6000818152600260205260408120546001600160a01b03166107dd5760405162461bcd60e51b815260206004820152602c60248201527f4552433732313a20617070726f76656420717565727920666f72206e6f6e657860448201526b34b9ba32b73a103a37b5b2b760a11b60648201526084015b60405180910390fd5b506000908152600460205260409020546001600160a01b031690565b6000610804826110fd565b9050806001600160a01b0316836001600160a01b0316141561088e5760405162461bcd60e51b815260206004820152602160248201527f4552433732313a20617070726f76616c20746f2063757272656e74206f776e6560448201527f720000000000000000000000000000000000000000000000000000000000000060648201526084016107d4565b336001600160a01b03821614806108aa57506108aa8133610574565b61091c5760405162461bcd60e51b815260206004820152603860248201527f4552433732313a20617070726f76652063616c6c6572206973206e6f74206f7760448201527f6e6572206e6f7220617070726f76656420666f7220616c6c000000000000000060648201526084016107d4565b6109268383611e09565b505050565b600081815260156020526040812060080154819061094a9060016138c4565b60135461095791906138f0565b9392505050565b60003361096a846110fd565b6001600160a01b0316148015610990575033610985836110fd565b6001600160a01b0316145b61099957600080fd5b60008381526015602052604080822084835291206109b685610fb8565b6109bf57600080fd5b6109c884610fb8565b6109d157600080fd5b6002600c5460ff1660028111156109f857634e487b7160e01b600052602160045260246000fd5b14610b7d576040805180820191829052610a6391600485019060029082845b815481526020019060010190808311610a17575050604080518082019182905293506004870192506002915082845b815481526020019060010190808311610a46575050505050611e84565b610ad55760405162461bcd60e51b815260206004820152602860248201527f426c656e64696e67204e6f7420416c6c6f7765642057697468205369626c696e60448201527f67204c6567656e6400000000000000000000000000000000000000000000000060648201526084016107d4565b6001600c5460ff166002811115610afc57634e487b7160e01b600052602160045260246000fd5b14610b7d57610b0b8585611f4f565b610b7d5760405162461bcd60e51b815260206004820152602760248201527f426c656e64696e67204e6f7420416c6c6f776564205769746820506172656e7460448201527f204c6567656e640000000000000000000000000000000000000000000000000060648201526084016107d4565b60006002610b8a8661092b565b610b938861092b565b610b9d91906138c4565b610ba791906138dc565b9050600a60009054906101000a90046001600160a01b03166001600160a01b031663030032056040518163ffffffff1660e01b815260040160206040518083038186803b158015610bf757600080fd5b505afa158015610c0b573d6000803e3d6000fd5b505050506040513d601f19601f82011682018060405250810190610c2f9190613291565b6040517f9f87833f000000000000000000000000000000000000000000000000000000008152336004820152602481018390526001600160a01b039190911690639f87833f90604401600060405180830381600087803b158015610c9257600080fd5b505af1158015610ca6573d6000803e3d6000fd5b50505050610cb8600b80546001019055565b6000610cc3600b5490565b604080518082019091528881526020810188905290915060005b6002811015610dcd57600060156000848460028110610d0c57634e487b7160e01b600052603260045260246000fd5b6020020151815260200190815260200160002090506001816008016000828254610d3691906138c4565b925050819055506001816007016000828254610d5291906138c4565b909155506001905060186000858560028110610d7e57634e487b7160e01b600052603260045260246000fd5b60200201518152602001908152602001600020600086815260200190815260200160002060006101000a81548160ff021916908315150217905550508080610dc59061398d565b915050610cdd565b506000610e1483610de484845b6020020151611fa3565b610def856001610dda565b604051602001610e009291906135ea565b6040516020818303038152906040526120f9565b9050610e258a84848460008061215d565b87897f8f02af4ec019b401c0e9f3fd6c02b233d6d5d34ef5d13eed42d576aecc06766c85604051610e5891815260200190565b60405180910390a3509098975050505050505050565b610e7833826122f4565b610eea5760405162461bcd60e51b815260206004820152603160248201527f4552433732313a207472616e736665722063616c6c6572206973206e6f74206f60448201527f776e6572206e6f7220617070726f76656400000000000000000000000000000060648201526084016107d4565b6109268383836123e7565b6000610f0083611188565b8210610f745760405162461bcd60e51b815260206004820152602b60248201527f455243373231456e756d657261626c653a206f776e657220696e646578206f7560448201527f74206f6620626f756e647300000000000000000000000000000000000000000060648201526084016107d4565b506001600160a01b03919091166000908152600660209081526040808320938352929052205490565b610926838383604051806020016040528060008152506116e2565b601254600082815260156020526040812060070154909110156110435760405162461bcd60e51b815260206004820152602560248201527f4c6567656e64204861732052656163686564204d617820426c656e64696e672060448201527f536c6f747300000000000000000000000000000000000000000000000000000060648201526084016107d4565b506001919050565b600061105660085490565b82106110ca5760405162461bcd60e51b815260206004820152602c60248201527f455243373231456e756d657261626c653a20676c6f62616c20696e646578206f60448201527f7574206f6620626f756e6473000000000000000000000000000000000000000060648201526084016107d4565b600882815481106110eb57634e487b7160e01b600052603260045260246000fd5b90600052602060002001549050919050565b6000818152600260205260408120546001600160a01b0316806106c75760405162461bcd60e51b815260206004820152602960248201527f4552433732313a206f776e657220717565727920666f72206e6f6e657869737460448201527f656e7420746f6b656e000000000000000000000000000000000000000000000060648201526084016107d4565b60006001600160a01b0382166112065760405162461bcd60e51b815260206004820152602a60248201527f4552433732313a2062616c616e636520717565727920666f7220746865207a6560448201527f726f20616464726573730000000000000000000000000000000000000000000060648201526084016107d4565b506001600160a01b031660009081526003602052604090205490565b3361122c846110fd565b6001600160a01b03161461123f57600080fd5b61124883611408565b6112945760405162461bcd60e51b815260206004820152601f60248201527f4c6567656e64204e65656473204c6f6e67657220546f20496e6375626174650060448201526064016107d4565b60008381526015602090815260409182902060090180547fffffffffffffffffffff00ffffffffffffffffffffffffffffffffffffffffff16600160a81b1790558151601f840182900482028101820190925282825261131091859185908590819084018382808284376000920191909152506125cc92505050565b827f7212dd6ad91628f15bd648b9d774dd7ece843f5530043c4ccdf0784607ebbbb24260405161134291815260200190565b60405180910390a2505050565b61135885611498565b61136157600080fd5b600085815260156020526040902061137d906002018585612cc7565b50600085815260156020526040902061139a906003018383612cc7565b50847f06d4a29ec1d356093e05fa671c13569f2d68546579b6a8ec36b660db70ca390f858585856040516113d19493929190613709565b60405180910390a25050505050565b600a546001600160a01b031633146113f757600080fd5b611404600d826005612d4b565b5050565b600081815260156020526040812060090154600160a81b900460ff161561142e57600080fd5b60008281526017602052604090205460ff161561144d57506001919050565b601454600083815260156020526040812060060154909161146d916138c4565b9050804210156114805750600092915050565b50600192915050565b6060600180546106dc90613952565b6000336114a4836110fd565b6001600160a01b0316146114ba57506000919050565b600082815260156020526040902060090154600160a81b900460ff1661104357506000919050565b600a546001600160a01b031633146114f957600080fd5b6000828152601560205260408120600701805483929061151a90849061390f565b90915550505050565b3361152d826110fd565b6001600160a01b03161461154057600080fd5b611549816125eb565b6040518181527f82c02749330cd846562e337f0a18fb1266e17bac7290c5ccd1a7181d94bd65589060200160405180910390a150565b6001600160a01b0382163314156115d85760405162461bcd60e51b815260206004820152601960248201527f4552433732313a20617070726f766520746f2063616c6c65720000000000000060448201526064016107d4565b3360008181526005602090815260408083206001600160a01b03871680855290835292819020805460ff191686151590811790915590519081529192917f17307eab39ab6107e8899845ad3d59bd9653f200f220920489ca2b5937696c31910160405180910390a35050565b600a546001600160a01b0316331461165b57600080fd5b816116b5578061167e57600c80546000919060ff19166001835b02179055505050565b8060011415611698575050600c805460ff19166001179055565b806002141561140457600c80546002919060ff1916600183611675565b81600114156116c45760125550565b81600214156116d35760135550565b81600314156114045760145550565b6116ec33836122f4565b61175e5760405162461bcd60e51b815260206004820152603160248201527f4552433732313a207472616e736665722063616c6c6572206973206e6f74206f60448201527f776e6572206e6f7220617070726f76656400000000000000000000000000000060648201526084016107d4565b61176a8484848461269f565b50505050565b6000818152600260205260409020546060906001600160a01b03166117fd5760405162461bcd60e51b815260206004820152602f60248201527f4552433732314d657461646174613a2055524920717565727920666f72206e6f60448201527f6e6578697374656e7420746f6b656e000000000000000000000000000000000060648201526084016107d4565b600061181460408051602081019091526000815290565b905060008151116118345760405180602001604052806000815250610957565b8061183e84611fa3565b60405160200161184f9291906134e2565b6040516020818303038152906040529392505050565b600a546001600160a01b0316331461187c57600080fd5b6040805160208082018084526000808452858152601590925292902090516118aa9260029092019190612d97565b506040805160208082018084526000808452858152601590925292902090516114049260039092019190612d97565b6000818152600260205260409020546060906001600160a01b03166118fd57600080fd5b6000828152601660205260409020805461191690613952565b80601f016020809104026020016040519081016040528092919081815260200182805461194290613952565b801561198f5780601f106119645761010080835404028352916020019161198f565b820191906000526020600020905b81548152906001019060200180831161197257829003601f168201915b50505050509050919050565b600a546001600160a01b031633146119b257600080fd5b6119c0600b80546001019055565b60006119cb600b5490565b905060006040518060400160405280600081526020016000815250905060006119fc836119f787611fa3565b6120f9565b600a546040517f1b65cd30000000000000000000000000000000000000000000000000000000008152600481018890529192506000916001600160a01b0390911690631b65cd309060240160206040518083038186803b158015611a5f57600080fd5b505afa158015611a73573d6000803e3d6000fd5b505050506040513d601f19601f82011682018060405250810190611a97919061323d565b9050611aa787858585898661215d565b50505050505050565b611ab8612e0b565b6000828152600260205260409020546001600160a01b0316611ad957600080fd5b601560008381526020019081526020016000206040518061018001604052908160008201548152602001600182018054611b1290613952565b80601f0160208091040260200160405190810160405280929190818152602001828054611b3e90613952565b8015611b8b5780601f10611b6057610100808354040283529160200191611b8b565b820191906000526020600020905b815481529060010190602001808311611b6e57829003601f168201915b50505050508152602001600282018054611ba490613952565b80601f0160208091040260200160405190810160405280929190818152602001828054611bd090613952565b8015611c1d5780601f10611bf257610100808354040283529160200191611c1d565b820191906000526020600020905b815481529060010190602001808311611c0057829003601f168201915b50505050508152602001600382018054611c3690613952565b80601f0160208091040260200160405190810160405280929190818152602001828054611c6290613952565b8015611caf5780601f10611c8457610100808354040283529160200191611caf565b820191906000526020600020905b815481529060010190602001808311611c9257829003601f168201915b5050509183525050604080518082019182905260209092019190600484019060029082845b815481526020019060010190808311611cd45750505091835250506006820154602082015260078201546040820152600882015460608201526009909101546001600160a01b038116608083015260ff600160a01b82048116151560a0840152600160a81b82048116151560c084015276010000000000000000000000000000000000000000000090910416151560e09091015292915050565b60006001600160e01b031982167f80ac58cd000000000000000000000000000000000000000000000000000000001480611dd157506001600160e01b031982167f5b5e139f00000000000000000000000000000000000000000000000000000000145b806106c757507f01ffc9a7000000000000000000000000000000000000000000000000000000006001600160e01b03198316146106c7565b6000818152600460205260409020805473ffffffffffffffffffffffffffffffffffffffff19166001600160a01b0384169081179091558190611e4b826110fd565b6001600160a01b03167f8c5be1e5ebec7d5bd14f71427d1e84f3dd0314c0f7b2291e5b200ac8c7c3b92560405160405180910390a45050565b81516000901580611e9457508151155b15611ea1575060016106c7565b81604051602001611eb291906134ae565b6040516020818303038152906040528051906020012083604051602001611ed991906134ae565b6040516020818303038152906040528051906020012014158015610957575082604051602001611f0991906134ae565b6040516020818303038152906040528051906020012082604051602001611f3091906134ae565b6040516020818303038152906040528051906020012014159392505050565b600082815260186020908152604080832084845290915281205460ff1615611f79575060006106c7565b600082815260186020908152604080832086845290915290205460ff1615611480575060006106c7565b606081611fe357505060408051808201909152600181527f3000000000000000000000000000000000000000000000000000000000000000602082015290565b8160005b811561200d5780611ff78161398d565b91506120069050600a836138dc565b9150611fe7565b60008167ffffffffffffffff81111561203657634e487b7160e01b600052604160045260246000fd5b6040519080825280601f01601f191660200182016040528015612060576020820181803683370190505b5090505b84156120f15761207560018361390f565b9150612082600a866139a8565b61208d9060306138c4565b60f81b8183815181106120b057634e487b7160e01b600052603260045260246000fd5b60200101907effffffffffffffffffffffffffffffffffffffffffffffffffffffffffffff1916908160001a9053506120ea600a866138dc565b9450612064565b949350505050565b60606000612105612728565b905061211084611fa3565b600d826005811061213157634e487b7160e01b600052603260045260246000fd5b018460405160200161214593929190613511565b60405160208183030381529060405291505092915050565b6121678686612770565b83516000906121785750600061217b565b50855b600086815260156020526040808220888155600a5482517fe4eb23ae000000000000000000000000000000000000000000000000000000008152925191936001600160a01b039091169263e4eb23ae9260048083019392829003018186803b1580156121e657600080fd5b505afa1580156121fa573d6000803e3d6000fd5b505050506040513d6000823e601f3d908101601f1916820160405261222291908101906132ad565b8051612238916001840191602090910190612d97565b5061224860048201876002612e72565b504260068201556009810180546001600160a01b0384167fffffffffffffffffffffff00000000000000000000000000000000000000000090911617600160a01b861515021790556000878152601760205260409020805460ff19168415151790556122b487866125cc565b6040516001600160a01b0383169088907f79e5f511bb9bfc9228c8dcb92afe3487a0a2fb935727d236b1c9d0a4fb0ac5ef90600090a35050505050505050565b6000818152600260205260408120546001600160a01b031661236d5760405162461bcd60e51b815260206004820152602c60248201527f4552433732313a206f70657261746f7220717565727920666f72206e6f6e657860448201526b34b9ba32b73a103a37b5b2b760a11b60648201526084016107d4565b6000612378836110fd565b9050806001600160a01b0316846001600160a01b031614806123b35750836001600160a01b03166123a88461075f565b6001600160a01b0316145b806120f157506001600160a01b0380821660009081526005602090815260408083209388168352929052205460ff166120f1565b826001600160a01b03166123fa826110fd565b6001600160a01b0316146124765760405162461bcd60e51b815260206004820152602960248201527f4552433732313a207472616e73666572206f6620746f6b656e2074686174206960448201527f73206e6f74206f776e000000000000000000000000000000000000000000000060648201526084016107d4565b6001600160a01b0382166124f15760405162461bcd60e51b8152602060048201526024808201527f4552433732313a207472616e7366657220746f20746865207a65726f2061646460448201527f726573730000000000000000000000000000000000000000000000000000000060648201526084016107d4565b6124fc8383836128cb565b612507600082611e09565b6001600160a01b038316600090815260036020526040812080546001929061253090849061390f565b90915550506001600160a01b038216600090815260036020526040812080546001929061255e9084906138c4565b9091555050600081815260026020526040808220805473ffffffffffffffffffffffffffffffffffffffff19166001600160a01b0386811691821790925591518493918716917fddf252ad1be2c89b69c2b068fc378daa952ba7f163c4a11628f55a4df523b3ef91a4505050565b6000828152601660209081526040909120825161092692840190612d97565b60006125f6826110fd565b9050612604816000846128cb565b61260f600083611e09565b6001600160a01b038116600090815260036020526040812080546001929061263890849061390f565b9091555050600082815260026020526040808220805473ffffffffffffffffffffffffffffffffffffffff19169055518391906001600160a01b038416907fddf252ad1be2c89b69c2b068fc378daa952ba7f163c4a11628f55a4df523b3ef908390a45050565b6126aa8484846123e7565b6126b684848484612983565b61176a5760405162461bcd60e51b815260206004820152603260248201527f4552433732313a207472616e7366657220746f206e6f6e20455243373231526560448201527f63656976657220696d706c656d656e746572000000000000000000000000000060648201526084016107d4565b600060054442604051602001612748929190918252602082015260400190565b6040516020818303038152906040528051906020012060001c61276b91906139a8565b905090565b6001600160a01b0382166127c65760405162461bcd60e51b815260206004820181905260248201527f4552433732313a206d696e7420746f20746865207a65726f206164647265737360448201526064016107d4565b6000818152600260205260409020546001600160a01b03161561282b5760405162461bcd60e51b815260206004820152601c60248201527f4552433732313a20746f6b656e20616c7265616479206d696e7465640000000060448201526064016107d4565b612837600083836128cb565b6001600160a01b03821660009081526003602052604081208054600192906128609084906138c4565b9091555050600081815260026020526040808220805473ffffffffffffffffffffffffffffffffffffffff19166001600160a01b03861690811790915590518392907fddf252ad1be2c89b69c2b068fc378daa952ba7f163c4a11628f55a4df523b3ef908290a45050565b6001600160a01b0383166129265761292181600880546000838152600960205260408120829055600182018355919091527ff3f7a9fe364faab93b216da50a3214154f22a0a2b415b23a84c8169e8b636ee30155565b612949565b816001600160a01b0316836001600160a01b031614612949576129498382612ae6565b6001600160a01b0382166129605761092681612b83565b826001600160a01b0316826001600160a01b031614610926576109268282612c5c565b60006001600160a01b0384163b15612adb57604051630a85bd0160e11b81526001600160a01b0385169063150b7a02906129c7903390899088908890600401613642565b602060405180830381600087803b1580156129e157600080fd5b505af1925050508015612a11575060408051601f3d908101601f19168201909252612a0e91810190613275565b60015b612ac1573d808015612a3f576040519150601f19603f3d011682016040523d82523d6000602084013e612a44565b606091505b508051612ab95760405162461bcd60e51b815260206004820152603260248201527f4552433732313a207472616e7366657220746f206e6f6e20455243373231526560448201527f63656976657220696d706c656d656e746572000000000000000000000000000060648201526084016107d4565b805181602001fd5b6001600160e01b031916630a85bd0160e11b1490506120f1565b506001949350505050565b60006001612af384611188565b612afd919061390f565b600083815260076020526040902054909150808214612b50576001600160a01b03841660009081526006602090815260408083208584528252808320548484528184208190558352600790915290208190555b5060009182526007602090815260408084208490556001600160a01b039094168352600681528383209183525290812055565b600854600090612b959060019061390f565b60008381526009602052604081205460088054939450909284908110612bcb57634e487b7160e01b600052603260045260246000fd5b906000526020600020015490508060088381548110612bfa57634e487b7160e01b600052603260045260246000fd5b6000918252602080832090910192909255828152600990915260408082208490558582528120556008805480612c4057634e487b7160e01b600052603160045260246000fd5b6001900381819060005260206000200160009055905550505050565b6000612c6783611188565b6001600160a01b039093166000908152600660209081526040808320868452825280832085905593825260079052919091209190915550565b6040518060a001604052806005905b6060815260200190600190039081612caf5790505090565b828054612cd390613952565b90600052602060002090601f016020900481019282612cf55760008555612d3b565b82601f10612d0e5782800160ff19823516178555612d3b565b82800160010185558215612d3b579182015b82811115612d3b578235825591602001919060010190612d20565b50612d47929150612e9f565b5090565b8260058101928215612d8b579160200282015b82811115612d8b5782518051612d7b918491602090910190612d97565b5091602001919060010190612d5e565b50612d47929150612eb4565b828054612da390613952565b90600052602060002090601f016020900481019282612dc55760008555612d3b565b82601f10612dde57805160ff1916838001178555612d3b565b82800160010185558215612d3b579182015b82811115612d3b578251825591602001919060010190612df0565b60405180610180016040528060008152602001606081526020016060815260200160608152602001612e3b612ed1565b815260006020820181905260408201819052606082018190526080820181905260a0820181905260c0820181905260e09091015290565b8260028101928215612d3b5791602002820182811115612d3b578251825591602001919060010190612df0565b5b80821115612d475760008155600101612ea0565b80821115612d47576000612ec88282612eef565b50600101612eb4565b60405180604001604052806002906020820280368337509192915050565b508054612efb90613952565b6000825580601f10612f0b575050565b601f016020900490600052602060002090810190612f299190612e9f565b50565b6000612f3f612f3a8461389c565b61386b565b9050828152838383011115612f5357600080fd5b828260208301376000602084830101529392505050565b60008083601f840112612f7b578182fd5b50813567ffffffffffffffff811115612f92578182fd5b602083019150836020828501011115612faa57600080fd5b9250929050565b600060208284031215612fc2578081fd5b8135610957816139fe565b60008060408385031215612fdf578081fd5b8235612fea816139fe565b91506020830135612ffa816139fe565b809150509250929050565b600080600060608486031215613019578081fd5b8335613024816139fe565b92506020840135613034816139fe565b929592945050506040919091013590565b6000806000806080858703121561305a578081fd5b8435613065816139fe565b93506020850135613075816139fe565b925060408501359150606085013567ffffffffffffffff811115613097578182fd5b8501601f810187136130a7578182fd5b6130b687823560208401612f2c565b91505092959194509250565b600080604083850312156130d4578182fd5b82356130df816139fe565b91506020830135612ffa81613a13565b60008060408385031215613101578182fd5b823561310c816139fe565b946020939093013593505050565b60008060006060848603121561312e578283fd5b8335613139816139fe565b925060208401359150604084013561315081613a13565b809150509250925092565b60008060006060848603121561316f578081fd5b833561317a816139fe565b95602085013595506040909401359392505050565b600060208083850312156131a1578182fd5b823567ffffffffffffffff808211156131b8578384fd5b8185019150601f86818401126131cc578485fd5b6131d4613842565b80848960a0870111156131e5578788fd5b875b600581101561322e578135868111156131fe57898afd5b87018581018c1361320d57898afd5b61321b8c82358b8401612f2c565b85525092870192908701906001016131e7565b50909998505050505050505050565b60006020828403121561324e578081fd5b815161095781613a13565b60006020828403121561326a578081fd5b813561095781613a21565b600060208284031215613286578081fd5b815161095781613a21565b6000602082840312156132a2578081fd5b8151610957816139fe565b6000602082840312156132be578081fd5b815167ffffffffffffffff8111156132d4578182fd5b8201601f810184136132e4578182fd5b80516132f2612f3a8261389c565b818152856020838501011115613306578384fd5b613317826020830160208601613926565b95945050505050565b600060208284031215613331578081fd5b5035919050565b60008060006040848603121561334c578081fd5b83359250602084013567ffffffffffffffff811115613369578182fd5b61337586828701612f6a565b9497909650939450505050565b600080600080600060608688031215613399578283fd5b85359450602086013567ffffffffffffffff808211156133b7578485fd5b6133c389838a01612f6a565b909650945060408801359150808211156133db578283fd5b506133e888828901612f6a565b969995985093965092949392505050565b6000806040838503121561340b578182fd5b50508035926020909101359150565b8060005b600281101561176a57815184526020938401939091019060010161341e565b60008151808452613455816020860160208601613926565b601f01601f19169290920160200192915050565b81835281816020850137506000828201602090810191909152601f909101601f19169091010190565b600081516134a4818560208601613926565b9290920192915050565b60008183825b60028110156134d35781518352602092830192909101906001016134b4565b50505060408201905092915050565b600083516134f4818460208801613926565b835190830190613508818360208801613926565b01949350505050565b6000845160206135248285838a01613926565b600b60fa1b9184019182528554600190849080831c8184168061354857607f821691505b85821081141561356657634e487b7160e01b88526022600452602488fd5b80801561357a576001811461358f576135bf565b60ff19841688870152828801860194506135bf565b60008c815260209020895b848110156135b55781548a820189015290870190880161359a565b5050858389010194505b505050506135dd6135d782600b60fa1b815260010190565b88613492565b9998505050505050505050565b600083516135fc818460208801613926565b7f2b000000000000000000000000000000000000000000000000000000000000009083019081528351613636816001840160208801613926565b01600101949350505050565b60006001600160a01b03808716835280861660208401525083604083015260806060830152613674608083018461343d565b9695505050505050565b602080825260009060c0830183820185845b60058110156136bf57601f198785030183526136ad84835161343d565b93509184019190840190600101613690565b50919695505050505050565b60808101600386106136ed57634e487b7160e01b600052602160045260246000fd5b9481526020810193909352604083019190915260609091015290565b60408152600061371d604083018688613469565b8281036020840152613730818587613469565b979650505050505050565b602081526000610957602083018461343d565b6020815281516020820152600060208301516101a08060408501526137776101c085018361343d565b91506040850151601f1980868503016060870152613795848361343d565b93506060870151915080868503016080870152506137b3838261343d565b92505060808501516137c860a086018261341a565b5060a085015160e085015260c0850151610100818187015260e087015191506101208281880152818801519250610140915061380e828801846001600160a01b03169052565b87015191506101606138238782018415159052565b9087015115156101808701529590950151151593019290925250919050565b60405160a0810167ffffffffffffffff81118282101715613865576138656139e8565b60405290565b604051601f8201601f1916810167ffffffffffffffff81118282101715613894576138946139e8565b604052919050565b600067ffffffffffffffff8211156138b6576138b66139e8565b50601f01601f191660200190565b600082198211156138d7576138d76139bc565b500190565b6000826138eb576138eb6139d2565b500490565b600081600019048311821515161561390a5761390a6139bc565b500290565b600082821015613921576139216139bc565b500390565b60005b83811015613941578181015183820152602001613929565b8381111561176a5750506000910152565b600181811c9082168061396657607f821691505b6020821081141561398757634e487b7160e01b600052602260045260246000fd5b50919050565b60006000198214156139a1576139a16139bc565b5060010190565b6000826139b7576139b76139d2565b500690565b634e487b7160e01b600052601160045260246000fd5b634e487b7160e01b600052601260045260246000fd5b634e487b7160e01b600052604160045260246000fd5b6001600160a01b0381168114612f2957600080fd5b8015158114612f2957600080fd5b6001600160e01b031981168114612f2957600080fdfea26469706673582212204ca2261c71301f3a3569749135192450ad8a10f10773ecdfb25d9a2a44c5a04e64736f6c63430008040033697066733a2f2f516d657769556e437436636761646d6369344d3273326a6e444e7831793567545132516935455834455842624e476101406040527f6e71edae12b1b97f4d1f60370fef10105fa2faae0126114a169c64845d6126c9610120523480156200003757600080fd5b5060405162001856380380620018568339810160408190526200005a916200034b565b604051806040016040528060078152602001664c6567656e647360c81b81525080604051806040016040528060018152602001603160f81b815250604051806040016040528060078152602001664c6567656e647360c81b815250604051806040016040528060048152602001631311d39160e21b8152508160039080519060200190620000ea929190620002a5565b50805162000100906004906020840190620002a5565b5050825160209384012082519284019290922060c083815260e08290524660a0818152604080517f8b73c3c69bb8fe3d512ecc4cf759cc79239f7b179b0ffacaa9a75d522b39400f818a01819052818301989098526060810195909552608080860193909352308583015280518086039092018252939092019092528051940193909320909252610100525050600680546001600160a01b03191633179055620001b6816a52b7d2dcc80cd2e4000000620001bd565b50620003dd565b6001600160a01b038216620002185760405162461bcd60e51b815260206004820152601f60248201527f45524332303a206d696e7420746f20746865207a65726f206164647265737300604482015260640160405180910390fd5b80600260008282546200022c91906200037b565b90915550506001600160a01b038216600090815260208190526040812080548392906200025b9084906200037b565b90915550506040518181526001600160a01b038316906000907fddf252ad1be2c89b69c2b068fc378daa952ba7f163c4a11628f55a4df523b3ef9060200160405180910390a35050565b828054620002b390620003a0565b90600052602060002090601f016020900481019282620002d7576000855562000322565b82601f10620002f257805160ff191683800117855562000322565b8280016001018555821562000322579182015b828111156200032257825182559160200191906001019062000305565b506200033092915062000334565b5090565b5b8082111562000330576000815560010162000335565b6000602082840312156200035d578081fd5b81516001600160a01b038116811462000374578182fd5b9392505050565b600082198211156200039b57634e487b7160e01b81526011600452602481fd5b500190565b600181811c90821680620003b557607f821691505b60208210811415620003d757634e487b7160e01b600052602260045260246000fd5b50919050565b60805160a05160c05160e05161010051610120516114296200042d600039600061070a01526000610be101526000610c3001526000610c0b01526000610b8f01526000610bb801526114296000f3fe608060405234801561001057600080fd5b506004361061011b5760003560e01c806370a08231116100b2578063a457c2d711610081578063b3f0cfaf11610066578063b3f0cfaf14610242578063d505accf14610255578063dd62ed3e1461026857600080fd5b8063a457c2d71461021c578063a9059cbb1461022f57600080fd5b806370a08231146101c55780637ecebe00146101ee57806395d89b41146102015780639f87833f1461020957600080fd5b8063313ce567116100ee578063313ce567146101865780633644e51514610195578063395093511461019d57806342966c68146101b057600080fd5b806306fdde0314610120578063095ea7b31461013e57806318160ddd1461016157806323b872dd14610173575b600080fd5b6101286102a1565b6040516101359190611311565b60405180910390f35b61015161014c3660046112b2565b610333565b6040519015158152602001610135565b6002545b604051908152602001610135565b6101516101813660046111fd565b610349565b60405160128152602001610135565b61016561040d565b6101516101ab3660046112b2565b61041c565b6101c36101be3660046112f9565b610458565b005b6101656101d33660046111a2565b6001600160a01b031660009081526020819052604090205490565b6101656101fc3660046111a2565b610465565b610128610485565b6101c36102173660046112b2565b610494565b61015161022a3660046112b2565b610588565b61015161023d3660046112b2565b610639565b6101c36102503660046112f9565b610646565b6101c361026336600461123d565b6106b6565b6101656102763660046111c5565b6001600160a01b03918216600090815260016020908152604080832093909416825291909152205490565b6060600380546102b090611393565b80601f01602080910402602001604051908101604052809291908181526020018280546102dc90611393565b80156103295780601f106102fe57610100808354040283529160200191610329565b820191906000526020600020905b81548152906001019060200180831161030c57829003601f168201915b5050505050905090565b600061034033848461081a565b50600192915050565b6000610356848484610973565b6001600160a01b0384166000908152600160209081526040808320338452909152902054828110156103f55760405162461bcd60e51b815260206004820152602860248201527f45524332303a207472616e7366657220616d6f756e742065786365656473206160448201527f6c6c6f77616e636500000000000000000000000000000000000000000000000060648201526084015b60405180910390fd5b610402853385840361081a565b506001949350505050565b6000610417610b8b565b905090565b3360008181526001602090815260408083206001600160a01b03871684529091528120549091610340918590610453908690611364565b61081a565b6104623382610c7e565b50565b6001600160a01b0381166000908152600560205260408120545b92915050565b6060600480546102b090611393565b600660009054906101000a90046001600160a01b03166001600160a01b0316631944f20d6040518163ffffffff1660e01b815260040160206040518083038186803b1580156104e257600080fd5b505afa1580156104f6573d6000803e3d6000fd5b505050506040513d601f19601f8201168201806040525081019061051a91906112dd565b6001600160a01b0316336001600160a01b03161461057a5760405162461bcd60e51b815260206004820152601a60248201527f4e6f742043616c6c6564204279204e465420436f6e747261637400000000000060448201526064016103ec565b6105848282610c7e565b5050565b3360009081526001602090815260408083206001600160a01b0386168452909152812054828110156106225760405162461bcd60e51b815260206004820152602560248201527f45524332303a2064656372656173656420616c6c6f77616e63652062656c6f7760448201527f207a65726f00000000000000000000000000000000000000000000000000000060648201526084016103ec565b61062f338585840361081a565b5060019392505050565b6000610340338484610973565b6006546001600160a01b031633146106a05760405162461bcd60e51b815260206004820152601760248201527f4e6f742043616c6c6564204279204c61622041646d696e00000000000000000060448201526064016103ec565b600654610462906001600160a01b031682610c7e565b834211156107065760405162461bcd60e51b815260206004820152601d60248201527f45524332305065726d69743a206578706972656420646561646c696e6500000060448201526064016103ec565b60007f00000000000000000000000000000000000000000000000000000000000000008888886107358c610dfb565b6040805160208101969096526001600160a01b0394851690860152929091166060840152608083015260a082015260c0810186905260e001604051602081830303815290604052805190602001209050600061079082610e23565b905060006107a082878787610e8c565b9050896001600160a01b0316816001600160a01b0316146108035760405162461bcd60e51b815260206004820152601e60248201527f45524332305065726d69743a20696e76616c6964207369676e6174757265000060448201526064016103ec565b61080e8a8a8a61081a565b50505050505050505050565b6001600160a01b0383166108955760405162461bcd60e51b8152602060048201526024808201527f45524332303a20617070726f76652066726f6d20746865207a65726f2061646460448201527f726573730000000000000000000000000000000000000000000000000000000060648201526084016103ec565b6001600160a01b0382166109115760405162461bcd60e51b815260206004820152602260248201527f45524332303a20617070726f766520746f20746865207a65726f20616464726560448201527f737300000000000000000000000000000000000000000000000000000000000060648201526084016103ec565b6001600160a01b0383811660008181526001602090815260408083209487168084529482529182902085905590518481527f8c5be1e5ebec7d5bd14f71427d1e84f3dd0314c0f7b2291e5b200ac8c7c3b92591015b60405180910390a3505050565b6001600160a01b0383166109ef5760405162461bcd60e51b815260206004820152602560248201527f45524332303a207472616e736665722066726f6d20746865207a65726f20616460448201527f647265737300000000000000000000000000000000000000000000000000000060648201526084016103ec565b6001600160a01b038216610a6b5760405162461bcd60e51b815260206004820152602360248201527f45524332303a207472616e7366657220746f20746865207a65726f206164647260448201527f657373000000000000000000000000000000000000000000000000000000000060648201526084016103ec565b6001600160a01b03831660009081526020819052604090205481811015610afa5760405162461bcd60e51b815260206004820152602660248201527f45524332303a207472616e7366657220616d6f756e742065786365656473206260448201527f616c616e6365000000000000000000000000000000000000000000000000000060648201526084016103ec565b6001600160a01b03808516600090815260208190526040808220858503905591851681529081208054849290610b31908490611364565b92505081905550826001600160a01b0316846001600160a01b03167fddf252ad1be2c89b69c2b068fc378daa952ba7f163c4a11628f55a4df523b3ef84604051610b7d91815260200190565b60405180910390a350505050565b60007f0000000000000000000000000000000000000000000000000000000000000000461415610bda57507f000000000000000000000000000000000000000000000000000000000000000090565b50604080517f00000000000000000000000000000000000000000000000000000000000000006020808301919091527f0000000000000000000000000000000000000000000000000000000000000000828401527f000000000000000000000000000000000000000000000000000000000000000060608301524660808301523060a0808401919091528351808403909101815260c0909201909252805191012090565b6001600160a01b038216610cfa5760405162461bcd60e51b815260206004820152602160248201527f45524332303a206275726e2066726f6d20746865207a65726f2061646472657360448201527f730000000000000000000000000000000000000000000000000000000000000060648201526084016103ec565b6001600160a01b03821660009081526020819052604090205481811015610d895760405162461bcd60e51b815260206004820152602260248201527f45524332303a206275726e20616d6f756e7420657863656564732062616c616e60448201527f636500000000000000000000000000000000000000000000000000000000000060648201526084016103ec565b6001600160a01b0383166000908152602081905260408120838303905560028054849290610db890849061137c565b90915550506040518281526000906001600160a01b038516907fddf252ad1be2c89b69c2b068fc378daa952ba7f163c4a11628f55a4df523b3ef90602001610966565b6001600160a01b03811660009081526005602052604090208054600181018255905b50919050565b600061047f610e30610b8b565b836040517f19010000000000000000000000000000000000000000000000000000000000006020820152602281018390526042810182905260009060620160405160208183030381529060405280519060200120905092915050565b6000806000610e9d87878787610eb4565b91509150610eaa81610fa1565b5095945050505050565b6000807f7fffffffffffffffffffffffffffffff5d576e7357a4501ddfe92f46681b20a0831115610eeb5750600090506003610f98565b8460ff16601b14158015610f0357508460ff16601c14155b15610f145750600090506004610f98565b6040805160008082526020820180845289905260ff881692820192909252606081018690526080810185905260019060a0016020604051602081039080840390855afa158015610f68573d6000803e3d6000fd5b5050604051601f1901519150506001600160a01b038116610f9157600060019250925050610f98565b9150600090505b94509492505050565b6000816004811115610fc357634e487b7160e01b600052602160045260246000fd5b1415610fcc5750565b6001816004811115610fee57634e487b7160e01b600052602160045260246000fd5b141561103c5760405162461bcd60e51b815260206004820152601860248201527f45434453413a20696e76616c6964207369676e6174757265000000000000000060448201526064016103ec565b600281600481111561105e57634e487b7160e01b600052602160045260246000fd5b14156110ac5760405162461bcd60e51b815260206004820152601f60248201527f45434453413a20696e76616c6964207369676e6174757265206c656e6774680060448201526064016103ec565b60038160048111156110ce57634e487b7160e01b600052602160045260246000fd5b14156111275760405162461bcd60e51b815260206004820152602260248201527f45434453413a20696e76616c6964207369676e6174757265202773272076616c604482015261756560f01b60648201526084016103ec565b600481600481111561114957634e487b7160e01b600052602160045260246000fd5b14156104625760405162461bcd60e51b815260206004820152602260248201527f45434453413a20696e76616c6964207369676e6174757265202776272076616c604482015261756560f01b60648201526084016103ec565b6000602082840312156111b3578081fd5b81356111be816113de565b9392505050565b600080604083850312156111d7578081fd5b82356111e2816113de565b915060208301356111f2816113de565b809150509250929050565b600080600060608486031215611211578081fd5b833561121c816113de565b9250602084013561122c816113de565b929592945050506040919091013590565b600080600080600080600060e0888a031215611257578283fd5b8735611262816113de565b96506020880135611272816113de565b95506040880135945060608801359350608088013560ff81168114611295578384fd5b9699959850939692959460a0840135945060c09093013592915050565b600080604083850312156112c4578182fd5b82356112cf816113de565b946020939093013593505050565b6000602082840312156112ee578081fd5b81516111be816113de565b60006020828403121561130a578081fd5b5035919050565b6000602080835283518082850152825b8181101561133d57858101830151858201604001528201611321565b8181111561134e5783604083870101525b50601f01601f1916929092016040019392505050565b60008219821115611377576113776113c8565b500190565b60008282101561138e5761138e6113c8565b500390565b600181811c908216806113a757607f821691505b60208210811415610e1d57634e487b7160e01b600052602260045260246000fd5b634e487b7160e01b600052601160045260246000fd5b6001600160a01b038116811461046257600080fdfea2646970667358221220b997d7314615263efd4c8ef3e44acd65b5bd5cb9da082d93fbbedcaba1e5da2064736f6c6343000804003360806040526103e860025560056003556001600455620493e060055534801561002757600080fd5b506001600081905580546001600160a01b031916331790556118b38061004e6000396000f3fe608060405234801561001057600080fd5b50600436106100c95760003560e01c80634c89c21811610081578063c9d8745a1161005b578063c9d8745a1461020b578063ca9d8fd01461021e578063fb5de0c41461023157600080fd5b80634c89c218146101b95780638d3d9989146101cc578063ade9ffb5146101df57600080fd5b80630c69ebcd116100b25780630c69ebcd146100f6578063121ee095146101095780634b259eaa1461013657600080fd5b806301526a43146100ce57806307e79620146100e3575b600080fd5b6100e16100dc366004611790565b610244565b005b6100e16100f1366004611719565b6102a8565b6100e1610104366004611790565b610855565b61011c610117366004611790565b6108b4565b604080519283526020830191909152015b60405180910390f35b610149610144366004611790565b610952565b60405161012d91906000610100820190506001600160a01b038084511683528060208501511660208401525060408301516040830152606083015160608301526080830151608083015260a083015160a083015260c083015160c083015260e0830151151560e083015292915050565b6100e16101c7366004611790565b610a8d565b6100e16101da366004611790565b610aec565b60025460035460045460055460408051948552602085019390935291830152606082015260800161012d565b6100e16102193660046117c0565b610cd3565b6100e161022c366004611790565b61104a565b6100e161023f3660046117c0565b6110a9565b6001546001600160a01b031633146102a35760405162461bcd60e51b815260206004820152601760248201527f4e6f742043616c6c6564204279204c61622041646d696e00000000000000000060448201526064015b60405180910390fd5b600355565b600260005414156102fb5760405162461bcd60e51b815260206004820152601f60248201527f5265656e7472616e637947756172643a207265656e7472616e742063616c6c00604482015260640161029a565b60026000908155828152600660205260409081902060015491517f99ea58440000000000000000000000000000000000000000000000000000000081526004810185905285926001600160a01b0316906399ea58449060240160206040518083038186803b15801561036c57600080fd5b505afa158015610380573d6000803e3d6000fd5b505050506040513d601f19601f820116820180604052508101906103a4919061174d565b6104165760405162461bcd60e51b815260206004820152602d60248201527f43616c6c6572204973204e6f74204f776e6572204f72204c6567656e6420486160448201527f73204e6f74204861746368656400000000000000000000000000000000000000606482015260840161029a565b600781015460ff161561046b5760405162461bcd60e51b815260206004820152601c60248201527f4c6567656e6420416c7265616479204f6363757079696e6720506f6400000000604482015260640161029a565b6002548310156104e35760405162461bcd60e51b815260206004820152603c60248201527f4c474e4420546f6b656e20416d6f756e74204d757374204d656574205468652060448201527f4d696e696d756d20546f2052656a7576656e617465204c6567656e6400000000606482015260840161029a565b60006003546002546104f59190611819565b90508084111561055c5760405162461bcd60e51b815260206004820152602c60248201527f4c474e4420546f6b656e20416d6f756e742043616e204e6f742045786365656460448201526b0813585e08105b1b1bddd95960a21b606482015260840161029a565b6040516323b872dd60e01b8152336004820152306024820152604481018690526001600160a01b038416906323b872dd90606401600060405180830381600087803b1580156105aa57600080fd5b505af11580156105be573d6000803e3d6000fd5b50505050600160009054906101000a90046001600160a01b03166001600160a01b031663030032056040518163ffffffff1660e01b815260040160206040518083038186803b15801561061057600080fd5b505afa158015610624573d6000803e3d6000fd5b505050506040513d601f19601f820116820180604052508101906106489190611774565b6040516323b872dd60e01b8152336004820152306024820152604481018690526001600160a01b0391909116906323b872dd90606401602060405180830381600087803b15801561069857600080fd5b505af11580156106ac573d6000803e3d6000fd5b505050506040513d601f19601f820116820180604052508101906106d0919061174d565b5081546001600160a01b038088167fffffffffffffffffffffffff000000000000000000000000000000000000000092831617845560018085018054909316331790925543600285015590546040517f04bc22640000000000000000000000000000000000000000000000000000000081529116906304bc22649061075d90889060040190815260200190565b60206040518083038186803b15801561077557600080fd5b505afa158015610789573d6000803e3d6000fd5b505050506040513d601f19601f820116820180604052508101906107ad91906117a8565b6003830155600482018490556107c2846114b8565b600583015560078201805460ff1916600190811790915560405190815285907fe1f0053afd5619f5757e1a2ce608e79ee12e7887eade511e50e6a769d49102229060200160405180910390a2847f19f48ee12cb815777d6a9110b9a9ab55c74b4f8bfbb6597069244c09ddaf34598560405161084091815260200190565b60405180910390a25050600160005550505050565b6001546001600160a01b031633146108af5760405162461bcd60e51b815260206004820152601760248201527f4e6f742043616c6c6564204279204c61622041646d696e000000000000000000604482015260640161029a565b600255565b600081815260066020526040812060070154819060ff166109175760405162461bcd60e51b815260206004820152601b60248201527f4c6567656e64204973204e6f74204f6363757079696e6720506f640000000000604482015260640161029a565b6000610922846114e0565b60008581526006602052604081206003015460055492935090916109469190611819565b91959194509092505050565b6109ae60405180610100016040528060006001600160a01b0316815260200160006001600160a01b0316815260200160008152602001600081526020016000815260200160008152602001600081526020016000151581525090565b60008281526006602052604090206007015460ff16610a0f5760405162461bcd60e51b815260206004820152601b60248201527f4c6567656e64204973204e6f74204f6363757079696e6720506f640000000000604482015260640161029a565b5060009081526006602081815260409283902083516101008101855281546001600160a01b039081168252600183015416928101929092526002810154938201939093526003830154606082015260048301546080820152600583015460a08201529082015460c082015260079091015460ff16151560e082015290565b6001546001600160a01b03163314610ae75760405162461bcd60e51b815260206004820152601760248201527f4e6f742043616c6c6564204279204c61622041646d696e000000000000000000604482015260640161029a565b600455565b60026000541415610b3f5760405162461bcd60e51b815260206004820152601f60248201527f5265656e7472616e637947756172643a207265656e7472616e742063616c6c00604482015260640161029a565b60026000908155818152600660205260409020600781015460ff16610ba65760405162461bcd60e51b815260206004820152601b60248201527f4c6567656e64204973204e6f74204f6363757079696e6720506f640000000000604482015260640161029a565b60018101546001600160a01b03163314610c025760405162461bcd60e51b815260206004820152601b60248201527f43616c6c657220446964204e6f7420456e746572204c6567656e640000000000604482015260640161029a565b60078101805460ff191690556004810154610c1e9083906110a9565b60006006820155805460018201546040516323b872dd60e01b81523060048201526001600160a01b039182166024820152604481018590529116906323b872dd90606401600060405180830381600087803b158015610c7c57600080fd5b505af1158015610c90573d6000803e3d6000fd5b5050604051600081528492507fe1f0053afd5619f5757e1a2ce608e79ee12e7887eade511e50e6a769d4910222915060200160405180910390a250506001600055565b60026000541415610d265760405162461bcd60e51b815260206004820152601f60248201527f5265656e7472616e637947756172643a207265656e7472616e742063616c6c00604482015260640161029a565b60026000908155828152600660205260409020600781015460ff16610d8d5760405162461bcd60e51b815260206004820152601b60248201527f4c6567656e64204973204e6f74204f6363757079696e6720506f640000000000604482015260640161029a565b60018101546001600160a01b03163314610de95760405162461bcd60e51b815260206004820152601b60248201527f43616c6c657220446964204e6f7420456e746572204c6567656e640000000000604482015260640161029a565b81610e365760405162461bcd60e51b815260206004820152601360248201527f416d6f756e742043616e204e6f74204265203000000000000000000000000000604482015260640161029a565b6000828260040154610e4891906117e1565b90506000600354600254610e5c9190611819565b905080836004015485610e6f91906117e1565b1115610ed25760405162461bcd60e51b815260206004820152602c60248201527f4c474e4420546f6b656e20416d6f756e742043616e204e6f742045786365656460448201526b0813585e08105b1b1bddd95960a21b606482015260840161029a565b600383015415610ee557610ee5856115cc565b600160009054906101000a90046001600160a01b03166001600160a01b031663030032056040518163ffffffff1660e01b815260040160206040518083038186803b158015610f3357600080fd5b505afa158015610f47573d6000803e3d6000fd5b505050506040513d601f19601f82011682018060405250810190610f6b9190611774565b6040516323b872dd60e01b8152336004820152306024820152604481018690526001600160a01b0391909116906323b872dd90606401602060405180830381600087803b158015610fbb57600080fd5b505af1158015610fcf573d6000803e3d6000fd5b505050506040513d601f19601f82011682018060405250810190610ff3919061174d565b5060048301829055611004826114b8565b600584015560405182815285907f19f48ee12cb815777d6a9110b9a9ab55c74b4f8bfbb6597069244c09ddaf34599060200160405180910390a250506001600055505050565b6001546001600160a01b031633146110a45760405162461bcd60e51b815260206004820152601760248201527f4e6f742043616c6c6564204279204c61622041646d696e000000000000000000604482015260640161029a565b600555565b600260005414156110fc5760405162461bcd60e51b815260206004820152601f60248201527f5265656e7472616e637947756172643a207265656e7472616e742063616c6c00604482015260640161029a565b60026000908155828152600660205260409020600781015460ff166111635760405162461bcd60e51b815260206004820152601b60248201527f4c6567656e64204973204e6f74204f6363757079696e6720506f640000000000604482015260640161029a565b60018101546001600160a01b031633146111bf5760405162461bcd60e51b815260206004820152601b60248201527f43616c6c657220446964204e6f7420456e746572204c6567656e640000000000604482015260640161029a565b8161120c5760405162461bcd60e51b815260206004820152601360248201527f416d6f756e742043616e204e6f74204265203000000000000000000000000000604482015260640161029a565b80600401548211156112865760405162461bcd60e51b815260206004820152602660248201527f416d6f756e742043616e204e6f742042652047726561746572205468616e205360448201527f6563757265640000000000000000000000000000000000000000000000000000606482015260840161029a565b80600401548214611318576002548282600401546112a49190611838565b10156113185760405162461bcd60e51b815260206004820152602d60248201527f52656d61696e696e6720416d6f756e742043616e204e6f74204265204c65737360448201527f205468616e204d696e696d756d00000000000000000000000000000000000000606482015260840161029a565b60038101541561132b5761132b836115cc565b600082826004015461133d9190611838565b60048301819055905061134f816114b8565b6005830155600154604080517f0300320500000000000000000000000000000000000000000000000000000000815290516001600160a01b0390921691630300320591600480820192602092909190829003018186803b1580156113b257600080fd5b505afa1580156113c6573d6000803e3d6000fd5b505050506040513d601f19601f820116820180604052508101906113ea9190611774565b6040516323b872dd60e01b8152306004820152336024820152604481018590526001600160a01b0391909116906323b872dd90606401602060405180830381600087803b15801561143a57600080fd5b505af115801561144e573d6000803e3d6000fd5b505050506040513d601f19601f82011682018060405250810190611472919061174d565b50837f6d2e26fda994c75f3495c56e81ccad25eaf7688557ee435cfb808c1692588596826040516114a591815260200190565b60405180910390a2505060016000555050565b600080600254836114c991906117f9565b90506003548111156114da57506003545b92915050565b600081815260066020818152604080842081516101008101835281546001600160a01b03908116825260018301541693810193909352600281015491830191909152600381015460608301526004808201546080840152600582015460a084018190529382015460c084015260079091015460ff16151560e0830152549091839161156b9190611819565b9050600082604001514361157f9190611838565b905060008360c0015182846115949190611819565b61159e91906117e1565b9050600084606001516005546115b49190611819565b9050808211156115c2578091505b5095945050505050565b600081815260066020526040812090806115e5846116d0565b4360028601559092509050811561168e576001546040517f9d147ce900000000000000000000000000000000000000000000000000000000815260048101869052602481018490526001600160a01b0390911690639d147ce990604401600060405180830381600087803b15801561165c57600080fd5b505af1158015611670573d6000803e3d6000fd5b50505050818360030160008282546116889190611838565b90915550505b6006830181905560405182815284907f1c9377a71fc8ecca76c771676a3bae304a1bca2b12e63a7a8a3496b1ef0c88259060200160405180910390a250505050565b60008060006116de846114e0565b90506000600554826116f091906117f9565b90506000600554826117029190611819565b61170c9084611838565b9196919550909350505050565b60008060006060848603121561172d578283fd5b833561173881611865565b95602085013595506040909401359392505050565b60006020828403121561175e578081fd5b8151801515811461176d578182fd5b9392505050565b600060208284031215611785578081fd5b815161176d81611865565b6000602082840312156117a1578081fd5b5035919050565b6000602082840312156117b9578081fd5b5051919050565b600080604083850312156117d2578182fd5b50508035926020909101359150565b600082198211156117f4576117f461184f565b500190565b60008261181457634e487b7160e01b81526012600452602481fd5b500490565b60008160001904831182151516156118335761183361184f565b500290565b60008282101561184a5761184a61184f565b500390565b634e487b7160e01b600052601160045260246000fd5b6001600160a01b038116811461187a57600080fd5b5056fea2646970667358221220af879accf7dae601c7876aedc531e9f5b2c03f07291cac96ad63d9c9c8a1107964736f6c634300080400336206978060038181556101006040526203f48060a090815260c09290925262093a8060e0526200003291600791620000ac565b50610258600a55600260125560026013553480156200005057600080fd5b506040516200005f90620000f6565b604051809103906000f0801580156200007c573d6000803e3d6000fd5b5060601b6001600160601b031916608052600160105560118054336001600160a01b03199091161790556200011b565b8260038101928215620000e4579160200282015b82811115620000e4578251829062ffffff16905591602001919060010190620000c0565b50620000f292915062000104565b5090565b610d1980620035d283390190565b5b80821115620000f2576000815560010162000105565b60805160601c613460620001726000396000818161081601528181610da001528181612047015281816124da0152818161258a015281816126c10152818161299301528181612e7c0152612f2e01526134606000f3fe6080604052600436106101a15760003560e01c806370d59e91116100e1578063b54babda1161008a578063d3e88c5f11610064578063d3e88c5f1461053a578063d9548e531461055a578063e5a255cb1461058a578063fbc8e19d1461059d57600080fd5b8063b54babda146104a0578063c11f1f8e146104c0578063c63e927a1461050d57600080fd5b80639979ef45116100bb5780639979ef451461040d5780639c1ecb5114610420578063b1e95dbe1461048d57600080fd5b806370d59e91146103ba5780638ada7716146103cd5780638ba9458f146103ed57600080fd5b8063340d3b501161014e5780634a3f133e116101285780634a3f133e146102c95780635ac10dc8146102d157806363d3a813146103145780636df49b911461038d57600080fd5b8063340d3b5014610263578063443af2ba1461028357806345480859146102a357600080fd5b80632a25194f1161017f5780632a25194f1461020e5780633244cce81461022357806333ca8a461461024357600080fd5b80631837e533146101a65780631f282bac146101c857806326d29ce0146101fb575b600080fd5b3480156101b257600080fd5b506101c66101c13660046130d1565b6105e3565b005b3480156101d457600080fd5b506101e86101e336600461303a565b6107db565b6040519081526020015b60405180910390f35b6101c6610209366004613156565b610899565b34801561021a57600080fd5b506101c6610929565b34801561022f57600080fd5b506101c661023e3660046131b5565b61094b565b34801561024f57600080fd5b506101c661025e3660046131d9565b610d0b565b34801561026f57600080fd5b506101e861027e366004613186565b610d5e565b34801561028f57600080fd5b506101c661029e366004613114565b610e23565b3480156102af57600080fd5b506102b8610e47565b6040516101f295949392919061332f565b6101c6610ea8565b3480156102dd57600080fd5b506102f16102ec366004613156565b610f20565b604080519384526001600160a01b039092166020840152908201526060016101f2565b34801561032057600080fd5b50610371604080516020808201835260009182905282518082018452829052825180820184528290528251808201845291548252825180820184526001548152835191820190935260025481529092565b60408051935184529151602084015251908201526060016101f2565b34801561039957600080fd5b506103ad6103a8366004613156565b61114a565b6040516101f2919061321c565b6101c66103c8366004613156565b6111d5565b3480156103d957600080fd5b506101c66103e836600461309d565b6113fb565b3480156103f957600080fd5b506101c6610408366004613156565b61155e565b6101c661041b366004613156565b6117ff565b34801561042c57600080fd5b5061044061043b366004613156565b611b1f565b6040516101f29190600060a0820190508251825260208301516020830152604083015160408301526001600160a01b03606084015116606083015260808301511515608083015292915050565b6101c661049b366004613072565b611bda565b3480156104ac57600080fd5b506101e86104bb366004613156565b611df4565b3480156104cc57600080fd5b506104e06104db366004613156565b611e2c565b60408051825181526020808401516001600160a01b031690820152918101511515908201526060016101f2565b34801561051957600080fd5b5061052d610528366004613156565b611eb9565b6040516101f29190613277565b34801561054657600080fd5b506101e861055536600461303a565b61200c565b34801561056657600080fd5b5061057a610575366004613156565b612078565b60405190151581526020016101f2565b6101c6610598366004613156565b6120b9565b3480156105a957600080fd5b5061057a6105b8366004613186565b6000918252600f602090815260408084206001600160a01b0393909316845291905290205460ff1690565b6002601054141561063b5760405162461bcd60e51b815260206004820152601f60248201527f5265656e7472616e637947756172643a207265656e7472616e742063616c6c0060448201526064015b60405180910390fd5b600260105560115460405163267a961160e21b81526004810186905286916001600160a01b0316906399ea58449060240160206040518083038186803b15801561068457600080fd5b505afa158015610698573d6000803e3d6000fd5b505050506040513d601f19601f820116820180604052508101906106bc919061313a565b6106c557600080fd5b826106cf57600080fd5b81156106e1578282116106e157600080fd5b60038411156107325760405162461bcd60e51b815260206004820152601960248201527f4475726174696f6e20496e64657820497320496e76616c6964000000000000006044820152606401610632565b60006007856003811061075557634e487b7160e01b600052603260045260246000fd5b01546040516323b872dd60e01b8152336004820152306024820152604481018890529091506001600160a01b038316906323b872dd90606401600060405180830381600087803b1580156107a857600080fd5b505af11580156107bc573d6000803e3d6000fd5b505050506107cd8787838787612375565b505060016010555050505050565b6040517f1f282bac0000000000000000000000000000000000000000000000000000000081526001600160a01b0382811660048301526000917f000000000000000000000000000000000000000000000000000000000000000090911690631f282bac906024015b60206040518083038186803b15801561085b57600080fd5b505afa15801561086f573d6000803e3d6000fd5b505050506040513d601f19601f82011682018060405250810190610893919061316e565b92915050565b600260105414156108ec5760405162461bcd60e51b815260206004820152601f60248201527f5265656e7472616e637947756172643a207265656e7472616e742063616c6c006044820152606401610632565b60026010556000818152600f6020908152604080832033845290915290205460ff1661091757600080fd5b610921813361249b565b506001601055565b6011546001600160a01b0316331461094057600080fd5b6109493061253b565b565b6002601054141561099e5760405162461bcd60e51b815260206004820152601f60248201527f5265656e7472616e637947756172643a207265656e7472616e742063616c6c006044820152606401610632565b60026010819055600083815260046020818152604080842081516101408101835281548152600182015493810193909352948501546001600160a01b03908116918301919091526003808601546060840152928501548116608083015260058501541660a0820152600684015460c0820152600784015460ff808216151560e084015261010080830482161515908401529394919391926101208501926201000090920490911690811115610a6357634e487b7160e01b600052602160045260246000fd5b6003811115610a8257634e487b7160e01b600052602160045260246000fd5b905250604081015190915060018261012001516003811115610ab457634e487b7160e01b600052602160045260246000fd5b14610abe57600080fd5b6000848152600560205260409020544210610b1b5760405162461bcd60e51b815260206004820152601960248201527f4f666665722048617320416c72656164792045787069726564000000000000006044820152606401610632565b60608201516040516331a9108f60e11b815260048101919091526001600160a01b03821690636352211e9060240160206040518083038186803b158015610b6157600080fd5b505afa158015610b75573d6000803e3d6000fd5b505050506040513d601f19601f82011682018060405250810190610b999190613056565b6001600160a01b0316336001600160a01b0316148015610bd257506000848152600560205260409020600101546001600160a01b031633145b610c1e5760405162461bcd60e51b815260206004820152601860248201527f4c6567656e64204f776e657220486173204368616e67656400000000000000006044820152606401610632565b610c2884846125b9565b8215610c9f5760608201516040516323b872dd60e01b815233600482015230602482015260448101919091526001600160a01b038216906323b872dd90606401600060405180830381600087803b158015610c8257600080fd5b505af1158015610c96573d6000803e3d6000fd5b50505050610cd1565b6000848152600f6020908152604080832060a08601516001600160a01b031684529091529020805460ff191660011790555b6040518315159085907fbe84c08cacf7be329858d01a82d1e99b4e5a8f9a9df7a04b16c1f070e449b49990600090a3505060016010555050565b6011546001600160a01b03163314610d2257600080fd5b81610d2d5760125550565b8160011415610d3c5760135550565b8160021415610d4b5760035550565b8160031415610d5a57600a8190555b5050565b6040517f340d3b50000000000000000000000000000000000000000000000000000000008152600481018390526001600160a01b0382811660248301526000917f00000000000000000000000000000000000000000000000000000000000000009091169063340d3b509060440160206040518083038186803b158015610de457600080fd5b505afa158015610df8573d6000803e3d6000fd5b505050506040513d601f19601f82011682018060405250810190610e1c919061316e565b9392505050565b6011546001600160a01b03163314610e3a57600080fd5b610d5a6007826003612fc9565b600080600080610e55613007565b60125460135460038054600a5460408051606081019182905292939192600792909183919082845b815481526020019060010190808311610e7d5750505050509050945094509450945094509091929394565b60026010541415610efb5760405162461bcd60e51b815260206004820152601f60248201527f5265656e7472616e637947756172643a207265656e7472616e742063616c6c006044820152606401610632565b60026010556000610f0b3361200c565b905080610f1757600080fd5b61092133612689565b60008181526004602081815260408084208151610140810183528154815260018201549381019390935260028101546001600160a01b039081169284019290925260038082015460608501529381015482166080840152600581015490911660a0830152600681015460c0830152600781015460ff808216151560e0850152610100808304821615159085015285948594859490939092610120850192620100009092041690811115610fe357634e487b7160e01b600052602160045260246000fd5b600381111561100257634e487b7160e01b600052602160045260246000fd5b815250509050600060646013548360c0015161101e91906133b8565b6110289190613398565b60115460608401516040517fea832ddd0000000000000000000000000000000000000000000000000000000081529293506000926001600160a01b039092169163ea832ddd9161107e9160040190815260200190565b60206040518083038186803b15801561109657600080fd5b505afa1580156110aa573d6000803e3d6000fd5b505050506040513d601f19601f820116820180604052508101906110ce9190613056565b905060006001600160a01b0382161561113c5783608001516001600160a01b0316826001600160a01b03161461113c578360a001516001600160a01b0316826001600160a01b03161461113c5760646012548560c0015161112f91906133b8565b6111399190613398565b90505b919790965090945092505050565b60008181526004602052604090206007015460609060ff1661116b57600080fd5b6000828152600d6020908152604091829020805483518184028101840190945280845290918301828280156111c957602002820191906000526020600020905b81546001600160a01b031681526001909101906020018083116111ab575b50505050509050919050565b600260105414156112285760405162461bcd60e51b815260206004820152601f60248201527f5265656e7472616e637947756172643a207265656e7472616e742063616c6c006044820152606401610632565b60026010819055600082815260046020818152604080842081516101408101835281548152600182015493810193909352948501546001600160a01b03908116918301919091526003808601546060840152928501548116608083015260058501541660a0820152600684015460c0820152600784015460ff808216151560e0840152610100808304821615159084015293949193919261012085019262010000909204909116908111156112ed57634e487b7160e01b600052602160045260246000fd5b600381111561130c57634e487b7160e01b600052602160045260246000fd5b90525090506001816101200151600381111561133857634e487b7160e01b600052602160045260246000fd5b1461134257600080fd5b80608001516001600160a01b0316336001600160a01b0316141561136557600080fd5b8060c0015134146113de5760405162461bcd60e51b815260206004820152602560248201527f496e636f7272656374205072696365205375626d697474656420466f72204c6960448201527f7374696e670000000000000000000000000000000000000000000000000000006064820152608401610632565b6113e9826000612720565b6113f282612792565b50506001601055565b6002601054141561144e5760405162461bcd60e51b815260206004820152601f60248201527f5265656e7472616e637947756172643a207265656e7472616e742063616c6c006044820152606401610632565b600260105560115460405163267a961160e21b81526004810184905284916001600160a01b0316906399ea58449060240160206040518083038186803b15801561149757600080fd5b505afa1580156114ab573d6000803e3d6000fd5b505050506040513d601f19601f820116820180604052508101906114cf919061313a565b6114d857600080fd5b816114e257600080fd5b6040516323b872dd60e01b8152336004820152306024820152604481018490526001600160a01b038216906323b872dd90606401600060405180830381600087803b15801561153057600080fd5b505af1158015611544573d6000803e3d6000fd5b50505050611553848484612826565b505060016010555050565b600260105414156115b15760405162461bcd60e51b815260206004820152601f60248201527f5265656e7472616e637947756172643a207265656e7472616e742063616c6c006044820152606401610632565b60026010819055600082815260046020818152604080842081516101408101835281548152600182015493810193909352948501546001600160a01b03908116918301919091526003808601546060840152928501548116608083015260058501541660a0820152600684015460c0820152600784015460ff808216151560e08401526101008083048216151590840152939491939192610120850192620100009092049091169081111561167657634e487b7160e01b600052602160045260246000fd5b600381111561169557634e487b7160e01b600052602160045260246000fd5b9052509050600181610120015160038111156116c157634e487b7160e01b600052602160045260246000fd5b146116cb57600080fd5b806101000151156116fd578060a001516001600160a01b0316336001600160a01b0316146116f857600080fd5b61171f565b80608001516001600160a01b0316336001600160a01b03161461171f57600080fd5b8060e0015115611742576000828152600d60205260409020541561174257600080fd5b61174b826128ef565b8061010001511561177f576000828152600f602090815260408083203384529091529020805460ff191660011790556113f2565b6040808201516080830151606084015192516323b872dd60e01b81523060048201526001600160a01b039182166024820152604481019390935216906323b872dd90606401600060405180830381600087803b1580156117de57600080fd5b505af11580156117f2573d6000803e3d6000fd5b5050505050506001601055565b600260105414156118525760405162461bcd60e51b815260206004820152601f60248201527f5265656e7472616e637947756172643a207265656e7472616e742063616c6c006044820152606401610632565b60026010556000818152600460209081526040808320600b9092529091206001600783015462010000900460ff16600381111561189f57634e487b7160e01b600052602160045260246000fd5b146118a957600080fd5b6118b283612078565b156118ff5760405162461bcd60e51b815260206004820152601b60248201527f41756374696f6e2048617320416c7265616479204578706972656400000000006044820152606401610632565b60048201546001600160a01b03163314156119825760405162461bcd60e51b815260206004820152602160248201527f53656c6c65722043616e204e6f7420426964204f6e204f776e204c697374696e60448201527f67000000000000000000000000000000000000000000000000000000000000006064820152608401610632565b600061198e8433610d5e565b6000858152600d60205260409020549091506119fd5781600101543410156119f85760405162461bcd60e51b815260206004820152601460248201527f5374617274696e6720426964204e6f74204d65740000000000000000000000006044820152606401610632565b611a83565b6000848152600b60205260409020600201548111611a835760405162461bcd60e51b815260206004820152602360248201527f426964206d75737420626520686967686572207468616e2063757272656e742060448201527f62696400000000000000000000000000000000000000000000000000000000006064820152608401610632565b6000848152600f60209081526040808320338085529252909120805460ff19169055611ab29034908690612954565b6000848152600f6020908152604080832060038601546001600160a01b031684529091529020805460ff19166001179055611aed84826129f6565b6003820154600160a01b900460ff1615611553576000848152600c602052604090205481106115535761155384612afe565b611b5c6040518060a0016040528060008152602001600081526020016000815260200160006001600160a01b031681526020016000151581525090565b60008281526004602052604090206007015460ff16611b7a57600080fd5b506000908152600b6020908152604091829020825160a081018452815481526001820154928101929092526002810154928201929092526003909101546001600160a01b0381166060830152600160a01b900460ff161515608082015290565b60026010541415611c2d5760405162461bcd60e51b815260206004820152601f60248201527f5265656e7472616e637947756172643a207265656e7472616e742063616c6c006044820152606401610632565b60026010556040516331a9108f60e11b81526004810182905282906000906001600160a01b03831690636352211e9060240160206040518083038186803b158015611c7757600080fd5b505afa158015611c8b573d6000803e3d6000fd5b505050506040513d601f19601f82011682018060405250810190611caf9190613056565b9050336001600160a01b0382161415611cc757600080fd5b6011546040517fced3e3f1000000000000000000000000000000000000000000000000000000008152600481018590526001600160a01b039091169063ced3e3f19060240160206040518083038186803b158015611d2457600080fd5b505afa158015611d38573d6000803e3d6000fd5b505050506040513d601f19601f82011682018060405250810190611d5c919061313a565b611d6557600080fd5b34611d6f57600080fd5b6000611d7c858386612baf565b6000818152600f60209081526040808320338085529252909120805460ff19169055909150611dae9034908390612954565b807f6d13017ad90cf7d9f398b5753f263aa0ddf37bacd59019879304f9fa0213077434604051611de091815260200190565b60405180910390a250506001601055505050565b6000818152600b6020526040812060030154600160a01b900460ff16611e1957600080fd5b506000908152600c602052604090205490565b6040805160608101825260008082526020820181905291810191909152600082815260046020526040902060070154610100900460ff16611e6c57600080fd5b506000908152600560209081526040918290208251606081018452815481526001909101546001600160a01b03811692820192909252600160a01b90910460ff1615159181019190915290565b611f0e6040805161014081018252600080825260208201819052918101829052606081018290526080810182905260a0810182905260c0810182905260e0810182905261010081018290529061012082015290565b81611f1860005490565b811015611f2457600080fd5b6000838152600460208181526040928390208351610140810185528154815260018201549281019290925260028101546001600160a01b039081169483019490945260038082015460608401529281015484166080830152600581015490931660a0820152600683015460c0820152600783015460ff808216151560e084015261010080830482161515908401529193926101208501926201000090920490911690811115611fe357634e487b7160e01b600052602160045260246000fd5b600381111561200257634e487b7160e01b600052602160045260246000fd5b9052509392505050565b6040517fd3e88c5f0000000000000000000000000000000000000000000000000000000081526001600160a01b0382811660048301526000917f00000000000000000000000000000000000000000000000000000000000000009091169063d3e88c5f90602401610843565b6000818152600b60209081526040808320546004909252822060010154829182916120a39190613380565b9050804211156120b257600191505b5092915050565b6002601054141561210c5760405162461bcd60e51b815260206004820152601f60248201527f5265656e7472616e637947756172643a207265656e7472616e742063616c6c006044820152606401610632565b60026010556000818152600460208181526040808420600b909252909220908201546001600160a01b0316331480612150575060058201546001600160a01b031633145b80612167575060038101546001600160a01b031633145b6121b35760405162461bcd60e51b815260206004820152601c60248201527f43616c6c65722043616e204e6f7420436c6f7365204c697374696e67000000006044820152606401610632565b600782015460ff1615612258576001600783015462010000900460ff1660038111156121ef57634e487b7160e01b600052602160045260246000fd5b1415612253576121fe83612078565b61224a5760405162461bcd60e51b815260206004820152601b60248201527f41756374696f6e20486173204e6f7420596574204578706972656400000000006044820152606401610632565b61225383612afe565b612291565b6002600783015462010000900460ff16600381111561228757634e487b7160e01b600052602160045260246000fd5b1461229157600080fd5b600782015460ff16806122ad57506007820154610100900460ff165b156122ef5760008381526014602052604090205460ff166122ef576000838152601460205260409020805460ff191660019081179091556122ef908490612720565b60048201546001600160a01b031633141561232057600482015461231b906001600160a01b031661253b565b61233e565b60058201546001600160a01b031633141561233e5761233e83612c73565b604051339084907f4100f70c133e1c4066c72b21f815cec87ab6d5f89acabf924ca488d47c08bf7b90600090a35050600160105550565b612383600080546001019055565b600080549082156123a357506000818152600c6020526040902082905560015b6000828152600460208190526040909120838155426001808301919091556002820180546001600160a01b038c166001600160a01b031991821617909155600383018a9055928201805484163317905560058201805490931690925560078101805460ff1981168417825591929162ff00ff19168217620100008302179055506000838152600b602052604090819020878155600180820188905560038201805460ff60a01b1916600160a01b871515021790559151909185917fab8013f69383454f861c325aa79a70266ccaf52ad8683c842832a8df74c57a259161248891613269565b60405180910390a2505050505050505050565b6040517f03073828000000000000000000000000000000000000000000000000000000008152600481018390526001600160a01b0382811660248301527f000000000000000000000000000000000000000000000000000000000000000016906303073828906044015b600060405180830381600087803b15801561251f57600080fd5b505af1158015612533573d6000803e3d6000fd5b505050505050565b6000612546826107db565b90508061255257600080fd5b6040517f31b3eb940000000000000000000000000000000000000000000000000000000081526001600160a01b0383811660048301527f000000000000000000000000000000000000000000000000000000000000000016906331b3eb9490602401612505565b6000828152600460205260409020811561264d5760078101805462ff00001916620200001790556004810180546001600160a01b0319163317905560009283526005602081815260408086206001908101805460ff60a01b1916600160a01b17905560038501546006845282882094909501546001600160a01b03168752929091529093205550805481019055565b505050565b600701805462ff00001916620300001790555060009081526005602052604090206001908101805460ff60a01b19169055600280549091019055565b6040517f968db7830000000000000000000000000000000000000000000000000000000081526001600160a01b0382811660048301527f0000000000000000000000000000000000000000000000000000000000000000169063968db78390602401600060405180830381600087803b15801561270557600080fd5b505af1158015612719573d6000803e3d6000fd5b5050505050565b600082815260046020526040812090808061273a86610f20565b9250925092508415612773576005840154600485015461276e9188916001600160a01b039182169187918691889116612e1f565b612533565b60048401546125339034908590849086906001600160a01b0316612ee0565b600081815260046020908152604080832060078101805462ff00001916620200001790556005810180546001600160a01b0319163390811790915560038201546006855283862091865293529220556001805481019055817fab8013f69383454f861c325aa79a70266ccaf52ad8683c842832a8df74c57a25600260405161281a9190613269565b60405180910390a25050565b612834600080546001019055565b6000805480825260046020819052604092839020828155426001808301919091556002820180546001600160a01b038a166001600160a01b0319918216179091556003830188905592820180548416331790556005820180549093169092556006810185905560078101805462ff0000191662010000179055925191929183917fab8013f69383454f861c325aa79a70266ccaf52ad8683c842832a8df74c57a25916128e09190613269565b60405180910390a25050505050565b6000818152600460205260409020600701805462ff0000191662030000179055600280546001019055807fab8013f69383454f861c325aa79a70266ccaf52ad8683c842832a8df74c57a2560036040516129499190613269565b60405180910390a250565b6040517f7c9fe43a000000000000000000000000000000000000000000000000000000008152600481018390526001600160a01b0382811660248301527f00000000000000000000000000000000000000000000000000000000000000001690637c9fe43a9085906044016000604051808303818588803b1580156129d857600080fd5b505af11580156129ec573d6000803e3d6000fd5b5050505050505050565b6000828152600b60209081526040808320600e83528184203385529092529091205460ff16612a72576000838152600d602090815260408083208054600181810183559185528385200180546001600160a01b03191633908117909155878552600e8452828520908552909252909120805460ff191690911790555b600281018290556003810180546001600160a01b03191633179055612a9683612f73565b15612648576000838152600c602052604090205482101561264857600a548154612ac09190613380565b80825560405190815283907f6e912a3a9105bdd2af817ba5adc14e6c127c1035b5b648faa29ca0d58ab8ff4e906020015b60405180910390a2505050565b6000818152600460209081526040808320600b8352818420600380820180546005850180546001600160a01b0319166001600160a01b03928316179055600284015460068087019190915560078601805462ff000019166202000017905592850154928752858820915416875290945291909320919091556001805481019055827fab8013f69383454f861c325aa79a70266ccaf52ad8683c842832a8df74c57a256002604051612af19190613269565b600080546001908101808355808352600460208181526040808620848155429581018690556002810180546001600160a01b038c166001600160a01b03199182161790915560038083018a9055948201805482169055600580830180549092163317909155346006830181905560078301805462ffff001916620101001790559352908620925493949193909291612c479190613380565b815560010180546001600160a01b0388166001600160a01b031990911617905550909150509392505050565b60008181526004602081815260408084208151610140810183528154815260018201549381019390935260028101546001600160a01b039081169284019290925260038082015460608501529381015482166080840152600581015490911660a0830152600681015460c0830152600781015460ff808216151560e0850152610100808304821615159085015292939192610120850192620100009092041690811115612d3057634e487b7160e01b600052602160045260246000fd5b6003811115612d4f57634e487b7160e01b600052602160045260246000fd5b905250600083815260066020908152604080832060a08501516001600160a01b0316845290915290205490915080612d8657600080fd5b600083815260066020908152604080832060a0860180516001600160a01b039081168652919093528184209390935584810151915190516323b872dd60e01b81523060048201529083166024820152604481018490529116906323b872dd90606401600060405180830381600087803b158015612e0257600080fd5b505af1158015612e16573d6000803e3d6000fd5b50505050505050565b6040517f2408c803000000000000000000000000000000000000000000000000000000008152600481018790526001600160a01b0386811660248301526044820186905260648201859052838116608483015282811660a48301527f00000000000000000000000000000000000000000000000000000000000000001690632408c8039060c401600060405180830381600087803b158015612ec057600080fd5b505af1158015612ed4573d6000803e3d6000fd5b50505050505050505050565b6040517f1ca44e9500000000000000000000000000000000000000000000000000000000815260048101859052602481018490526001600160a01b03838116604483015282811660648301527f00000000000000000000000000000000000000000000000000000000000000001690631ca44e959087906084016000604051808303818588803b158015612ec057600080fd5b6000818152600b6020908152604080832054600490925282206001015482918291612f9e9190613380565b90508042108015612fba5750600a54612fb790826133d7565b42115b156120b2575060019392505050565b8260038101928215612ff7579160200282015b82811115612ff7578235825591602001919060010190612fdc565b50613003929150613025565b5090565b60405180606001604052806003906020820280368337509192915050565b5b808211156130035760008155600101613026565b60006020828403121561304b578081fd5b8135610e1c81613404565b600060208284031215613067578081fd5b8151610e1c81613404565b60008060408385031215613084578081fd5b823561308f81613404565b946020939093013593505050565b6000806000606084860312156130b1578081fd5b83356130bc81613404565b95602085013595506040909401359392505050565b600080600080600060a086880312156130e8578081fd5b85356130f381613404565b97602087013597506040870135966060810135965060800135945092505050565b600060608284031215613125578081fd5b82606083011115613134578081fd5b50919050565b60006020828403121561314b578081fd5b8151610e1c8161341c565b600060208284031215613167578081fd5b5035919050565b60006020828403121561317f578081fd5b5051919050565b60008060408385031215613198578182fd5b8235915060208301356131aa81613404565b809150509250929050565b600080604083850312156131c7578182fd5b8235915060208301356131aa8161341c565b600080604083850312156131eb578182fd5b50508035926020909101359150565b6004811061321857634e487b7160e01b600052602160045260246000fd5b9052565b6020808252825182820181905260009190848201906040850190845b8181101561325d5783516001600160a01b031683529284019291840191600101613238565b50909695505050505050565b6020810161089382846131fa565b600061014082019050825182526020830151602083015260408301516132a860408401826001600160a01b03169052565b506060830151606083015260808301516132cd60808401826001600160a01b03169052565b5060a08301516132e860a08401826001600160a01b03169052565b5060c083015160c083015260e083015161330660e084018215159052565b506101008381015115159083015261012080840151613327828501826131fa565b505092915050565b600060e08201905086825260208681840152856040840152846060840152608083018460005b600381101561337257815183529183019190830190600101613355565b505050509695505050505050565b60008219821115613393576133936133ee565b500190565b6000826133b357634e487b7160e01b81526012600452602481fd5b500490565b60008160001904831182151516156133d2576133d26133ee565b500290565b6000828210156133e9576133e96133ee565b500390565b634e487b7160e01b600052601160045260246000fd5b6001600160a01b038116811461341957600080fd5b50565b801515811461341957600080fdfea2646970667358221220e323c4d54ea2fcc8d3b01adb61174c03327c8f7416d0fcdf2bf46adb110ec26964736f6c63430008040033608060405234801561001057600080fd5b5061001a33610031565b600180546001600160a01b03191633179055610081565b600080546001600160a01b038381166001600160a01b0319831681178455604051919092169283917f8be0079c531659141344cd1fd0a4f28419497f9722a3daafe3b4186f6b6457e09190a35050565b610c89806100906000396000f3fe6080604052600436106100c75760003560e01c8063715018a611610074578063968db7831161004e578063968db78314610210578063d3e88c5f14610230578063f2fde38b1461026657600080fd5b8063715018a6146101c05780637c9fe43a146101d55780638da5cb5b146101e857600080fd5b80632408c803116100a55780632408c8031461013d57806331b3eb941461015d578063340d3b501461017d57600080fd5b806303073828146100cc5780631ca44e95146100e15780631f282bac146100f4575b600080fd5b6100df6100da366004610b1f565b610286565b005b6100df6100ef366004610b97565b610353565b34801561010057600080fd5b5061012a61010f366004610acd565b6001600160a01b031660009081526002602052604090205490565b6040519081526020015b60405180910390f35b34801561014957600080fd5b506100df610158366004610b31565b61049d565b34801561016957600080fd5b506100df610178366004610acd565b6105a9565b34801561018957600080fd5b5061012a610198366004610af0565b60009182526003602090815260408084206001600160a01b0393909316845291905290205490565b3480156101cc57600080fd5b506100df610672565b6100df6101e3366004610af0565b6106d8565b3480156101f457600080fd5b506000546040516001600160a01b039091168152602001610134565b34801561021c57600080fd5b506100df61022b366004610acd565b6107a8565b34801561023c57600080fd5b5061012a61024b366004610acd565b6001600160a01b031660009081526004602052604090205490565b34801561027257600080fd5b506100df610281366004610acd565b610865565b6000546001600160a01b031633146102e55760405162461bcd60e51b815260206004820181905260248201527f4f776e61626c653a2063616c6c6572206973206e6f7420746865206f776e657260448201526064015b60405180910390fd5b60008281526003602090815260408083206001600160a01b0385168085529252822080549290556103169082610947565b604051818152339084907fa59312996dc68b7f0224b341fed75d5afeb3bb20624107d37942d14f59428156906020015b60405180910390a3505050565b6000546001600160a01b031633146103ad5760405162461bcd60e51b815260206004820181905260248201527f4f776e61626c653a2063616c6c6572206973206e6f7420746865206f776e657260448201526064016102dc565b6001546001600160a01b0316600090815260026020526040812080548692906103d7908490610be0565b90915550508215610410576001600160a01b0382166000908152600460205260408120805485929061040a908490610be0565b90915550505b600061041c8486610be0565b6104269034610bf8565b6001600160a01b038316600090815260026020526040812080549293508392909190610453908490610be0565b90915550506040518181526001600160a01b038316907fd348a8f42fae8db1d0030271b37ed6d94a5e292ff36db57b244ffe13f494dd459060200160405180910390a25050505050565b6000546001600160a01b031633146104f75760405162461bcd60e51b815260206004820181905260248201527f4f776e61626c653a2063616c6c6572206973206e6f7420746865206f776e657260448201526064016102dc565b60008681526003602090815260408083206001600160a01b03898116855292528083208054939055517f1ca44e950000000000000000000000000000000000000000000000000000000081526004810187905260248101869052848216604482015290831660648201523090631ca44e959083906084016000604051808303818588803b15801561058757600080fd5b505af115801561059b573d6000803e3d6000fd5b505050505050505050505050565b6000546001600160a01b031633146106035760405162461bcd60e51b815260206004820181905260248201527f4f776e61626c653a2063616c6c6572206973206e6f7420746865206f776e657260448201526064016102dc565b6001600160a01b038116600081815260026020526040812080549190559061062b9082610947565b816001600160a01b03167fd8102a2d73a808d6664a3116966c123291d07ec500edf12e27ee919d7b81bd3c8260405161066691815260200190565b60405180910390a25050565b6000546001600160a01b031633146106cc5760405162461bcd60e51b815260206004820181905260248201527f4f776e61626c653a2063616c6c6572206973206e6f7420746865206f776e657260448201526064016102dc565b6106d66000610a65565b565b6000546001600160a01b031633146107325760405162461bcd60e51b815260206004820181905260248201527f4f776e61626c653a2063616c6c6572206973206e6f7420746865206f776e657260448201526064016102dc565b60008281526003602090815260408083206001600160a01b0385168452909152812080543492839291610766908490610be0565b90915550506040518181526001600160a01b0383169084907f0e54eff26401bf69b81b26f60bd85ef47f5d85275c1d268d84f68d6897431c4790602001610346565b6000546001600160a01b031633146108025760405162461bcd60e51b815260206004820181905260248201527f4f776e61626c653a2063616c6c6572206973206e6f7420746865206f776e657260448201526064016102dc565b6001600160a01b038116600081815260046020526040812080549190559061082a9082610947565b816001600160a01b03167f312b70e5726648ad7ab64374bb491934c2732cfb4f8c285ea2c1bbe4fa07f3db8260405161066691815260200190565b6000546001600160a01b031633146108bf5760405162461bcd60e51b815260206004820181905260248201527f4f776e61626c653a2063616c6c6572206973206e6f7420746865206f776e657260448201526064016102dc565b6001600160a01b03811661093b5760405162461bcd60e51b815260206004820152602660248201527f4f776e61626c653a206e6577206f776e657220697320746865207a65726f206160448201527f646472657373000000000000000000000000000000000000000000000000000060648201526084016102dc565b61094481610a65565b50565b804710156109975760405162461bcd60e51b815260206004820152601d60248201527f416464726573733a20696e73756666696369656e742062616c616e636500000060448201526064016102dc565b6000826001600160a01b03168260405160006040518083038185875af1925050503d80600081146109e4576040519150601f19603f3d011682016040523d82523d6000602084013e6109e9565b606091505b5050905080610a605760405162461bcd60e51b815260206004820152603a60248201527f416464726573733a20756e61626c6520746f2073656e642076616c75652c207260448201527f6563697069656e74206d6179206861766520726576657274656400000000000060648201526084016102dc565b505050565b600080546001600160a01b038381167fffffffffffffffffffffffff0000000000000000000000000000000000000000831681178455604051919092169283917f8be0079c531659141344cd1fd0a4f28419497f9722a3daafe3b4186f6b6457e09190a35050565b600060208284031215610ade578081fd5b8135610ae981610c3e565b9392505050565b60008060408385031215610b02578081fd5b823591506020830135610b1481610c3e565b809150509250929050565b60008060408385031215610b02578182fd5b60008060008060008060c08789031215610b49578182fd5b863595506020870135610b5b81610c3e565b945060408701359350606087013592506080870135610b7981610c3e565b915060a0870135610b8981610c3e565b809150509295509295509295565b60008060008060808587031215610bac578384fd5b84359350602085013592506040850135610bc581610c3e565b91506060850135610bd581610c3e565b939692955090935050565b60008219821115610bf357610bf3610c0f565b500190565b600082821015610c0a57610c0a610c0f565b500390565b7f4e487b7100000000000000000000000000000000000000000000000000000000600052601160045260246000fd5b6001600160a01b038116811461094457600080fdfea264697066735822122030936803e212f625bdb1fb4cc8327a465f443ab4fc87db6df72ced3bf926b35764736f6c63430008040033608060405234801561001057600080fd5b506001600655600780546001600160a01b03191633179055612009806100376000396000f3fe608060405234801561001057600080fd5b50600436106100be5760003560e01c806348c54b9d11610076578063a3ac75b31161005b578063a3ac75b3146101aa578063ce1109fb146101bd578063dae7d1d8146101dc57600080fd5b806348c54b9d1461018f578063556fa5251461019757600080fd5b80632014a935116100a75780632014a93514610149578063401537911461015c578063405c81e91461016f57600080fd5b8063050bf88e146100c357806308c8aec2146100d8575b600080fd5b6100d66100d1366004611e06565b6101ef565b005b610128604080516020808201835260009182905282518082018452829052825180820184528290528251808201845291548252825180820184526001548152835191820190935260025481529092565b60408051935184529151602084015251908201526060015b60405180910390f35b6100d6610157366004611d93565b610484565b6100d661016a366004611e65565b610708565b61018261017d366004611e06565b610f38565b6040516101409190611ebc565b6100d6611074565b6100d66101a5366004611e06565b611293565b6100d66101b8366004611e36565b611671565b336000908152600460205260409020545b604051908152602001610140565b6101ce6101ea366004611e06565b6119ee565b600260065414156102475760405162461bcd60e51b815260206004820152601f60248201527f5265656e7472616e637947756172643a207265656e7472616e742063616c6c0060448201526064015b60405180910390fd5b60026006818155600083815260036020818152604080842081516101408101835281548152600182015493810193909352958601546001600160a01b039081169183019190915285830154811660608301526004860154608083015260058601541660a08201529284015460c0840152600784015460e08401526008840154610100840152600984015491939161012084019160ff909116908111156102fd57634e487b7160e01b600052602160045260246000fd5b600381111561031c57634e487b7160e01b600052602160045260246000fd5b81525050905080606001516001600160a01b0316336001600160a01b0316146103875760405162461bcd60e51b815260206004820152601a60248201527f43616c6c657220446964204e6f74204c697374204c6567656e64000000000000604482015260640161023e565b600181610120015160038111156103ae57634e487b7160e01b600052602160045260246000fd5b146103fb5760405162461bcd60e51b815260206004820152601860248201527f4c6567656e64204d61746368696e67204e6f74204f70656e0000000000000000604482015260640161023e565b61040482611ad1565b604080820151606083015160808401519251632142170760e11b81523060048201526001600160a01b039182166024820152604481019390935216906342842e0e90606401600060405180830381600087803b15801561046357600080fd5b505af1158015610477573d6000803e3d6000fd5b5050600160065550505050565b600260065414156104d75760405162461bcd60e51b815260206004820152601f60248201527f5265656e7472616e637947756172643a207265656e7472616e742063616c6c00604482015260640161023e565b600260065560075460405163267a961160e21b81526004810184905284916001600160a01b0316906399ea58449060240160206040518083038186803b15801561052057600080fd5b505afa158015610534573d6000803e3d6000fd5b505050506040513d601f19601f820116820180604052508101906105589190611dc7565b6105ba5760405162461bcd60e51b815260206004820152602d60248201527f43616c6c6572204973204e6f74204f776e6572204f72204c6567656e6420486160448201526c1cc8139bdd0812185d18da1959609a1b606482015260840161023e565b600754604051630478c5ef60e41b8152600481018590526001600160a01b039091169063478c5ef09060240160206040518083038186803b1580156105fe57600080fd5b505afa158015610612573d6000803e3d6000fd5b505050506040513d601f19601f820116820180604052508101906106369190611dc7565b61063f57600080fd5b8161068c5760405162461bcd60e51b815260206004820152601260248201527f50726963652043616e204e6f7420426520300000000000000000000000000000604482015260640161023e565b6040516323b872dd60e01b8152336004820152306024820152604481018490526001600160a01b038216906323b872dd90606401600060405180830381600087803b1580156106da57600080fd5b505af11580156106ee573d6000803e3d6000fd5b505050506106fd848484611b35565b505060016006555050565b6002600654141561075b5760405162461bcd60e51b815260206004820152601f60248201527f5265656e7472616e637947756172643a207265656e7472616e742063616c6c00604482015260640161023e565b60026006818155600084815260036020818152604080842081516101408101835281548152600182015493810193909352958601546001600160a01b039081169183019190915285830154811660608301526004860154608083015260058601541660a08201529284015460c0840152600784015460e08401526008840154610100840152600984015491939161012084019160ff9091169081111561081157634e487b7160e01b600052602160045260246000fd5b600381111561083057634e487b7160e01b600052602160045260246000fd5b90525060408101519091506001826101200151600381111561086257634e487b7160e01b600052602160045260246000fd5b146108af5760405162461bcd60e51b815260206004820152601860248201527f4c6567656e64204d61746368696e67204e6f74204f70656e0000000000000000604482015260640161023e565b60608201516001600160a01b03163314156109325760405162461bcd60e51b815260206004820152602e60248201527f53656c6c6572204e6f7420417574686f72697a656420546f205075726368617360448201527f65204f776e204d61746368696e67000000000000000000000000000000000000606482015260840161023e565b60075460405163267a961160e21b8152600481018590526001600160a01b03909116906399ea58449060240160206040518083038186803b15801561097657600080fd5b505afa15801561098a573d6000803e3d6000fd5b505050506040513d601f19601f820116820180604052508101906109ae9190611dc7565b610a105760405162461bcd60e51b815260206004820152602d60248201527f43616c6c6572204973204e6f74204f776e6572204f72204c6567656e6420486160448201526c1cc8139bdd0812185d18da1959609a1b606482015260840161023e565b600754604051630478c5ef60e41b8152600481018590526001600160a01b039091169063478c5ef09060240160206040518083038186803b158015610a5457600080fd5b505afa158015610a68573d6000803e3d6000fd5b505050506040513d601f19601f82011682018060405250810190610a8c9190611dc7565b610a9557600080fd5b6040516323b872dd60e01b8152336004820152306024820152604481018490526001600160a01b038216906323b872dd90606401600060405180830381600087803b158015610ae357600080fd5b505af1158015610af7573d6000803e3d6000fd5b5050600754604051630264caef60e21b81526004810187905260009350600292506001600160a01b03909116906309932bbc9060240160206040518083038186803b158015610b4557600080fd5b505afa158015610b59573d6000803e3d6000fd5b505050506040513d601f19601f82011682018060405250810190610b7d9190611e1e565b6007546080860151604051630264caef60e21b81526001600160a01b03909216916309932bbc91610bb49160040190815260200190565b60206040518083038186803b158015610bcc57600080fd5b505afa158015610be0573d6000803e3d6000fd5b505050506040513d601f19601f82011682018060405250810190610c049190611e1e565b610c0e9190611f69565b610c189190611f8d565b9050600081846101000151610c2d9190611f69565b9050600760009054906101000a90046001600160a01b03166001600160a01b031663030032056040518163ffffffff1660e01b815260040160206040518083038186803b158015610c7d57600080fd5b505afa158015610c91573d6000803e3d6000fd5b505050506040513d601f19601f82011682018060405250810190610cb59190611dea565b6040516323b872dd60e01b8152336004820152306024820152604481018390526001600160a01b0391909116906323b872dd90606401602060405180830381600087803b158015610d0557600080fd5b505af1158015610d19573d6000803e3d6000fd5b505050506040513d601f19601f82011682018060405250810190610d3d9190611dc7565b5060075460408051631944f20d60e01b815290516000926001600160a01b031691631944f20d916004808301926020929190829003018186803b158015610d8357600080fd5b505afa158015610d97573d6000803e3d6000fd5b505050506040513d601f19601f82011682018060405250810190610dbb9190611dea565b60808601516040517f1b4c46fb0000000000000000000000000000000000000000000000000000000081523060048201526024810191909152604481018890526001600160a01b039190911690631b4c46fb90606401602060405180830381600087803b158015610e2b57600080fd5b505af1158015610e3f573d6000803e3d6000fd5b505050506040513d601f19601f82011682018060405250810190610e639190611e1e565b9050610e728733888486611c06565b604051632142170760e11b8152306004820152336024820152604481018790526001600160a01b038516906342842e0e90606401600060405180830381600087803b158015610ec057600080fd5b505af1158015610ed4573d6000803e3d6000fd5b505050508460c001518560800151887f16251362edd8a93df20396d15d45d3d5cf509f3e3a252a69ddfcd1167ef4187a84896101000151604051610f22929190918252602082015260400190565b60405180910390a4505060016006555050505050565b610f40611d07565b81610f4a60005490565b811015610f995760405162461bcd60e51b815260206004820152601560248201527f4d61746368696e67204944204e6f742056616c69640000000000000000000000604482015260640161023e565b6000838152600360208181526040928390208351610140810185528154815260018201549281019290925260028101546001600160a01b0390811694830194909452808301548416606083015260048101546080830152600581015490931660a0820152600683015460c0820152600783015460e08201526008830154610100820152600983015490929161012084019160ff169081111561104b57634e487b7160e01b600052602160045260246000fd5b600381111561106a57634e487b7160e01b600052602160045260246000fd5b9052509392505050565b600260065414156110c75760405162461bcd60e51b815260206004820152601f60248201527f5265656e7472616e637947756172643a207265656e7472616e742063616c6c00604482015260640161023e565b600260065533600090815260046020526040902054806111295760405162461bcd60e51b815260206004820152601d60248201527f41646472657373204973204f7765642030204c474e4420546f6b656e73000000604482015260640161023e565b3360009081526004602081815260408084209390935560075483517f0300320500000000000000000000000000000000000000000000000000000000815293516001600160a01b0390911693630300320593818101939291829003018186803b15801561119557600080fd5b505afa1580156111a9573d6000803e3d6000fd5b505050506040513d601f19601f820116820180604052508101906111cd9190611dea565b6040516323b872dd60e01b8152306004820152336024820152604481018390526001600160a01b0391909116906323b872dd90606401602060405180830381600087803b15801561121d57600080fd5b505af1158015611231573d6000803e3d6000fd5b505050506040513d601f19601f820116820180604052508101906112559190611dc7565b5060405181815233907f896e034966eaaf1adc54acc0f257056febbd300c9e47182cf761982cf1f5e4309060200160405180910390a2506001600655565b600260065414156112e65760405162461bcd60e51b815260206004820152601f60248201527f5265656e7472616e637947756172643a207265656e7472616e742063616c6c00604482015260640161023e565b60026006818155600083815260036020818152604080842081516101408101835281548152600182015493810193909352958601546001600160a01b039081169183019190915285830154811660608301526004860154608083015260058601541660a08201529284015460c0840152600784015460e08401526008840154610100840152600984015491939161012084019160ff9091169081111561139c57634e487b7160e01b600052602160045260246000fd5b60038111156113bb57634e487b7160e01b600052602160045260246000fd5b8152505090508060a001516001600160a01b0316336001600160a01b0316146114265760405162461bcd60e51b815260206004820181905260248201527f43616c6c657220446964204e6f74205075726368617365204d61746368696e67604482015260640161023e565b6002816101200151600381111561144d57634e487b7160e01b600052602160045260246000fd5b1461149a5760405162461bcd60e51b815260206004820152601a60248201527f4c6567656e64204d61746368696e67204e6f7420436c6f736564000000000000604482015260640161023e565b600082815260056020908152604080832060a08501516001600160a01b031684529091529020548061150e5760405162461bcd60e51b815260206004820152601360248201527f45676720416c726561647920436c61696d656400000000000000000000000000604482015260640161023e565b600083815260056020908152604080832060a08601516001600160a01b039081168552908352818420939093556007548151631944f20d60e01b81529151931692631944f20d92600480840193919291829003018186803b15801561157257600080fd5b505afa158015611586573d6000803e3d6000fd5b505050506040513d601f19601f820116820180604052508101906115aa9190611dea565b60a0830151604051632142170760e11b81523060048201526001600160a01b039182166024820152604481018490529116906342842e0e90606401600060405180830381600087803b1580156115ff57600080fd5b505af1158015611613573d6000803e3d6000fd5b505050508160a001516001600160a01b03167fce9c280f977ed75885e90ec68f12c7aec51eb9c386cb1d07016a03fc4f13180d848360405161165f929190918252602082015260400190565b60405180910390a25050600160065550565b600260065414156116c45760405162461bcd60e51b815260206004820152601f60248201527f5265656e7472616e637947756172643a207265656e7472616e742063616c6c00604482015260640161023e565b60026006818155600084815260036020818152604080842081516101408101835281548152600182015493810193909352958601546001600160a01b039081169183019190915285830154811660608301526004860154608083015260058601541660a08201529284015460c0840152600784015460e08401526008840154610100840152600984015491939161012084019160ff9091169081111561177a57634e487b7160e01b600052602160045260246000fd5b600381111561179957634e487b7160e01b600052602160045260246000fd5b81525050905080606001516001600160a01b0316336001600160a01b0316146118045760405162461bcd60e51b815260206004820152601a60248201527f43616c6c657220446964204e6f74204c697374204c6567656e64000000000000604482015260640161023e565b6002816101200151600381111561182b57634e487b7160e01b600052602160045260246000fd5b146118785760405162461bcd60e51b815260206004820152601a60248201527f4c6567656e64204d61746368696e67204e6f7420436c6f736564000000000000604482015260640161023e565b811561192b576007546080820151604051630478c5ef60e41b81526001600160a01b039092169163478c5ef0916118b59160040190815260200190565b60206040518083038186803b1580156118cd57600080fd5b505afa1580156118e1573d6000803e3d6000fd5b505050506040513d601f19601f820116820180604052508101906119059190611dc7565b61190e57600080fd5b61192681604001518260800151836101000151611b35565b6119a3565b604080820151606083015160808401519251632142170760e11b81523060048201526001600160a01b039182166024820152604481019390935216906342842e0e90606401600060405180830381600087803b15801561198a57600080fd5b505af115801561199e573d6000803e3d6000fd5b505050505b8060800151837f4ecb8f58050aa11f1a1531513aa66b708b2a7bd62c37e0195be72300da48677c846040516119dc911515815260200190565b60405180910390a35050600160065550565b6000816119fa60005490565b811015611a495760405162461bcd60e51b815260206004820152601560248201527f4d61746368696e67204944204e6f742056616c69640000000000000000000000604482015260640161023e565b6000838152600360205260409020600501546001600160a01b03163314611ab25760405162461bcd60e51b815260206004820152601f60248201527f43616c6c657220446964204e6f74205075726368617365204c697374696e6700604482015260640161023e565b5050600090815260056020908152604080832033845290915290205490565b6000818152600360208190526040909120600901805460ff19169091179055600280546001019055807f19ca3c8e697c2730c0ea245a0d6b6fbf54dd90f12bed2a09690b30a6a0b17ff96003604051611b2a9190611ea8565b60405180910390a250565b611b43600080546001019055565b6000805480825260036020819052604092839020828155426001808301919091556002820180546001600160a01b038a1673ffffffffffffffffffffffffffffffffffffffff19918216179091559282018054841633179055600482018790556005820180549093169092556008810185905560098101805460ff191683179055925191929183917f19ca3c8e697c2730c0ea245a0d6b6fbf54dd90f12bed2a09690b30a6a0b17ff991611bf79190611ea8565b60405180910390a25050505050565b600085815260036020526040902060058101805473ffffffffffffffffffffffffffffffffffffffff19166001600160a01b03871617905560068101849055600781018390556009810180546002919060ff1916600183021790555060038101546001600160a01b031660009081526004602052604081208054849290611c8e908490611f69565b909155505060008681526005602090815260408083206001600160a01b03891684529091529020839055611cc6600180546001019055565b857f19ca3c8e697c2730c0ea245a0d6b6fbf54dd90f12bed2a09690b30a6a0b17ff96002604051611cf79190611ea8565b60405180910390a2505050505050565b604051806101400160405280600081526020016000815260200160006001600160a01b0316815260200160006001600160a01b031681526020016000815260200160006001600160a01b0316815260200160008152602001600081526020016000815260200160006003811115611d8e57634e487b7160e01b600052602160045260246000fd5b905290565b600080600060608486031215611da7578283fd5b8335611db281611fad565b95602085013595506040909401359392505050565b600060208284031215611dd8578081fd5b8151611de381611fc5565b9392505050565b600060208284031215611dfb578081fd5b8151611de381611fad565b600060208284031215611e17578081fd5b5035919050565b600060208284031215611e2f578081fd5b5051919050565b60008060408385031215611e48578182fd5b823591506020830135611e5a81611fc5565b809150509250929050565b60008060408385031215611e77578182fd5b50508035926020909101359150565b60048110611ea457634e487b7160e01b600052602160045260246000fd5b9052565b60208101611eb68284611e86565b92915050565b60006101408201905082518252602083015160208301526040830151611eed60408401826001600160a01b03169052565b506060830151611f0860608401826001600160a01b03169052565b506080830151608083015260a0830151611f2d60a08401826001600160a01b03169052565b5060c083015160c083015260e083015160e083015261010080840151818401525061012080840151611f6182850182611e86565b505092915050565b60008219821115611f8857634e487b7160e01b81526011600452602481fd5b500190565b600082611fa857634e487b7160e01b81526012600452602481fd5b500490565b6001600160a01b0381168114611fc257600080fd5b50565b8015158114611fc257600080fdfea2646970667358221220a3d4b923c643e3d88fbaa92243bf9bb345019cb205412838ebbfbffec77b43c764736f6c6343000804003350cfca4094c55bf42de4c6bab117b8cffa7bc564d44ed30ce3669a40f63c829b",
  "linkReferences": {},
  "deployedLinkReferences": {}
}