{
    "contractName": "LegendsLaboratory",
    "abi": [
        {
            "inputs": [],
            "stateMutability": "nonpayable",
            "type": "constructor"
        },
        {
            "anonymous": false,
            "inputs": [
                {
                    "indexed": true,
                    "internalType": "address",
                    "name": "previousOwner",
                    "type": "address"
                },
                {
                    "indexed": true,
                    "internalType": "address",
                    "name": "newOwner",
                    "type": "address"
                }
            ],
            "name": "OwnershipTransferred",
            "type": "event"
        },
        {
            "anonymous": false,
            "inputs": [
                {
                    "indexed": true,
                    "internalType": "uint256",
                    "name": "promoId",
                    "type": "uint256"
                },
                {
                    "indexed": false,
                    "internalType": "uint256",
                    "name": "totalDispensed",
                    "type": "uint256"
                },
                {
                    "indexed": false,
                    "internalType": "uint256",
                    "name": "totalRedeemed",
                    "type": "uint256"
                }
            ],
            "name": "PromoClosed",
            "type": "event"
        },
        {
            "anonymous": false,
            "inputs": [
                {
                    "indexed": true,
                    "internalType": "uint256",
                    "name": "promoId",
                    "type": "uint256"
                },
                {
                    "indexed": true,
                    "internalType": "string",
                    "name": "promoName",
                    "type": "string"
                },
                {
                    "indexed": false,
                    "internalType": "uint256",
                    "name": "expireTime",
                    "type": "uint256"
                }
            ],
            "name": "PromoCreated",
            "type": "event"
        },
        {
            "anonymous": false,
            "inputs": [
                {
                    "indexed": true,
                    "internalType": "uint256",
                    "name": "promoId",
                    "type": "uint256"
                },
                {
                    "indexed": false,
                    "internalType": "uint256",
                    "name": "currentDispensed",
                    "type": "uint256"
                }
            ],
            "name": "TicketDispensed",
            "type": "event"
        },
        {
            "anonymous": false,
            "inputs": [
                {
                    "indexed": true,
                    "internalType": "uint256",
                    "name": "promoId",
                    "type": "uint256"
                },
                {
                    "indexed": false,
                    "internalType": "uint256",
                    "name": "currentRedeemed",
                    "type": "uint256"
                }
            ],
            "name": "TicketRedeemed",
            "type": "event"
        },
        {
            "inputs": [
                {
                    "internalType": "uint256",
                    "name": "legendId",
                    "type": "uint256"
                },
                {
                    "internalType": "uint256",
                    "name": "regainedSlots",
                    "type": "uint256"
                }
            ],
            "name": "_restoreBlendingSlots",
            "outputs": [],
            "stateMutability": "nonpayable",
            "type": "function"
        },
        {
            "inputs": [
                {
                    "internalType": "uint256",
                    "name": "promoId",
                    "type": "uint256"
                }
            ],
            "name": "closePromoEvent",
            "outputs": [],
            "stateMutability": "nonpayable",
            "type": "function"
        },
        {
            "inputs": [
                {
                    "internalType": "string",
                    "name": "eventName",
                    "type": "string"
                },
                {
                    "internalType": "uint256",
                    "name": "duration",
                    "type": "uint256"
                },
                {
                    "internalType": "bool",
                    "name": "isUnrestricted",
                    "type": "bool"
                },
                {
                    "internalType": "uint256",
                    "name": "maxTickets",
                    "type": "uint256"
                },
                {
                    "internalType": "bool",
                    "name": "skipIncubation",
                    "type": "bool"
                }
            ],
            "name": "createPromoEvent",
            "outputs": [],
            "stateMutability": "nonpayable",
            "type": "function"
        },
        {
            "inputs": [
                {
                    "internalType": "uint256",
                    "name": "promoId",
                    "type": "uint256"
                },
                {
                    "internalType": "address",
                    "name": "recipient",
                    "type": "address"
                },
                {
                    "internalType": "uint256",
                    "name": "ticketAmount",
                    "type": "uint256"
                }
            ],
            "name": "dispensePromoTicket",
            "outputs": [],
            "stateMutability": "nonpayable",
            "type": "function"
        },
        {
            "inputs": [
                {
                    "internalType": "uint256",
                    "name": "legendId",
                    "type": "uint256"
                }
            ],
            "name": "fetchBlendingCost",
            "outputs": [
                {
                    "internalType": "uint256",
                    "name": "",
                    "type": "uint256"
                }
            ],
            "stateMutability": "view",
            "type": "function"
        },
        {
            "inputs": [
                {
                    "internalType": "uint256",
                    "name": "legendId",
                    "type": "uint256"
                }
            ],
            "name": "fetchBlendingCount",
            "outputs": [
                {
                    "internalType": "uint256",
                    "name": "",
                    "type": "uint256"
                }
            ],
            "stateMutability": "view",
            "type": "function"
        },
        {
            "inputs": [
                {
                    "internalType": "uint256",
                    "name": "promoId",
                    "type": "uint256"
                }
            ],
            "name": "fetchMaxTicketsDispensable",
            "outputs": [
                {
                    "internalType": "uint256",
                    "name": "",
                    "type": "uint256"
                }
            ],
            "stateMutability": "view",
            "type": "function"
        },
        {
            "inputs": [
                {
                    "internalType": "uint256",
                    "name": "promoId",
                    "type": "uint256"
                }
            ],
            "name": "fetchPromoEvent",
            "outputs": [
                {
                    "components": [
                        {
                            "internalType": "string",
                            "name": "promoName",
                            "type": "string"
                        },
                        {
                            "internalType": "uint256",
                            "name": "promoId",
                            "type": "uint256"
                        },
                        {
                            "internalType": "uint256",
                            "name": "startTime",
                            "type": "uint256"
                        },
                        {
                            "internalType": "uint256",
                            "name": "expireTime",
                            "type": "uint256"
                        },
                        {
                            "internalType": "bool",
                            "name": "isUnrestricted",
                            "type": "bool"
                        },
                        {
                            "internalType": "bool",
                            "name": "ticketLimit",
                            "type": "bool"
                        },
                        {
                            "internalType": "bool",
                            "name": "promoClosed",
                            "type": "bool"
                        },
                        {
                            "components": [
                                {
                                    "internalType": "uint256",
                                    "name": "_value",
                                    "type": "uint256"
                                }
                            ],
                            "internalType": "struct Counters.Counter",
                            "name": "ticketsClaimed",
                            "type": "tuple"
                        },
                        {
                            "components": [
                                {
                                    "internalType": "uint256",
                                    "name": "_value",
                                    "type": "uint256"
                                }
                            ],
                            "internalType": "struct Counters.Counter",
                            "name": "ticketsRedeemed",
                            "type": "tuple"
                        }
                    ],
                    "internalType": "struct TicketMachine.PromoEvent",
                    "name": "",
                    "type": "tuple"
                }
            ],
            "stateMutability": "view",
            "type": "function"
        },
        {
            "inputs": [
                {
                    "internalType": "uint256",
                    "name": "promoId",
                    "type": "uint256"
                },
                {
                    "internalType": "address",
                    "name": "recipient",
                    "type": "address"
                }
            ],
            "name": "fetchRedeemableTickets",
            "outputs": [
                {
                    "internalType": "uint256",
                    "name": "",
                    "type": "uint256"
                }
            ],
            "stateMutability": "view",
            "type": "function"
        },
        {
            "inputs": [
                {
                    "internalType": "uint256",
                    "name": "legendId",
                    "type": "uint256"
                }
            ],
            "name": "fetchRoyaltyRecipient",
            "outputs": [
                {
                    "internalType": "address payable",
                    "name": "",
                    "type": "address"
                }
            ],
            "stateMutability": "view",
            "type": "function"
        },
        {
            "inputs": [],
            "name": "fetchSeason",
            "outputs": [
                {
                    "internalType": "string",
                    "name": "",
                    "type": "string"
                }
            ],
            "stateMutability": "view",
            "type": "function"
        },
        {
            "inputs": [],
            "name": "fetchTotalPromoCount",
            "outputs": [
                {
                    "components": [
                        {
                            "internalType": "uint256",
                            "name": "_value",
                            "type": "uint256"
                        }
                    ],
                    "internalType": "struct Counters.Counter",
                    "name": "",
                    "type": "tuple"
                },
                {
                    "components": [
                        {
                            "internalType": "uint256",
                            "name": "_value",
                            "type": "uint256"
                        }
                    ],
                    "internalType": "struct Counters.Counter",
                    "name": "",
                    "type": "tuple"
                }
            ],
            "stateMutability": "view",
            "type": "function"
        },
        {
            "inputs": [],
            "name": "getChildContracts",
            "outputs": [
                {
                    "internalType": "contract LegendsNFT",
                    "name": "",
                    "type": "address"
                },
                {
                    "internalType": "contract LegendToken",
                    "name": "",
                    "type": "address"
                },
                {
                    "internalType": "contract LegendRejuvenation",
                    "name": "",
                    "type": "address"
                },
                {
                    "internalType": "contract LegendsMarketplace",
                    "name": "",
                    "type": "address"
                },
                {
                    "internalType": "contract LegendsMatchingBoard",
                    "name": "",
                    "type": "address"
                }
            ],
            "stateMutability": "view",
            "type": "function"
        },
        {
            "inputs": [
                {
                    "internalType": "uint256",
                    "name": "legendId",
                    "type": "uint256"
                }
            ],
            "name": "isBlendable",
            "outputs": [
                {
                    "internalType": "bool",
                    "name": "",
                    "type": "bool"
                }
            ],
            "stateMutability": "view",
            "type": "function"
        },
        {
            "inputs": [
                {
                    "internalType": "uint256",
                    "name": "promoId",
                    "type": "uint256"
                },
                {
                    "internalType": "address",
                    "name": "recipient",
                    "type": "address"
                }
            ],
            "name": "isClaimed",
            "outputs": [
                {
                    "internalType": "bool",
                    "name": "",
                    "type": "bool"
                }
            ],
            "stateMutability": "view",
            "type": "function"
        },
        {
            "inputs": [
                {
                    "internalType": "uint256",
                    "name": "legendId",
                    "type": "uint256"
                }
            ],
            "name": "isHatched",
            "outputs": [
                {
                    "internalType": "bool",
                    "name": "",
                    "type": "bool"
                }
            ],
            "stateMutability": "view",
            "type": "function"
        },
        {
            "inputs": [
                {
                    "internalType": "uint256",
                    "name": "legendId",
                    "type": "uint256"
                }
            ],
            "name": "isListable",
            "outputs": [
                {
                    "internalType": "bool",
                    "name": "",
                    "type": "bool"
                }
            ],
            "stateMutability": "view",
            "type": "function"
        },
        {
            "inputs": [
                {
                    "internalType": "uint256",
                    "name": "promoId",
                    "type": "uint256"
                }
            ],
            "name": "isPromoIncubated",
            "outputs": [
                {
                    "internalType": "bool",
                    "name": "",
                    "type": "bool"
                }
            ],
            "stateMutability": "view",
            "type": "function"
        },
        {
            "inputs": [],
            "name": "legendRejuvenation",
            "outputs": [
                {
                    "internalType": "contract LegendRejuvenation",
                    "name": "",
                    "type": "address"
                }
            ],
            "stateMutability": "view",
            "type": "function"
        },
        {
            "inputs": [],
            "name": "legendToken",
            "outputs": [
                {
                    "internalType": "contract LegendToken",
                    "name": "",
                    "type": "address"
                }
            ],
            "stateMutability": "view",
            "type": "function"
        },
        {
            "inputs": [],
            "name": "legendsMarketplace",
            "outputs": [
                {
                    "internalType": "contract LegendsMarketplace",
                    "name": "",
                    "type": "address"
                }
            ],
            "stateMutability": "view",
            "type": "function"
        },
        {
            "inputs": [],
            "name": "legendsMatchingBoard",
            "outputs": [
                {
                    "internalType": "contract LegendsMatchingBoard",
                    "name": "",
                    "type": "address"
                }
            ],
            "stateMutability": "view",
            "type": "function"
        },
        {
            "inputs": [],
            "name": "legendsNFT",
            "outputs": [
                {
                    "internalType": "contract LegendsNFT",
                    "name": "",
                    "type": "address"
                }
            ],
            "stateMutability": "view",
            "type": "function"
        },
        {
            "inputs": [
                {
                    "internalType": "address",
                    "name": "recipient",
                    "type": "address"
                },
                {
                    "internalType": "uint256",
                    "name": "promoId",
                    "type": "uint256"
                }
            ],
            "name": "mintLegendaryLegend",
            "outputs": [],
            "stateMutability": "nonpayable",
            "type": "function"
        },
        {
            "inputs": [],
            "name": "owner",
            "outputs": [
                {
                    "internalType": "address",
                    "name": "",
                    "type": "address"
                }
            ],
            "stateMutability": "view",
            "type": "function"
        },
        {
            "inputs": [
                {
                    "internalType": "uint256",
                    "name": "promoId",
                    "type": "uint256"
                },
                {
                    "internalType": "address",
                    "name": "recipient",
                    "type": "address"
                }
            ],
            "name": "redeemPromoTicket",
            "outputs": [],
            "stateMutability": "nonpayable",
            "type": "function"
        },
        {
            "inputs": [],
            "name": "renounceOwnership",
            "outputs": [],
            "stateMutability": "nonpayable",
            "type": "function"
        },
        {
            "inputs": [
                {
                    "internalType": "uint256[3]",
                    "name": "newAuctionDurations",
                    "type": "uint256[3]"
                }
            ],
            "name": "setAuctionDurations",
            "outputs": [],
            "stateMutability": "nonpayable",
            "type": "function"
        },
        {
            "inputs": [
                {
                    "internalType": "uint256",
                    "name": "newAuctionExtension",
                    "type": "uint256"
                }
            ],
            "name": "setAuctionExtension",
            "outputs": [],
            "stateMutability": "nonpayable",
            "type": "function"
        },
        {
            "inputs": [
                {
                    "internalType": "uint256",
                    "name": "newBaseBlendingCost",
                    "type": "uint256"
                }
            ],
            "name": "setBaseBlendingCost",
            "outputs": [],
            "stateMutability": "nonpayable",
            "type": "function"
        },
        {
            "inputs": [
                {
                    "internalType": "uint256",
                    "name": "newBlendingLimit",
                    "type": "uint256"
                }
            ],
            "name": "setBlendingLimit",
            "outputs": [],
            "stateMutability": "nonpayable",
            "type": "function"
        },
        {
            "inputs": [
                {
                    "internalType": "uint256",
                    "name": "newIncubationPeriod",
                    "type": "uint256"
                }
            ],
            "name": "setIncubationPeriod",
            "outputs": [],
            "stateMutability": "nonpayable",
            "type": "function"
        },
        {
            "inputs": [
                {
                    "internalType": "string[5]",
                    "name": "newIncubationViews",
                    "type": "string[5]"
                }
            ],
            "name": "setIncubationViews",
            "outputs": [],
            "stateMutability": "nonpayable",
            "type": "function"
        },
        {
            "inputs": [
                {
                    "internalType": "uint256",
                    "name": "newKinBlendingLevel",
                    "type": "uint256"
                }
            ],
            "name": "setKinBlendingLevel",
            "outputs": [],
            "stateMutability": "nonpayable",
            "type": "function"
        },
        {
            "inputs": [
                {
                    "internalType": "uint256",
                    "name": "newMarketplaceFee",
                    "type": "uint256"
                }
            ],
            "name": "setMarketplaceFee",
            "outputs": [],
            "stateMutability": "nonpayable",
            "type": "function"
        },
        {
            "inputs": [
                {
                    "internalType": "uint256",
                    "name": "newMaxMultiplier",
                    "type": "uint256"
                }
            ],
            "name": "setMaxMultiplier",
            "outputs": [],
            "stateMutability": "nonpayable",
            "type": "function"
        },
        {
            "inputs": [
                {
                    "internalType": "uint256",
                    "name": "newMinimumSecure",
                    "type": "uint256"
                }
            ],
            "name": "setMinimumSecure",
            "outputs": [],
            "stateMutability": "nonpayable",
            "type": "function"
        },
        {
            "inputs": [
                {
                    "internalType": "uint256",
                    "name": "newOfferDuration",
                    "type": "uint256"
                }
            ],
            "name": "setOfferDuration",
            "outputs": [],
            "stateMutability": "nonpayable",
            "type": "function"
        },
        {
            "inputs": [
                {
                    "internalType": "uint256",
                    "name": "newReJuNeededPerSlot",
                    "type": "uint256"
                }
            ],
            "name": "setReJuNeededPerSlot",
            "outputs": [],
            "stateMutability": "nonpayable",
            "type": "function"
        },
        {
            "inputs": [
                {
                    "internalType": "uint256",
                    "name": "newReJuEmissionRate",
                    "type": "uint256"
                }
            ],
            "name": "setReJuPerBlock",
            "outputs": [],
            "stateMutability": "nonpayable",
            "type": "function"
        },
        {
            "inputs": [
                {
                    "internalType": "uint256",
                    "name": "newRoyaltyFee",
                    "type": "uint256"
                }
            ],
            "name": "setRoyaltyFee",
            "outputs": [],
            "stateMutability": "nonpayable",
            "type": "function"
        },
        {
            "inputs": [
                {
                    "internalType": "string",
                    "name": "newSeason",
                    "type": "string"
                }
            ],
            "name": "setSeason",
            "outputs": [],
            "stateMutability": "nonpayable",
            "type": "function"
        },
        {
            "inputs": [
                {
                    "internalType": "address",
                    "name": "newOwner",
                    "type": "address"
                }
            ],
            "name": "transferOwnership",
            "outputs": [],
            "stateMutability": "nonpayable",
            "type": "function"
        }
    ],
    "bytecode": "6080604052604051620000129062000232565b604051809103906000f0801580156200002f573d6000803e3d6000fd5b50600780546001600160a01b0319166001600160a01b03929092169190911790556040513390620000609062000240565b6001600160a01b039091168152602001604051809103906000f0801580156200008d573d6000803e3d6000fd5b50600880546001600160a01b0319166001600160a01b0392909216919091179055604051620000bc906200024e565b604051809103906000f080158015620000d9573d6000803e3d6000fd5b50600980546001600160a01b0319166001600160a01b039290921691909117905560405162000108906200025c565b604051809103906000f08015801562000125573d6000803e3d6000fd5b50600a80546001600160a01b0319166001600160a01b039290921691909117905560405162000154906200026a565b604051809103906000f08015801562000171573d6000803e3d6000fd5b50600b80546001600160a01b0319166001600160a01b0392909216919091179055604080518082019091526007808252660a0d0decadcd2f60cb1b6020909201918252620001c291600c9162000278565b50348015620001d057600080fd5b50620001dc33620001e2565b6200035b565b600080546001600160a01b038381166001600160a01b0319831681178455604051919092169283917f8be0079c531659141344cd1fd0a4f28419497f9722a3daafe3b4186f6b6457e09190a35050565b613a4280620025e783390190565b610f25806200602983390190565b6110a78062006f4e83390190565b613bcc8062007ff583390190565b611a7c806200bbc183390190565b82805462000286906200031e565b90600052602060002090601f016020900481019282620002aa5760008555620002f5565b82601f10620002c557805160ff1916838001178555620002f5565b82800160010185558215620002f5579182015b82811115620002f5578251825591602001919060010190620002d8565b506200030392915062000307565b5090565b5b8082111562000303576000815560010162000308565b600181811c908216806200033357607f821691505b602082108114156200035557634e487b7160e01b600052602260045260246000fd5b50919050565b61227c806200036b6000396000f3fe608060405234801561001057600080fd5b50600436106102695760003560e01c8063715018a611610151578063c11b7273116100c3578063da738c5011610087578063da738c501461060e578063dfdb5c6614610644578063e4eb23ae14610657578063ea832ddd1461066c578063f2fde38b1461067f578063f4c2bc8e1461069257600080fd5b8063c11b727314610589578063c13b80761461059c578063ca9d8fd0146105af578063ced3e3f1146105c2578063d2ef0795146105d557600080fd5b80638c68e547116101155780638c68e547146105195780638da5cb5b1461052c5780639050a5751461053d5780639407ea981461055057806399ea584414610563578063a4cecdb71461057657600080fd5b8063715018a6146104b85780637eefa201146104c0578063805d419a146104d357806387aef166146104e6578063884c77f3146104f957600080fd5b80631b65cd30116101ea578063443af2ba116101ae578063443af2ba14610446578063446845eb14610459578063478c5ef01461046c5780634838f5651461047f5780634c89c218146104925780634dd40112146104a557600080fd5b80631b65cd30146103905780632b3a6fd7146103c35780632d1e7f86146103d6578063355d5943146103e95780633e4086e51461043357600080fd5b80630c818a9a116102315780630c818a9a146102fa5780630d567b9b1461030d5780631378b62e146103575780631944f20d1461036a57806319b60f051461037d57600080fd5b806301526a431461026e578063030032051461028357806304bc2264146102b357806309932bbc146102d45780630c69ebcd146102e7575b600080fd5b61028161027c366004611ea3565b6106a5565b005b600854610296906001600160a01b031681565b6040516001600160a01b0390911681526020015b60405180910390f35b6102c66102c1366004611ea3565b61073a565b6040519081526020016102aa565b6102c66102e2366004611ea3565b6107c5565b6102816102f5366004611ea3565b610848565b610281610308366004611ea3565b6108a3565b600754600854600954600a54600b54604080516001600160a01b0396871681529486166020860152928516928401929092528316606083015291909116608082015260a0016102aa565b610281610365366004611ea3565b6108fe565b600754610296906001600160a01b031681565b61028161038b366004611ea3565b610959565b6103b361039e366004611ea3565b6000908152600d602052604090205460ff1690565b60405190151581526020016102aa565b6102c66103d1366004611ea3565b6109b4565b6102816103e4366004611ca3565b610a23565b6040805160208082018352600091829052825180820184529190915281518082018352600154815282519182019092526002548152604080519251835290516020830152016102aa565b610281610441366004611ea3565b610a5e565b610281610454366004611c61565b610ab9565b610281610467366004611ea3565b610b13565b6103b361047a366004611ea3565b610b6e565b61028161048d366004611ea3565b610bec565b6102816104a0366004611ea3565b610c47565b600b54610296906001600160a01b031681565b610281610ca2565b6102816104ce366004611ed3565b610cd8565b6102816104e1366004611ea3565b610d54565b6102816104f4366004611c29565b610daf565b61050c610507366004611ea3565b610e09565b6040516102aa91906120a5565b610281610527366004611ea3565b610f3c565b6000546001600160a01b0316610296565b61028161054b366004611ce3565b610f72565b61028161055e366004611ea3565b610fd1565b6103b3610571366004611ea3565b61102c565b600954610296906001600160a01b031681565b600a54610296906001600160a01b031681565b6102816105aa366004611f39565b61105e565b6102816105bd366004611ea3565b6110da565b6103b36105d0366004611ea3565b611135565b6103b36105e3366004611ed3565b60009182526005602090815260408084206001600160a01b0393909316845291905290205460ff1690565b6102c661061c366004611ed3565b60009182526006602090815260408084206001600160a01b0393909316845291905290205490565b610281610652366004611bfe565b611167565b61065f6111db565b6040516102aa919061205d565b61029661067a366004611ea3565b61126d565b61028161068d366004611bdb565b6112f9565b6102816106a0366004611f02565b611391565b6000546001600160a01b031633146106d85760405162461bcd60e51b81526004016106cf90612070565b60405180910390fd5b6009546040516301526a4360e01b8152600481018390526001600160a01b03909116906301526a43906024015b600060405180830381600087803b15801561071f57600080fd5b505af1158015610733573d6000803e3d6000fd5b5050505050565b60075460405163f88378bb60e01b8152600481018390526000916001600160a01b03169063f88378bb9060240160006040518083038186803b15801561077f57600080fd5b505afa158015610793573d6000803e3d6000fd5b505050506040513d6000823e601f3d908101601f191682016040526107bb9190810190611d5d565b60c0015192915050565b600754604051630264caef60e21b8152600481018390526000916001600160a01b0316906309932bbc9060240160206040518083038186803b15801561080a57600080fd5b505afa15801561081e573d6000803e3d6000fd5b505050506040513d601f19601f820116820180604052508101906108429190611ebb565b92915050565b6000546001600160a01b031633146108725760405162461bcd60e51b81526004016106cf90612070565b600954604051630c69ebcd60e01b8152600481018390526001600160a01b0390911690630c69ebcd90602401610705565b6000546001600160a01b031633146108cd5760405162461bcd60e51b81526004016106cf90612070565b600754604051630640c54d60e11b8152600481018390526001600160a01b0390911690630c818a9a90602401610705565b6000546001600160a01b031633146109285760405162461bcd60e51b81526004016106cf90612070565b600a546040516309bc5b1760e11b8152600481018390526001600160a01b0390911690631378b62e90602401610705565b6000546001600160a01b031633146109835760405162461bcd60e51b81526004016106cf90612070565b600a546040516319b60f0560e01b8152600481018390526001600160a01b03909116906319b60f0590602401610705565b600081815260036020526040812060040154610100900460ff16610a105760405162461bcd60e51b8152602060048201526013602482015272139bc8151a58dad95d08131a5b5a5d0814d95d606a1b60448201526064016106cf565b5060009081526004602052604090205490565b6000546001600160a01b03163314610a4d5760405162461bcd60e51b81526004016106cf90612070565b610a59600c838361196c565b505050565b6000546001600160a01b03163314610a885760405162461bcd60e51b81526004016106cf90612070565b600a54604051633e4086e560e01b8152600481018390526001600160a01b0390911690633e4086e590602401610705565b6000546001600160a01b03163314610ae35760405162461bcd60e51b81526004016106cf90612070565b600a5460405163221d795d60e11b81526001600160a01b039091169063443af2ba9061070590849060040161204a565b6000546001600160a01b03163314610b3d5760405162461bcd60e51b81526004016106cf90612070565b60075460405163446845eb60e01b8152600481018390526001600160a01b039091169063446845eb90602401610705565b600754604051630478c5ef60e41b8152600481018390526000916001600160a01b03169063478c5ef0906024015b60206040518083038186803b158015610bb457600080fd5b505afa158015610bc8573d6000803e3d6000fd5b505050506040513d601f19601f820116820180604052508101906108429190611c87565b6000546001600160a01b03163314610c165760405162461bcd60e51b81526004016106cf90612070565b600754604051634838f56560e01b8152600481018390526001600160a01b0390911690634838f56590602401610705565b6000546001600160a01b03163314610c715760405162461bcd60e51b81526004016106cf90612070565b600954604051630991384360e31b8152600481018390526001600160a01b0390911690634c89c21890602401610705565b6000546001600160a01b03163314610ccc5760405162461bcd60e51b81526004016106cf90612070565b610cd66000611400565b565b610ce28282611450565b600754604051636a6ca76560e11b81526001600160a01b03838116600483015260248201859052600060448301529091169063d4d94eca906064015b600060405180830381600087803b158015610d3857600080fd5b505af1158015610d4c573d6000803e3d6000fd5b505050505050565b6000546001600160a01b03163314610d7e5760405162461bcd60e51b81526004016106cf90612070565b60075460405163402ea0cd60e11b8152600481018390526001600160a01b039091169063805d419a90602401610705565b6000546001600160a01b03163314610dd95760405162461bcd60e51b81526004016106cf90612070565b6007546040516343d778b360e11b81526001600160a01b03909116906387aef16690610705908490600401611fbf565b610e116119f0565b6000828152600360205260409081902081516101208101909252805482908290610e3a906121c2565b80601f0160208091040260200160405190810160405280929190818152602001828054610e66906121c2565b8015610eb35780601f10610e8857610100808354040283529160200191610eb3565b820191906000526020600020905b815481529060010190602001808311610e9657829003601f168201915b50505091835250506001820154602080830191909152600283015460408084019190915260038401546060840152600484015460ff808216151560808601526101008083048216151560a08701526201000090920416151560c0850152815180840183526005860154815260e08501528151928301909152600690930154815291015292915050565b6000546001600160a01b03163314610f665760405162461bcd60e51b81526004016106cf90612070565b610f6f81611590565b50565b6000546001600160a01b03163314610f9c5760405162461bcd60e51b81526004016106cf90612070565b6000610fab878787878761169a565b6000908152600d60205260409020805460ff191692151592909217909155505050505050565b6000546001600160a01b03163314610ffb5760405162461bcd60e51b81526004016106cf90612070565b600a54604051631280fd5360e31b8152600481018390526001600160a01b0390911690639407ea9890602401610705565b60075460405163267a961160e21b8152600481018390526000916001600160a01b0316906399ea584490602401610b9c565b6009546001600160a01b031633146110a25760405162461bcd60e51b8152602060048201526007602482015266139bdd08141bd960ca1b60448201526064016106cf565b60075460405163609dc03b60e11b815260048101849052602481018390526001600160a01b039091169063c13b807690604401610d1e565b6000546001600160a01b031633146111045760405162461bcd60e51b81526004016106cf90612070565b600954604051630ca9d8fd60e41b8152600481018390526001600160a01b039091169063ca9d8fd090602401610705565b60075460405163ced3e3f160e01b8152600481018390526000916001600160a01b03169063ced3e3f190602401610b9c565b6000546001600160a01b031633146111915760405162461bcd60e51b81526004016106cf90612070565b61119b8183611450565b600754604051636a6ca76560e11b81526001600160a01b03848116600483015260248201849052600160448301529091169063d4d94eca90606401610d1e565b6060600c80546111ea906121c2565b80601f0160208091040260200160405190810160405280929190818152602001828054611216906121c2565b80156112635780601f1061123857610100808354040283529160200191611263565b820191906000526020600020905b81548152906001019060200180831161124657829003601f168201915b5050505050905090565b60075460405163f88378bb60e01b8152600481018390526000916001600160a01b03169063f88378bb9060240160006040518083038186803b1580156112b257600080fd5b505afa1580156112c6573d6000803e3d6000fd5b505050506040513d6000823e601f3d908101601f191682016040526112ee9190810190611d5d565b610120015192915050565b6000546001600160a01b031633146113235760405162461bcd60e51b81526004016106cf90612070565b6001600160a01b0381166113885760405162461bcd60e51b815260206004820152602660248201527f4f776e61626c653a206e6577206f776e657220697320746865207a65726f206160448201526564647265737360d01b60648201526084016106cf565b610f6f81611400565b60008381526003602052604090206004015460ff166113f5576000546001600160a01b031633146113f55760405162461bcd60e51b815260206004820152600e60248201526d139bdd08105d5d1a1bdc9a5e995960921b60448201526064016106cf565b610a5983838361178e565b600080546001600160a01b038381166001600160a01b0319831681178455604051919092169283917f8be0079c531659141344cd1fd0a4f28419497f9722a3daafe3b4186f6b6457e09190a35050565b6000828152600360205260409020600481015462010000900460ff16156114a85760405162461bcd60e51b815260206004820152600c60248201526b141c9bdb5bc810db1bdcd95960a21b60448201526064016106cf565b60008381526006602090815260408083206001600160a01b03861684529091529020548061150f5760405162461bcd60e51b81526020600482015260146024820152734e6f207469636b65747320746f2072656465656d60601b60448201526064016106cf565b60008481526006602090815260408083206001600160a01b0387168452909152812080546001929061154290849061217b565b90915550506006820180546001019081905584907fc9c4f03b153a016160309ee0e44964d3d4a7479afa7cbdec77792ee6e5a534cc905b60405190815260200160405180910390a250505050565b60008181526003602081905260409091209081015442116115e75760405162461bcd60e51b8152602060048201526011602482015270141c9bdb5bc81b9bdd08195e1c1a5c9959607a1b60448201526064016106cf565b600481015462010000900460ff16156116395760405162461bcd60e51b8152602060048201526014602482015273141c9bdb5bc8185b1c9958591e4818db1bdcd95960621b60448201526064016106cf565b60048101805462ff0000191662010000179055817fa5564de58e406ec47e635d6f73dd2f0582dc4c3cd41feb15bbe22c33cda1b353611679600584015490565b60068401546040805192835260208301919091520160405180910390a25050565b60006116aa600180546001019055565b60006116b560015490565b905060006116c38642612163565b60008381526003602052604090209091506116df818a8a61196c565b50600181018390554260028201556003810182905560048101805460ff1916871515179055841561172f576004808201805461ff0019166101001790556000848152602091909152604090208590555b888860405161173f929190611faf565b6040518091039020837f71d59def02df5d7fd25c165673e40168b501493e264f1064797de6e5367587648460405161177991815260200190565b60405180910390a35090979650505050505050565b60008381526003602081905260409091209081015442106117e15760405162461bcd60e51b815260206004820152600d60248201526c141c9bdb5bc8115e1c1a5c9959609a1b60448201526064016106cf565b600481015460ff16156118a25760008481526005602090815260408083206001600160a01b038716845290915290205460ff16156118595760405162461bcd60e51b8152602060048201526015602482015274141c9bdb5bc8185b1c9958591e4818db185a5b5959605a1b60448201526064016106cf565b816001146118a25760405162461bcd60e51b81526020600482015260166024820152754f6e65207469636b657420706572206164647265737360501b60448201526064016106cf565b6004810154610100900460ff16156118e05760006118c1826005015490565b60008681526004602052604090205490915081106118de57600080fd5b505b60008481526005602090815260408083206001600160a01b038716808552908352818420805460ff191660011790558784526006835281842090845290915281208054849290611931908490612163565b90915550506005810180546001019081905584907f846c3b95b866f54765c28d71ab65901a1d9aed59fa15e47bafb658e4cb7d78ff90611579565b828054611978906121c2565b90600052602060002090601f01602090048101928261199a57600085556119e0565b82601f106119b35782800160ff198235161785556119e0565b828001600101855582156119e0579182015b828111156119e05782358255916020019190600101906119c5565b506119ec929150611a69565b5090565b60405180610120016040528060608152602001600081526020016000815260200160008152602001600015158152602001600015158152602001600015158152602001611a496040518060200160405280600081525090565b8152602001611a646040518060200160405280600081525090565b905290565b5b808211156119ec5760008155600101611a6a565b8051611a8981612223565b919050565b600082601f830112611a9e578081fd5b6040516040810181811067ffffffffffffffff82111715611ac157611ac161220d565b8060405250808385604086011115611ad7578384fd5b835b6002811015611af8578151835260209283019290910190600101611ad9565b509195945050505050565b8051611a8981612238565b60008083601f840112611b1f578182fd5b50813567ffffffffffffffff811115611b36578182fd5b602083019150836020828501011115611b4e57600080fd5b9250929050565b600082601f830112611b65578081fd5b815167ffffffffffffffff80821115611b8057611b8061220d565b604051601f8301601f19908116603f01168101908282118183101715611ba857611ba861220d565b81604052838152866020858801011115611bc0578485fd5b611bd1846020830160208901612192565b9695505050505050565b600060208284031215611bec578081fd5b8135611bf781612223565b9392505050565b60008060408385031215611c10578081fd5b8235611c1b81612223565b946020939093013593505050565b600060208284031215611c3a578081fd5b813567ffffffffffffffff811115611c50578182fd5b820160a08101841015611bf7578182fd5b600060608284031215611c72578081fd5b82606083011115611c81578081fd5b50919050565b600060208284031215611c98578081fd5b8151611bf781612238565b60008060208385031215611cb5578182fd5b823567ffffffffffffffff811115611ccb578283fd5b611cd785828601611b0e565b90969095509350505050565b60008060008060008060a08789031215611cfb578182fd5b863567ffffffffffffffff811115611d11578283fd5b611d1d89828a01611b0e565b909750955050602087013593506040870135611d3881612238565b9250606087013591506080870135611d4f81612238565b809150509295509295509295565b600060208284031215611d6e578081fd5b815167ffffffffffffffff80821115611d85578283fd5b908301906101c08286031215611d99578283fd5b611da1612139565b82518152602083015182811115611db6578485fd5b611dc287828601611b55565b602083015250604083015182811115611dd9578485fd5b611de587828601611b55565b604083015250606083015182811115611dfc578485fd5b611e0887828601611b55565b606083015250611e1b8660808501611a8e565b608082015260c083015160a082015260e083015160c082015261010091508183015160e082015261012080840151838301526101409250611e5d838501611a7e565b90820152610160611e6f848201611b03565b838301526101809250611e83838501611b03565b90820152611e946101a08401611b03565b91810191909152949350505050565b600060208284031215611eb4578081fd5b5035919050565b600060208284031215611ecc578081fd5b5051919050565b60008060408385031215611ee5578182fd5b823591506020830135611ef781612223565b809150509250929050565b600080600060608486031215611f16578081fd5b833592506020840135611f2881612223565b929592945050506040919091013590565b60008060408385031215611f4b578182fd5b50508035926020909101359150565b81835281816020850137506000828201602090810191909152601f909101601f19169091010190565b60008151808452611f9b816020860160208601612192565b601f01601f19169290920160200192915050565b8183823760009101908152919050565b602080825260009060c0830183820185845b600581101561203e57868403601f19018352813536899003601e19018112611ff7578687fd5b8801803567ffffffffffffffff81111561200f578788fd5b8036038a131561201d578788fd5b61202a8682898501611f5a565b955050509184019190840190600101611fd1565b50919695505050505050565b6060818101908383376000815292915050565b602081526000611bf76020830184611f83565b6020808252818101527f4f776e61626c653a2063616c6c6572206973206e6f7420746865206f776e6572604082015260600190565b60208152600082516101208060208501526120c4610140850183611f83565b915060208501516040850152604085015160608501526060850151608085015260808501516120f760a086018215159052565b5060a085015180151560c08601525060c085015180151560e08601525060e085015161010061212881870183519052565b909501515193019290925250919050565b6040516101a0810167ffffffffffffffff8111828210171561215d5761215d61220d565b60405290565b60008219821115612176576121766121f7565b500190565b60008282101561218d5761218d6121f7565b500390565b60005b838110156121ad578181015183820152602001612195565b838111156121bc576000848401525b50505050565b600181811c908216806121d657607f821691505b60208210811415611c8157634e487b7160e01b600052602260045260246000fd5b634e487b7160e01b600052601160045260246000fd5b634e487b7160e01b600052604160045260246000fd5b6001600160a01b0381168114610f6f57600080fd5b8015158114610f6f57600080fdfea2646970667358221220a2950b7ab4824d04416b81b49bff8b012b01816a5ea3d83c6b8ea4696200a1ee64736f6c63430008040033610180604052603561012081815260809182919062003a0d61014039815260200160405180606001604052806035815260200162003a0d60359139815260200160405180606001604052806035815260200162003a0d60359139815260200160405180606001604052806035815260200162003a0d60359139815260200160405180606001604052806035815260200162003a0d603591399052620000a990600d90600562000149565b5060646012556005601355348015620000c157600080fd5b5060405180604001604052806006815260200165131959d95b9960d21b81525060405180604001604052806006815260200165131151d1539160d21b815250816000908051906020019062000118929190620001a0565b5080516200012e906001906020840190620001a0565b5050600a80546001600160a01b0319163317905550620002e2565b82600581019282156200018e579160200282015b828111156200018e57825180516200017d918491602090910190620001a0565b50916020019190600101906200015d565b506200019c9291506200022b565b5090565b828054620001ae90620002a5565b90600052602060002090601f016020900481019282620001d257600085556200021d565b82601f10620001ed57805160ff19168380011785556200021d565b828001600101855582156200021d579182015b828111156200021d57825182559160200191906001019062000200565b506200019c9291506200024c565b808211156200019c57600062000242828262000263565b506001016200022b565b5b808211156200019c57600081556001016200024d565b5080546200027190620002a5565b6000825580601f1062000282575050565b601f016020900490600052602060002090810190620002a291906200024c565b50565b600181811c90821680620002ba57607f821691505b60208210811415620002dc57634e487b7160e01b600052602260045260246000fd5b50919050565b61371b80620002f26000396000f3fe608060405234801561001057600080fd5b50600436106102315760003560e01c8063805d419a11610130578063b88d4fde116100b8578063ceadb5021161007c578063ceadb50214610524578063ced3e3f114610537578063d4d94eca14610564578063e985e9c514610577578063f88378bb146105b357600080fd5b8063b88d4fde146104aa578063c13b8076146104bd578063c2b64f2d146104d0578063c447e154146104fe578063c87b56dd1461051157600080fd5b806399ea5844116100ff57806399ea58441461042f5780639ac3cb2914610442578063a18e7b2b14610461578063a22cb46514610474578063ac386f4b1461048757600080fd5b8063805d419a146103ee57806387aef166146104015780638ca46dcc1461041457806395d89b411461042757600080fd5b80632f745c59116101be5780634f6ccce7116101825780634f6ccce71461038f5780636352211e146103a257806370a08231146103b557806371de4ed7146103c85780637c20234d146103db57600080fd5b80632f745c591461031b57806342842e0e1461032e578063446845eb14610341578063478c5ef0146103545780634838f5651461037c57600080fd5b8063095ea7b311610205578063095ea7b3146102b757806309932bbc146102cc5780630c818a9a146102ed57806318160ddd1461030057806323b872dd1461030857600080fd5b8062ce93811461023657806301ffc9a71461025457806306fdde0314610277578063081812fc1461028c575b600080fd5b61023e6105d3565b60405161024b9190613203565b60405180910390f35b610267610262366004612df9565b61069a565b604051901515815260200161024b565b61027f6106c5565b60405161024b91906132c0565b61029f61029a366004612ec0565b610757565b6040516001600160a01b03909116815260200161024b565b6102ca6102c5366004612c7a565b6107f1565b005b6102df6102da366004612ec0565b610907565b60405190815260200161024b565b6102ca6102fb366004612ec0565b610945565b6008546102df565b6102ca610316366004612b90565b610974565b6102df610329366004612c7a565b6109a5565b6102ca61033c366004612b90565b610a3b565b6102ca61034f366004612ec0565b610a56565b610267610362366004612ec0565b601354600091825260156020526040909120600701541090565b6102ca61038a366004612ec0565b610ad4565b6102df61039d366004612ec0565b610b03565b61029f6103b0366004612ec0565b610ba4565b6102df6103c3366004612b3c565b610c1b565b6102ca6103d6366004612ed8565b610ca2565b6102ca6103e9366004612f22565b610d8c565b6102ca6103fc366004612ec0565b610e1d565b6102ca61040f366004612d2f565b610e4c565b610267610422366004612ec0565b610e87565b61027f610f3d565b61026761043d366004612ec0565b610f4c565b600c5460125460135460145460405161024b9460ff1693929190613250565b6102ca61046f366004612ec0565b610f9e565b6102ca610482366004612c4d565b610ffa565b610267610495366004612ec0565b60009081526017602052604090205460ff1690565b6102ca6104b8366004612bd0565b6110bf565b6102ca6104cb366004612f99565b6110f7565b6102676104de366004612f99565b600091825260186020908152604080842092845291905290205460ff1690565b6102df61050c366004612ce6565b61114b565b61027f61051f366004612ec0565b611589565b61027f610532366004612ec0565b611629565b610267610545366004612ec0565b6000908152601560205260409020600a0154600160a81b900460ff1690565b6102ca610572366004612ca5565b6116fe565b610267610585366004612b58565b6001600160a01b03918216600090815260056020908152604080832093909416825291909152205460ff1690565b6105c66105c1366004612ec0565b61180d565b60405161024b91906133ed565b6105db612826565b6040805160a08101909152600d60056000835b8282101561069157838201805461060490613600565b80601f016020809104026020016040519081016040528092919081815260200182805461063090613600565b801561067d5780601f106106525761010080835404028352916020019161067d565b820191906000526020600020905b81548152906001019060200180831161066057829003601f168201915b5050505050815260200190600101906105ee565b50505050905090565b60006001600160e01b0319821663780e9d6360e01b14806106bf57506106bf82611aa2565b92915050565b6060600080546106d490613600565b80601f016020809104026020016040519081016040528092919081815260200182805461070090613600565b801561074d5780601f106107225761010080835404028352916020019161074d565b820191906000526020600020905b81548152906001019060200180831161073057829003601f168201915b5050505050905090565b6000818152600260205260408120546001600160a01b03166107d55760405162461bcd60e51b815260206004820152602c60248201527f4552433732313a20617070726f76656420717565727920666f72206e6f6e657860448201526b34b9ba32b73a103a37b5b2b760a11b60648201526084015b60405180910390fd5b506000908152600460205260409020546001600160a01b031690565b60006107fc82610ba4565b9050806001600160a01b0316836001600160a01b0316141561086a5760405162461bcd60e51b815260206004820152602160248201527f4552433732313a20617070726f76616c20746f2063757272656e74206f776e656044820152603960f91b60648201526084016107cc565b336001600160a01b038216148061088657506108868133610585565b6108f85760405162461bcd60e51b815260206004820152603860248201527f4552433732313a20617070726f76652063616c6c6572206973206e6f74206f7760448201527f6e6572206e6f7220617070726f76656420666f7220616c6c000000000000000060648201526084016107cc565b6109028383611af2565b505050565b6000818152601560205260408120600901541561093d576000828152601560205260409020600901546012546106bf919061359e565b505060125490565b600a546001600160a01b0316331461096f5760405162461bcd60e51b81526004016107cc90613325565b601355565b61097e3382611b60565b61099a5760405162461bcd60e51b81526004016107cc9061339c565b610902838383611c53565b60006109b083610c1b565b8210610a125760405162461bcd60e51b815260206004820152602b60248201527f455243373231456e756d657261626c653a206f776e657220696e646578206f7560448201526a74206f6620626f756e647360a81b60648201526084016107cc565b506001600160a01b03919091166000908152600660209081526040808320938352929052205490565b610902838383604051806020016040528060008152506110bf565b600a546001600160a01b03163314610a805760405162461bcd60e51b81526004016107cc90613325565b80610a9d57600c80546000919060ff19166001835b021790555050565b8060011415610aba57600c80546002919060ff1916600183610a95565b8060021415610ad157600c805460ff191660011790555b50565b600a546001600160a01b03163314610afe5760405162461bcd60e51b81526004016107cc90613325565b601255565b6000610b0e60085490565b8210610b715760405162461bcd60e51b815260206004820152602c60248201527f455243373231456e756d657261626c653a20676c6f62616c20696e646578206f60448201526b7574206f6620626f756e647360a01b60648201526084016107cc565b60088281548110610b9257634e487b7160e01b600052603260045260246000fd5b90600052602060002001549050919050565b6000818152600260205260408120546001600160a01b0316806106bf5760405162461bcd60e51b815260206004820152602960248201527f4552433732313a206f776e657220717565727920666f72206e6f6e657869737460448201526832b73a103a37b5b2b760b91b60648201526084016107cc565b60006001600160a01b038216610c865760405162461bcd60e51b815260206004820152602a60248201527f4552433732313a2062616c616e636520717565727920666f7220746865207a65604482015269726f206164647265737360b01b60648201526084016107cc565b506001600160a01b031660009081526003602052604090205490565b33610cac84610ba4565b6001600160a01b031614610cbf57600080fd5b610cc883610e87565b610cd157600080fd5b600083815260156020908152604091829020600a01805460ff60a81b1916600160a81b1790558151601f8401829004820281018201909252828252610d329185918590859081908401838280828437600092019190915250611dfe92505050565b426015600085815260200190815260200160002060060181905550827f7212dd6ad91628f15bd648b9d774dd7ece843f5530043c4ccdf0784607ebbbb242604051610d7f91815260200190565b60405180910390a2505050565b610d9585610f4c565b610d9e57600080fd5b6000858152601560205260409020610dba90600201858561284d565b506000858152601560205260409020610dd790600301838361284d565b50847f06d4a29ec1d356093e05fa671c13569f2d68546579b6a8ec36b660db70ca390f85858585604051610e0e949392919061328e565b60405180910390a25050505050565b600a546001600160a01b03163314610e475760405162461bcd60e51b81526004016107cc90613325565b601455565b600a546001600160a01b03163314610e765760405162461bcd60e51b81526004016107cc90613325565b610e83600d8260056128d1565b5050565b6000818152601560205260408120600a0154600160a81b900460ff1615610ee25760405162461bcd60e51b815260206004820152600f60248201526e105b1c9958591e481a185d18da1959608a1b60448201526064016107cc565b60008281526017602052604090205460ff1615610f0157506001919050565b6014546000838152601560205260408120600601549091610f2191613572565b905080421015610f345750600092915050565b50600192915050565b6060600180546106d490613600565b600033610f5883610ba4565b6001600160a01b031614610f6e57506000919050565b6000828152601560205260409020600a0154600160a81b900460ff16610f9657506000919050565b506001919050565b33610fa882610ba4565b6001600160a01b031614610fbb57600080fd5b610fc481611e1d565b6040518181527f82c02749330cd846562e337f0a18fb1266e17bac7290c5ccd1a7181d94bd65589060200160405180910390a150565b6001600160a01b0382163314156110535760405162461bcd60e51b815260206004820152601960248201527f4552433732313a20617070726f766520746f2063616c6c65720000000000000060448201526064016107cc565b3360008181526005602090815260408083206001600160a01b03871680855290835292819020805460ff191686151590811790915590519081529192917f17307eab39ab6107e8899845ad3d59bd9653f200f220920489ca2b5937696c31910160405180910390a35050565b6110c93383611b60565b6110e55760405162461bcd60e51b81526004016107cc9061339c565b6110f184848484611ec4565b50505050565b600a546001600160a01b031633146111215760405162461bcd60e51b81526004016107cc90613325565b600082815260156020526040812060070180548392906111429084906135bd565b90915550505050565b60003361115785610ba4565b6001600160a01b031614801561117d57503361117284610ba4565b6001600160a01b0316145b61118657600080fd5b60008481526015602052604080822085835290822060135492879052600782015491929091106111b557600080fd5b601354600086815260156020526040902060070154106111d457600080fd5b6002600c5460ff1660028111156111fb57634e487b7160e01b600052602160045260246000fd5b146112ae57604080518082019182905261126691600485019060029082845b81548152602001906001019080831161121a575050604080518082019182905293506004870192506002915082845b815481526020019060010190808311611249575050505050611ef7565b61126f57600080fd5b6001600c5460ff16600281111561129657634e487b7160e01b600052602160045260246000fd5b146112ae576112a58686611fc2565b6112ae57600080fd5b600060026112bb87610907565b6112c489610907565b6112ce9190613572565b6112d8919061358a565b9050600a60009054906101000a90046001600160a01b03166001600160a01b031663030032056040518163ffffffff1660e01b815260040160206040518083038186803b15801561132857600080fd5b505afa15801561133c573d6000803e3d6000fd5b505050506040513d601f19601f820116820180604052508101906113609190612e31565b604051639f87833f60e01b8152336004820152602481018390526001600160a01b039190911690639f87833f90604401600060405180830381600087803b1580156113aa57600080fd5b505af11580156113be573d6000803e3d6000fd5b505050506113d0600b80546001019055565b60006113db600b5490565b604080518082019091528981526020810189905290915060005b60028110156114e55760006015600084846002811061142457634e487b7160e01b600052603260045260246000fd5b602002015181526020019081526020016000209050600181600901600082825461144e9190613572565b92505081905550600181600701600082825461146a9190613572565b90915550600190506018600085856002811061149657634e487b7160e01b600052603260045260246000fd5b60200201518152602001908152602001600020600086815260200190815260200160002060006101000a81548160ff0219169083151502179055505080806114dd9061363b565b9150506113f5565b50600061152c836114fc84845b6020020151612016565b6115078560016114f2565b60405160200161151892919061318a565b604051602081830303815290604052612130565b905061153d8b84848460008d612194565b888a7f8f02af4ec019b401c0e9f3fd6c02b233d6d5d34ef5d13eed42d576aecc06766c8560405161157091815260200190565b60405180910390a350909450505050505b949350505050565b6000818152600260205260409020546060906001600160a01b03166115c05760405162461bcd60e51b81526004016107cc9061334d565b60006115d760408051602081019091526000815290565b905060008151116115f75760405180602001604052806000815250611622565b8061160184612016565b604051602001611612929190613082565b6040516020818303038152906040525b9392505050565b6000818152600260205260409020546060906001600160a01b03166116605760405162461bcd60e51b81526004016107cc9061334d565b6000828152601660205260409020805461167990613600565b80601f01602080910402602001604051908101604052809291908181526020018280546116a590613600565b80156116f25780601f106116c7576101008083540402835291602001916116f2565b820191906000526020600020905b8154815290600101906020018083116116d557829003601f168201915b50505050509050919050565b600a546001600160a01b031633146117285760405162461bcd60e51b81526004016107cc90613325565b611736600b80546001019055565b6000611741600b5490565b905060006040518060400160405280600081526020016000815250905060006117728361176d87612016565b612130565b600a546040516301b65cd360e41b8152600481018890529192506000916001600160a01b0390911690631b65cd309060240160206040518083038186803b1580156117bc57600080fd5b505afa1580156117d0573d6000803e3d6000fd5b505050506040513d601f19601f820116820180604052508101906117f49190612ddd565b9050611804878585858986612194565b50505050505050565b61181561291d565b60156000838152602001908152602001600020604051806101a00160405290816000820154815260200160018201805461184e90613600565b80601f016020809104026020016040519081016040528092919081815260200182805461187a90613600565b80156118c75780601f1061189c576101008083540402835291602001916118c7565b820191906000526020600020905b8154815290600101906020018083116118aa57829003601f168201915b505050505081526020016002820180546118e090613600565b80601f016020809104026020016040519081016040528092919081815260200182805461190c90613600565b80156119595780601f1061192e57610100808354040283529160200191611959565b820191906000526020600020905b81548152906001019060200180831161193c57829003601f168201915b5050505050815260200160038201805461197290613600565b80601f016020809104026020016040519081016040528092919081815260200182805461199e90613600565b80156119eb5780601f106119c0576101008083540402835291602001916119eb565b820191906000526020600020905b8154815290600101906020018083116119ce57829003601f168201915b5050509183525050604080518082019182905260209092019190600484019060029082845b815481526020019060010190808311611a1057505050918352505060068201546020820152600782015460408201526008820154606082015260098201546080820152600a909101546001600160a01b03811660a083015260ff600160a01b82048116151560c0840152600160a81b82048116151560e0840152600160b01b9091041615156101009091015292915050565b60006001600160e01b031982166380ac58cd60e01b1480611ad357506001600160e01b03198216635b5e139f60e01b145b806106bf57506301ffc9a760e01b6001600160e01b03198316146106bf565b600081815260046020526040902080546001600160a01b0319166001600160a01b0384169081179091558190611b2782610ba4565b6001600160a01b03167f8c5be1e5ebec7d5bd14f71427d1e84f3dd0314c0f7b2291e5b200ac8c7c3b92560405160405180910390a45050565b6000818152600260205260408120546001600160a01b0316611bd95760405162461bcd60e51b815260206004820152602c60248201527f4552433732313a206f70657261746f7220717565727920666f72206e6f6e657860448201526b34b9ba32b73a103a37b5b2b760a11b60648201526084016107cc565b6000611be483610ba4565b9050806001600160a01b0316846001600160a01b03161480611c1f5750836001600160a01b0316611c1484610757565b6001600160a01b0316145b8061158157506001600160a01b0380821660009081526005602090815260408083209388168352929052205460ff16611581565b826001600160a01b0316611c6682610ba4565b6001600160a01b031614611cce5760405162461bcd60e51b815260206004820152602960248201527f4552433732313a207472616e73666572206f6620746f6b656e2074686174206960448201526839903737ba1037bbb760b91b60648201526084016107cc565b6001600160a01b038216611d305760405162461bcd60e51b8152602060048201526024808201527f4552433732313a207472616e7366657220746f20746865207a65726f206164646044820152637265737360e01b60648201526084016107cc565b611d3b838383612314565b611d46600082611af2565b6001600160a01b0383166000908152600360205260408120805460019290611d6f9084906135bd565b90915550506001600160a01b0382166000908152600360205260408120805460019290611d9d908490613572565b909155505060008181526002602052604080822080546001600160a01b0319166001600160a01b0386811691821790925591518493918716917fddf252ad1be2c89b69c2b068fc378daa952ba7f163c4a11628f55a4df523b3ef91a4505050565b600082815260166020908152604090912082516109029284019061298c565b6000611e2882610ba4565b9050611e3681600084612314565b611e41600083611af2565b6001600160a01b0381166000908152600360205260408120805460019290611e6a9084906135bd565b909155505060008281526002602052604080822080546001600160a01b0319169055518391906001600160a01b038416907fddf252ad1be2c89b69c2b068fc378daa952ba7f163c4a11628f55a4df523b3ef908390a45050565b611ecf848484611c53565b611edb848484846123cc565b6110f15760405162461bcd60e51b81526004016107cc906132d3565b81516000901580611f0757508151155b15611f14575060016106bf565b81604051602001611f25919061304e565b6040516020818303038152906040528051906020012083604051602001611f4c919061304e565b6040516020818303038152906040528051906020012014158015611622575082604051602001611f7c919061304e565b6040516020818303038152906040528051906020012082604051602001611fa3919061304e565b6040516020818303038152906040528051906020012014159392505050565b600082815260186020908152604080832084845290915281205460ff1615611fec575060006106bf565b600082815260186020908152604080832086845290915290205460ff1615610f34575060006106bf565b60608161203a5750506040805180820190915260018152600360fc1b602082015290565b8160005b8115612064578061204e8161363b565b915061205d9050600a8361358a565b915061203e565b60008167ffffffffffffffff81111561208d57634e487b7160e01b600052604160045260246000fd5b6040519080825280601f01601f1916602001820160405280156120b7576020820181803683370190505b5090505b8415611581576120cc6001836135bd565b91506120d9600a86613656565b6120e4906030613572565b60f81b81838151811061210757634e487b7160e01b600052603260045260246000fd5b60200101906001600160f81b031916908160001a905350612129600a8661358a565b94506120bb565b6060600061213c6124d6565b905061214784612016565b600d826005811061216857634e487b7160e01b600052603260045260246000fd5b018460405160200161217c939291906130b1565b60405160208183030381529060405291505092915050565b61219e868661251e565b83516000906121af575060006121d2565b506020808501516000908152601590915260409020600a01546001600160a01b03165b600086815260156020526040808220888155600a54825163727591d760e11b8152925191936001600160a01b039091169263e4eb23ae9260048083019392829003018186803b15801561222457600080fd5b505afa158015612238573d6000803e3d6000fd5b505050506040513d6000823e601f3d908101601f191682016040526122609190810190612e4d565b805161227691600184019160209091019061298c565b5061228660048201876002612a00565b50600a810180546001600160a01b0384166001600160a81b031990911617600160a01b861515021790556000878152601760205260409020805460ff19168415151790556122d48786611dfe565b6040516001600160a01b0383169088907f79e5f511bb9bfc9228c8dcb92afe3487a0a2fb935727d236b1c9d0a4fb0ac5ef90600090a35050505050505050565b6001600160a01b03831661236f5761236a81600880546000838152600960205260408120829055600182018355919091527ff3f7a9fe364faab93b216da50a3214154f22a0a2b415b23a84c8169e8b636ee30155565b612392565b816001600160a01b0316836001600160a01b03161461239257612392838261266c565b6001600160a01b0382166123a95761090281612709565b826001600160a01b0316826001600160a01b0316146109025761090282826127e2565b60006001600160a01b0384163b156124ce57604051630a85bd0160e11b81526001600160a01b0385169063150b7a02906124109033908990889088906004016131c6565b602060405180830381600087803b15801561242a57600080fd5b505af192505050801561245a575060408051601f3d908101601f1916820190925261245791810190612e15565b60015b6124b4573d808015612488576040519150601f19603f3d011682016040523d82523d6000602084013e61248d565b606091505b5080516124ac5760405162461bcd60e51b81526004016107cc906132d3565b805181602001fd5b6001600160e01b031916630a85bd0160e11b149050611581565b506001611581565b6000600544426040516020016124f6929190918252602082015260400190565b6040516020818303038152906040528051906020012060001c6125199190613656565b905090565b6001600160a01b0382166125745760405162461bcd60e51b815260206004820181905260248201527f4552433732313a206d696e7420746f20746865207a65726f206164647265737360448201526064016107cc565b6000818152600260205260409020546001600160a01b0316156125d95760405162461bcd60e51b815260206004820152601c60248201527f4552433732313a20746f6b656e20616c7265616479206d696e7465640000000060448201526064016107cc565b6125e560008383612314565b6001600160a01b038216600090815260036020526040812080546001929061260e908490613572565b909155505060008181526002602052604080822080546001600160a01b0319166001600160a01b03861690811790915590518392907fddf252ad1be2c89b69c2b068fc378daa952ba7f163c4a11628f55a4df523b3ef908290a45050565b6000600161267984610c1b565b61268391906135bd565b6000838152600760205260409020549091508082146126d6576001600160a01b03841660009081526006602090815260408083208584528252808320548484528184208190558352600790915290208190555b5060009182526007602090815260408084208490556001600160a01b039094168352600681528383209183525290812055565b60085460009061271b906001906135bd565b6000838152600960205260408120546008805493945090928490811061275157634e487b7160e01b600052603260045260246000fd5b90600052602060002001549050806008838154811061278057634e487b7160e01b600052603260045260246000fd5b60009182526020808320909101929092558281526009909152604080822084905585825281205560088054806127c657634e487b7160e01b600052603160045260246000fd5b6001900381819060005260206000200160009055905550505050565b60006127ed83610c1b565b6001600160a01b039093166000908152600660209081526040808320868452825280832085905593825260079052919091209190915550565b6040518060a001604052806005905b60608152602001906001900390816128355790505090565b82805461285990613600565b90600052602060002090601f01602090048101928261287b57600085556128c1565b82601f106128945782800160ff198235161785556128c1565b828001600101855582156128c1579182015b828111156128c15782358255916020019190600101906128a6565b506128cd929150612a2d565b5090565b8260058101928215612911579160200282015b82811115612911578251805161290191849160209091019061298c565b50916020019190600101906128e4565b506128cd929150612a42565b604051806101a001604052806000815260200160608152602001606081526020016060815260200161294d612a5f565b815260006020820181905260408201819052606082018190526080820181905260a0820181905260c0820181905260e082018190526101009091015290565b82805461299890613600565b90600052602060002090601f0160209004810192826129ba57600085556128c1565b82601f106129d357805160ff19168380011785556128c1565b828001600101855582156128c1579182015b828111156128c15782518255916020019190600101906129e5565b82600281019282156128c157916020028201828111156128c15782518255916020019190600101906129e5565b5b808211156128cd5760008155600101612a2e565b808211156128cd576000612a568282612a7d565b50600101612a42565b60405180604001604052806002906020820280368337509192915050565b508054612a8990613600565b6000825580601f10612a99575050565b601f016020900490600052602060002090810190610ad19190612a2d565b6000612aca612ac58461354a565b613519565b9050828152838383011115612ade57600080fd5b828260208301376000602084830101529392505050565b60008083601f840112612b06578182fd5b50813567ffffffffffffffff811115612b1d578182fd5b602083019150836020828501011115612b3557600080fd5b9250929050565b600060208284031215612b4d578081fd5b8135611622816136ac565b60008060408385031215612b6a578081fd5b8235612b75816136ac565b91506020830135612b85816136ac565b809150509250929050565b600080600060608486031215612ba4578081fd5b8335612baf816136ac565b92506020840135612bbf816136ac565b929592945050506040919091013590565b60008060008060808587031215612be5578081fd5b8435612bf0816136ac565b93506020850135612c00816136ac565b925060408501359150606085013567ffffffffffffffff811115612c22578182fd5b8501601f81018713612c32578182fd5b612c4187823560208401612ab7565b91505092959194509250565b60008060408385031215612c5f578182fd5b8235612c6a816136ac565b91506020830135612b85816136c1565b60008060408385031215612c8c578182fd5b8235612c97816136ac565b946020939093013593505050565b600080600060608486031215612cb9578283fd5b8335612cc4816136ac565b9250602084013591506040840135612cdb816136c1565b809150509250925092565b60008060008060808587031215612cfb578182fd5b8435612d06816136ac565b935060208501359250604085013591506060850135612d24816136c1565b939692955090935050565b60006020808385031215612d41578182fd5b823567ffffffffffffffff80821115612d58578384fd5b8185019150601f8681840112612d6c578485fd5b612d746134f0565b80848960a087011115612d85578788fd5b875b6005811015612dce57813586811115612d9e57898afd5b87018581018c13612dad57898afd5b612dbb8c82358b8401612ab7565b8552509287019290870190600101612d87565b50909998505050505050505050565b600060208284031215612dee578081fd5b8151611622816136c1565b600060208284031215612e0a578081fd5b8135611622816136cf565b600060208284031215612e26578081fd5b8151611622816136cf565b600060208284031215612e42578081fd5b8151611622816136ac565b600060208284031215612e5e578081fd5b815167ffffffffffffffff811115612e74578182fd5b8201601f81018413612e84578182fd5b8051612e92612ac58261354a565b818152856020838501011115612ea6578384fd5b612eb78260208301602086016135d4565b95945050505050565b600060208284031215612ed1578081fd5b5035919050565b600080600060408486031215612eec578081fd5b83359250602084013567ffffffffffffffff811115612f09578182fd5b612f1586828701612af5565b9497909650939450505050565b600080600080600060608688031215612f39578283fd5b85359450602086013567ffffffffffffffff80821115612f57578485fd5b612f6389838a01612af5565b90965094506040880135915080821115612f7b578283fd5b50612f8888828901612af5565b969995985093965092949392505050565b60008060408385031215612fab578182fd5b50508035926020909101359150565b8060005b60028110156110f1578151845260209384019390910190600101612fbe565b60008151808452612ff58160208601602086016135d4565b601f01601f19169290920160200192915050565b81835281816020850137506000828201602090810191909152601f909101601f19169091010190565b600081516130448185602086016135d4565b9290920192915050565b60008183825b6002811015613073578151835260209283019290910190600101613054565b50505060408201905092915050565b600083516130948184602088016135d4565b8351908301906130a88183602088016135d4565b01949350505050565b6000845160206130c48285838a016135d4565b600b60fa1b9184019182528554600190849080831c818416806130e857607f821691505b85821081141561310657634e487b7160e01b88526022600452602488fd5b80801561311a576001811461312f5761315f565b60ff198416888701528288018601945061315f565b60008c815260209020895b848110156131555781548a820189015290870190880161313a565b5050858389010194505b5050505061317d61317782600b60fa1b815260010190565b88613032565b9998505050505050505050565b6000835161319c8184602088016135d4565b602b60f81b90830190815283516131ba8160018401602088016135d4565b01600101949350505050565b6001600160a01b03858116825284166020820152604081018390526080606082018190526000906131f990830184612fdd565b9695505050505050565b602080825260009060c0830183820185845b600581101561324457601f19878503018352613232848351612fdd565b93509184019190840190600101613215565b50919695505050505050565b608081016003861061327257634e487b7160e01b600052602160045260246000fd5b9481526020810193909352604083019190915260609091015290565b6040815260006132a2604083018688613009565b82810360208401526132b5818587613009565b979650505050505050565b6020815260006116226020830184612fdd565b60208082526032908201527f4552433732313a207472616e7366657220746f206e6f6e20455243373231526560408201527131b2b4bb32b91034b6b83632b6b2b73a32b960711b606082015260800190565b6020808252600e908201526d139bdd08105d5d1a1bdc9a5e995960921b604082015260600190565b6020808252602f908201527f4552433732314d657461646174613a2055524920717565727920666f72206e6f60408201526e3732bc34b9ba32b73a103a37b5b2b760891b606082015260800190565b60208082526031908201527f4552433732313a207472616e736665722063616c6c6572206973206e6f74206f6040820152701ddb995c881b9bdc88185c1c1c9bdd9959607a1b606082015260800190565b6020815281516020820152600060208301516101c08060408501526134166101e0850183612fdd565b91506040850151601f19808685030160608701526134348483612fdd565b93506060870151915080868503016080870152506134528382612fdd565b925050608085015161346760a0860182612fba565b5060a085015160e085015260c0850151610100818187015260e08701519150610120828188015281880151925061014091508282880152808801519250506101606134bc818801846001600160a01b03169052565b908701519150610180906134d38783018415159052565b87015115156101a087015290950151151593019290925250919050565b60405160a0810167ffffffffffffffff8111828210171561351357613513613696565b60405290565b604051601f8201601f1916810167ffffffffffffffff8111828210171561354257613542613696565b604052919050565b600067ffffffffffffffff82111561356457613564613696565b50601f01601f191660200190565b600082198211156135855761358561366a565b500190565b60008261359957613599613680565b500490565b60008160001904831182151516156135b8576135b861366a565b500290565b6000828210156135cf576135cf61366a565b500390565b60005b838110156135ef5781810151838201526020016135d7565b838111156110f15750506000910152565b600181811c9082168061361457607f821691505b6020821081141561363557634e487b7160e01b600052602260045260246000fd5b50919050565b600060001982141561364f5761364f61366a565b5060010190565b60008261366557613665613680565b500690565b634e487b7160e01b600052601160045260246000fd5b634e487b7160e01b600052601260045260246000fd5b634e487b7160e01b600052604160045260246000fd5b6001600160a01b0381168114610ad157600080fd5b8015158114610ad157600080fd5b6001600160e01b031981168114610ad157600080fdfea2646970667358221220792690a4d1776247d53a3b9150e470be0554c18d192224901faed7ab35c0161264736f6c63430008040033697066733a2f2f516d657769556e437436636761646d6369344d3273326a6e444e7831793567545132516935455834455842624e4760806040523480156200001157600080fd5b5060405162000f2538038062000f25833981016040819052620000349162000256565b60408051808201825260078152664c6567656e647360c81b6020808301918252835180850190945260048452631311d39160e21b9084015281519192916200007f91600391620001b0565b50805162000095906004906020840190620001b0565b5050600580546001600160a01b0319163317905550620000c1816a52b7d2dcc80cd2e4000000620000c8565b50620002e8565b6001600160a01b038216620001235760405162461bcd60e51b815260206004820152601f60248201527f45524332303a206d696e7420746f20746865207a65726f206164647265737300604482015260640160405180910390fd5b806002600082825462000137919062000286565b90915550506001600160a01b038216600090815260208190526040812080548392906200016690849062000286565b90915550506040518181526001600160a01b038316906000907fddf252ad1be2c89b69c2b068fc378daa952ba7f163c4a11628f55a4df523b3ef9060200160405180910390a35050565b828054620001be90620002ab565b90600052602060002090601f016020900481019282620001e257600085556200022d565b82601f10620001fd57805160ff19168380011785556200022d565b828001600101855582156200022d579182015b828111156200022d57825182559160200191906001019062000210565b506200023b9291506200023f565b5090565b5b808211156200023b576000815560010162000240565b60006020828403121562000268578081fd5b81516001600160a01b03811681146200027f578182fd5b9392505050565b60008219821115620002a657634e487b7160e01b81526011600452602481fd5b500190565b600181811c90821680620002c057607f821691505b60208210811415620002e257634e487b7160e01b600052602260045260246000fd5b50919050565b610c2d80620002f86000396000f3fe608060405234801561001057600080fd5b50600436106100ea5760003560e01c806370a082311161008c578063a457c2d711610066578063a457c2d7146101d0578063a9059cbb146101e3578063b3f0cfaf146101f6578063dd62ed3e1461020957600080fd5b806370a082311461018c57806395d89b41146101b55780639f87833f146101bd57600080fd5b806323b872dd116100c857806323b872dd14610142578063313ce56714610155578063395093511461016457806342966c681461017757600080fd5b806306fdde03146100ef578063095ea7b31461010d57806318160ddd14610130575b600080fd5b6100f7610242565b6040516101049190610b0f565b60405180910390f35b61012061011b366004610ab0565b6102d4565b6040519015158152602001610104565b6002545b604051908152602001610104565b610120610150366004610a70565b6102ea565b60405160128152602001610104565b610120610172366004610ab0565b610399565b61018a610185366004610af7565b6103d5565b005b61013461019a366004610a15565b6001600160a01b031660009081526020819052604090205490565b6100f76103e2565b61018a6101cb366004610ab0565b6103f1565b6101206101de366004610ab0565b6104d4565b6101206101f1366004610ab0565b61056d565b61018a610204366004610af7565b61057a565b610134610217366004610a38565b6001600160a01b03918216600090815260016020908152604080832093909416825291909152205490565b60606003805461025190610b91565b80601f016020809104026020016040519081016040528092919081815260200182805461027d90610b91565b80156102ca5780601f1061029f576101008083540402835291602001916102ca565b820191906000526020600020905b8154815290600101906020018083116102ad57829003601f168201915b5050505050905090565b60006102e13384846105db565b50600192915050565b60006102f7848484610700565b6001600160a01b0384166000908152600160209081526040808320338452909152902054828110156103815760405162461bcd60e51b815260206004820152602860248201527f45524332303a207472616e7366657220616d6f756e74206578636565647320616044820152676c6c6f77616e636560c01b60648201526084015b60405180910390fd5b61038e85338584036105db565b506001949350505050565b3360008181526001602090815260408083206001600160a01b038716845290915281205490916102e19185906103d0908690610b62565b6105db565b6103df33826108cf565b50565b60606004805461025190610b91565b600560009054906101000a90046001600160a01b03166001600160a01b0316631944f20d6040518163ffffffff1660e01b815260040160206040518083038186803b15801561043f57600080fd5b505afa158015610453573d6000803e3d6000fd5b505050506040513d601f19601f820116820180604052508101906104779190610adb565b6001600160a01b0316336001600160a01b0316146104c65760405162461bcd60e51b815260206004820152600c60248201526b6e6f7420626c656e64696e6760a01b6044820152606401610378565b6104d082826108cf565b5050565b3360009081526001602090815260408083206001600160a01b0386168452909152812054828110156105565760405162461bcd60e51b815260206004820152602560248201527f45524332303a2064656372656173656420616c6c6f77616e63652062656c6f77604482015264207a65726f60d81b6064820152608401610378565b61056333858584036105db565b5060019392505050565b60006102e1338484610700565b6005546001600160a01b031633146105c55760405162461bcd60e51b815260206004820152600e60248201526d3737ba102fb630b11037bbb732b960911b6044820152606401610378565b6005546103df906001600160a01b0316826108cf565b6001600160a01b03831661063d5760405162461bcd60e51b8152602060048201526024808201527f45524332303a20617070726f76652066726f6d20746865207a65726f206164646044820152637265737360e01b6064820152608401610378565b6001600160a01b03821661069e5760405162461bcd60e51b815260206004820152602260248201527f45524332303a20617070726f766520746f20746865207a65726f206164647265604482015261737360f01b6064820152608401610378565b6001600160a01b0383811660008181526001602090815260408083209487168084529482529182902085905590518481527f8c5be1e5ebec7d5bd14f71427d1e84f3dd0314c0f7b2291e5b200ac8c7c3b92591015b60405180910390a3505050565b6001600160a01b0383166107645760405162461bcd60e51b815260206004820152602560248201527f45524332303a207472616e736665722066726f6d20746865207a65726f206164604482015264647265737360d81b6064820152608401610378565b6001600160a01b0382166107c65760405162461bcd60e51b815260206004820152602360248201527f45524332303a207472616e7366657220746f20746865207a65726f206164647260448201526265737360e81b6064820152608401610378565b6001600160a01b0383166000908152602081905260409020548181101561083e5760405162461bcd60e51b815260206004820152602660248201527f45524332303a207472616e7366657220616d6f756e7420657863656564732062604482015265616c616e636560d01b6064820152608401610378565b6001600160a01b03808516600090815260208190526040808220858503905591851681529081208054849290610875908490610b62565b92505081905550826001600160a01b0316846001600160a01b03167fddf252ad1be2c89b69c2b068fc378daa952ba7f163c4a11628f55a4df523b3ef846040516108c191815260200190565b60405180910390a350505050565b6001600160a01b03821661092f5760405162461bcd60e51b815260206004820152602160248201527f45524332303a206275726e2066726f6d20746865207a65726f206164647265736044820152607360f81b6064820152608401610378565b6001600160a01b038216600090815260208190526040902054818110156109a35760405162461bcd60e51b815260206004820152602260248201527f45524332303a206275726e20616d6f756e7420657863656564732062616c616e604482015261636560f01b6064820152608401610378565b6001600160a01b03831660009081526020819052604081208383039055600280548492906109d2908490610b7a565b90915550506040518281526000906001600160a01b038516907fddf252ad1be2c89b69c2b068fc378daa952ba7f163c4a11628f55a4df523b3ef906020016106f3565b600060208284031215610a26578081fd5b8135610a3181610be2565b9392505050565b60008060408385031215610a4a578081fd5b8235610a5581610be2565b91506020830135610a6581610be2565b809150509250929050565b600080600060608486031215610a84578081fd5b8335610a8f81610be2565b92506020840135610a9f81610be2565b929592945050506040919091013590565b60008060408385031215610ac2578182fd5b8235610acd81610be2565b946020939093013593505050565b600060208284031215610aec578081fd5b8151610a3181610be2565b600060208284031215610b08578081fd5b5035919050565b6000602080835283518082850152825b81811015610b3b57858101830151858201604001528201610b1f565b81811115610b4c5783604083870101525b50601f01601f1916929092016040019392505050565b60008219821115610b7557610b75610bcc565b500190565b600082821015610b8c57610b8c610bcc565b500390565b600181811c90821680610ba557607f821691505b60208210811415610bc657634e487b7160e01b600052602260045260246000fd5b50919050565b634e487b7160e01b600052601160045260246000fd5b6001600160a01b03811681146103df57600080fdfea2646970667358221220e743a481699c258183b78e44222c4c0f453d8019f868c90ba1504cafeabf62e964736f6c6343000804003360806040526103e860025560056003556001600455620493e060055534801561002757600080fd5b506001600081905580546001600160a01b031916331790556110598061004e6000396000f3fe608060405234801561001057600080fd5b50600436106100a95760003560e01c80638d3d9989116100715780638d3d99891461012f578063aa45410514610142578063ade9ffb5146101e0578063c9d8745a1461020c578063ca9d8fd01461021f578063fb5de0c41461023257600080fd5b806301526a43146100ae57806307e79620146100c35780630c69ebcd146100d6578063121ee095146100e95780634c89c2181461011c575b600080fd5b6100c16100bc366004610edb565b610245565b005b6100c16100d1366004610e64565b610261565b6100c16100e4366004610edb565b6105c8565b6100fc6100f7366004610edb565b6105e4565b604080519384526020840192909252908201526060015b60405180910390f35b6100c161012a366004610edb565b610632565b6100c161013d366004610edb565b61064e565b61019e610150366004610edb565b600660208190526000918252604090912080546001820154600283015460038401546004850154600586015495909601546001600160a01b0394851696939094169491939092919060ff1687565b604080516001600160a01b039889168152979096166020880152948601939093526060850191909152608084015260a0830152151560c082015260e001610113565b600254600354600454600554604080519485526020850193909352918301526060820152608001610113565b6100c161021a366004610f0b565b6107e2565b6100c161022d366004610edb565b610a2b565b6100c1610240366004610f0b565b610a47565b6001546001600160a01b0316331461025c57600080fd5b600355565b6002600054141561028d5760405162461bcd60e51b815260040161028490610f50565b60405180910390fd5b600260009081558281526006602081905260409091209081015484919060ff16156102ea5760405162461bcd60e51b815260206004820152600d60248201526c131959d95b99081a5b881c1bd9609a1b6044820152606401610284565b6002548310156103465760405162461bcd60e51b815260206004820152602160248201527f616d6f756e74206d757374206265206d696e696d756d206f72206772656174656044820152603960f91b6064820152608401610284565b6040516323b872dd60e01b81526001600160a01b038316906323b872dd9061037690339030908990600401610f2c565b600060405180830381600087803b15801561039057600080fd5b505af11580156103a4573d6000803e3d6000fd5b50505050600160009054906101000a90046001600160a01b03166001600160a01b031663030032056040518163ffffffff1660e01b815260040160206040518083038186803b1580156103f657600080fd5b505afa15801561040a573d6000803e3d6000fd5b505050506040513d601f19601f8201168201806040525081019061042e9190610ebf565b6001600160a01b03166323b872dd3330866040518463ffffffff1660e01b815260040161045d93929190610f2c565b602060405180830381600087803b15801561047757600080fd5b505af115801561048b573d6000803e3d6000fd5b505050506040513d601f19601f820116820180604052508101906104af9190610e98565b5080546001600160a01b038087166001600160a01b0319928316178355600180840180549093163317909255436002840155905460405163012f089960e21b81529116906304bc22649061050b90879060040190815260200190565b60206040518083038186803b15801561052357600080fd5b505afa158015610537573d6000803e3d6000fd5b505050506040513d601f19601f8201168201806040525081019061055b9190610ef3565b60038201556004810183905561057083610c87565b600582015560068101805460ff1916600190811790915560405190815284907fe1f0053afd5619f5757e1a2ce608e79ee12e7887eade511e50e6a769d49102229060200160405180910390a250506001600055505050565b6001546001600160a01b031633146105df57600080fd5b600255565b6000806000806105f385610caf565b60008681526006602052604081206003015460055492935090916106179190610fbf565b9050600061062487610d74565b929791965091945092505050565b6001546001600160a01b0316331461064957600080fd5b600455565b600260005414156106715760405162461bcd60e51b815260040161028490610f50565b600260009081558181526006602081905260409091209081015460ff166106ce5760405162461bcd60e51b8152602060048201526011602482015270131959d95b99081b9bdd081a5b881c1bd9607a1b6044820152606401610284565b60018101546001600160a01b0316331461071b5760405162461bcd60e51b815260206004820152600e60248201526d139bdd08105d5d1a1bdc9a5e995960921b6044820152606401610284565b60068101805460ff191690556004810154610737908390610a47565b805460018201546040516323b872dd60e01b81526001600160a01b03928316926323b872dd92610771923092909116908790600401610f2c565b600060405180830381600087803b15801561078b57600080fd5b505af115801561079f573d6000803e3d6000fd5b5050604051600081528492507fe1f0053afd5619f5757e1a2ce608e79ee12e7887eade511e50e6a769d4910222915060200160405180910390a250506001600055565b600260005414156108055760405162461bcd60e51b815260040161028490610f50565b6002600090815582815260066020526040902060018101546001600160a01b031633146108655760405162461bcd60e51b815260206004820152600e60248201526d139bdd08185d5d1a1bdc9a5e995960921b6044820152606401610284565b600681015460ff166108a65760405162461bcd60e51b815260206004820152600a602482015269139bdd081a5b88141bd960b21b6044820152606401610284565b6003810154156108b9576108b983610d92565b600160009054906101000a90046001600160a01b03166001600160a01b031663030032056040518163ffffffff1660e01b815260040160206040518083038186803b15801561090757600080fd5b505afa15801561091b573d6000803e3d6000fd5b505050506040513d601f19601f8201168201806040525081019061093f9190610ebf565b6001600160a01b03166323b872dd3330856040518463ffffffff1660e01b815260040161096e93929190610f2c565b602060405180830381600087803b15801561098857600080fd5b505af115801561099c573d6000803e3d6000fd5b505050506040513d601f19601f820116820180604052508101906109c09190610e98565b5060008282600401546109d39190610f87565b6004830181905590506109e581610c87565b600583015560405181815284907faceb8ac796a95877114596f74fb86bf0b73cab4f66b9f3cfdd64029d1a0c7e03906020015b60405180910390a2505060016000555050565b6001546001600160a01b03163314610a4257600080fd5b600555565b60026000541415610a6a5760405162461bcd60e51b815260040161028490610f50565b6002600090815582815260066020526040902060018101546001600160a01b03163314610aca5760405162461bcd60e51b815260206004820152600e60248201526d139bdd08185d5d1a1bdc9a5e995960921b6044820152606401610284565b8115801590610add575080600401548211155b610b1a5760405162461bcd60e51b815260206004820152600e60248201526d125b9d985b1a5908185b5bdd5b9d60921b6044820152606401610284565b600381015415610b2d57610b2d83610d92565b6000828260040154610b3f9190610fde565b600483018190559050610b5181610c87565b600583015560015460408051630300320560e01b815290516001600160a01b0390921691630300320591600480820192602092909190829003018186803b158015610b9b57600080fd5b505afa158015610baf573d6000803e3d6000fd5b505050506040513d601f19601f82011682018060405250810190610bd39190610ebf565b6001600160a01b03166323b872dd3033866040518463ffffffff1660e01b8152600401610c0293929190610f2c565b602060405180830381600087803b158015610c1c57600080fd5b505af1158015610c30573d6000803e3d6000fd5b505050506040513d601f19601f82011682018060405250810190610c549190610e98565b50837faceb8ac796a95877114596f74fb86bf0b73cab4f66b9f3cfdd64029d1a0c7e0382604051610a1891815260200190565b60008060025483610c989190610f9f565b9050600354811115610ca957506003545b92915050565b6000818152600660208181526040808420815160e08101835281546001600160a01b039081168252600183015416938101939093526002810154918301919091526003810154606083018190526004820154608084015260058083015460a0850152919093015460ff16151560c08301525490918391610d2f9190610fbf565b90506000826040015143610d439190610fde565b8360a00151600454610d559190610fbf565b610d5f9190610fbf565b905081811115610d6c5750805b949350505050565b600080610d8083610caf565b9050600060055482610d6c9190610f9f565b6000610d9d82610d74565b60015460405163609dc03b60e11b815260048101859052602481018390529192506001600160a01b03169063c13b807690604401600060405180830381600087803b158015610deb57600080fd5b505af1158015610dff573d6000803e3d6000fd5b50505060008381526006602052604081206003018054849350909190610e26908490610fde565b909155505060405181815282907f1c9377a71fc8ecca76c771676a3bae304a1bca2b12e63a7a8a3496b1ef0c88259060200160405180910390a25050565b600080600060608486031215610e78578283fd5b8335610e838161100b565b95602085013595506040909401359392505050565b600060208284031215610ea9578081fd5b81518015158114610eb8578182fd5b9392505050565b600060208284031215610ed0578081fd5b8151610eb88161100b565b600060208284031215610eec578081fd5b5035919050565b600060208284031215610f04578081fd5b5051919050565b60008060408385031215610f1d578182fd5b50508035926020909101359150565b6001600160a01b039384168152919092166020820152604081019190915260600190565b6020808252601f908201527f5265656e7472616e637947756172643a207265656e7472616e742063616c6c00604082015260600190565b60008219821115610f9a57610f9a610ff5565b500190565b600082610fba57634e487b7160e01b81526012600452602481fd5b500490565b6000816000190483118215151615610fd957610fd9610ff5565b500290565b600082821015610ff057610ff0610ff5565b500390565b634e487b7160e01b600052601160045260246000fd5b6001600160a01b038116811461102057600080fd5b5056fea264697066735822122097434cfa38cb0a029033596a6aa9ac8b91494294fc514040bd2f93628e50bcfd64736f6c634300080400336206978060038181556101006040526203f48060a090815260c09290925262093a8060e0526200003291600791620000ac565b50610258600a55600260135560026014553480156200005057600080fd5b506040516200005f90620000f6565b604051809103906000f0801580156200007c573d6000803e3d6000fd5b5060601b6001600160601b031916608052600160115560128054336001600160a01b03199091161790556200011b565b8260038101928215620000e4579160200282015b82811115620000e4578251829062ffffff16905591602001919060010190620000c0565b50620000f292915062000104565b5090565b610a0b80620031c183390190565b5b80821115620000f2576000815560010162000105565b60805160601c6130566200016b6000396000818161067e01528181611a8301528181611e4b015281816120de01528181612311015281816126b701528181612a9b0152612b7501526130566000f3fe6080604052600436106101c25760003560e01c806370d59e91116100f7578063b1e95dbe11610095578063d9548e5311610064578063d9548e53146105e7578063e2982c2114610607578063e5a255cb14610627578063f1ad68f61461063a57600080fd5b8063b1e95dbe1461053a578063b54babda1461054d578063c11f1f8e1461056d578063c63e927a146105ba57600080fd5b80638ba9458f116100d15780638ba9458f1461047f5780639407ea981461049f5780639979ef45146104bf5780639c1ecb51146104d257600080fd5b806370d59e9114610419578063837948f01461042c5780638ada77161461045f57600080fd5b80633e4086e5116101645780634a3f133e1161013e5780634a3f133e146103285780635ac10dc81461033057806363d3a813146103735780636df49b91146103ec57600080fd5b80633e4086e5146102af578063443af2ba146102cf57806345480859146102ef57600080fd5b80631837e533116101a05780631837e5331461022f57806319b60f051461024f5780633244cce81461026f578063340d3b501461028f57600080fd5b80630e38fd95146101c75780630eaaf4c8146101fa5780631378b62e1461020f575b600080fd5b3480156101d357600080fd5b506101e76101e2366004612c15565b61065c565b6040519081526020015b60405180910390f35b61020d610208366004612d1c565b610701565b005b34801561021b57600080fd5b5061020d61022a366004612d1c565b610799565b34801561023b57600080fd5b5061020d61024a366004612cb3565b6107b5565b34801561025b57600080fd5b5061020d61026a366004612d1c565b610870565b34801561027b57600080fd5b5061020d61028a366004612d7b565b61088c565b34801561029b57600080fd5b506101e76102aa366004612d4c565b610b61565b3480156102bb57600080fd5b5061020d6102ca366004612d1c565b610bb9565b3480156102db57600080fd5b5061020d6102ea366004612cf6565b610bd5565b3480156102fb57600080fd5b50601354601454600354600a546040805194855260208501939093529183015260608201526080016101f1565b61020d610bfd565b34801561033c57600080fd5b5061035061034b366004612d1c565b610c82565b604080519384526001600160a01b039092166020840152908201526060016101f1565b34801561037f57600080fd5b506103d0604080516020808201835260009182905282518082018452829052825180820184528290528251808201845291548252825180820184526001548152835191820190935260025481529092565b60408051935184529151602084015251908201526060016101f1565b3480156103f857600080fd5b5061040c610407366004612d1c565b610e93565b6040516101f19190612de9565b61020d610427366004612d1c565b610f14565b34801561043857600080fd5b5061044f610447366004612d1c565b600054111590565b60405190151581526020016101f1565b34801561046b57600080fd5b5061020d61047a366004612c7f565b6110a4565b34801561048b57600080fd5b5061020d61049a366004612d1c565b611144565b3480156104ab57600080fd5b5061020d6104ba366004612d1c565b6113e5565b61020d6104cd366004612d1c565b611401565b3480156104de57600080fd5b506104f26104ed366004612d1c565b61163b565b6040516101f191908151815260208083015190820152604080830151908201526060808301516001600160a01b03169082015260809182015115159181019190915260a00190565b61020d610548366004612c54565b6116f6565b34801561055957600080fd5b506101e7610568366004612d1c565b61180a565b34801561057957600080fd5b5061058d610588366004612d1c565b611842565b60408051825181526020808401516001600160a01b031690820152918101511515908201526060016101f1565b3480156105c657600080fd5b506105da6105d5366004612d1c565b6118cf565b6040516101f19190612eac565b3480156105f357600080fd5b5061044f610602366004612d1c565b611a20565b34801561061357600080fd5b506101e7610622366004612c15565b611a61565b61020d610635366004612d1c565b611ab4565b34801561064657600080fd5b5061064f611d88565b6040516101f19190612e36565b604051631428f21b60e01b81526001600160a01b0382811660048301526000917f000000000000000000000000000000000000000000000000000000000000000090911690631428f21b906024015b60206040518083038186803b1580156106c357600080fd5b505afa1580156106d7573d6000803e3d6000fd5b505050506040513d601f19601f820116820180604052508101906106fb9190612d34565b92915050565b6002601154141561072d5760405162461bcd60e51b815260040161072490612e75565b60405180910390fd5b600260115560008181526004602052604090206007015460ff1615610767576000818152600f602090815260408083203384529091528120555b6107718133611dc3565b60009081526010602090815260408083203384529091529020805460ff191690556001601155565b6012546001600160a01b031633146107b057600080fd5b600355565b600260115414156107d85760405162461bcd60e51b815260040161072490612e75565b600260115584826107e857600080fd5b8282116107f457600080fd5b6040516323b872dd60e01b81526001600160a01b038216906323b872dd9061082490339030908a90600401612dc5565b600060405180830381600087803b15801561083e57600080fd5b505af1158015610852573d6000803e3d6000fd5b505050506108638686868686611eac565b5050600160115550505050565b6012546001600160a01b0316331461088757600080fd5b600a55565b600260115414156108af5760405162461bcd60e51b815260040161072490612e75565b60026011819055600083815260046020818152604080842081516101408101835281548152600182015493810193909352948501546001600160a01b03908116918301919091526003808601546060840152928501548116608083015260058501541660a0820152600684015460c0820152600784015460ff808216151560e08401526101008083048216151590840152939491939192610120850192620100009092049091169081111561097457634e487b7160e01b600052602160045260246000fd5b600381111561099357634e487b7160e01b600052602160045260246000fd5b9052506040810151909150600182610120015160038111156109c557634e487b7160e01b600052602160045260246000fd5b146109cf57600080fd5b60008481526005602052604090205442106109e957600080fd5b60608201516040516331a9108f60e11b815260048101919091526001600160a01b03821690636352211e9060240160206040518083038186803b158015610a2f57600080fd5b505afa158015610a43573d6000803e3d6000fd5b505050506040513d601f19601f82011682018060405250810190610a679190612c38565b6001600160a01b0316336001600160a01b0316148015610aa057506000848152600560205260409020600101546001600160a01b031633145b610aa957600080fd5b610ab38484611fc0565b8215610b245760608201516040516323b872dd60e01b81526001600160a01b038316916323b872dd91610aed913391309190600401612dc5565b600060405180830381600087803b158015610b0757600080fd5b505af1158015610b1b573d6000803e3d6000fd5b50505050610b56565b600084815260106020908152604080832060a08601516001600160a01b031684529091529020805460ff191660011790555b505060016011555050565b6000828152600e602090815260408083206001600160a01b038516845290915281205460ff16610b9057600080fd5b506000918252600f602090815260408084206001600160a01b0393909316845291905290205490565b6012546001600160a01b03163314610bd057600080fd5b601355565b6012546001600160a01b03163314610bec57600080fd5b610bf96007826003612ba4565b5050565b60026011541415610c205760405162461bcd60e51b815260040161072490612e75565b60026011556000610c303361065c565b905080610c715760405162461bcd60e51b815260206004820152600f60248201526e0526f79616c7469657320617265203608c1b6044820152606401610724565b610c7a336120bf565b506001601155565b60008181526004602081815260408084208151610140810183528154815260018201549381019390935260028101546001600160a01b039081169284019290925260038082015460608501529381015482166080840152600581015490911660a0830152600681015460c0830152600781015460ff808216151560e0850152610100808304821615159085015285948594859490939092610120850192620100009092041690811115610d4557634e487b7160e01b600052602160045260246000fd5b6003811115610d6457634e487b7160e01b600052602160045260246000fd5b815250509050600060646014548360c00151610d809190612f9c565b610d8a9190612f7c565b601254606084015160405163ea832ddd60e01b81529293506000926001600160a01b039092169163ea832ddd91610dc79160040190815260200190565b60206040518083038186803b158015610ddf57600080fd5b505afa158015610df3573d6000803e3d6000fd5b505050506040513d601f19601f82011682018060405250810190610e179190612c38565b905060006001600160a01b03821615610e855783608001516001600160a01b0316826001600160a01b031614610e85578360a001516001600160a01b0316826001600160a01b031614610e855760646013548560c00151610e789190612f9c565b610e829190612f7c565b90505b919790965090945092505050565b6060610ea182600054111590565b610eaa57600080fd5b6000828152600d602090815260409182902080548351818402810184019094528084529091830182828015610f0857602002820191906000526020600020905b81546001600160a01b03168152600190910190602001808311610eea575b50505050509050919050565b60026011541415610f375760405162461bcd60e51b815260040161072490612e75565b60026011819055600082815260046020818152604080842081516101408101835281548152600182015493810193909352948501546001600160a01b03908116918301919091526003808601546060840152928501548116608083015260058501541660a0820152600684015460c0820152600784015460ff808216151560e084015261010080830482161515908401529394919391926101208501926201000090920490911690811115610ffc57634e487b7160e01b600052602160045260246000fd5b600381111561101b57634e487b7160e01b600052602160045260246000fd5b90525090506001816101200151600381111561104757634e487b7160e01b600052602160045260246000fd5b1461105157600080fd5b80608001516001600160a01b0316336001600160a01b0316141561107457600080fd5b8060c00151341461108457600080fd5b61109282826080015161213e565b61109b8261215f565b50506001601155565b600260115414156110c75760405162461bcd60e51b815260040161072490612e75565b600260115582816110d757600080fd5b6040516323b872dd60e01b81526001600160a01b038216906323b872dd9061110790339030908890600401612dc5565b600060405180830381600087803b15801561112157600080fd5b505af1158015611135573d6000803e3d6000fd5b50505050610b568484846121e1565b600260115414156111675760405162461bcd60e51b815260040161072490612e75565b60026011819055600082815260046020818152604080842081516101408101835281548152600182015493810193909352948501546001600160a01b03908116918301919091526003808601546060840152928501548116608083015260058501541660a0820152600684015460c0820152600784015460ff808216151560e08401526101008083048216151590840152939491939192610120850192620100009092049091169081111561122c57634e487b7160e01b600052602160045260246000fd5b600381111561124b57634e487b7160e01b600052602160045260246000fd5b90525090506001816101200151600381111561127757634e487b7160e01b600052602160045260246000fd5b1461128157600080fd5b806101000151156112b3578060a001516001600160a01b0316336001600160a01b0316146112ae57600080fd5b6112d5565b80608001516001600160a01b0316336001600160a01b0316146112d557600080fd5b8060e0015115611331576000828152600d6020526040902054156113315760405162461bcd60e51b8152602060048201526013602482015272109a591cc8185b1c9958591e481c1b1858d959606a1b6044820152606401610724565b61133a82612298565b8061010001511561136e5760008281526010602090815260408083203384529091529020805460ff1916600117905561109b565b80604001516001600160a01b03166323b872dd30836080015184606001516040518463ffffffff1660e01b81526004016113aa93929190612dc5565b600060405180830381600087803b1580156113c457600080fd5b505af11580156113d8573d6000803e3d6000fd5b5050505050506001601155565b6012546001600160a01b031633146113fc57600080fd5b601455565b600260115414156114245760405162461bcd60e51b815260040161072490612e75565b60026011556000818152600460209081526040808320600b9092529091206001600783015462010000900460ff16600381111561147157634e487b7160e01b600052602160045260246000fd5b1461147b57600080fd5b61148483611a20565b1561148e57600080fd5b60048201546001600160a01b03163314156114a857600080fd5b6000838152600f602090815260408083203384529091528120546114cd903490612f64565b6000858152600d602052604090205490915061153457816001015434101561152f5760405162461bcd60e51b8152602060048201526015602482015274135a5b9a5b5d5b481c1c9a58d9481b9bdd081b595d605a1b6044820152606401610724565b6115a0565b6000848152600b602052604090206002015481116115a05760405162461bcd60e51b815260206004820152602360248201527f426964206d75737420626520686967686572207468616e2063757272656e7420604482015262189a5960ea1b6064820152608401610724565b6000848152601060209081526040808320338085529252909120805460ff191690556115ce908590346122eb565b600084815260106020908152604080832060038601546001600160a01b031684529091529020805460ff191660011790556116098482612374565b6003820154600160a01b900460ff1615610b56576000848152600c60205260409020548110610b5657610b56846124fa565b6116786040518060a0016040528060008152602001600081526020016000815260200160006001600160a01b031681526020016000151581525090565b60008281526004602052604090206007015460ff1661169657600080fd5b506000908152600b6020908152604091829020825160a081018452815481526001820154928101929092526002810154928201929092526003909101546001600160a01b0381166060830152600160a01b900460ff161515608082015290565b600260115414156117195760405162461bcd60e51b815260040161072490612e75565b60026011556040516331a9108f60e11b81526004810182905282906000906001600160a01b03831690636352211e9060240160206040518083038186803b15801561176357600080fd5b505afa158015611777573d6000803e3d6000fd5b505050506040513d601f19601f8201168201806040525081019061179b9190612c38565b9050336001600160a01b03821614156117b357600080fd5b600034116117c057600080fd5b60006117cd858386612599565b6000818152601060209081526040808320338085529252909120805460ff191690559091506117fe908290346122eb565b50506001601155505050565b6000818152600b6020526040812060030154600160a01b900460ff1661182f57600080fd5b506000908152600c602052604090205490565b6040805160608101825260008082526020820181905291810191909152600082815260046020526040902060070154610100900460ff1661188257600080fd5b506000908152600560209081526040918290208251606081018452815481526001909101546001600160a01b03811692820192909252600160a01b90910460ff1615159181019190915290565b6119246040805161014081018252600080825260208201819052918101829052606081018290526080810182905260a0810182905260c0810182905260e0810182905261010081018290529061012082015290565b61193082600054111590565b61193957600080fd5b6000828152600460208181526040928390208351610140810185528154815260018201549281019290925260028101546001600160a01b039081169483019490945260038082015460608401529281015484166080830152600581015490931660a0820152600683015460c0820152600783015460ff808216151560e0840152610100808304821615159084015291939261012085019262010000909204909116908111156119f857634e487b7160e01b600052602160045260246000fd5b6003811115611a1757634e487b7160e01b600052602160045260246000fd5b90525092915050565b6000818152600b6020908152604080832054600490925282206001015482918291611a4b9190612f64565b905080421115611a5a57600191505b5092915050565b6040516371d4ed8d60e11b81526001600160a01b0382811660048301526000917f00000000000000000000000000000000000000000000000000000000000000009091169063e3a9db1a906024016106ab565b60026011541415611ad75760405162461bcd60e51b815260040161072490612e75565b60026011556000818152600460208181526040808420600b909252909220908201546001600160a01b0316331480611b1b575060058201546001600160a01b031633145b80611b32575060038101546001600160a01b031633145b611b7e5760405162461bcd60e51b815260206004820152601760248201527f4e6f7420617574686f72697a656420746f20636c6f73650000000000000000006044820152606401610724565b600782015460ff1615611c23576001600783015462010000900460ff166003811115611bba57634e487b7160e01b600052602160045260246000fd5b1415611c1e57611bc983611a20565b611c155760405162461bcd60e51b815260206004820152601760248201527f41756374696f6e20686173206e6f7420657870697265640000000000000000006044820152606401610724565b611c1e836124fa565b611c8e565b6002600783015462010000900460ff166003811115611c5257634e487b7160e01b600052602160045260246000fd5b14611c8e5760405162461bcd60e51b815260206004820152600c60248201526b2634b9ba34b7339027b832b760a11b6044820152606401610724565b600782015460ff1680611caa57506007820154610100900460ff165b15611d105760008381526015602052604090205460ff16611d10576000838152601560205260409020805460ff191660011790556005820154611cf79084906001600160a01b0316612691565b6004820154611d109084906001600160a01b031661213e565b60048201546001600160a01b0316331415611d3357611d2e836126e6565b611d51565b60058201546001600160a01b0316331415611d5157611d518361285c565b604051339084907f4100f70c133e1c4066c72b21f815cec87ab6d5f89acabf924ca488d47c08bf7b90600090a35050600160115550565b611d90612be2565b6040805160608101918290529060079060039082845b815481526020019060010190808311611da6575050505050905090565b60008281526010602090815260408083206001600160a01b038516845290915290205460ff16611e265760405162461bcd60e51b815260206004820152600e60248201526d139bdd08185d5d1a1bdc9a5e995960921b6044820152606401610724565b6040516260e70560e31b8152600481018390526001600160a01b0382811660248301527f000000000000000000000000000000000000000000000000000000000000000016906303073828906044015b600060405180830381600087803b158015611e9057600080fd5b505af1158015611ea4573d6000803e3d6000fd5b505050505050565b611eba600080546001019055565b60008054908215611eda57506000818152600c6020526040902082905560015b6000828152600460208190526040909120838155426001808301919091556002820180546001600160a01b038c166001600160a01b031991821617909155600383018a9055928201805484163317905560058201805490931690925560078101805460ff1981168417825591929162ff00ff19168217620100008302179055506000838152600b602052604090819020878155600180820188905560038201805460ff60a01b1916600160a01b8715150217905591519091859160008051602061300183398151915291611fad91612e67565b60405180910390a2505050505050505050565b600082815260046020526040902081156120505760078101805462ff00001916620200001790556004810180546001600160a01b0319163317905560008381526005602081815260408084206001908101805460ff60a01b1916600160a01b179055600386015460068452828620948701546001600160a01b03168652939092529092205580548101905561208b565b60078101805462ff000019166203000017905560008381526005602052604090206001908101805460ff60a01b191690556002805490910190555b6040518215159084907fbe84c08cacf7be329858d01a82d1e99b4e5a8f9a9df7a04b16c1f070e449b49990600090a3505050565b60405163968db78360e01b81526001600160a01b0382811660048301527f0000000000000000000000000000000000000000000000000000000000000000169063968db783906024015b600060405180830381600087803b15801561212357600080fd5b505af1158015612137573d6000803e3d6000fd5b5050505050565b600080600061214c85610c82565b9250925092506121378434858486612a66565b600081815260046020908152604080832060078101805462ff00001916620200001790556005810180546001600160a01b03191633908117909155600382015460068552838620918652935292205560018054810190558160008051602061300183398151915260026040516121d59190612e67565b60405180910390a25050565b6121ef600080546001019055565b6000805480825260046020819052604092839020828155426001808301919091556002820180546001600160a01b038a166001600160a01b0319918216179091556003830188905592820180548416331790556005820180549093169092556006810185905560078101805462ff000019166201000017905592519192918391600080516020613001833981519152916122899190612e67565b60405180910390a25050505050565b6000818152600460205260409020600701805462ff00001916620300001790556002805460010190558060008051602061300183398151915260036040516122e09190612e67565b60405180910390a250565b604051633e4ff21d60e11b8152600481018490526001600160a01b0383811660248301527f00000000000000000000000000000000000000000000000000000000000000001690637c9fe43a9083906044016000604051808303818588803b15801561235657600080fd5b505af115801561236a573d6000803e3d6000fd5b5050505050505050565b6000828152600b60209081526040808320600f835281842033855290925282208054919284926123a5908490612f64565b90915550506000838152600e6020908152604080832033845290915290205460ff1661241e576000838152600d602090815260408083208054600181810183559185528385200180546001600160a01b03191633908117909155878552600e8452828520908552909252909120805460ff191690911790555b600281018290556003810180546001600160a01b0319163317905561244283612b00565b156124a4576000838152600c602052604090205482106124a457600a54815461246b9190612f64565b80825560405190815283907f6e912a3a9105bdd2af817ba5adc14e6c127c1035b5b648faa29ca0d58ab8ff4e9060200160405180910390a25b60038101546002820154604080516001600160a01b039093168352602083019190915284917f0e54eff26401bf69b81b26f60bd85ef47f5d85275c1d268d84f68d6897431c4791015b60405180910390a2505050565b6000818152600460209081526040808320600b8352818420600380820180546005850180546001600160a01b0319166001600160a01b03928316179055600284015460068087019190915560078601805462ff0000191662020000179055928501549287528588209154168752909452919093209190915560018054810190558260008051602061300183398151915260026040516124ed9190612e67565b600080546001908101808355808352600460208181526040808620848155429581018690556002810180546001600160a01b038c166001600160a01b03199182161790915560038083018a9055948201805482169055600580830180549092163317909155346006830181905560078301805462ffff0019166201010017905593529086209254939491939092916126319190612f64565b81556001810180546001600160a01b0319166001600160a01b03891617905560405183815284907f6d13017ad90cf7d9f398b5753f263aa0ddf37bacd59019879304f9fa021307749060200160405180910390a250919695505050505050565b6040516321792f7b60e21b8152600481018390526001600160a01b0382811660248301527f000000000000000000000000000000000000000000000000000000000000000016906385e4bdec90604401611e76565b600260115414156127095760405162461bcd60e51b815260040161072490612e75565b60026011819055600082815260046020818152604080842081516101408101835281548152600182015493810193909352948501546001600160a01b03908116918301919091526003808601546060840152928501548116608083015260058501541660a0820152600684015460c0820152600784015460ff808216151560e0840152610100808304821615159084015293949193919261012085019262010000909204909116908111156127ce57634e487b7160e01b600052602160045260246000fd5b60038111156127ed57634e487b7160e01b600052602160045260246000fd5b81525050905060006128028260800151611a61565b9050806128455760405162461bcd60e51b8152602060048201526011602482015270041646472657373206973206f776564203607c1b6044820152606401610724565b6128528260800151612b56565b5050600160115550565b6002601154141561287f5760405162461bcd60e51b815260040161072490612e75565b60026011819055600082815260046020818152604080842081516101408101835281548152600182015493810193909352948501546001600160a01b03908116918301919091526003808601546060840152928501548116608083015260058501541660a0820152600684015460c0820152600784015460ff808216151560e08401526101008083048216151590840152939491939192610120850192620100009092049091169081111561294457634e487b7160e01b600052602160045260246000fd5b600381111561296357634e487b7160e01b600052602160045260246000fd5b905250600083815260066020908152604080832060a08501516001600160a01b03168452909152902054909150806129ce5760405162461bcd60e51b815260206004820152600e60248201526d139bc8131959d95b990813ddd95960921b6044820152606401610724565b600083815260066020908152604080832060a0860180516001600160a01b039081168652919093528184209390935584810151915190516323b872dd60e01b815291909216916323b872dd91612a2a9130918690600401612dc5565b600060405180830381600087803b158015612a4457600080fd5b505af1158015612a58573d6000803e3d6000fd5b505060016011555050505050565b604051638b6099db60e01b81526001600160a01b038681166004830152602482018590526044820184905282811660648301527f00000000000000000000000000000000000000000000000000000000000000001690638b6099db9086906084016000604051808303818588803b158015612ae057600080fd5b505af1158015612af4573d6000803e3d6000fd5b50505050505050505050565b6000818152600b6020908152604080832054600490925282206001015482918291612b2b9190612f64565b90508042108015612b475750600a54612b449082612fbb565b42115b15611a5a575060019392505050565b6040516351cff8d960e01b81526001600160a01b0382811660048301527f000000000000000000000000000000000000000000000000000000000000000016906351cff8d990602401612109565b8260038101928215612bd2579160200282015b82811115612bd2578235825591602001919060010190612bb7565b50612bde929150612c00565b5090565b60405180606001604052806003906020820280368337509192915050565b5b80821115612bde5760008155600101612c01565b600060208284031215612c26578081fd5b8135612c3181612fe8565b9392505050565b600060208284031215612c49578081fd5b8151612c3181612fe8565b60008060408385031215612c66578081fd5b8235612c7181612fe8565b946020939093013593505050565b600080600060608486031215612c93578081fd5b8335612c9e81612fe8565b95602085013595506040909401359392505050565b600080600080600060a08688031215612cca578081fd5b8535612cd581612fe8565b97602087013597506040870135966060810135965060800135945092505050565b600060608284031215612d07578081fd5b82606083011115612d16578081fd5b50919050565b600060208284031215612d2d578081fd5b5035919050565b600060208284031215612d45578081fd5b5051919050565b60008060408385031215612d5e578182fd5b823591506020830135612d7081612fe8565b809150509250929050565b60008060408385031215612d8d578182fd5b8235915060208301358015158114612d70578182fd5b60048110612dc157634e487b7160e01b600052602160045260246000fd5b9052565b6001600160a01b039384168152919092166020820152604081019190915260600190565b6020808252825182820181905260009190848201906040850190845b81811015612e2a5783516001600160a01b031683529284019291840191600101612e05565b50909695505050505050565b60608101818360005b6003811015612e5e578151835260209283019290910190600101612e3f565b50505092915050565b602081016106fb8284612da3565b6020808252601f908201527f5265656e7472616e637947756172643a207265656e7472616e742063616c6c00604082015260600190565b60006101408201905082518252602083015160208301526040830151612edd60408401826001600160a01b03169052565b50606083015160608301526080830151612f0260808401826001600160a01b03169052565b5060a0830151612f1d60a08401826001600160a01b03169052565b5060c083015160c083015260e0830151612f3b60e084018215159052565b506101008381015115159083015261012080840151612f5c82850182612da3565b505092915050565b60008219821115612f7757612f77612fd2565b500190565b600082612f9757634e487b7160e01b81526012600452602481fd5b500490565b6000816000190483118215151615612fb657612fb6612fd2565b500290565b600082821015612fcd57612fcd612fd2565b500390565b634e487b7160e01b600052601160045260246000fd5b6001600160a01b0381168114612ffd57600080fd5b5056feab8013f69383454f861c325aa79a70266ccaf52ad8683c842832a8df74c57a25a2646970667358221220a373047127f578dbeebe4d2e212e78c32a7bcd7ed318ec1b98eef4872a342d4c64736f6c63430008040033608060405234801561001057600080fd5b5061001a33610031565b600180546001600160a01b03191633179055610081565b600080546001600160a01b038381166001600160a01b0319831681178455604051919092169283917f8be0079c531659141344cd1fd0a4f28419497f9722a3daafe3b4186f6b6457e09190a35050565b61097b806100906000396000f3fe6080604052600436106100c25760003560e01c80637c9fe43a1161007f5780638da5cb5b116100595780638da5cb5b146101f6578063968db7831461021e578063e3a9db1a1461023e578063f2fde38b1461027457600080fd5b80637c9fe43a146101b057806385e4bdec146101c35780638b6099db146101e357600080fd5b806303073828146100c75780631428f21b146100dc5780631f376f141461012557806328e05bf11461013857806351cff8d91461017b578063715018a61461019b575b600080fd5b6100da6100d5366004610887565b610294565b005b3480156100e857600080fd5b506101126100f736600461081b565b6001600160a01b031660009081526003602052604090205490565b6040519081526020015b60405180910390f35b6100da61013336600461081b565b610334565b34801561014457600080fd5b50610112610153366004610887565b60009182526004602090815260408084206001600160a01b0393909316845291905290205490565b34801561018757600080fd5b506100da61019636600461081b565b610391565b3480156101a757600080fd5b506100da6103e7565b6100da6101be366004610887565b61041d565b3480156101cf57600080fd5b506100da6101de366004610887565b6104c3565b6100da6101f136600461083e565b610513565b34801561020257600080fd5b506000546040516001600160a01b03909116815260200161011c565b34801561022a57600080fd5b506100da61023936600461081b565b6105c0565b34801561024a57600080fd5b5061011261025936600461081b565b6001600160a01b031660009081526002602052604090205490565b34801561028057600080fd5b506100da61028f36600461081b565b610612565b6000546001600160a01b031633146102c75760405162461bcd60e51b81526004016102be906108b6565b60405180910390fd5b60008281526004602090815260408083206001600160a01b0385168085529252822080549290556102f890826106ad565b604051818152339084907fa59312996dc68b7f0224b341fed75d5afeb3bb20624107d37942d14f594281569060200160405180910390a3505050565b6000546001600160a01b0316331461035e5760405162461bcd60e51b81526004016102be906108b6565b6001600160a01b0381166000908152600360205260408120805434928392916103889084906108eb565b90915550505050565b6000546001600160a01b031633146103bb5760405162461bcd60e51b81526004016102be906108b6565b6001600160a01b03811660008181526002602052604081208054919055906103e390826106ad565b5050565b6000546001600160a01b031633146104115760405162461bcd60e51b81526004016102be906108b6565b61041b60006107cb565b565b6000546001600160a01b031633146104475760405162461bcd60e51b81526004016102be906108b6565b60008281526004602090815260408083206001600160a01b038516845290915281208054349283929161047b9084906108eb565b90915550506040518181526001600160a01b038316907f2da466a7b24304f47e87fa2e1e5a81b9831ce54fec19055ce277ca2f39ba42c49060200160405180910390a2505050565b6000546001600160a01b031633146104ed5760405162461bcd60e51b81526004016102be906108b6565b60009182526004602090815260408084206001600160a01b039093168452919052812055565b6000546001600160a01b0316331461053d5760405162461bcd60e51b81526004016102be906108b6565b8115610571576001600160a01b0381166000908152600360205260408120805484929061056b9084906108eb565b90915550505b600061057d83856108eb565b6105879034610903565b6001600160a01b0386166000908152600260205260408120805492935083929091906105b49084906108eb565b90915550505050505050565b6000546001600160a01b031633146105ea5760405162461bcd60e51b81526004016102be906108b6565b6001600160a01b03811660008181526003602052604081208054919055906103e390826106ad565b6000546001600160a01b0316331461063c5760405162461bcd60e51b81526004016102be906108b6565b6001600160a01b0381166106a15760405162461bcd60e51b815260206004820152602660248201527f4f776e61626c653a206e6577206f776e657220697320746865207a65726f206160448201526564647265737360d01b60648201526084016102be565b6106aa816107cb565b50565b804710156106fd5760405162461bcd60e51b815260206004820152601d60248201527f416464726573733a20696e73756666696369656e742062616c616e636500000060448201526064016102be565b6000826001600160a01b03168260405160006040518083038185875af1925050503d806000811461074a576040519150601f19603f3d011682016040523d82523d6000602084013e61074f565b606091505b50509050806107c65760405162461bcd60e51b815260206004820152603a60248201527f416464726573733a20756e61626c6520746f2073656e642076616c75652c207260448201527f6563697069656e74206d6179206861766520726576657274656400000000000060648201526084016102be565b505050565b600080546001600160a01b038381166001600160a01b0319831681178455604051919092169283917f8be0079c531659141344cd1fd0a4f28419497f9722a3daafe3b4186f6b6457e09190a35050565b60006020828403121561082c578081fd5b813561083781610930565b9392505050565b60008060008060808587031215610853578283fd5b843561085e81610930565b93506020850135925060408501359150606085013561087c81610930565b939692955090935050565b60008060408385031215610899578182fd5b8235915060208301356108ab81610930565b809150509250929050565b6020808252818101527f4f776e61626c653a2063616c6c6572206973206e6f7420746865206f776e6572604082015260600190565b600082198211156108fe576108fe61091a565b500190565b6000828210156109155761091561091a565b500390565b634e487b7160e01b600052601160045260246000fd5b6001600160a01b03811681146106aa57600080fdfea2646970667358221220625a6dc6664e4c7115c281e2cb2c9f87ca2865046c32f24359972a4f6fd1fd1c64736f6c63430008040033608060405234801561001057600080fd5b506001600655600780546001600160a01b03191633179055611a45806100376000396000f3fe608060405234801561001057600080fd5b506004361061009e5760003560e01c806348c54b9d1161006657806348c54b9d1461016f578063556fa52514610177578063a3ac75b31461018a578063d59bb0771461019d578063dff22c69146101be57600080fd5b8063050bf88e146100a357806308c8aec2146100b85780632014a93514610129578063401537911461013c578063405c81e91461014f575b600080fd5b6100b66100b13660046117c6565b6101e7565b005b610108604080516020808201835260009182905282518082018452829052825180820184528290528251808201845291548252825180820184526001548152835191820190935260025481529092565b60408051935184529151602084015251908201526060015b60405180910390f35b6100b661013736600461175a565b6103c1565b6100b661014a366004611849565b6105df565b61016261015d3660046117c6565b610ba7565b60405161012091906118f5565b6100b6610c89565b6100b66101853660046117c6565b610e4c565b6100b6610198366004611825565b61115b565b6101b06101ab3660046117f6565b611453565b604051908152602001610120565b6101b06101cc366004611737565b6001600160a01b031660009081526004602052604090205490565b600260065414156102135760405162461bcd60e51b815260040161020a906118be565b60405180910390fd5b60026006818155600083815260036020818152604080842081516101408101835281548152600182015493810193909352958601546001600160a01b039081169183019190915285830154811660608301526004860154608083015260058601541660a08201529284015460c0840152600784015460e08401526008840154610100840152600984015491939161012084019160ff909116908111156102c957634e487b7160e01b600052602160045260246000fd5b60038111156102e857634e487b7160e01b600052602160045260246000fd5b81525050905080606001516001600160a01b0316336001600160a01b03161461031057600080fd5b6001816101200151600381111561033757634e487b7160e01b600052602160045260246000fd5b1461034157600080fd5b61034a8261147d565b80604001516001600160a01b03166342842e0e30836060015184608001516040518463ffffffff1660e01b81526004016103869392919061188c565b600060405180830381600087803b1580156103a057600080fd5b505af11580156103b4573d6000803e3d6000fd5b5050600160065550505050565b600260065414156103e45760405162461bcd60e51b815260040161020a906118be565b600260065560075460405163267a961160e21b81526004810184905284916001600160a01b0316906399ea58449060240160206040518083038186803b15801561042d57600080fd5b505afa158015610441573d6000803e3d6000fd5b505050506040513d601f19601f82011682018060405250810190610465919061178e565b6104a05760405162461bcd60e51b815260206004820152600c60248201526b4e6f7420456c696769626c6560a01b604482015260640161020a565b600754604051630478c5ef60e41b8152600481018590526001600160a01b039091169063478c5ef09060240160206040518083038186803b1580156104e457600080fd5b505afa1580156104f8573d6000803e3d6000fd5b505050506040513d601f19601f8201168201806040525081019061051c919061178e565b61052557600080fd5b816105675760405162461bcd60e51b8152602060048201526012602482015271050726963652063616e206e6f7420626520360741b604482015260640161020a565b6040516323b872dd60e01b81526001600160a01b038216906323b872dd906105979033903090889060040161188c565b600060405180830381600087803b1580156105b157600080fd5b505af11580156105c5573d6000803e3d6000fd5b505050506105d48484846114e1565b505060016006555050565b600260065414156106025760405162461bcd60e51b815260040161020a906118be565b60026006818155600084815260036020818152604080842081516101408101835281548152600182015493810193909352958601546001600160a01b039081169183019190915285830154811660608301526004860154608083015260058601541660a08201529284015460c0840152600784015460e08401526008840154610100840152600984015491939161012084019160ff909116908111156106b857634e487b7160e01b600052602160045260246000fd5b60038111156106d757634e487b7160e01b600052602160045260246000fd5b90525060408101519091506001826101200151600381111561070957634e487b7160e01b600052602160045260246000fd5b1461071357600080fd5b60608201516001600160a01b03163314156107685760405162461bcd60e51b815260206004820152601560248201527414d95b1b195c881b9bdd08185d5d1a1bdc9a5e9959605a1b604482015260640161020a565b60075460405163267a961160e21b8152600481018590526001600160a01b03909116906399ea58449060240160206040518083038186803b1580156107ac57600080fd5b505afa1580156107c0573d6000803e3d6000fd5b505050506040513d601f19601f820116820180604052508101906107e4919061178e565b61081f5760405162461bcd60e51b815260206004820152600c60248201526b4e6f7420456c696769626c6560a01b604482015260640161020a565b600754604051630478c5ef60e41b8152600481018590526001600160a01b039091169063478c5ef09060240160206040518083038186803b15801561086357600080fd5b505afa158015610877573d6000803e3d6000fd5b505050506040513d601f19601f8201168201806040525081019061089b919061178e565b6108a457600080fd5b61010082015160075460408051630300320560e01b815290516001600160a01b0390921691630300320591600480820192602092909190829003018186803b1580156108ef57600080fd5b505afa158015610903573d6000803e3d6000fd5b505050506040513d601f19601f8201168201806040525081019061092791906117aa565b6001600160a01b03166323b872dd3330846040518463ffffffff1660e01b81526004016109569392919061188c565b602060405180830381600087803b15801561097057600080fd5b505af1158015610984573d6000803e3d6000fd5b505050506040513d601f19601f820116820180604052508101906109a8919061178e565b506040516323b872dd60e01b81526001600160a01b038316906323b872dd906109d99033903090899060040161188c565b600060405180830381600087803b1580156109f357600080fd5b505af1158015610a07573d6000803e3d6000fd5b505050506000600760009054906101000a90046001600160a01b03166001600160a01b0316631944f20d6040518163ffffffff1660e01b815260040160206040518083038186803b158015610a5b57600080fd5b505afa158015610a6f573d6000803e3d6000fd5b505050506040513d601f19601f82011682018060405250810190610a9391906117aa565b6080850151604051633111f85560e21b8152306004820152602481019190915260448101879052600060648201526001600160a01b03919091169063c447e15490608401602060405180830381600087803b158015610af157600080fd5b505af1158015610b05573d6000803e3d6000fd5b505050506040513d601f19601f82011682018060405250810190610b2991906117de565b9050610b3886338388866115a5565b604051632142170760e11b81526001600160a01b038416906342842e0e90610b6890309033908a9060040161188c565b600060405180830381600087803b158015610b8257600080fd5b505af1158015610b96573d6000803e3d6000fd5b505060016006555050505050505050565b610baf6116ab565b6000828152600360208181526040928390208351610140810185528154815260018201549281019290925260028101546001600160a01b0390811694830194909452808301548416606083015260048101546080830152600581015490931660a0820152600683015460c0820152600783015460e08201526008830154610100820152600983015490929161012084019160ff1690811115610c6157634e487b7160e01b600052602160045260246000fd5b6003811115610c8057634e487b7160e01b600052602160045260246000fd5b90525092915050565b60026006541415610cac5760405162461bcd60e51b815260040161020a906118be565b60026006553360009081526004602052604090205480610d025760405162461bcd60e51b8152602060048201526011602482015270041646472657373206973206f776564203607c1b604482015260640161020a565b336000908152600460208181526040808420939093556007548351630300320560e01b815293516001600160a01b0390911693630300320593818101939291829003018186803b158015610d5557600080fd5b505afa158015610d69573d6000803e3d6000fd5b505050506040513d601f19601f82011682018060405250810190610d8d91906117aa565b6001600160a01b03166323b872dd3033846040518463ffffffff1660e01b8152600401610dbc9392919061188c565b602060405180830381600087803b158015610dd657600080fd5b505af1158015610dea573d6000803e3d6000fd5b505050506040513d601f19601f82011682018060405250810190610e0e919061178e565b5060405181815233907f896e034966eaaf1adc54acc0f257056febbd300c9e47182cf761982cf1f5e4309060200160405180910390a2506001600655565b60026006541415610e6f5760405162461bcd60e51b815260040161020a906118be565b60026006818155600083815260036020818152604080842081516101408101835281548152600182015493810193909352958601546001600160a01b039081169183019190915285830154811660608301526004860154608083015260058601541660a08201529284015460c0840152600784015460e08401526008840154610100840152600984015491939161012084019160ff90911690811115610f2557634e487b7160e01b600052602160045260246000fd5b6003811115610f4457634e487b7160e01b600052602160045260246000fd5b8152505090508060a001516001600160a01b0316336001600160a01b031614610f6c57600080fd5b60028161012001516003811115610f9357634e487b7160e01b600052602160045260246000fd5b14610f9d57600080fd5b600082815260056020908152604080832060a08501516001600160a01b03168452909152902054806110005760405162461bcd60e51b815260206004820152600c60248201526b139bc81959d9dcc81bddd95960a21b604482015260640161020a565b600083815260056020908152604080832060a08601516001600160a01b039081168552908352818420939093556007548151631944f20d60e01b81529151931692631944f20d92600480840193919291829003018186803b15801561106457600080fd5b505afa158015611078573d6000803e3d6000fd5b505050506040513d601f19601f8201168201806040525081019061109c91906117aa565b6001600160a01b03166342842e0e308460a00151846040518463ffffffff1660e01b81526004016110cf9392919061188c565b600060405180830381600087803b1580156110e957600080fd5b505af11580156110fd573d6000803e3d6000fd5b505050508160a001516001600160a01b03167fce9c280f977ed75885e90ec68f12c7aec51eb9c386cb1d07016a03fc4f13180d8483604051611149929190918252602082015260400190565b60405180910390a25050600160065550565b6002600654141561117e5760405162461bcd60e51b815260040161020a906118be565b60026006818155600084815260036020818152604080842081516101408101835281548152600182015493810193909352958601546001600160a01b039081169183019190915285830154811660608301526004860154608083015260058601541660a08201529284015460c0840152600784015460e08401526008840154610100840152600984015491939161012084019160ff9091169081111561123457634e487b7160e01b600052602160045260246000fd5b600381111561125357634e487b7160e01b600052602160045260246000fd5b81525050905080606001516001600160a01b0316336001600160a01b03161461127b57600080fd5b600281610120015160038111156112a257634e487b7160e01b600052602160045260246000fd5b146112ac57600080fd5b8115611399576007546080820151604051630478c5ef60e41b81526001600160a01b039092169163478c5ef0916112e99160040190815260200190565b60206040518083038186803b15801561130157600080fd5b505afa158015611315573d6000803e3d6000fd5b505050506040513d601f19601f82011682018060405250810190611339919061178e565b61137c5760405162461bcd60e51b81526020600482015260146024820152734c6567656e64204e6f7420426c656e6461626c6560601b604482015260640161020a565b611394816040015182608001518361010001516114e1565b611408565b80604001516001600160a01b03166342842e0e30836060015184608001516040518463ffffffff1660e01b81526004016113d59392919061188c565b600060405180830381600087803b1580156113ef57600080fd5b505af1158015611403573d6000803e3d6000fd5b505050505b8060800151837f5b947c66c723942af50b49885e660819c9cf2387ba7c88b4c482dc866bc8ef2a84604051611441911515815260200190565b60405180910390a35050600160065550565b60008281526005602090815260408083206001600160a01b03851684529091529020545b92915050565b6000818152600360208190526040909120600901805460ff19169091179055600280546001019055807f19ca3c8e697c2730c0ea245a0d6b6fbf54dd90f12bed2a09690b30a6a0b17ff960036040516114d691906118b0565b60405180910390a250565b6114ef600080546001019055565b6000805480825260036020819052604092839020828155426001808301919091556002820180546001600160a01b038a166001600160a01b0319918216179091559282018054841633179055600482018790556005820180549093169092556008810185905560098101805460ff191683179055925191929183917f19ca3c8e697c2730c0ea245a0d6b6fbf54dd90f12bed2a09690b30a6a0b17ff99161159691906118b0565b60405180910390a25050505050565b60008581526003602052604090206005810180546001600160a01b0319166001600160a01b03871617905560068101839055600781018490556009810180546002919060ff1916600183021790555060038101546001600160a01b0316600090815260046020526040812080548492906116209084906119c5565b909155505060008681526005602090815260408083206001600160a01b03891684529091529020849055611658600180546001019055565b80600601548160040154877fdcf5b38949db96e23ec16a239c7239c37aa6198976b8e2f6fa80a406798c4e83878560080154600260405161169b939291906119a2565b60405180910390a4505050505050565b604051806101400160405280600081526020016000815260200160006001600160a01b0316815260200160006001600160a01b031681526020016000815260200160006001600160a01b031681526020016000815260200160008152602001600081526020016000600381111561173257634e487b7160e01b600052602160045260246000fd5b905290565b600060208284031215611748578081fd5b8135611753816119e9565b9392505050565b60008060006060848603121561176e578182fd5b8335611779816119e9565b95602085013595506040909401359392505050565b60006020828403121561179f578081fd5b815161175381611a01565b6000602082840312156117bb578081fd5b8151611753816119e9565b6000602082840312156117d7578081fd5b5035919050565b6000602082840312156117ef578081fd5b5051919050565b60008060408385031215611808578182fd5b82359150602083013561181a816119e9565b809150509250929050565b60008060408385031215611837578182fd5b82359150602083013561181a81611a01565b6000806040838503121561185b578182fd5b50508035926020909101359150565b6004811061188857634e487b7160e01b600052602160045260246000fd5b9052565b6001600160a01b039384168152919092166020820152604081019190915260600190565b60208101611477828461186a565b6020808252601f908201527f5265656e7472616e637947756172643a207265656e7472616e742063616c6c00604082015260600190565b6000610140820190508251825260208301516020830152604083015161192660408401826001600160a01b03169052565b50606083015161194160608401826001600160a01b03169052565b506080830151608083015260a083015161196660a08401826001600160a01b03169052565b5060c083015160c083015260e083015160e08301526101008084015181840152506101208084015161199a8285018261186a565b505092915050565b83815260208101839052606081016119bd604083018461186a565b949350505050565b600082198211156119e457634e487b7160e01b81526011600452602481fd5b500190565b6001600160a01b03811681146119fe57600080fd5b50565b80151581146119fe57600080fdfea26469706673582212206725ef05fb2ac9f2c486edc0a1baa6eb972b9c464f25f114ca419264aa30adc964736f6c63430008040033",
    "sourcePath": "/home/gavin/LegendaryLabs/LegendaryLabs/contracts/lab/LegendsLaboratory.sol",
    "compiler": {
        "name": "solc",
        "version": "0.8.4+commit.c7e474f2"
    },
    "functionHashes": {
        "_restoreBlendingSlots(uint256,uint256)": "c13b8076",
        "closePromoEvent(uint256)": "8c68e547",
        "createPromoEvent(string,uint256,bool,uint256,bool)": "9050a575",
        "dispensePromoTicket(uint256,address,uint256)": "f4c2bc8e",
        "fetchBlendingCost(uint256)": "09932bbc",
        "fetchBlendingCount(uint256)": "04bc2264",
        "fetchMaxTicketsDispensable(uint256)": "2b3a6fd7",
        "fetchPromoEvent(uint256)": "884c77f3",
        "fetchRedeemableTickets(uint256,address)": "da738c50",
        "fetchRoyaltyRecipient(uint256)": "ea832ddd",
        "fetchSeason()": "e4eb23ae",
        "fetchTotalPromoCount()": "355d5943",
        "getChildContracts()": "0d567b9b",
        "isBlendable(uint256)": "478c5ef0",
        "isClaimed(uint256,address)": "d2ef0795",
        "isHatched(uint256)": "ced3e3f1",
        "isListable(uint256)": "99ea5844",
        "isPromoIncubated(uint256)": "1b65cd30",
        "legendRejuvenation()": "a4cecdb7",
        "legendToken()": "03003205",
        "legendsMarketplace()": "c11b7273",
        "legendsMatchingBoard()": "4dd40112",
        "legendsNFT()": "1944f20d",
        "mintLegendaryLegend(address,uint256)": "dfdb5c66",
        "owner()": "8da5cb5b",
        "redeemPromoTicket(uint256,address)": "7eefa201",
        "renounceOwnership()": "715018a6",
        "setAuctionDurations(uint256[3])": "443af2ba",
        "setAuctionExtension(uint256)": "19b60f05",
        "setBaseBlendingCost(uint256)": "4838f565",
        "setBlendingLimit(uint256)": "0c818a9a",
        "setIncubationPeriod(uint256)": "805d419a",
        "setIncubationViews(string[5])": "87aef166",
        "setKinBlendingLevel(uint256)": "446845eb",
        "setMarketplaceFee(uint256)": "9407ea98",
        "setMaxMultiplier(uint256)": "01526a43",
        "setMinimumSecure(uint256)": "0c69ebcd",
        "setOfferDuration(uint256)": "1378b62e",
        "setReJuNeededPerSlot(uint256)": "ca9d8fd0",
        "setReJuPerBlock(uint256)": "4c89c218",
        "setRoyaltyFee(uint256)": "3e4086e5",
        "setSeason(string)": "2d1e7f86",
        "transferOwnership(address)": "f2fde38b"
    },
    "gasEstimates": {
        "creation": {
            "codeDepositCost": "1765600",
            "executionCost": "infinite",
            "totalCost": "infinite"
        },
        "external": {
            "_restoreBlendingSlots(uint256,uint256)": "infinite",
            "closePromoEvent(uint256)": "27063",
            "createPromoEvent(string,uint256,bool,uint256,bool)": "infinite",
            "dispensePromoTicket(uint256,address,uint256)": "71879",
            "fetchBlendingCost(uint256)": "infinite",
            "fetchBlendingCount(uint256)": "infinite",
            "fetchMaxTicketsDispensable(uint256)": "2126",
            "fetchPromoEvent(uint256)": "infinite",
            "fetchRedeemableTickets(uint256,address)": "1384",
            "fetchRoyaltyRecipient(uint256)": "infinite",
            "fetchSeason()": "infinite",
            "fetchTotalPromoCount()": "2063",
            "getChildContracts()": "4389",
            "isBlendable(uint256)": "infinite",
            "isClaimed(uint256,address)": "1485",
            "isHatched(uint256)": "infinite",
            "isListable(uint256)": "infinite",
            "isPromoIncubated(uint256)": "1196",
            "legendRejuvenation()": "1181",
            "legendToken()": "1095",
            "legendsMarketplace()": "1071",
            "legendsMatchingBoard()": "1181",
            "legendsNFT()": "1138",
            "mintLegendaryLegend(address,uint256)": "infinite",
            "owner()": "1087",
            "redeemPromoTicket(uint256,address)": "infinite",
            "renounceOwnership()": "23460",
            "setAuctionDurations(uint256[3])": "infinite",
            "setAuctionExtension(uint256)": "infinite",
            "setBaseBlendingCost(uint256)": "infinite",
            "setBlendingLimit(uint256)": "infinite",
            "setIncubationPeriod(uint256)": "infinite",
            "setIncubationViews(string[5])": "infinite",
            "setKinBlendingLevel(uint256)": "infinite",
            "setMarketplaceFee(uint256)": "infinite",
            "setMaxMultiplier(uint256)": "infinite",
            "setMinimumSecure(uint256)": "infinite",
            "setOfferDuration(uint256)": "infinite",
            "setReJuNeededPerSlot(uint256)": "infinite",
            "setReJuPerBlock(uint256)": "infinite",
            "setRoyaltyFee(uint256)": "infinite",
            "setSeason(string)": "infinite",
            "transferOwnership(address)": "infinite"
        }
    }
}