{
  "_format": "hh-sol-artifact-1",
  "contractName": "LegendToken",
  "sourceName": "contracts/token/LegendToken.sol",
  "abi": [
    {
      "inputs": [
        {
          "internalType": "address",
          "name": "owner",
          "type": "address"
        }
      ],
      "stateMutability": "nonpayable",
      "type": "constructor"
    },
    {
      "anonymous": false,
      "inputs": [
        {
          "indexed": true,
          "internalType": "address",
          "name": "owner",
          "type": "address"
        },
        {
          "indexed": true,
          "internalType": "address",
          "name": "spender",
          "type": "address"
        },
        {
          "indexed": false,
          "internalType": "uint256",
          "name": "value",
          "type": "uint256"
        }
      ],
      "name": "Approval",
      "type": "event"
    },
    {
      "anonymous": false,
      "inputs": [
        {
          "indexed": true,
          "internalType": "address",
          "name": "from",
          "type": "address"
        },
        {
          "indexed": true,
          "internalType": "address",
          "name": "to",
          "type": "address"
        },
        {
          "indexed": false,
          "internalType": "uint256",
          "name": "value",
          "type": "uint256"
        }
      ],
      "name": "Transfer",
      "type": "event"
    },
    {
      "inputs": [],
      "name": "DOMAIN_SEPARATOR",
      "outputs": [
        {
          "internalType": "bytes32",
          "name": "",
          "type": "bytes32"
        }
      ],
      "stateMutability": "view",
      "type": "function"
    },
    {
      "inputs": [
        {
          "internalType": "address",
          "name": "owner",
          "type": "address"
        },
        {
          "internalType": "address",
          "name": "spender",
          "type": "address"
        }
      ],
      "name": "allowance",
      "outputs": [
        {
          "internalType": "uint256",
          "name": "",
          "type": "uint256"
        }
      ],
      "stateMutability": "view",
      "type": "function"
    },
    {
      "inputs": [
        {
          "internalType": "address",
          "name": "spender",
          "type": "address"
        },
        {
          "internalType": "uint256",
          "name": "amount",
          "type": "uint256"
        }
      ],
      "name": "approve",
      "outputs": [
        {
          "internalType": "bool",
          "name": "",
          "type": "bool"
        }
      ],
      "stateMutability": "nonpayable",
      "type": "function"
    },
    {
      "inputs": [
        {
          "internalType": "address",
          "name": "account",
          "type": "address"
        }
      ],
      "name": "balanceOf",
      "outputs": [
        {
          "internalType": "uint256",
          "name": "",
          "type": "uint256"
        }
      ],
      "stateMutability": "view",
      "type": "function"
    },
    {
      "inputs": [
        {
          "internalType": "address",
          "name": "account",
          "type": "address"
        },
        {
          "internalType": "uint256",
          "name": "amount",
          "type": "uint256"
        }
      ],
      "name": "blendingBurn",
      "outputs": [],
      "stateMutability": "nonpayable",
      "type": "function"
    },
    {
      "inputs": [
        {
          "internalType": "uint256",
          "name": "amount",
          "type": "uint256"
        }
      ],
      "name": "burn",
      "outputs": [],
      "stateMutability": "nonpayable",
      "type": "function"
    },
    {
      "inputs": [],
      "name": "decimals",
      "outputs": [
        {
          "internalType": "uint8",
          "name": "",
          "type": "uint8"
        }
      ],
      "stateMutability": "view",
      "type": "function"
    },
    {
      "inputs": [
        {
          "internalType": "address",
          "name": "spender",
          "type": "address"
        },
        {
          "internalType": "uint256",
          "name": "subtractedValue",
          "type": "uint256"
        }
      ],
      "name": "decreaseAllowance",
      "outputs": [
        {
          "internalType": "bool",
          "name": "",
          "type": "bool"
        }
      ],
      "stateMutability": "nonpayable",
      "type": "function"
    },
    {
      "inputs": [
        {
          "internalType": "address",
          "name": "spender",
          "type": "address"
        },
        {
          "internalType": "uint256",
          "name": "addedValue",
          "type": "uint256"
        }
      ],
      "name": "increaseAllowance",
      "outputs": [
        {
          "internalType": "bool",
          "name": "",
          "type": "bool"
        }
      ],
      "stateMutability": "nonpayable",
      "type": "function"
    },
    {
      "inputs": [
        {
          "internalType": "uint256",
          "name": "amount",
          "type": "uint256"
        }
      ],
      "name": "labBurn",
      "outputs": [],
      "stateMutability": "nonpayable",
      "type": "function"
    },
    {
      "inputs": [],
      "name": "name",
      "outputs": [
        {
          "internalType": "string",
          "name": "",
          "type": "string"
        }
      ],
      "stateMutability": "view",
      "type": "function"
    },
    {
      "inputs": [
        {
          "internalType": "address",
          "name": "owner",
          "type": "address"
        }
      ],
      "name": "nonces",
      "outputs": [
        {
          "internalType": "uint256",
          "name": "",
          "type": "uint256"
        }
      ],
      "stateMutability": "view",
      "type": "function"
    },
    {
      "inputs": [
        {
          "internalType": "address",
          "name": "owner",
          "type": "address"
        },
        {
          "internalType": "address",
          "name": "spender",
          "type": "address"
        },
        {
          "internalType": "uint256",
          "name": "value",
          "type": "uint256"
        },
        {
          "internalType": "uint256",
          "name": "deadline",
          "type": "uint256"
        },
        {
          "internalType": "uint8",
          "name": "v",
          "type": "uint8"
        },
        {
          "internalType": "bytes32",
          "name": "r",
          "type": "bytes32"
        },
        {
          "internalType": "bytes32",
          "name": "s",
          "type": "bytes32"
        }
      ],
      "name": "permit",
      "outputs": [],
      "stateMutability": "nonpayable",
      "type": "function"
    },
    {
      "inputs": [],
      "name": "symbol",
      "outputs": [
        {
          "internalType": "string",
          "name": "",
          "type": "string"
        }
      ],
      "stateMutability": "view",
      "type": "function"
    },
    {
      "inputs": [],
      "name": "totalSupply",
      "outputs": [
        {
          "internalType": "uint256",
          "name": "",
          "type": "uint256"
        }
      ],
      "stateMutability": "view",
      "type": "function"
    },
    {
      "inputs": [
        {
          "internalType": "address",
          "name": "recipient",
          "type": "address"
        },
        {
          "internalType": "uint256",
          "name": "amount",
          "type": "uint256"
        }
      ],
      "name": "transfer",
      "outputs": [
        {
          "internalType": "bool",
          "name": "",
          "type": "bool"
        }
      ],
      "stateMutability": "nonpayable",
      "type": "function"
    },
    {
      "inputs": [
        {
          "internalType": "address",
          "name": "sender",
          "type": "address"
        },
        {
          "internalType": "address",
          "name": "recipient",
          "type": "address"
        },
        {
          "internalType": "uint256",
          "name": "amount",
          "type": "uint256"
        }
      ],
      "name": "transferFrom",
      "outputs": [
        {
          "internalType": "bool",
          "name": "",
          "type": "bool"
        }
      ],
      "stateMutability": "nonpayable",
      "type": "function"
    }
  ],
  "bytecode": "0x6101406040527f6e71edae12b1b97f4d1f60370fef10105fa2faae0126114a169c64845d6126c9610120523480156200003757600080fd5b5060405162001856380380620018568339810160408190526200005a916200034b565b604051806040016040528060078152602001664c6567656e647360c81b81525080604051806040016040528060018152602001603160f81b815250604051806040016040528060078152602001664c6567656e647360c81b815250604051806040016040528060048152602001631311d39160e21b8152508160039080519060200190620000ea929190620002a5565b50805162000100906004906020840190620002a5565b5050825160209384012082519284019290922060c083815260e08290524660a0818152604080517f8b73c3c69bb8fe3d512ecc4cf759cc79239f7b179b0ffacaa9a75d522b39400f818a01819052818301989098526060810195909552608080860193909352308583015280518086039092018252939092019092528051940193909320909252610100525050600680546001600160a01b03191633179055620001b6816a52b7d2dcc80cd2e4000000620001bd565b50620003dd565b6001600160a01b038216620002185760405162461bcd60e51b815260206004820152601f60248201527f45524332303a206d696e7420746f20746865207a65726f206164647265737300604482015260640160405180910390fd5b80600260008282546200022c91906200037b565b90915550506001600160a01b038216600090815260208190526040812080548392906200025b9084906200037b565b90915550506040518181526001600160a01b038316906000907fddf252ad1be2c89b69c2b068fc378daa952ba7f163c4a11628f55a4df523b3ef9060200160405180910390a35050565b828054620002b390620003a0565b90600052602060002090601f016020900481019282620002d7576000855562000322565b82601f10620002f257805160ff191683800117855562000322565b8280016001018555821562000322579182015b828111156200032257825182559160200191906001019062000305565b506200033092915062000334565b5090565b5b8082111562000330576000815560010162000335565b6000602082840312156200035d578081fd5b81516001600160a01b038116811462000374578182fd5b9392505050565b600082198211156200039b57634e487b7160e01b81526011600452602481fd5b500190565b600181811c90821680620003b557607f821691505b60208210811415620003d757634e487b7160e01b600052602260045260246000fd5b50919050565b60805160a05160c05160e05161010051610120516114296200042d600039600061070a01526000610be101526000610c3001526000610c0b01526000610b8f01526000610bb801526114296000f3fe608060405234801561001057600080fd5b506004361061011b5760003560e01c806370a08231116100b2578063a457c2d711610081578063b3f0cfaf11610066578063b3f0cfaf14610242578063d505accf14610255578063dd62ed3e1461026857600080fd5b8063a457c2d71461021c578063a9059cbb1461022f57600080fd5b806370a08231146101c55780637ecebe00146101ee57806395d89b41146102015780639f87833f1461020957600080fd5b8063313ce567116100ee578063313ce567146101865780633644e51514610195578063395093511461019d57806342966c68146101b057600080fd5b806306fdde0314610120578063095ea7b31461013e57806318160ddd1461016157806323b872dd14610173575b600080fd5b6101286102a1565b6040516101359190611311565b60405180910390f35b61015161014c3660046112b2565b610333565b6040519015158152602001610135565b6002545b604051908152602001610135565b6101516101813660046111fd565b610349565b60405160128152602001610135565b61016561040d565b6101516101ab3660046112b2565b61041c565b6101c36101be3660046112f9565b610458565b005b6101656101d33660046111a2565b6001600160a01b031660009081526020819052604090205490565b6101656101fc3660046111a2565b610465565b610128610485565b6101c36102173660046112b2565b610494565b61015161022a3660046112b2565b610588565b61015161023d3660046112b2565b610639565b6101c36102503660046112f9565b610646565b6101c361026336600461123d565b6106b6565b6101656102763660046111c5565b6001600160a01b03918216600090815260016020908152604080832093909416825291909152205490565b6060600380546102b090611393565b80601f01602080910402602001604051908101604052809291908181526020018280546102dc90611393565b80156103295780601f106102fe57610100808354040283529160200191610329565b820191906000526020600020905b81548152906001019060200180831161030c57829003601f168201915b5050505050905090565b600061034033848461081a565b50600192915050565b6000610356848484610973565b6001600160a01b0384166000908152600160209081526040808320338452909152902054828110156103f55760405162461bcd60e51b815260206004820152602860248201527f45524332303a207472616e7366657220616d6f756e742065786365656473206160448201527f6c6c6f77616e636500000000000000000000000000000000000000000000000060648201526084015b60405180910390fd5b610402853385840361081a565b506001949350505050565b6000610417610b8b565b905090565b3360008181526001602090815260408083206001600160a01b03871684529091528120549091610340918590610453908690611364565b61081a565b6104623382610c7e565b50565b6001600160a01b0381166000908152600560205260408120545b92915050565b6060600480546102b090611393565b600660009054906101000a90046001600160a01b03166001600160a01b0316631944f20d6040518163ffffffff1660e01b815260040160206040518083038186803b1580156104e257600080fd5b505afa1580156104f6573d6000803e3d6000fd5b505050506040513d601f19601f8201168201806040525081019061051a91906112dd565b6001600160a01b0316336001600160a01b03161461057a5760405162461bcd60e51b815260206004820152601a60248201527f4e6f742043616c6c6564204279204e465420436f6e747261637400000000000060448201526064016103ec565b6105848282610c7e565b5050565b3360009081526001602090815260408083206001600160a01b0386168452909152812054828110156106225760405162461bcd60e51b815260206004820152602560248201527f45524332303a2064656372656173656420616c6c6f77616e63652062656c6f7760448201527f207a65726f00000000000000000000000000000000000000000000000000000060648201526084016103ec565b61062f338585840361081a565b5060019392505050565b6000610340338484610973565b6006546001600160a01b031633146106a05760405162461bcd60e51b815260206004820152601760248201527f4e6f742043616c6c6564204279204c61622041646d696e00000000000000000060448201526064016103ec565b600654610462906001600160a01b031682610c7e565b834211156107065760405162461bcd60e51b815260206004820152601d60248201527f45524332305065726d69743a206578706972656420646561646c696e6500000060448201526064016103ec565b60007f00000000000000000000000000000000000000000000000000000000000000008888886107358c610dfb565b6040805160208101969096526001600160a01b0394851690860152929091166060840152608083015260a082015260c0810186905260e001604051602081830303815290604052805190602001209050600061079082610e23565b905060006107a082878787610e8c565b9050896001600160a01b0316816001600160a01b0316146108035760405162461bcd60e51b815260206004820152601e60248201527f45524332305065726d69743a20696e76616c6964207369676e6174757265000060448201526064016103ec565b61080e8a8a8a61081a565b50505050505050505050565b6001600160a01b0383166108955760405162461bcd60e51b8152602060048201526024808201527f45524332303a20617070726f76652066726f6d20746865207a65726f2061646460448201527f726573730000000000000000000000000000000000000000000000000000000060648201526084016103ec565b6001600160a01b0382166109115760405162461bcd60e51b815260206004820152602260248201527f45524332303a20617070726f766520746f20746865207a65726f20616464726560448201527f737300000000000000000000000000000000000000000000000000000000000060648201526084016103ec565b6001600160a01b0383811660008181526001602090815260408083209487168084529482529182902085905590518481527f8c5be1e5ebec7d5bd14f71427d1e84f3dd0314c0f7b2291e5b200ac8c7c3b92591015b60405180910390a3505050565b6001600160a01b0383166109ef5760405162461bcd60e51b815260206004820152602560248201527f45524332303a207472616e736665722066726f6d20746865207a65726f20616460448201527f647265737300000000000000000000000000000000000000000000000000000060648201526084016103ec565b6001600160a01b038216610a6b5760405162461bcd60e51b815260206004820152602360248201527f45524332303a207472616e7366657220746f20746865207a65726f206164647260448201527f657373000000000000000000000000000000000000000000000000000000000060648201526084016103ec565b6001600160a01b03831660009081526020819052604090205481811015610afa5760405162461bcd60e51b815260206004820152602660248201527f45524332303a207472616e7366657220616d6f756e742065786365656473206260448201527f616c616e6365000000000000000000000000000000000000000000000000000060648201526084016103ec565b6001600160a01b03808516600090815260208190526040808220858503905591851681529081208054849290610b31908490611364565b92505081905550826001600160a01b0316846001600160a01b03167fddf252ad1be2c89b69c2b068fc378daa952ba7f163c4a11628f55a4df523b3ef84604051610b7d91815260200190565b60405180910390a350505050565b60007f0000000000000000000000000000000000000000000000000000000000000000461415610bda57507f000000000000000000000000000000000000000000000000000000000000000090565b50604080517f00000000000000000000000000000000000000000000000000000000000000006020808301919091527f0000000000000000000000000000000000000000000000000000000000000000828401527f000000000000000000000000000000000000000000000000000000000000000060608301524660808301523060a0808401919091528351808403909101815260c0909201909252805191012090565b6001600160a01b038216610cfa5760405162461bcd60e51b815260206004820152602160248201527f45524332303a206275726e2066726f6d20746865207a65726f2061646472657360448201527f730000000000000000000000000000000000000000000000000000000000000060648201526084016103ec565b6001600160a01b03821660009081526020819052604090205481811015610d895760405162461bcd60e51b815260206004820152602260248201527f45524332303a206275726e20616d6f756e7420657863656564732062616c616e60448201527f636500000000000000000000000000000000000000000000000000000000000060648201526084016103ec565b6001600160a01b0383166000908152602081905260408120838303905560028054849290610db890849061137c565b90915550506040518281526000906001600160a01b038516907fddf252ad1be2c89b69c2b068fc378daa952ba7f163c4a11628f55a4df523b3ef90602001610966565b6001600160a01b03811660009081526005602052604090208054600181018255905b50919050565b600061047f610e30610b8b565b836040517f19010000000000000000000000000000000000000000000000000000000000006020820152602281018390526042810182905260009060620160405160208183030381529060405280519060200120905092915050565b6000806000610e9d87878787610eb4565b91509150610eaa81610fa1565b5095945050505050565b6000807f7fffffffffffffffffffffffffffffff5d576e7357a4501ddfe92f46681b20a0831115610eeb5750600090506003610f98565b8460ff16601b14158015610f0357508460ff16601c14155b15610f145750600090506004610f98565b6040805160008082526020820180845289905260ff881692820192909252606081018690526080810185905260019060a0016020604051602081039080840390855afa158015610f68573d6000803e3d6000fd5b5050604051601f1901519150506001600160a01b038116610f9157600060019250925050610f98565b9150600090505b94509492505050565b6000816004811115610fc357634e487b7160e01b600052602160045260246000fd5b1415610fcc5750565b6001816004811115610fee57634e487b7160e01b600052602160045260246000fd5b141561103c5760405162461bcd60e51b815260206004820152601860248201527f45434453413a20696e76616c6964207369676e6174757265000000000000000060448201526064016103ec565b600281600481111561105e57634e487b7160e01b600052602160045260246000fd5b14156110ac5760405162461bcd60e51b815260206004820152601f60248201527f45434453413a20696e76616c6964207369676e6174757265206c656e6774680060448201526064016103ec565b60038160048111156110ce57634e487b7160e01b600052602160045260246000fd5b14156111275760405162461bcd60e51b815260206004820152602260248201527f45434453413a20696e76616c6964207369676e6174757265202773272076616c604482015261756560f01b60648201526084016103ec565b600481600481111561114957634e487b7160e01b600052602160045260246000fd5b14156104625760405162461bcd60e51b815260206004820152602260248201527f45434453413a20696e76616c6964207369676e6174757265202776272076616c604482015261756560f01b60648201526084016103ec565b6000602082840312156111b3578081fd5b81356111be816113de565b9392505050565b600080604083850312156111d7578081fd5b82356111e2816113de565b915060208301356111f2816113de565b809150509250929050565b600080600060608486031215611211578081fd5b833561121c816113de565b9250602084013561122c816113de565b929592945050506040919091013590565b600080600080600080600060e0888a031215611257578283fd5b8735611262816113de565b96506020880135611272816113de565b95506040880135945060608801359350608088013560ff81168114611295578384fd5b9699959850939692959460a0840135945060c09093013592915050565b600080604083850312156112c4578182fd5b82356112cf816113de565b946020939093013593505050565b6000602082840312156112ee578081fd5b81516111be816113de565b60006020828403121561130a578081fd5b5035919050565b6000602080835283518082850152825b8181101561133d57858101830151858201604001528201611321565b8181111561134e5783604083870101525b50601f01601f1916929092016040019392505050565b60008219821115611377576113776113c8565b500190565b60008282101561138e5761138e6113c8565b500390565b600181811c908216806113a757607f821691505b60208210811415610e1d57634e487b7160e01b600052602260045260246000fd5b634e487b7160e01b600052601160045260246000fd5b6001600160a01b038116811461046257600080fdfea2646970667358221220b997d7314615263efd4c8ef3e44acd65b5bd5cb9da082d93fbbedcaba1e5da2064736f6c63430008040033",
  "linkReferences": {},
  "deployedLinkReferences": {}
}