{
  "_format": "hh-sol-artifact-1",
  "contractName": "LegendsNFT",
  "sourceName": "contracts/legend/LegendsNFT.sol",
  "abi": [
    {
      "inputs": [],
      "stateMutability": "nonpayable",
      "type": "constructor"
    },
    {
      "anonymous": false,
      "inputs": [
        {
          "indexed": true,
          "internalType": "address",
          "name": "owner",
          "type": "address"
        },
        {
          "indexed": true,
          "internalType": "address",
          "name": "approved",
          "type": "address"
        },
        {
          "indexed": true,
          "internalType": "uint256",
          "name": "tokenId",
          "type": "uint256"
        }
      ],
      "name": "Approval",
      "type": "event"
    },
    {
      "anonymous": false,
      "inputs": [
        {
          "indexed": true,
          "internalType": "address",
          "name": "owner",
          "type": "address"
        },
        {
          "indexed": true,
          "internalType": "address",
          "name": "operator",
          "type": "address"
        },
        {
          "indexed": false,
          "internalType": "bool",
          "name": "approved",
          "type": "bool"
        }
      ],
      "name": "ApprovalForAll",
      "type": "event"
    },
    {
      "anonymous": false,
      "inputs": [
        {
          "indexed": true,
          "internalType": "uint256",
          "name": "legendId",
          "type": "uint256"
        },
        {
          "indexed": true,
          "internalType": "address",
          "name": "creator",
          "type": "address"
        }
      ],
      "name": "LegendCreated",
      "type": "event"
    },
    {
      "anonymous": false,
      "inputs": [
        {
          "indexed": false,
          "internalType": "uint256",
          "name": "legendId",
          "type": "uint256"
        }
      ],
      "name": "LegendDestroyed",
      "type": "event"
    },
    {
      "anonymous": false,
      "inputs": [
        {
          "indexed": true,
          "internalType": "uint256",
          "name": "legendId",
          "type": "uint256"
        },
        {
          "indexed": false,
          "internalType": "uint256",
          "name": "birthday",
          "type": "uint256"
        }
      ],
      "name": "LegendHatched",
      "type": "event"
    },
    {
      "anonymous": false,
      "inputs": [
        {
          "indexed": true,
          "internalType": "uint256",
          "name": "legendId",
          "type": "uint256"
        },
        {
          "indexed": false,
          "internalType": "string",
          "name": "prefix",
          "type": "string"
        },
        {
          "indexed": false,
          "internalType": "string",
          "name": "postfix",
          "type": "string"
        }
      ],
      "name": "LegendNamed",
      "type": "event"
    },
    {
      "anonymous": false,
      "inputs": [
        {
          "indexed": true,
          "internalType": "uint256",
          "name": "parent1",
          "type": "uint256"
        },
        {
          "indexed": true,
          "internalType": "uint256",
          "name": "parent2",
          "type": "uint256"
        },
        {
          "indexed": false,
          "internalType": "uint256",
          "name": "childId",
          "type": "uint256"
        }
      ],
      "name": "LegendsBlended",
      "type": "event"
    },
    {
      "anonymous": false,
      "inputs": [
        {
          "indexed": true,
          "internalType": "address",
          "name": "from",
          "type": "address"
        },
        {
          "indexed": true,
          "internalType": "address",
          "name": "to",
          "type": "address"
        },
        {
          "indexed": true,
          "internalType": "uint256",
          "name": "tokenId",
          "type": "uint256"
        }
      ],
      "name": "Transfer",
      "type": "event"
    },
    {
      "inputs": [
        {
          "internalType": "address",
          "name": "to",
          "type": "address"
        },
        {
          "internalType": "uint256",
          "name": "tokenId",
          "type": "uint256"
        }
      ],
      "name": "approve",
      "outputs": [],
      "stateMutability": "nonpayable",
      "type": "function"
    },
    {
      "inputs": [
        {
          "internalType": "address",
          "name": "owner",
          "type": "address"
        }
      ],
      "name": "balanceOf",
      "outputs": [
        {
          "internalType": "uint256",
          "name": "",
          "type": "uint256"
        }
      ],
      "stateMutability": "view",
      "type": "function"
    },
    {
      "inputs": [
        {
          "internalType": "address",
          "name": "recipient",
          "type": "address"
        },
        {
          "internalType": "uint256",
          "name": "parent1",
          "type": "uint256"
        },
        {
          "internalType": "uint256",
          "name": "parent2",
          "type": "uint256"
        }
      ],
      "name": "blendLegends",
      "outputs": [
        {
          "internalType": "uint256",
          "name": "",
          "type": "uint256"
        }
      ],
      "stateMutability": "nonpayable",
      "type": "function"
    },
    {
      "inputs": [
        {
          "internalType": "address",
          "name": "recipient",
          "type": "address"
        },
        {
          "internalType": "uint256",
          "name": "promoId",
          "type": "uint256"
        },
        {
          "internalType": "bool",
          "name": "isLegendary",
          "type": "bool"
        }
      ],
      "name": "createLegend",
      "outputs": [],
      "stateMutability": "nonpayable",
      "type": "function"
    },
    {
      "inputs": [
        {
          "internalType": "uint256",
          "name": "legendId",
          "type": "uint256"
        }
      ],
      "name": "destroyLegend",
      "outputs": [],
      "stateMutability": "nonpayable",
      "type": "function"
    },
    {
      "inputs": [
        {
          "internalType": "uint256",
          "name": "legendId",
          "type": "uint256"
        }
      ],
      "name": "fetchBlendingCost",
      "outputs": [
        {
          "internalType": "uint256",
          "name": "",
          "type": "uint256"
        }
      ],
      "stateMutability": "view",
      "type": "function"
    },
    {
      "inputs": [],
      "name": "fetchBlendingRules",
      "outputs": [
        {
          "internalType": "enum LegendsNFT.KinBlendingLevel",
          "name": "",
          "type": "uint8"
        },
        {
          "internalType": "uint256",
          "name": "",
          "type": "uint256"
        },
        {
          "internalType": "uint256",
          "name": "",
          "type": "uint256"
        },
        {
          "internalType": "uint256",
          "name": "",
          "type": "uint256"
        }
      ],
      "stateMutability": "view",
      "type": "function"
    },
    {
      "inputs": [],
      "name": "fetchIncubationViews",
      "outputs": [
        {
          "internalType": "string[5]",
          "name": "",
          "type": "string[5]"
        }
      ],
      "stateMutability": "view",
      "type": "function"
    },
    {
      "inputs": [
        {
          "internalType": "uint256",
          "name": "legendId",
          "type": "uint256"
        }
      ],
      "name": "fetchLegendMetadata",
      "outputs": [
        {
          "components": [
            {
              "internalType": "uint256",
              "name": "id",
              "type": "uint256"
            },
            {
              "internalType": "string",
              "name": "season",
              "type": "string"
            },
            {
              "internalType": "string",
              "name": "prefix",
              "type": "string"
            },
            {
              "internalType": "string",
              "name": "postfix",
              "type": "string"
            },
            {
              "internalType": "uint256[2]",
              "name": "parents",
              "type": "uint256[2]"
            },
            {
              "internalType": "uint256",
              "name": "birthday",
              "type": "uint256"
            },
            {
              "internalType": "uint256",
              "name": "blendingInstancesUsed",
              "type": "uint256"
            },
            {
              "internalType": "uint256",
              "name": "totalOffspring",
              "type": "uint256"
            },
            {
              "internalType": "address payable",
              "name": "legendCreator",
              "type": "address"
            },
            {
              "internalType": "bool",
              "name": "isLegendary",
              "type": "bool"
            },
            {
              "internalType": "bool",
              "name": "isHatched",
              "type": "bool"
            },
            {
              "internalType": "bool",
              "name": "isDestroyed",
              "type": "bool"
            }
          ],
          "internalType": "struct ILegendMetadata.LegendMetadata",
          "name": "",
          "type": "tuple"
        }
      ],
      "stateMutability": "view",
      "type": "function"
    },
    {
      "inputs": [
        {
          "internalType": "uint256",
          "name": "legendId",
          "type": "uint256"
        }
      ],
      "name": "fetchLegendURI",
      "outputs": [
        {
          "internalType": "string",
          "name": "",
          "type": "string"
        }
      ],
      "stateMutability": "view",
      "type": "function"
    },
    {
      "inputs": [
        {
          "internalType": "uint256",
          "name": "tokenId",
          "type": "uint256"
        }
      ],
      "name": "getApproved",
      "outputs": [
        {
          "internalType": "address",
          "name": "",
          "type": "address"
        }
      ],
      "stateMutability": "view",
      "type": "function"
    },
    {
      "inputs": [
        {
          "internalType": "uint256",
          "name": "legendId",
          "type": "uint256"
        },
        {
          "internalType": "string",
          "name": "ipfsHash",
          "type": "string"
        }
      ],
      "name": "hatchLegend",
      "outputs": [],
      "stateMutability": "nonpayable",
      "type": "function"
    },
    {
      "inputs": [
        {
          "internalType": "address",
          "name": "owner",
          "type": "address"
        },
        {
          "internalType": "address",
          "name": "operator",
          "type": "address"
        }
      ],
      "name": "isApprovedForAll",
      "outputs": [
        {
          "internalType": "bool",
          "name": "",
          "type": "bool"
        }
      ],
      "stateMutability": "view",
      "type": "function"
    },
    {
      "inputs": [
        {
          "internalType": "uint256",
          "name": "legendId",
          "type": "uint256"
        }
      ],
      "name": "isBlendable",
      "outputs": [
        {
          "internalType": "bool",
          "name": "",
          "type": "bool"
        }
      ],
      "stateMutability": "view",
      "type": "function"
    },
    {
      "inputs": [
        {
          "internalType": "uint256",
          "name": "legendId",
          "type": "uint256"
        }
      ],
      "name": "isHatchable",
      "outputs": [
        {
          "internalType": "bool",
          "name": "",
          "type": "bool"
        }
      ],
      "stateMutability": "view",
      "type": "function"
    },
    {
      "inputs": [
        {
          "internalType": "uint256",
          "name": "legendId",
          "type": "uint256"
        }
      ],
      "name": "isHatched",
      "outputs": [
        {
          "internalType": "bool",
          "name": "",
          "type": "bool"
        }
      ],
      "stateMutability": "view",
      "type": "function"
    },
    {
      "inputs": [
        {
          "internalType": "uint256",
          "name": "legendId",
          "type": "uint256"
        }
      ],
      "name": "isListable",
      "outputs": [
        {
          "internalType": "bool",
          "name": "",
          "type": "bool"
        }
      ],
      "stateMutability": "view",
      "type": "function"
    },
    {
      "inputs": [
        {
          "internalType": "uint256",
          "name": "legendId",
          "type": "uint256"
        }
      ],
      "name": "isNoIncubation",
      "outputs": [
        {
          "internalType": "bool",
          "name": "",
          "type": "bool"
        }
      ],
      "stateMutability": "view",
      "type": "function"
    },
    {
      "inputs": [
        {
          "internalType": "uint256",
          "name": "parentLegendId",
          "type": "uint256"
        },
        {
          "internalType": "uint256",
          "name": "childLegendId",
          "type": "uint256"
        }
      ],
      "name": "isParentOf",
      "outputs": [
        {
          "internalType": "bool",
          "name": "",
          "type": "bool"
        }
      ],
      "stateMutability": "view",
      "type": "function"
    },
    {
      "inputs": [],
      "name": "name",
      "outputs": [
        {
          "internalType": "string",
          "name": "",
          "type": "string"
        }
      ],
      "stateMutability": "view",
      "type": "function"
    },
    {
      "inputs": [
        {
          "internalType": "uint256",
          "name": "legendId",
          "type": "uint256"
        },
        {
          "internalType": "string",
          "name": "prefix",
          "type": "string"
        },
        {
          "internalType": "string",
          "name": "postfix",
          "type": "string"
        }
      ],
      "name": "nameLegend",
      "outputs": [],
      "stateMutability": "nonpayable",
      "type": "function"
    },
    {
      "inputs": [
        {
          "internalType": "uint256",
          "name": "tokenId",
          "type": "uint256"
        }
      ],
      "name": "ownerOf",
      "outputs": [
        {
          "internalType": "address",
          "name": "",
          "type": "address"
        }
      ],
      "stateMutability": "view",
      "type": "function"
    },
    {
      "inputs": [
        {
          "internalType": "uint256",
          "name": "legendId",
          "type": "uint256"
        }
      ],
      "name": "resetLegendName",
      "outputs": [],
      "stateMutability": "nonpayable",
      "type": "function"
    },
    {
      "inputs": [
        {
          "internalType": "uint256",
          "name": "legendId",
          "type": "uint256"
        },
        {
          "internalType": "uint256",
          "name": "regainedSlots",
          "type": "uint256"
        }
      ],
      "name": "restoreBlendingSlots",
      "outputs": [],
      "stateMutability": "nonpayable",
      "type": "function"
    },
    {
      "inputs": [
        {
          "internalType": "address",
          "name": "from",
          "type": "address"
        },
        {
          "internalType": "address",
          "name": "to",
          "type": "address"
        },
        {
          "internalType": "uint256",
          "name": "tokenId",
          "type": "uint256"
        }
      ],
      "name": "safeTransferFrom",
      "outputs": [],
      "stateMutability": "nonpayable",
      "type": "function"
    },
    {
      "inputs": [
        {
          "internalType": "address",
          "name": "from",
          "type": "address"
        },
        {
          "internalType": "address",
          "name": "to",
          "type": "address"
        },
        {
          "internalType": "uint256",
          "name": "tokenId",
          "type": "uint256"
        },
        {
          "internalType": "bytes",
          "name": "_data",
          "type": "bytes"
        }
      ],
      "name": "safeTransferFrom",
      "outputs": [],
      "stateMutability": "nonpayable",
      "type": "function"
    },
    {
      "inputs": [
        {
          "internalType": "address",
          "name": "operator",
          "type": "address"
        },
        {
          "internalType": "bool",
          "name": "approved",
          "type": "bool"
        }
      ],
      "name": "setApprovalForAll",
      "outputs": [],
      "stateMutability": "nonpayable",
      "type": "function"
    },
    {
      "inputs": [
        {
          "internalType": "uint256",
          "name": "blendingRule",
          "type": "uint256"
        },
        {
          "internalType": "uint256",
          "name": "newRuleData",
          "type": "uint256"
        }
      ],
      "name": "setBlendingRule",
      "outputs": [],
      "stateMutability": "nonpayable",
      "type": "function"
    },
    {
      "inputs": [
        {
          "internalType": "string[5]",
          "name": "newIncubationViews",
          "type": "string[5]"
        }
      ],
      "name": "setIncubationViews",
      "outputs": [],
      "stateMutability": "nonpayable",
      "type": "function"
    },
    {
      "inputs": [
        {
          "internalType": "bytes4",
          "name": "interfaceId",
          "type": "bytes4"
        }
      ],
      "name": "supportsInterface",
      "outputs": [
        {
          "internalType": "bool",
          "name": "",
          "type": "bool"
        }
      ],
      "stateMutability": "view",
      "type": "function"
    },
    {
      "inputs": [],
      "name": "symbol",
      "outputs": [
        {
          "internalType": "string",
          "name": "",
          "type": "string"
        }
      ],
      "stateMutability": "view",
      "type": "function"
    },
    {
      "inputs": [
        {
          "internalType": "uint256",
          "name": "index",
          "type": "uint256"
        }
      ],
      "name": "tokenByIndex",
      "outputs": [
        {
          "internalType": "uint256",
          "name": "",
          "type": "uint256"
        }
      ],
      "stateMutability": "view",
      "type": "function"
    },
    {
      "inputs": [
        {
          "internalType": "address",
          "name": "owner",
          "type": "address"
        },
        {
          "internalType": "uint256",
          "name": "index",
          "type": "uint256"
        }
      ],
      "name": "tokenOfOwnerByIndex",
      "outputs": [
        {
          "internalType": "uint256",
          "name": "",
          "type": "uint256"
        }
      ],
      "stateMutability": "view",
      "type": "function"
    },
    {
      "inputs": [
        {
          "internalType": "uint256",
          "name": "tokenId",
          "type": "uint256"
        }
      ],
      "name": "tokenURI",
      "outputs": [
        {
          "internalType": "string",
          "name": "",
          "type": "string"
        }
      ],
      "stateMutability": "view",
      "type": "function"
    },
    {
      "inputs": [],
      "name": "totalSupply",
      "outputs": [
        {
          "internalType": "uint256",
          "name": "",
          "type": "uint256"
        }
      ],
      "stateMutability": "view",
      "type": "function"
    },
    {
      "inputs": [
        {
          "internalType": "address",
          "name": "from",
          "type": "address"
        },
        {
          "internalType": "address",
          "name": "to",
          "type": "address"
        },
        {
          "internalType": "uint256",
          "name": "tokenId",
          "type": "uint256"
        }
      ],
      "name": "transferFrom",
      "outputs": [],
      "stateMutability": "nonpayable",
      "type": "function"
    }
  ],
  "bytecode": "0x610180604052603561012081815260809182919062003d6461014039815260200160405180606001604052806035815260200162003d6460359139815260200160405180606001604052806035815260200162003d6460359139815260200160405180606001604052806035815260200162003d6460359139815260200160405180606001604052806035815260200162003d64603591399052620000a990600d9060056200014e565b50600560125560646013556064601455348015620000c657600080fd5b5060405180604001604052806006815260200165131959d95b9960d21b81525060405180604001604052806006815260200165131151d1539160d21b81525081600090805190602001906200011d929190620001a5565b50805162000133906001906020840190620001a5565b5050600a80546001600160a01b0319163317905550620002e7565b826005810192821562000193579160200282015b8281111562000193578251805162000182918491602090910190620001a5565b509160200191906001019062000162565b50620001a192915062000230565b5090565b828054620001b390620002aa565b90600052602060002090601f016020900481019282620001d7576000855562000222565b82601f10620001f257805160ff191683800117855562000222565b8280016001018555821562000222579182015b828111156200022257825182559160200191906001019062000205565b50620001a192915062000251565b80821115620001a157600062000247828262000268565b5060010162000230565b5b80821115620001a1576000815560010162000252565b5080546200027690620002aa565b6000825580601f1062000287575050565b601f016020900490600052602060002090810190620002a7919062000251565b50565b600181811c90821680620002bf57607f821691505b60208210811415620002e157634e487b7160e01b600052602260045260246000fd5b50919050565b613a6d80620002f76000396000f3fe608060405234801561001057600080fd5b506004361061025b5760003560e01c80638ca46dcc11610145578063b88d4fde116100bd578063ceadb5021161008c578063d4d94eca11610071578063d4d94eca14610553578063e985e9c514610566578063f88378bb146105a257600080fd5b8063ceadb50214610513578063ced3e3f11461052657600080fd5b8063b88d4fde146104ac578063c2b64f2d146104bf578063c87b56dd146104ed578063ce5306741461050057600080fd5b80639d147ce911610114578063a22cb465116100f9578063a22cb46514610463578063ac386f4b14610476578063af5cf6c71461049957600080fd5b80639d147ce91461043d578063a18e7b2b1461045057600080fd5b80638ca46dcc146103f05780638f660ea61461040357806395d89b411461042257806399ea58441461042a57600080fd5b80632f745c59116101d85780636352211e116101a757806371de4ed71161018c57806371de4ed7146103b75780637c20234d146103ca57806387aef166146103dd57600080fd5b80636352211e1461039157806370a08231146103a457600080fd5b80632f745c591461034557806342842e0e14610358578063478c5ef01461036b5780634f6ccce71461037e57600080fd5b8063095ea7b31161022f57806318160ddd1161021457806318160ddd146103175780631b4c46fb1461031f57806323b872dd1461033257600080fd5b8063095ea7b3146102e157806309932bbc146102f657600080fd5b8062ce93811461026057806301ffc9a71461027e57806306fdde03146102a1578063081812fc146102b6575b600080fd5b6102686105c2565b604051610275919061367e565b60405180910390f35b61029161028c366004613259565b610689565b6040519015158152602001610275565b6102a96106cd565b604051610275919061373b565b6102c96102c4366004613320565b61075f565b6040516001600160a01b039091168152602001610275565b6102f46102ef3660046130ef565b6107f9565b005b610309610304366004613320565b61092b565b604051908152602001610275565b600854610309565b61030961032d36600461315b565b61095e565b6102f4610340366004613005565b610e6e565b6103096103533660046130ef565b610ef5565b6102f4610366366004613005565b610f9d565b610291610379366004613320565b610fb8565b61030961038c366004613320565b61104b565b6102c961039f366004613320565b6110fd565b6103096103b2366004612fb1565b611188565b6102f46103c5366004613338565b611222565b6102f46103d8366004613382565b61134f565b6102f46103eb36600461318f565b6113e0565b6102916103fe366004613320565b611408565b600c546012546013546014546040516102759460ff16939291906136cb565b6102a9611489565b610291610438366004613320565b611498565b6102f461044b3660046133f9565b6114e2565b6102f461045e366004613320565b611523565b6102f46104713660046130c2565b61157f565b610291610484366004613320565b60009081526017602052604090205460ff1690565b6102f46104a73660046133f9565b611644565b6102f46104ba366004613045565b6116e2565b6102916104cd3660046133f9565b600091825260186020908152604080842092845291905290205460ff1690565b6102a96104fb366004613320565b611770565b6102f461050e366004613320565b611865565b6102a9610521366004613320565b6118d9565b610291610534366004613320565b600090815260156020526040902060090154600160a81b900460ff1690565b6102f461056136600461311a565b61199b565b610291610574366004612fcd565b6001600160a01b03918216600090815260056020908152604080832093909416825291909152205460ff1690565b6105b56105b0366004613320565b611ab0565b604051610275919061374e565b6105ca612ca0565b6040805160a08101909152600d60056000835b828210156106805783820180546105f390613952565b80601f016020809104026020016040519081016040528092919081815260200182805461061f90613952565b801561066c5780601f106106415761010080835404028352916020019161066c565b820191906000526020600020905b81548152906001019060200180831161064f57829003601f168201915b5050505050815260200190600101906105dd565b50505050905090565b60006001600160e01b031982167f780e9d630000000000000000000000000000000000000000000000000000000014806106c757506106c782611d6e565b92915050565b6060600080546106dc90613952565b80601f016020809104026020016040519081016040528092919081815260200182805461070890613952565b80156107555780601f1061072a57610100808354040283529160200191610755565b820191906000526020600020905b81548152906001019060200180831161073857829003601f168201915b5050505050905090565b6000818152600260205260408120546001600160a01b03166107dd5760405162461bcd60e51b815260206004820152602c60248201527f4552433732313a20617070726f76656420717565727920666f72206e6f6e657860448201526b34b9ba32b73a103a37b5b2b760a11b60648201526084015b60405180910390fd5b506000908152600460205260409020546001600160a01b031690565b6000610804826110fd565b9050806001600160a01b0316836001600160a01b0316141561088e5760405162461bcd60e51b815260206004820152602160248201527f4552433732313a20617070726f76616c20746f2063757272656e74206f776e6560448201527f720000000000000000000000000000000000000000000000000000000000000060648201526084016107d4565b336001600160a01b03821614806108aa57506108aa8133610574565b61091c5760405162461bcd60e51b815260206004820152603860248201527f4552433732313a20617070726f76652063616c6c6572206973206e6f74206f7760448201527f6e6572206e6f7220617070726f76656420666f7220616c6c000000000000000060648201526084016107d4565b6109268383611e09565b505050565b600081815260156020526040812060080154819061094a9060016138c4565b60135461095791906138f0565b9392505050565b60003361096a846110fd565b6001600160a01b0316148015610990575033610985836110fd565b6001600160a01b0316145b61099957600080fd5b60008381526015602052604080822084835291206109b685610fb8565b6109bf57600080fd5b6109c884610fb8565b6109d157600080fd5b6002600c5460ff1660028111156109f857634e487b7160e01b600052602160045260246000fd5b14610b7d576040805180820191829052610a6391600485019060029082845b815481526020019060010190808311610a17575050604080518082019182905293506004870192506002915082845b815481526020019060010190808311610a46575050505050611e84565b610ad55760405162461bcd60e51b815260206004820152602860248201527f426c656e64696e67204e6f7420416c6c6f7765642057697468205369626c696e60448201527f67204c6567656e6400000000000000000000000000000000000000000000000060648201526084016107d4565b6001600c5460ff166002811115610afc57634e487b7160e01b600052602160045260246000fd5b14610b7d57610b0b8585611f4f565b610b7d5760405162461bcd60e51b815260206004820152602760248201527f426c656e64696e67204e6f7420416c6c6f776564205769746820506172656e7460448201527f204c6567656e640000000000000000000000000000000000000000000000000060648201526084016107d4565b60006002610b8a8661092b565b610b938861092b565b610b9d91906138c4565b610ba791906138dc565b9050600a60009054906101000a90046001600160a01b03166001600160a01b031663030032056040518163ffffffff1660e01b815260040160206040518083038186803b158015610bf757600080fd5b505afa158015610c0b573d6000803e3d6000fd5b505050506040513d601f19601f82011682018060405250810190610c2f9190613291565b6040517f9f87833f000000000000000000000000000000000000000000000000000000008152336004820152602481018390526001600160a01b039190911690639f87833f90604401600060405180830381600087803b158015610c9257600080fd5b505af1158015610ca6573d6000803e3d6000fd5b50505050610cb8600b80546001019055565b6000610cc3600b5490565b604080518082019091528881526020810188905290915060005b6002811015610dcd57600060156000848460028110610d0c57634e487b7160e01b600052603260045260246000fd5b6020020151815260200190815260200160002090506001816008016000828254610d3691906138c4565b925050819055506001816007016000828254610d5291906138c4565b909155506001905060186000858560028110610d7e57634e487b7160e01b600052603260045260246000fd5b60200201518152602001908152602001600020600086815260200190815260200160002060006101000a81548160ff021916908315150217905550508080610dc59061398d565b915050610cdd565b506000610e1483610de484845b6020020151611fa3565b610def856001610dda565b604051602001610e009291906135ea565b6040516020818303038152906040526120f9565b9050610e258a84848460008061215d565b87897f8f02af4ec019b401c0e9f3fd6c02b233d6d5d34ef5d13eed42d576aecc06766c85604051610e5891815260200190565b60405180910390a3509098975050505050505050565b610e7833826122f4565b610eea5760405162461bcd60e51b815260206004820152603160248201527f4552433732313a207472616e736665722063616c6c6572206973206e6f74206f60448201527f776e6572206e6f7220617070726f76656400000000000000000000000000000060648201526084016107d4565b6109268383836123e7565b6000610f0083611188565b8210610f745760405162461bcd60e51b815260206004820152602b60248201527f455243373231456e756d657261626c653a206f776e657220696e646578206f7560448201527f74206f6620626f756e647300000000000000000000000000000000000000000060648201526084016107d4565b506001600160a01b03919091166000908152600660209081526040808320938352929052205490565b610926838383604051806020016040528060008152506116e2565b601254600082815260156020526040812060070154909110156110435760405162461bcd60e51b815260206004820152602560248201527f4c6567656e64204861732052656163686564204d617820426c656e64696e672060448201527f536c6f747300000000000000000000000000000000000000000000000000000060648201526084016107d4565b506001919050565b600061105660085490565b82106110ca5760405162461bcd60e51b815260206004820152602c60248201527f455243373231456e756d657261626c653a20676c6f62616c20696e646578206f60448201527f7574206f6620626f756e6473000000000000000000000000000000000000000060648201526084016107d4565b600882815481106110eb57634e487b7160e01b600052603260045260246000fd5b90600052602060002001549050919050565b6000818152600260205260408120546001600160a01b0316806106c75760405162461bcd60e51b815260206004820152602960248201527f4552433732313a206f776e657220717565727920666f72206e6f6e657869737460448201527f656e7420746f6b656e000000000000000000000000000000000000000000000060648201526084016107d4565b60006001600160a01b0382166112065760405162461bcd60e51b815260206004820152602a60248201527f4552433732313a2062616c616e636520717565727920666f7220746865207a6560448201527f726f20616464726573730000000000000000000000000000000000000000000060648201526084016107d4565b506001600160a01b031660009081526003602052604090205490565b3361122c846110fd565b6001600160a01b03161461123f57600080fd5b61124883611408565b6112945760405162461bcd60e51b815260206004820152601f60248201527f4c6567656e64204e65656473204c6f6e67657220546f20496e6375626174650060448201526064016107d4565b60008381526015602090815260409182902060090180547fffffffffffffffffffff00ffffffffffffffffffffffffffffffffffffffffff16600160a81b1790558151601f840182900482028101820190925282825261131091859185908590819084018382808284376000920191909152506125cc92505050565b827f7212dd6ad91628f15bd648b9d774dd7ece843f5530043c4ccdf0784607ebbbb24260405161134291815260200190565b60405180910390a2505050565b61135885611498565b61136157600080fd5b600085815260156020526040902061137d906002018585612cc7565b50600085815260156020526040902061139a906003018383612cc7565b50847f06d4a29ec1d356093e05fa671c13569f2d68546579b6a8ec36b660db70ca390f858585856040516113d19493929190613709565b60405180910390a25050505050565b600a546001600160a01b031633146113f757600080fd5b611404600d826005612d4b565b5050565b600081815260156020526040812060090154600160a81b900460ff161561142e57600080fd5b60008281526017602052604090205460ff161561144d57506001919050565b601454600083815260156020526040812060060154909161146d916138c4565b9050804210156114805750600092915050565b50600192915050565b6060600180546106dc90613952565b6000336114a4836110fd565b6001600160a01b0316146114ba57506000919050565b600082815260156020526040902060090154600160a81b900460ff1661104357506000919050565b600a546001600160a01b031633146114f957600080fd5b6000828152601560205260408120600701805483929061151a90849061390f565b90915550505050565b3361152d826110fd565b6001600160a01b03161461154057600080fd5b611549816125eb565b6040518181527f82c02749330cd846562e337f0a18fb1266e17bac7290c5ccd1a7181d94bd65589060200160405180910390a150565b6001600160a01b0382163314156115d85760405162461bcd60e51b815260206004820152601960248201527f4552433732313a20617070726f766520746f2063616c6c65720000000000000060448201526064016107d4565b3360008181526005602090815260408083206001600160a01b03871680855290835292819020805460ff191686151590811790915590519081529192917f17307eab39ab6107e8899845ad3d59bd9653f200f220920489ca2b5937696c31910160405180910390a35050565b600a546001600160a01b0316331461165b57600080fd5b816116b5578061167e57600c80546000919060ff19166001835b02179055505050565b8060011415611698575050600c805460ff19166001179055565b806002141561140457600c80546002919060ff1916600183611675565b81600114156116c45760125550565b81600214156116d35760135550565b81600314156114045760145550565b6116ec33836122f4565b61175e5760405162461bcd60e51b815260206004820152603160248201527f4552433732313a207472616e736665722063616c6c6572206973206e6f74206f60448201527f776e6572206e6f7220617070726f76656400000000000000000000000000000060648201526084016107d4565b61176a8484848461269f565b50505050565b6000818152600260205260409020546060906001600160a01b03166117fd5760405162461bcd60e51b815260206004820152602f60248201527f4552433732314d657461646174613a2055524920717565727920666f72206e6f60448201527f6e6578697374656e7420746f6b656e000000000000000000000000000000000060648201526084016107d4565b600061181460408051602081019091526000815290565b905060008151116118345760405180602001604052806000815250610957565b8061183e84611fa3565b60405160200161184f9291906134e2565b6040516020818303038152906040529392505050565b600a546001600160a01b0316331461187c57600080fd5b6040805160208082018084526000808452858152601590925292902090516118aa9260029092019190612d97565b506040805160208082018084526000808452858152601590925292902090516114049260039092019190612d97565b6000818152600260205260409020546060906001600160a01b03166118fd57600080fd5b6000828152601660205260409020805461191690613952565b80601f016020809104026020016040519081016040528092919081815260200182805461194290613952565b801561198f5780601f106119645761010080835404028352916020019161198f565b820191906000526020600020905b81548152906001019060200180831161197257829003601f168201915b50505050509050919050565b600a546001600160a01b031633146119b257600080fd5b6119c0600b80546001019055565b60006119cb600b5490565b905060006040518060400160405280600081526020016000815250905060006119fc836119f787611fa3565b6120f9565b600a546040517f1b65cd30000000000000000000000000000000000000000000000000000000008152600481018890529192506000916001600160a01b0390911690631b65cd309060240160206040518083038186803b158015611a5f57600080fd5b505afa158015611a73573d6000803e3d6000fd5b505050506040513d601f19601f82011682018060405250810190611a97919061323d565b9050611aa787858585898661215d565b50505050505050565b611ab8612e0b565b6000828152600260205260409020546001600160a01b0316611ad957600080fd5b601560008381526020019081526020016000206040518061018001604052908160008201548152602001600182018054611b1290613952565b80601f0160208091040260200160405190810160405280929190818152602001828054611b3e90613952565b8015611b8b5780601f10611b6057610100808354040283529160200191611b8b565b820191906000526020600020905b815481529060010190602001808311611b6e57829003601f168201915b50505050508152602001600282018054611ba490613952565b80601f0160208091040260200160405190810160405280929190818152602001828054611bd090613952565b8015611c1d5780601f10611bf257610100808354040283529160200191611c1d565b820191906000526020600020905b815481529060010190602001808311611c0057829003601f168201915b50505050508152602001600382018054611c3690613952565b80601f0160208091040260200160405190810160405280929190818152602001828054611c6290613952565b8015611caf5780601f10611c8457610100808354040283529160200191611caf565b820191906000526020600020905b815481529060010190602001808311611c9257829003601f168201915b5050509183525050604080518082019182905260209092019190600484019060029082845b815481526020019060010190808311611cd45750505091835250506006820154602082015260078201546040820152600882015460608201526009909101546001600160a01b038116608083015260ff600160a01b82048116151560a0840152600160a81b82048116151560c084015276010000000000000000000000000000000000000000000090910416151560e09091015292915050565b60006001600160e01b031982167f80ac58cd000000000000000000000000000000000000000000000000000000001480611dd157506001600160e01b031982167f5b5e139f00000000000000000000000000000000000000000000000000000000145b806106c757507f01ffc9a7000000000000000000000000000000000000000000000000000000006001600160e01b03198316146106c7565b6000818152600460205260409020805473ffffffffffffffffffffffffffffffffffffffff19166001600160a01b0384169081179091558190611e4b826110fd565b6001600160a01b03167f8c5be1e5ebec7d5bd14f71427d1e84f3dd0314c0f7b2291e5b200ac8c7c3b92560405160405180910390a45050565b81516000901580611e9457508151155b15611ea1575060016106c7565b81604051602001611eb291906134ae565b6040516020818303038152906040528051906020012083604051602001611ed991906134ae565b6040516020818303038152906040528051906020012014158015610957575082604051602001611f0991906134ae565b6040516020818303038152906040528051906020012082604051602001611f3091906134ae565b6040516020818303038152906040528051906020012014159392505050565b600082815260186020908152604080832084845290915281205460ff1615611f79575060006106c7565b600082815260186020908152604080832086845290915290205460ff1615611480575060006106c7565b606081611fe357505060408051808201909152600181527f3000000000000000000000000000000000000000000000000000000000000000602082015290565b8160005b811561200d5780611ff78161398d565b91506120069050600a836138dc565b9150611fe7565b60008167ffffffffffffffff81111561203657634e487b7160e01b600052604160045260246000fd5b6040519080825280601f01601f191660200182016040528015612060576020820181803683370190505b5090505b84156120f15761207560018361390f565b9150612082600a866139a8565b61208d9060306138c4565b60f81b8183815181106120b057634e487b7160e01b600052603260045260246000fd5b60200101907effffffffffffffffffffffffffffffffffffffffffffffffffffffffffffff1916908160001a9053506120ea600a866138dc565b9450612064565b949350505050565b60606000612105612728565b905061211084611fa3565b600d826005811061213157634e487b7160e01b600052603260045260246000fd5b018460405160200161214593929190613511565b60405160208183030381529060405291505092915050565b6121678686612770565b83516000906121785750600061217b565b50855b600086815260156020526040808220888155600a5482517fe4eb23ae000000000000000000000000000000000000000000000000000000008152925191936001600160a01b039091169263e4eb23ae9260048083019392829003018186803b1580156121e657600080fd5b505afa1580156121fa573d6000803e3d6000fd5b505050506040513d6000823e601f3d908101601f1916820160405261222291908101906132ad565b8051612238916001840191602090910190612d97565b5061224860048201876002612e72565b504260068201556009810180546001600160a01b0384167fffffffffffffffffffffff00000000000000000000000000000000000000000090911617600160a01b861515021790556000878152601760205260409020805460ff19168415151790556122b487866125cc565b6040516001600160a01b0383169088907f79e5f511bb9bfc9228c8dcb92afe3487a0a2fb935727d236b1c9d0a4fb0ac5ef90600090a35050505050505050565b6000818152600260205260408120546001600160a01b031661236d5760405162461bcd60e51b815260206004820152602c60248201527f4552433732313a206f70657261746f7220717565727920666f72206e6f6e657860448201526b34b9ba32b73a103a37b5b2b760a11b60648201526084016107d4565b6000612378836110fd565b9050806001600160a01b0316846001600160a01b031614806123b35750836001600160a01b03166123a88461075f565b6001600160a01b0316145b806120f157506001600160a01b0380821660009081526005602090815260408083209388168352929052205460ff166120f1565b826001600160a01b03166123fa826110fd565b6001600160a01b0316146124765760405162461bcd60e51b815260206004820152602960248201527f4552433732313a207472616e73666572206f6620746f6b656e2074686174206960448201527f73206e6f74206f776e000000000000000000000000000000000000000000000060648201526084016107d4565b6001600160a01b0382166124f15760405162461bcd60e51b8152602060048201526024808201527f4552433732313a207472616e7366657220746f20746865207a65726f2061646460448201527f726573730000000000000000000000000000000000000000000000000000000060648201526084016107d4565b6124fc8383836128cb565b612507600082611e09565b6001600160a01b038316600090815260036020526040812080546001929061253090849061390f565b90915550506001600160a01b038216600090815260036020526040812080546001929061255e9084906138c4565b9091555050600081815260026020526040808220805473ffffffffffffffffffffffffffffffffffffffff19166001600160a01b0386811691821790925591518493918716917fddf252ad1be2c89b69c2b068fc378daa952ba7f163c4a11628f55a4df523b3ef91a4505050565b6000828152601660209081526040909120825161092692840190612d97565b60006125f6826110fd565b9050612604816000846128cb565b61260f600083611e09565b6001600160a01b038116600090815260036020526040812080546001929061263890849061390f565b9091555050600082815260026020526040808220805473ffffffffffffffffffffffffffffffffffffffff19169055518391906001600160a01b038416907fddf252ad1be2c89b69c2b068fc378daa952ba7f163c4a11628f55a4df523b3ef908390a45050565b6126aa8484846123e7565b6126b684848484612983565b61176a5760405162461bcd60e51b815260206004820152603260248201527f4552433732313a207472616e7366657220746f206e6f6e20455243373231526560448201527f63656976657220696d706c656d656e746572000000000000000000000000000060648201526084016107d4565b600060054442604051602001612748929190918252602082015260400190565b6040516020818303038152906040528051906020012060001c61276b91906139a8565b905090565b6001600160a01b0382166127c65760405162461bcd60e51b815260206004820181905260248201527f4552433732313a206d696e7420746f20746865207a65726f206164647265737360448201526064016107d4565b6000818152600260205260409020546001600160a01b03161561282b5760405162461bcd60e51b815260206004820152601c60248201527f4552433732313a20746f6b656e20616c7265616479206d696e7465640000000060448201526064016107d4565b612837600083836128cb565b6001600160a01b03821660009081526003602052604081208054600192906128609084906138c4565b9091555050600081815260026020526040808220805473ffffffffffffffffffffffffffffffffffffffff19166001600160a01b03861690811790915590518392907fddf252ad1be2c89b69c2b068fc378daa952ba7f163c4a11628f55a4df523b3ef908290a45050565b6001600160a01b0383166129265761292181600880546000838152600960205260408120829055600182018355919091527ff3f7a9fe364faab93b216da50a3214154f22a0a2b415b23a84c8169e8b636ee30155565b612949565b816001600160a01b0316836001600160a01b031614612949576129498382612ae6565b6001600160a01b0382166129605761092681612b83565b826001600160a01b0316826001600160a01b031614610926576109268282612c5c565b60006001600160a01b0384163b15612adb57604051630a85bd0160e11b81526001600160a01b0385169063150b7a02906129c7903390899088908890600401613642565b602060405180830381600087803b1580156129e157600080fd5b505af1925050508015612a11575060408051601f3d908101601f19168201909252612a0e91810190613275565b60015b612ac1573d808015612a3f576040519150601f19603f3d011682016040523d82523d6000602084013e612a44565b606091505b508051612ab95760405162461bcd60e51b815260206004820152603260248201527f4552433732313a207472616e7366657220746f206e6f6e20455243373231526560448201527f63656976657220696d706c656d656e746572000000000000000000000000000060648201526084016107d4565b805181602001fd5b6001600160e01b031916630a85bd0160e11b1490506120f1565b506001949350505050565b60006001612af384611188565b612afd919061390f565b600083815260076020526040902054909150808214612b50576001600160a01b03841660009081526006602090815260408083208584528252808320548484528184208190558352600790915290208190555b5060009182526007602090815260408084208490556001600160a01b039094168352600681528383209183525290812055565b600854600090612b959060019061390f565b60008381526009602052604081205460088054939450909284908110612bcb57634e487b7160e01b600052603260045260246000fd5b906000526020600020015490508060088381548110612bfa57634e487b7160e01b600052603260045260246000fd5b6000918252602080832090910192909255828152600990915260408082208490558582528120556008805480612c4057634e487b7160e01b600052603160045260246000fd5b6001900381819060005260206000200160009055905550505050565b6000612c6783611188565b6001600160a01b039093166000908152600660209081526040808320868452825280832085905593825260079052919091209190915550565b6040518060a001604052806005905b6060815260200190600190039081612caf5790505090565b828054612cd390613952565b90600052602060002090601f016020900481019282612cf55760008555612d3b565b82601f10612d0e5782800160ff19823516178555612d3b565b82800160010185558215612d3b579182015b82811115612d3b578235825591602001919060010190612d20565b50612d47929150612e9f565b5090565b8260058101928215612d8b579160200282015b82811115612d8b5782518051612d7b918491602090910190612d97565b5091602001919060010190612d5e565b50612d47929150612eb4565b828054612da390613952565b90600052602060002090601f016020900481019282612dc55760008555612d3b565b82601f10612dde57805160ff1916838001178555612d3b565b82800160010185558215612d3b579182015b82811115612d3b578251825591602001919060010190612df0565b60405180610180016040528060008152602001606081526020016060815260200160608152602001612e3b612ed1565b815260006020820181905260408201819052606082018190526080820181905260a0820181905260c0820181905260e09091015290565b8260028101928215612d3b5791602002820182811115612d3b578251825591602001919060010190612df0565b5b80821115612d475760008155600101612ea0565b80821115612d47576000612ec88282612eef565b50600101612eb4565b60405180604001604052806002906020820280368337509192915050565b508054612efb90613952565b6000825580601f10612f0b575050565b601f016020900490600052602060002090810190612f299190612e9f565b50565b6000612f3f612f3a8461389c565b61386b565b9050828152838383011115612f5357600080fd5b828260208301376000602084830101529392505050565b60008083601f840112612f7b578182fd5b50813567ffffffffffffffff811115612f92578182fd5b602083019150836020828501011115612faa57600080fd5b9250929050565b600060208284031215612fc2578081fd5b8135610957816139fe565b60008060408385031215612fdf578081fd5b8235612fea816139fe565b91506020830135612ffa816139fe565b809150509250929050565b600080600060608486031215613019578081fd5b8335613024816139fe565b92506020840135613034816139fe565b929592945050506040919091013590565b6000806000806080858703121561305a578081fd5b8435613065816139fe565b93506020850135613075816139fe565b925060408501359150606085013567ffffffffffffffff811115613097578182fd5b8501601f810187136130a7578182fd5b6130b687823560208401612f2c565b91505092959194509250565b600080604083850312156130d4578182fd5b82356130df816139fe565b91506020830135612ffa81613a13565b60008060408385031215613101578182fd5b823561310c816139fe565b946020939093013593505050565b60008060006060848603121561312e578283fd5b8335613139816139fe565b925060208401359150604084013561315081613a13565b809150509250925092565b60008060006060848603121561316f578081fd5b833561317a816139fe565b95602085013595506040909401359392505050565b600060208083850312156131a1578182fd5b823567ffffffffffffffff808211156131b8578384fd5b8185019150601f86818401126131cc578485fd5b6131d4613842565b80848960a0870111156131e5578788fd5b875b600581101561322e578135868111156131fe57898afd5b87018581018c1361320d57898afd5b61321b8c82358b8401612f2c565b85525092870192908701906001016131e7565b50909998505050505050505050565b60006020828403121561324e578081fd5b815161095781613a13565b60006020828403121561326a578081fd5b813561095781613a21565b600060208284031215613286578081fd5b815161095781613a21565b6000602082840312156132a2578081fd5b8151610957816139fe565b6000602082840312156132be578081fd5b815167ffffffffffffffff8111156132d4578182fd5b8201601f810184136132e4578182fd5b80516132f2612f3a8261389c565b818152856020838501011115613306578384fd5b613317826020830160208601613926565b95945050505050565b600060208284031215613331578081fd5b5035919050565b60008060006040848603121561334c578081fd5b83359250602084013567ffffffffffffffff811115613369578182fd5b61337586828701612f6a565b9497909650939450505050565b600080600080600060608688031215613399578283fd5b85359450602086013567ffffffffffffffff808211156133b7578485fd5b6133c389838a01612f6a565b909650945060408801359150808211156133db578283fd5b506133e888828901612f6a565b969995985093965092949392505050565b6000806040838503121561340b578182fd5b50508035926020909101359150565b8060005b600281101561176a57815184526020938401939091019060010161341e565b60008151808452613455816020860160208601613926565b601f01601f19169290920160200192915050565b81835281816020850137506000828201602090810191909152601f909101601f19169091010190565b600081516134a4818560208601613926565b9290920192915050565b60008183825b60028110156134d35781518352602092830192909101906001016134b4565b50505060408201905092915050565b600083516134f4818460208801613926565b835190830190613508818360208801613926565b01949350505050565b6000845160206135248285838a01613926565b600b60fa1b9184019182528554600190849080831c8184168061354857607f821691505b85821081141561356657634e487b7160e01b88526022600452602488fd5b80801561357a576001811461358f576135bf565b60ff19841688870152828801860194506135bf565b60008c815260209020895b848110156135b55781548a820189015290870190880161359a565b5050858389010194505b505050506135dd6135d782600b60fa1b815260010190565b88613492565b9998505050505050505050565b600083516135fc818460208801613926565b7f2b000000000000000000000000000000000000000000000000000000000000009083019081528351613636816001840160208801613926565b01600101949350505050565b60006001600160a01b03808716835280861660208401525083604083015260806060830152613674608083018461343d565b9695505050505050565b602080825260009060c0830183820185845b60058110156136bf57601f198785030183526136ad84835161343d565b93509184019190840190600101613690565b50919695505050505050565b60808101600386106136ed57634e487b7160e01b600052602160045260246000fd5b9481526020810193909352604083019190915260609091015290565b60408152600061371d604083018688613469565b8281036020840152613730818587613469565b979650505050505050565b602081526000610957602083018461343d565b6020815281516020820152600060208301516101a08060408501526137776101c085018361343d565b91506040850151601f1980868503016060870152613795848361343d565b93506060870151915080868503016080870152506137b3838261343d565b92505060808501516137c860a086018261341a565b5060a085015160e085015260c0850151610100818187015260e087015191506101208281880152818801519250610140915061380e828801846001600160a01b03169052565b87015191506101606138238782018415159052565b9087015115156101808701529590950151151593019290925250919050565b60405160a0810167ffffffffffffffff81118282101715613865576138656139e8565b60405290565b604051601f8201601f1916810167ffffffffffffffff81118282101715613894576138946139e8565b604052919050565b600067ffffffffffffffff8211156138b6576138b66139e8565b50601f01601f191660200190565b600082198211156138d7576138d76139bc565b500190565b6000826138eb576138eb6139d2565b500490565b600081600019048311821515161561390a5761390a6139bc565b500290565b600082821015613921576139216139bc565b500390565b60005b83811015613941578181015183820152602001613929565b8381111561176a5750506000910152565b600181811c9082168061396657607f821691505b6020821081141561398757634e487b7160e01b600052602260045260246000fd5b50919050565b60006000198214156139a1576139a16139bc565b5060010190565b6000826139b7576139b76139d2565b500690565b634e487b7160e01b600052601160045260246000fd5b634e487b7160e01b600052601260045260246000fd5b634e487b7160e01b600052604160045260246000fd5b6001600160a01b0381168114612f2957600080fd5b8015158114612f2957600080fd5b6001600160e01b031981168114612f2957600080fdfea26469706673582212204ca2261c71301f3a3569749135192450ad8a10f10773ecdfb25d9a2a44c5a04e64736f6c63430008040033697066733a2f2f516d657769556e437436636761646d6369344d3273326a6e444e7831793567545132516935455834455842624e47",
  "linkReferences": {},
  "deployedLinkReferences": {}
}