{
  "_format": "hh-sol-artifact-1",
  "contractName": "LegendsMatchingBoard",
  "sourceName": "contracts/matching/LegendsMatchingBoard.sol",
  "abi": [
    {
      "inputs": [],
      "stateMutability": "nonpayable",
      "type": "constructor"
    },
    {
      "anonymous": false,
      "inputs": [
        {
          "indexed": true,
          "internalType": "uint256",
          "name": "matchingId",
          "type": "uint256"
        },
        {
          "indexed": true,
          "internalType": "uint256",
          "name": "legendId",
          "type": "uint256"
        },
        {
          "indexed": false,
          "internalType": "bool",
          "name": "isRelisted",
          "type": "bool"
        }
      ],
      "name": "DecideRelisting",
      "type": "event"
    },
    {
      "anonymous": false,
      "inputs": [
        {
          "indexed": true,
          "internalType": "address",
          "name": "recipient",
          "type": "address"
        },
        {
          "indexed": false,
          "internalType": "uint256",
          "name": "matchingId",
          "type": "uint256"
        },
        {
          "indexed": false,
          "internalType": "uint256",
          "name": "childId",
          "type": "uint256"
        }
      ],
      "name": "EggClaimed",
      "type": "event"
    },
    {
      "anonymous": false,
      "inputs": [
        {
          "indexed": true,
          "internalType": "uint256",
          "name": "matchingId",
          "type": "uint256"
        },
        {
          "indexed": true,
          "internalType": "uint256",
          "name": "parent1",
          "type": "uint256"
        },
        {
          "indexed": true,
          "internalType": "uint256",
          "name": "parent2",
          "type": "uint256"
        },
        {
          "indexed": false,
          "internalType": "uint256",
          "name": "childId",
          "type": "uint256"
        },
        {
          "indexed": false,
          "internalType": "uint256",
          "name": "price",
          "type": "uint256"
        }
      ],
      "name": "MatchMade",
      "type": "event"
    },
    {
      "anonymous": false,
      "inputs": [
        {
          "indexed": true,
          "internalType": "uint256",
          "name": "matchingId",
          "type": "uint256"
        },
        {
          "indexed": false,
          "internalType": "enum ILegendMatch.MatchingStatus",
          "name": "status",
          "type": "uint8"
        }
      ],
      "name": "MatchingStatusChanged",
      "type": "event"
    },
    {
      "anonymous": false,
      "inputs": [
        {
          "indexed": true,
          "internalType": "address",
          "name": "payee",
          "type": "address"
        },
        {
          "indexed": false,
          "internalType": "uint256",
          "name": "amount",
          "type": "uint256"
        }
      ],
      "name": "TokensClaimed",
      "type": "event"
    },
    {
      "inputs": [
        {
          "internalType": "uint256",
          "name": "matchingId",
          "type": "uint256"
        }
      ],
      "name": "cancelLegendMatching",
      "outputs": [],
      "stateMutability": "nonpayable",
      "type": "function"
    },
    {
      "inputs": [
        {
          "internalType": "uint256",
          "name": "matchingId",
          "type": "uint256"
        }
      ],
      "name": "claimEgg",
      "outputs": [],
      "stateMutability": "nonpayable",
      "type": "function"
    },
    {
      "inputs": [],
      "name": "claimTokens",
      "outputs": [],
      "stateMutability": "nonpayable",
      "type": "function"
    },
    {
      "inputs": [
        {
          "internalType": "address",
          "name": "nftContract",
          "type": "address"
        },
        {
          "internalType": "uint256",
          "name": "legendId",
          "type": "uint256"
        },
        {
          "internalType": "uint256",
          "name": "price",
          "type": "uint256"
        }
      ],
      "name": "createLegendMatching",
      "outputs": [],
      "stateMutability": "nonpayable",
      "type": "function"
    },
    {
      "inputs": [
        {
          "internalType": "uint256",
          "name": "matchingId",
          "type": "uint256"
        },
        {
          "internalType": "bool",
          "name": "isRelisted",
          "type": "bool"
        }
      ],
      "name": "decideMatchingRelist",
      "outputs": [],
      "stateMutability": "nonpayable",
      "type": "function"
    },
    {
      "inputs": [
        {
          "internalType": "uint256",
          "name": "matchingId",
          "type": "uint256"
        }
      ],
      "name": "fetchEggOwed",
      "outputs": [
        {
          "internalType": "uint256",
          "name": "",
          "type": "uint256"
        }
      ],
      "stateMutability": "view",
      "type": "function"
    },
    {
      "inputs": [
        {
          "internalType": "uint256",
          "name": "matchingId",
          "type": "uint256"
        }
      ],
      "name": "fetchLegendMatching",
      "outputs": [
        {
          "components": [
            {
              "internalType": "uint256",
              "name": "matchingId",
              "type": "uint256"
            },
            {
              "internalType": "uint256",
              "name": "createdAt",
              "type": "uint256"
            },
            {
              "internalType": "address",
              "name": "nftContract",
              "type": "address"
            },
            {
              "internalType": "address",
              "name": "surrogate",
              "type": "address"
            },
            {
              "internalType": "uint256",
              "name": "surrogateLegend",
              "type": "uint256"
            },
            {
              "internalType": "address",
              "name": "blender",
              "type": "address"
            },
            {
              "internalType": "uint256",
              "name": "blenderLegend",
              "type": "uint256"
            },
            {
              "internalType": "uint256",
              "name": "childId",
              "type": "uint256"
            },
            {
              "internalType": "uint256",
              "name": "price",
              "type": "uint256"
            },
            {
              "internalType": "enum ILegendMatch.MatchingStatus",
              "name": "status",
              "type": "uint8"
            }
          ],
          "internalType": "struct ILegendMatch.LegendMatching",
          "name": "",
          "type": "tuple"
        }
      ],
      "stateMutability": "view",
      "type": "function"
    },
    {
      "inputs": [],
      "name": "fetchMatchingCounts",
      "outputs": [
        {
          "components": [
            {
              "internalType": "uint256",
              "name": "_value",
              "type": "uint256"
            }
          ],
          "internalType": "struct Counters.Counter",
          "name": "",
          "type": "tuple"
        },
        {
          "components": [
            {
              "internalType": "uint256",
              "name": "_value",
              "type": "uint256"
            }
          ],
          "internalType": "struct Counters.Counter",
          "name": "",
          "type": "tuple"
        },
        {
          "components": [
            {
              "internalType": "uint256",
              "name": "_value",
              "type": "uint256"
            }
          ],
          "internalType": "struct Counters.Counter",
          "name": "",
          "type": "tuple"
        }
      ],
      "stateMutability": "view",
      "type": "function"
    },
    {
      "inputs": [],
      "name": "fetchTokensPending",
      "outputs": [
        {
          "internalType": "uint256",
          "name": "",
          "type": "uint256"
        }
      ],
      "stateMutability": "view",
      "type": "function"
    },
    {
      "inputs": [
        {
          "internalType": "uint256",
          "name": "matchingId",
          "type": "uint256"
        },
        {
          "internalType": "uint256",
          "name": "legendId",
          "type": "uint256"
        }
      ],
      "name": "matchWithLegend",
      "outputs": [],
      "stateMutability": "nonpayable",
      "type": "function"
    }
  ],
  "bytecode": "0x608060405234801561001057600080fd5b506001600655600780546001600160a01b03191633179055612009806100376000396000f3fe608060405234801561001057600080fd5b50600436106100be5760003560e01c806348c54b9d11610076578063a3ac75b31161005b578063a3ac75b3146101aa578063ce1109fb146101bd578063dae7d1d8146101dc57600080fd5b806348c54b9d1461018f578063556fa5251461019757600080fd5b80632014a935116100a75780632014a93514610149578063401537911461015c578063405c81e91461016f57600080fd5b8063050bf88e146100c357806308c8aec2146100d8575b600080fd5b6100d66100d1366004611e06565b6101ef565b005b610128604080516020808201835260009182905282518082018452829052825180820184528290528251808201845291548252825180820184526001548152835191820190935260025481529092565b60408051935184529151602084015251908201526060015b60405180910390f35b6100d6610157366004611d93565b610484565b6100d661016a366004611e65565b610708565b61018261017d366004611e06565b610f38565b6040516101409190611ebc565b6100d6611074565b6100d66101a5366004611e06565b611293565b6100d66101b8366004611e36565b611671565b336000908152600460205260409020545b604051908152602001610140565b6101ce6101ea366004611e06565b6119ee565b600260065414156102475760405162461bcd60e51b815260206004820152601f60248201527f5265656e7472616e637947756172643a207265656e7472616e742063616c6c0060448201526064015b60405180910390fd5b60026006818155600083815260036020818152604080842081516101408101835281548152600182015493810193909352958601546001600160a01b039081169183019190915285830154811660608301526004860154608083015260058601541660a08201529284015460c0840152600784015460e08401526008840154610100840152600984015491939161012084019160ff909116908111156102fd57634e487b7160e01b600052602160045260246000fd5b600381111561031c57634e487b7160e01b600052602160045260246000fd5b81525050905080606001516001600160a01b0316336001600160a01b0316146103875760405162461bcd60e51b815260206004820152601a60248201527f43616c6c657220446964204e6f74204c697374204c6567656e64000000000000604482015260640161023e565b600181610120015160038111156103ae57634e487b7160e01b600052602160045260246000fd5b146103fb5760405162461bcd60e51b815260206004820152601860248201527f4c6567656e64204d61746368696e67204e6f74204f70656e0000000000000000604482015260640161023e565b61040482611ad1565b604080820151606083015160808401519251632142170760e11b81523060048201526001600160a01b039182166024820152604481019390935216906342842e0e90606401600060405180830381600087803b15801561046357600080fd5b505af1158015610477573d6000803e3d6000fd5b5050600160065550505050565b600260065414156104d75760405162461bcd60e51b815260206004820152601f60248201527f5265656e7472616e637947756172643a207265656e7472616e742063616c6c00604482015260640161023e565b600260065560075460405163267a961160e21b81526004810184905284916001600160a01b0316906399ea58449060240160206040518083038186803b15801561052057600080fd5b505afa158015610534573d6000803e3d6000fd5b505050506040513d601f19601f820116820180604052508101906105589190611dc7565b6105ba5760405162461bcd60e51b815260206004820152602d60248201527f43616c6c6572204973204e6f74204f776e6572204f72204c6567656e6420486160448201526c1cc8139bdd0812185d18da1959609a1b606482015260840161023e565b600754604051630478c5ef60e41b8152600481018590526001600160a01b039091169063478c5ef09060240160206040518083038186803b1580156105fe57600080fd5b505afa158015610612573d6000803e3d6000fd5b505050506040513d601f19601f820116820180604052508101906106369190611dc7565b61063f57600080fd5b8161068c5760405162461bcd60e51b815260206004820152601260248201527f50726963652043616e204e6f7420426520300000000000000000000000000000604482015260640161023e565b6040516323b872dd60e01b8152336004820152306024820152604481018490526001600160a01b038216906323b872dd90606401600060405180830381600087803b1580156106da57600080fd5b505af11580156106ee573d6000803e3d6000fd5b505050506106fd848484611b35565b505060016006555050565b6002600654141561075b5760405162461bcd60e51b815260206004820152601f60248201527f5265656e7472616e637947756172643a207265656e7472616e742063616c6c00604482015260640161023e565b60026006818155600084815260036020818152604080842081516101408101835281548152600182015493810193909352958601546001600160a01b039081169183019190915285830154811660608301526004860154608083015260058601541660a08201529284015460c0840152600784015460e08401526008840154610100840152600984015491939161012084019160ff9091169081111561081157634e487b7160e01b600052602160045260246000fd5b600381111561083057634e487b7160e01b600052602160045260246000fd5b90525060408101519091506001826101200151600381111561086257634e487b7160e01b600052602160045260246000fd5b146108af5760405162461bcd60e51b815260206004820152601860248201527f4c6567656e64204d61746368696e67204e6f74204f70656e0000000000000000604482015260640161023e565b60608201516001600160a01b03163314156109325760405162461bcd60e51b815260206004820152602e60248201527f53656c6c6572204e6f7420417574686f72697a656420546f205075726368617360448201527f65204f776e204d61746368696e67000000000000000000000000000000000000606482015260840161023e565b60075460405163267a961160e21b8152600481018590526001600160a01b03909116906399ea58449060240160206040518083038186803b15801561097657600080fd5b505afa15801561098a573d6000803e3d6000fd5b505050506040513d601f19601f820116820180604052508101906109ae9190611dc7565b610a105760405162461bcd60e51b815260206004820152602d60248201527f43616c6c6572204973204e6f74204f776e6572204f72204c6567656e6420486160448201526c1cc8139bdd0812185d18da1959609a1b606482015260840161023e565b600754604051630478c5ef60e41b8152600481018590526001600160a01b039091169063478c5ef09060240160206040518083038186803b158015610a5457600080fd5b505afa158015610a68573d6000803e3d6000fd5b505050506040513d601f19601f82011682018060405250810190610a8c9190611dc7565b610a9557600080fd5b6040516323b872dd60e01b8152336004820152306024820152604481018490526001600160a01b038216906323b872dd90606401600060405180830381600087803b158015610ae357600080fd5b505af1158015610af7573d6000803e3d6000fd5b5050600754604051630264caef60e21b81526004810187905260009350600292506001600160a01b03909116906309932bbc9060240160206040518083038186803b158015610b4557600080fd5b505afa158015610b59573d6000803e3d6000fd5b505050506040513d601f19601f82011682018060405250810190610b7d9190611e1e565b6007546080860151604051630264caef60e21b81526001600160a01b03909216916309932bbc91610bb49160040190815260200190565b60206040518083038186803b158015610bcc57600080fd5b505afa158015610be0573d6000803e3d6000fd5b505050506040513d601f19601f82011682018060405250810190610c049190611e1e565b610c0e9190611f69565b610c189190611f8d565b9050600081846101000151610c2d9190611f69565b9050600760009054906101000a90046001600160a01b03166001600160a01b031663030032056040518163ffffffff1660e01b815260040160206040518083038186803b158015610c7d57600080fd5b505afa158015610c91573d6000803e3d6000fd5b505050506040513d601f19601f82011682018060405250810190610cb59190611dea565b6040516323b872dd60e01b8152336004820152306024820152604481018390526001600160a01b0391909116906323b872dd90606401602060405180830381600087803b158015610d0557600080fd5b505af1158015610d19573d6000803e3d6000fd5b505050506040513d601f19601f82011682018060405250810190610d3d9190611dc7565b5060075460408051631944f20d60e01b815290516000926001600160a01b031691631944f20d916004808301926020929190829003018186803b158015610d8357600080fd5b505afa158015610d97573d6000803e3d6000fd5b505050506040513d601f19601f82011682018060405250810190610dbb9190611dea565b60808601516040517f1b4c46fb0000000000000000000000000000000000000000000000000000000081523060048201526024810191909152604481018890526001600160a01b039190911690631b4c46fb90606401602060405180830381600087803b158015610e2b57600080fd5b505af1158015610e3f573d6000803e3d6000fd5b505050506040513d601f19601f82011682018060405250810190610e639190611e1e565b9050610e728733888486611c06565b604051632142170760e11b8152306004820152336024820152604481018790526001600160a01b038516906342842e0e90606401600060405180830381600087803b158015610ec057600080fd5b505af1158015610ed4573d6000803e3d6000fd5b505050508460c001518560800151887f16251362edd8a93df20396d15d45d3d5cf509f3e3a252a69ddfcd1167ef4187a84896101000151604051610f22929190918252602082015260400190565b60405180910390a4505060016006555050505050565b610f40611d07565b81610f4a60005490565b811015610f995760405162461bcd60e51b815260206004820152601560248201527f4d61746368696e67204944204e6f742056616c69640000000000000000000000604482015260640161023e565b6000838152600360208181526040928390208351610140810185528154815260018201549281019290925260028101546001600160a01b0390811694830194909452808301548416606083015260048101546080830152600581015490931660a0820152600683015460c0820152600783015460e08201526008830154610100820152600983015490929161012084019160ff169081111561104b57634e487b7160e01b600052602160045260246000fd5b600381111561106a57634e487b7160e01b600052602160045260246000fd5b9052509392505050565b600260065414156110c75760405162461bcd60e51b815260206004820152601f60248201527f5265656e7472616e637947756172643a207265656e7472616e742063616c6c00604482015260640161023e565b600260065533600090815260046020526040902054806111295760405162461bcd60e51b815260206004820152601d60248201527f41646472657373204973204f7765642030204c474e4420546f6b656e73000000604482015260640161023e565b3360009081526004602081815260408084209390935560075483517f0300320500000000000000000000000000000000000000000000000000000000815293516001600160a01b0390911693630300320593818101939291829003018186803b15801561119557600080fd5b505afa1580156111a9573d6000803e3d6000fd5b505050506040513d601f19601f820116820180604052508101906111cd9190611dea565b6040516323b872dd60e01b8152306004820152336024820152604481018390526001600160a01b0391909116906323b872dd90606401602060405180830381600087803b15801561121d57600080fd5b505af1158015611231573d6000803e3d6000fd5b505050506040513d601f19601f820116820180604052508101906112559190611dc7565b5060405181815233907f896e034966eaaf1adc54acc0f257056febbd300c9e47182cf761982cf1f5e4309060200160405180910390a2506001600655565b600260065414156112e65760405162461bcd60e51b815260206004820152601f60248201527f5265656e7472616e637947756172643a207265656e7472616e742063616c6c00604482015260640161023e565b60026006818155600083815260036020818152604080842081516101408101835281548152600182015493810193909352958601546001600160a01b039081169183019190915285830154811660608301526004860154608083015260058601541660a08201529284015460c0840152600784015460e08401526008840154610100840152600984015491939161012084019160ff9091169081111561139c57634e487b7160e01b600052602160045260246000fd5b60038111156113bb57634e487b7160e01b600052602160045260246000fd5b8152505090508060a001516001600160a01b0316336001600160a01b0316146114265760405162461bcd60e51b815260206004820181905260248201527f43616c6c657220446964204e6f74205075726368617365204d61746368696e67604482015260640161023e565b6002816101200151600381111561144d57634e487b7160e01b600052602160045260246000fd5b1461149a5760405162461bcd60e51b815260206004820152601a60248201527f4c6567656e64204d61746368696e67204e6f7420436c6f736564000000000000604482015260640161023e565b600082815260056020908152604080832060a08501516001600160a01b031684529091529020548061150e5760405162461bcd60e51b815260206004820152601360248201527f45676720416c726561647920436c61696d656400000000000000000000000000604482015260640161023e565b600083815260056020908152604080832060a08601516001600160a01b039081168552908352818420939093556007548151631944f20d60e01b81529151931692631944f20d92600480840193919291829003018186803b15801561157257600080fd5b505afa158015611586573d6000803e3d6000fd5b505050506040513d601f19601f820116820180604052508101906115aa9190611dea565b60a0830151604051632142170760e11b81523060048201526001600160a01b039182166024820152604481018490529116906342842e0e90606401600060405180830381600087803b1580156115ff57600080fd5b505af1158015611613573d6000803e3d6000fd5b505050508160a001516001600160a01b03167fce9c280f977ed75885e90ec68f12c7aec51eb9c386cb1d07016a03fc4f13180d848360405161165f929190918252602082015260400190565b60405180910390a25050600160065550565b600260065414156116c45760405162461bcd60e51b815260206004820152601f60248201527f5265656e7472616e637947756172643a207265656e7472616e742063616c6c00604482015260640161023e565b60026006818155600084815260036020818152604080842081516101408101835281548152600182015493810193909352958601546001600160a01b039081169183019190915285830154811660608301526004860154608083015260058601541660a08201529284015460c0840152600784015460e08401526008840154610100840152600984015491939161012084019160ff9091169081111561177a57634e487b7160e01b600052602160045260246000fd5b600381111561179957634e487b7160e01b600052602160045260246000fd5b81525050905080606001516001600160a01b0316336001600160a01b0316146118045760405162461bcd60e51b815260206004820152601a60248201527f43616c6c657220446964204e6f74204c697374204c6567656e64000000000000604482015260640161023e565b6002816101200151600381111561182b57634e487b7160e01b600052602160045260246000fd5b146118785760405162461bcd60e51b815260206004820152601a60248201527f4c6567656e64204d61746368696e67204e6f7420436c6f736564000000000000604482015260640161023e565b811561192b576007546080820151604051630478c5ef60e41b81526001600160a01b039092169163478c5ef0916118b59160040190815260200190565b60206040518083038186803b1580156118cd57600080fd5b505afa1580156118e1573d6000803e3d6000fd5b505050506040513d601f19601f820116820180604052508101906119059190611dc7565b61190e57600080fd5b61192681604001518260800151836101000151611b35565b6119a3565b604080820151606083015160808401519251632142170760e11b81523060048201526001600160a01b039182166024820152604481019390935216906342842e0e90606401600060405180830381600087803b15801561198a57600080fd5b505af115801561199e573d6000803e3d6000fd5b505050505b8060800151837f4ecb8f58050aa11f1a1531513aa66b708b2a7bd62c37e0195be72300da48677c846040516119dc911515815260200190565b60405180910390a35050600160065550565b6000816119fa60005490565b811015611a495760405162461bcd60e51b815260206004820152601560248201527f4d61746368696e67204944204e6f742056616c69640000000000000000000000604482015260640161023e565b6000838152600360205260409020600501546001600160a01b03163314611ab25760405162461bcd60e51b815260206004820152601f60248201527f43616c6c657220446964204e6f74205075726368617365204c697374696e6700604482015260640161023e565b5050600090815260056020908152604080832033845290915290205490565b6000818152600360208190526040909120600901805460ff19169091179055600280546001019055807f19ca3c8e697c2730c0ea245a0d6b6fbf54dd90f12bed2a09690b30a6a0b17ff96003604051611b2a9190611ea8565b60405180910390a250565b611b43600080546001019055565b6000805480825260036020819052604092839020828155426001808301919091556002820180546001600160a01b038a1673ffffffffffffffffffffffffffffffffffffffff19918216179091559282018054841633179055600482018790556005820180549093169092556008810185905560098101805460ff191683179055925191929183917f19ca3c8e697c2730c0ea245a0d6b6fbf54dd90f12bed2a09690b30a6a0b17ff991611bf79190611ea8565b60405180910390a25050505050565b600085815260036020526040902060058101805473ffffffffffffffffffffffffffffffffffffffff19166001600160a01b03871617905560068101849055600781018390556009810180546002919060ff1916600183021790555060038101546001600160a01b031660009081526004602052604081208054849290611c8e908490611f69565b909155505060008681526005602090815260408083206001600160a01b03891684529091529020839055611cc6600180546001019055565b857f19ca3c8e697c2730c0ea245a0d6b6fbf54dd90f12bed2a09690b30a6a0b17ff96002604051611cf79190611ea8565b60405180910390a2505050505050565b604051806101400160405280600081526020016000815260200160006001600160a01b0316815260200160006001600160a01b031681526020016000815260200160006001600160a01b0316815260200160008152602001600081526020016000815260200160006003811115611d8e57634e487b7160e01b600052602160045260246000fd5b905290565b600080600060608486031215611da7578283fd5b8335611db281611fad565b95602085013595506040909401359392505050565b600060208284031215611dd8578081fd5b8151611de381611fc5565b9392505050565b600060208284031215611dfb578081fd5b8151611de381611fad565b600060208284031215611e17578081fd5b5035919050565b600060208284031215611e2f578081fd5b5051919050565b60008060408385031215611e48578182fd5b823591506020830135611e5a81611fc5565b809150509250929050565b60008060408385031215611e77578182fd5b50508035926020909101359150565b60048110611ea457634e487b7160e01b600052602160045260246000fd5b9052565b60208101611eb68284611e86565b92915050565b60006101408201905082518252602083015160208301526040830151611eed60408401826001600160a01b03169052565b506060830151611f0860608401826001600160a01b03169052565b506080830151608083015260a0830151611f2d60a08401826001600160a01b03169052565b5060c083015160c083015260e083015160e083015261010080840151818401525061012080840151611f6182850182611e86565b505092915050565b60008219821115611f8857634e487b7160e01b81526011600452602481fd5b500190565b600082611fa857634e487b7160e01b81526012600452602481fd5b500490565b6001600160a01b0381168114611fc257600080fd5b50565b8015158114611fc257600080fdfea2646970667358221220a3d4b923c643e3d88fbaa92243bf9bb345019cb205412838ebbfbffec77b43c764736f6c63430008040033",
  "linkReferences": {},
  "deployedLinkReferences": {}
}